{
  "contractName": "Pisi",
  "abi": [
    {
      "constant": true,
      "inputs": [
        {
          "name": "interfaceId",
          "type": "bytes4"
        }
      ],
      "name": "supportsInterface",
      "outputs": [
        {
          "name": "",
          "type": "bool"
        }
      ],
      "payable": false,
      "stateMutability": "view",
      "type": "function",
      "signature": "0x01ffc9a7"
    },
    {
      "constant": true,
      "inputs": [],
      "name": "name",
      "outputs": [
        {
          "name": "",
          "type": "string"
        }
      ],
      "payable": false,
      "stateMutability": "view",
      "type": "function",
      "signature": "0x06fdde03"
    },
    {
      "constant": true,
      "inputs": [
        {
          "name": "tokenId",
          "type": "uint256"
        }
      ],
      "name": "getApproved",
      "outputs": [
        {
          "name": "",
          "type": "address"
        }
      ],
      "payable": false,
      "stateMutability": "view",
      "type": "function",
      "signature": "0x081812fc"
    },
    {
      "constant": false,
      "inputs": [
        {
          "name": "to",
          "type": "address"
        },
        {
          "name": "tokenId",
          "type": "uint256"
        }
      ],
      "name": "approve",
      "outputs": [],
      "payable": false,
      "stateMutability": "nonpayable",
      "type": "function",
      "signature": "0x095ea7b3"
    },
    {
      "constant": true,
      "inputs": [],
      "name": "totalSupply",
      "outputs": [
        {
          "name": "",
          "type": "uint256"
        }
      ],
      "payable": false,
      "stateMutability": "view",
      "type": "function",
      "signature": "0x18160ddd"
    },
    {
      "constant": false,
      "inputs": [
        {
          "name": "from",
          "type": "address"
        },
        {
          "name": "to",
          "type": "address"
        },
        {
          "name": "tokenId",
          "type": "uint256"
        }
      ],
      "name": "transferFrom",
      "outputs": [],
      "payable": false,
      "stateMutability": "nonpayable",
      "type": "function",
      "signature": "0x23b872dd"
    },
    {
      "constant": true,
      "inputs": [
        {
          "name": "owner",
          "type": "address"
        },
        {
          "name": "index",
          "type": "uint256"
        }
      ],
      "name": "tokenOfOwnerByIndex",
      "outputs": [
        {
          "name": "",
          "type": "uint256"
        }
      ],
      "payable": false,
      "stateMutability": "view",
      "type": "function",
      "signature": "0x2f745c59"
    },
    {
      "constant": true,
      "inputs": [],
      "name": "onSaleCount",
      "outputs": [
        {
          "name": "",
          "type": "uint256"
        }
      ],
      "payable": false,
      "stateMutability": "view",
      "type": "function",
      "signature": "0x356e7863"
    },
    {
      "constant": false,
      "inputs": [
        {
          "name": "from",
          "type": "address"
        },
        {
          "name": "to",
          "type": "address"
        },
        {
          "name": "tokenId",
          "type": "uint256"
        }
      ],
      "name": "safeTransferFrom",
      "outputs": [],
      "payable": false,
      "stateMutability": "nonpayable",
      "type": "function",
      "signature": "0x42842e0e"
    },
    {
      "constant": true,
      "inputs": [
        {
          "name": "index",
          "type": "uint256"
        }
      ],
      "name": "tokenByIndex",
      "outputs": [
        {
          "name": "",
          "type": "uint256"
        }
      ],
      "payable": false,
      "stateMutability": "view",
      "type": "function",
      "signature": "0x4f6ccce7"
    },
    {
      "constant": true,
      "inputs": [
        {
          "name": "tokenId",
          "type": "uint256"
        }
      ],
      "name": "ownerOf",
      "outputs": [
        {
          "name": "",
          "type": "address"
        }
      ],
      "payable": false,
      "stateMutability": "view",
      "type": "function",
      "signature": "0x6352211e"
    },
    {
      "constant": true,
      "inputs": [
        {
          "name": "owner",
          "type": "address"
        }
      ],
      "name": "balanceOf",
      "outputs": [
        {
          "name": "",
          "type": "uint256"
        }
      ],
      "payable": false,
      "stateMutability": "view",
      "type": "function",
      "signature": "0x70a08231"
    },
    {
      "constant": true,
      "inputs": [],
      "name": "symbol",
      "outputs": [
        {
          "name": "",
          "type": "string"
        }
      ],
      "payable": false,
      "stateMutability": "view",
      "type": "function",
      "signature": "0x95d89b41"
    },
    {
      "constant": false,
      "inputs": [
        {
          "name": "to",
          "type": "address"
        },
        {
          "name": "approved",
          "type": "bool"
        }
      ],
      "name": "setApprovalForAll",
      "outputs": [],
      "payable": false,
      "stateMutability": "nonpayable",
      "type": "function",
      "signature": "0xa22cb465"
    },
    {
      "constant": true,
      "inputs": [
        {
          "name": "",
          "type": "uint256"
        }
      ],
      "name": "_pisiHashesToSell",
      "outputs": [
        {
          "name": "",
          "type": "string"
        }
      ],
      "payable": false,
      "stateMutability": "view",
      "type": "function",
      "signature": "0xafc8136c"
    },
    {
      "constant": false,
      "inputs": [
        {
          "name": "from",
          "type": "address"
        },
        {
          "name": "to",
          "type": "address"
        },
        {
          "name": "tokenId",
          "type": "uint256"
        },
        {
          "name": "_data",
          "type": "bytes"
        }
      ],
      "name": "safeTransferFrom",
      "outputs": [],
      "payable": false,
      "stateMutability": "nonpayable",
      "type": "function",
      "signature": "0xb88d4fde"
    },
    {
      "constant": true,
      "inputs": [
        {
          "name": "tokenId",
          "type": "uint256"
        }
      ],
      "name": "tokenURI",
      "outputs": [
        {
          "name": "",
          "type": "string"
        }
      ],
      "payable": false,
      "stateMutability": "view",
      "type": "function",
      "signature": "0xc87b56dd"
    },
    {
      "constant": true,
      "inputs": [
        {
          "name": "owner",
          "type": "address"
        },
        {
          "name": "operator",
          "type": "address"
        }
      ],
      "name": "isApprovedForAll",
      "outputs": [
        {
          "name": "",
          "type": "bool"
        }
      ],
      "payable": false,
      "stateMutability": "view",
      "type": "function",
      "signature": "0xe985e9c5"
    },
    {
      "inputs": [],
      "payable": false,
      "stateMutability": "nonpayable",
      "type": "constructor",
      "signature": "constructor"
    },
    {
      "anonymous": false,
      "inputs": [
        {
          "indexed": true,
          "name": "from",
          "type": "address"
        },
        {
          "indexed": true,
          "name": "to",
          "type": "address"
        },
        {
          "indexed": true,
          "name": "tokenId",
          "type": "uint256"
        }
      ],
      "name": "Transfer",
      "type": "event",
      "signature": "0xddf252ad1be2c89b69c2b068fc378daa952ba7f163c4a11628f55a4df523b3ef"
    },
    {
      "anonymous": false,
      "inputs": [
        {
          "indexed": true,
          "name": "owner",
          "type": "address"
        },
        {
          "indexed": true,
          "name": "approved",
          "type": "address"
        },
        {
          "indexed": true,
          "name": "tokenId",
          "type": "uint256"
        }
      ],
      "name": "Approval",
      "type": "event",
      "signature": "0x8c5be1e5ebec7d5bd14f71427d1e84f3dd0314c0f7b2291e5b200ac8c7c3b925"
    },
    {
      "anonymous": false,
      "inputs": [
        {
          "indexed": true,
          "name": "owner",
          "type": "address"
        },
        {
          "indexed": true,
          "name": "operator",
          "type": "address"
        },
        {
          "indexed": false,
          "name": "approved",
          "type": "bool"
        }
      ],
      "name": "ApprovalForAll",
      "type": "event",
      "signature": "0x17307eab39ab6107e8899845ad3d59bd9653f200f220920489ca2b5937696c31"
    },
    {
      "constant": false,
      "inputs": [],
      "name": "mint",
      "outputs": [
        {
          "name": "",
          "type": "string"
        }
      ],
      "payable": false,
      "stateMutability": "nonpayable",
      "type": "function",
      "signature": "0x1249c58b"
    },
    {
      "constant": false,
      "inputs": [
        {
          "name": "hashedAttr",
          "type": "string"
        }
      ],
      "name": "testAttributes",
      "outputs": [
        {
          "name": "",
          "type": "string"
        }
      ],
      "payable": false,
      "stateMutability": "nonpayable",
      "type": "function",
      "signature": "0x9ace6dc1"
    },
    {
      "constant": false,
      "inputs": [
        {
          "name": "pisiHash",
          "type": "string"
        },
        {
          "name": "price",
          "type": "uint256"
        }
      ],
      "name": "putToSale",
      "outputs": [],
      "payable": false,
      "stateMutability": "nonpayable",
      "type": "function",
      "signature": "0x9f66af62"
    },
    {
      "constant": false,
      "inputs": [
        {
          "name": "pisiHash",
          "type": "string"
        }
      ],
      "name": "putDownFromSale",
      "outputs": [],
      "payable": false,
      "stateMutability": "nonpayable",
      "type": "function",
      "signature": "0xf34ee28a"
    },
    {
      "constant": false,
      "inputs": [
        {
          "name": "pisiHash",
          "type": "string"
        }
      ],
      "name": "transferPisi",
      "outputs": [],
      "payable": true,
      "stateMutability": "payable",
      "type": "function",
      "signature": "0x09c39896"
    },
    {
      "constant": false,
      "inputs": [
        {
          "name": "pisiHash1",
          "type": "string"
        },
        {
          "name": "pisiHash2",
          "type": "string"
        }
      ],
      "name": "breed",
      "outputs": [
        {
          "name": "",
          "type": "string"
        }
      ],
      "payable": false,
      "stateMutability": "nonpayable",
      "type": "function",
      "signature": "0x2e6fb8e2"
    },
    {
      "constant": true,
      "inputs": [],
      "name": "gatherPersonalPisis",
      "outputs": [
        {
          "name": "",
          "type": "string[]"
        },
        {
          "name": "",
          "type": "uint8"
        }
      ],
      "payable": false,
      "stateMutability": "view",
      "type": "function",
      "signature": "0x52b56df6"
    },
    {
      "constant": false,
      "inputs": [
        {
          "name": "pisiHash",
          "type": "string"
        }
      ],
      "name": "feed",
      "outputs": [],
      "payable": true,
      "stateMutability": "payable",
      "type": "function",
      "signature": "0xe73ade8e"
    },
    {
      "constant": true,
      "inputs": [
        {
          "name": "pisiHash",
          "type": "string"
        }
      ],
      "name": "getEyeColor",
      "outputs": [
        {
          "name": "",
          "type": "string"
        }
      ],
      "payable": false,
      "stateMutability": "view",
      "type": "function",
      "signature": "0x5aee4330"
    },
    {
      "constant": true,
      "inputs": [
        {
          "name": "pisiHash",
          "type": "string"
        }
      ],
      "name": "getEyeSize",
      "outputs": [
        {
          "name": "",
          "type": "string"
        }
      ],
      "payable": false,
      "stateMutability": "view",
      "type": "function",
      "signature": "0xab76c013"
    },
    {
      "constant": true,
      "inputs": [
        {
          "name": "pisiHash",
          "type": "string"
        }
      ],
      "name": "getHeadColor",
      "outputs": [
        {
          "name": "",
          "type": "string"
        }
      ],
      "payable": false,
      "stateMutability": "view",
      "type": "function",
      "signature": "0x2f1c4ba3"
    },
    {
      "constant": true,
      "inputs": [
        {
          "name": "pisiHash",
          "type": "string"
        }
      ],
      "name": "getHeadSize",
      "outputs": [
        {
          "name": "",
          "type": "string"
        }
      ],
      "payable": false,
      "stateMutability": "view",
      "type": "function",
      "signature": "0x72eb3e09"
    },
    {
      "constant": true,
      "inputs": [
        {
          "name": "pisiHash",
          "type": "string"
        }
      ],
      "name": "getBeardSize",
      "outputs": [
        {
          "name": "",
          "type": "string"
        }
      ],
      "payable": false,
      "stateMutability": "view",
      "type": "function",
      "signature": "0x5d30e7e2"
    },
    {
      "constant": true,
      "inputs": [
        {
          "name": "pisiHash",
          "type": "string"
        }
      ],
      "name": "getTailColor",
      "outputs": [
        {
          "name": "",
          "type": "string"
        }
      ],
      "payable": false,
      "stateMutability": "view",
      "type": "function",
      "signature": "0xc5f4496a"
    },
    {
      "constant": true,
      "inputs": [
        {
          "name": "pisiHash",
          "type": "string"
        }
      ],
      "name": "getTailAccentColor",
      "outputs": [
        {
          "name": "",
          "type": "string"
        }
      ],
      "payable": false,
      "stateMutability": "view",
      "type": "function",
      "signature": "0xad267e72"
    },
    {
      "constant": true,
      "inputs": [
        {
          "name": "pisiHash",
          "type": "string"
        }
      ],
      "name": "getTailSize",
      "outputs": [
        {
          "name": "",
          "type": "string"
        }
      ],
      "payable": false,
      "stateMutability": "view",
      "type": "function",
      "signature": "0xe3395e9c"
    },
    {
      "constant": true,
      "inputs": [
        {
          "name": "pisiHash",
          "type": "string"
        }
      ],
      "name": "getBodyColor",
      "outputs": [
        {
          "name": "",
          "type": "string"
        }
      ],
      "payable": false,
      "stateMutability": "view",
      "type": "function",
      "signature": "0xa937f3db"
    },
    {
      "constant": true,
      "inputs": [
        {
          "name": "pisiHash",
          "type": "string"
        }
      ],
      "name": "getBodyAccentColor",
      "outputs": [
        {
          "name": "",
          "type": "string"
        }
      ],
      "payable": false,
      "stateMutability": "view",
      "type": "function",
      "signature": "0x33ccc11a"
    },
    {
      "constant": true,
      "inputs": [
        {
          "name": "pisiHash",
          "type": "string"
        }
      ],
      "name": "getStripeType",
      "outputs": [
        {
          "name": "",
          "type": "string"
        }
      ],
      "payable": false,
      "stateMutability": "view",
      "type": "function",
      "signature": "0x1e9abcac"
    },
    {
      "constant": true,
      "inputs": [
        {
          "name": "pisiHash",
          "type": "string"
        }
      ],
      "name": "getHungerness",
      "outputs": [
        {
          "name": "",
          "type": "uint8"
        }
      ],
      "payable": false,
      "stateMutability": "view",
      "type": "function",
      "signature": "0xcbc9c4a3"
    },
    {
      "constant": true,
      "inputs": [
        {
          "name": "pisiHash",
          "type": "string"
        }
      ],
      "name": "getFragility",
      "outputs": [
        {
          "name": "",
          "type": "uint8"
        }
      ],
      "payable": false,
      "stateMutability": "view",
      "type": "function",
      "signature": "0xa1f5fc03"
    },
    {
      "constant": false,
      "inputs": [
        {
          "name": "pisiHash",
          "type": "string"
        }
      ],
      "name": "getFertility",
      "outputs": [
        {
          "name": "",
          "type": "uint8"
        }
      ],
      "payable": false,
      "stateMutability": "nonpayable",
      "type": "function",
      "signature": "0xf7f8c32b"
    },
    {
      "constant": false,
      "inputs": [
        {
          "name": "pisiHash",
          "type": "string"
        }
      ],
      "name": "getAppeal",
      "outputs": [
        {
          "name": "",
          "type": "uint8"
        }
      ],
      "payable": false,
      "stateMutability": "nonpayable",
      "type": "function",
      "signature": "0xd8c6b1da"
    },
    {
      "constant": true,
      "inputs": [
        {
          "name": "pisiHash",
          "type": "string"
        }
      ],
      "name": "getOwner",
      "outputs": [
        {
          "name": "",
          "type": "address"
        }
      ],
      "payable": false,
      "stateMutability": "view",
      "type": "function",
      "signature": "0x4aaf4a12"
    },
    {
      "constant": true,
      "inputs": [
        {
          "name": "pisiHash",
          "type": "string"
        }
      ],
      "name": "getSale",
      "outputs": [
        {
          "name": "",
          "type": "bool"
        }
      ],
      "payable": false,
      "stateMutability": "view",
      "type": "function",
      "signature": "0x2de04e03"
    },
    {
      "constant": true,
      "inputs": [
        {
          "name": "pisiHash",
          "type": "string"
        }
      ],
      "name": "getPrice",
      "outputs": [
        {
          "name": "",
          "type": "uint256"
        }
      ],
      "payable": false,
      "stateMutability": "view",
      "type": "function",
      "signature": "0x524f3889"
    }
  ],
  "bytecode": "0x60806040523480156200001157600080fd5b506040805190810160405280600481526020017f50697369000000000000000000000000000000000000000000000000000000008152506040805190810160405280600481526020017f50495349000000000000000000000000000000000000000000000000000000008152508181620000bd6301ffc9a77c010000000000000000000000000000000000000000000000000000000002620001b0640100000000026401000000009004565b620000fa6380ac58cd7c010000000000000000000000000000000000000000000000000000000002620001b0640100000000026401000000009004565b6200013763780e9d637c010000000000000000000000000000000000000000000000000000000002620001b0640100000000026401000000009004565b81600990805190602001906200014f929190620002a6565b5080600a908051906020019062000168929190620002a6565b50620001a6635b5e139f7c010000000000000000000000000000000000000000000000000000000002620001b0640100000000026401000000009004565b50505050620003ae565b63ffffffff7c010000000000000000000000000000000000000000000000000000000002817bffffffffffffffffffffffffffffffffffffffffffffffffffffffff1916141515156200023a576040517f08c379a000000000000000000000000000000000000000000000000000000000815260040162000231906200038c565b60405180910390fd5b6001600080837bffffffffffffffffffffffffffffffffffffffffffffffffffffffff19167bffffffffffffffffffffffffffffffffffffffffffffffffffffffff1916815260200190815260200160002060006101000a81548160ff02191690831515021790555050565b828054600181600116156101000203166002900490600052602060002090601f016020900481019282601f10620002e957805160ff19168380011785556200031a565b828001600101855582156200031a579182015b8281111562000319578251825591602001919060010190620002fc565b5b5090506200032991906200032d565b5090565b6200035291905b808211156200034e57600081600090555060010162000334565b5090565b90565b6000601c82527f4552433136353a20696e76616c696420696e74657266616365206964000000006020830152604082019050919050565b60006020820190508181036000830152620003a78162000355565b9050919050565b61898380620003be6000396000f3fe60806040526004361061021a576000357c0100000000000000000000000000000000000000000000000000000000900463ffffffff16806301ffc9a71461021f57806306fdde031461025c578063081812fc14610287578063095ea7b3146102c457806309c39896146102ed5780631249c58b1461030957806318160ddd146103345780631e9abcac1461035f57806323b872dd1461039c5780632de04e03146103c55780632e6fb8e2146104025780632f1c4ba31461043f5780632f745c591461047c57806333ccc11a146104b9578063356e7863146104f657806342842e0e146105215780634aaf4a121461054a5780634f6ccce714610587578063524f3889146105c457806352b56df6146106015780635aee43301461062d5780635d30e7e21461066a5780636352211e146106a757806370a08231146106e457806372eb3e091461072157806395d89b411461075e5780639ace6dc1146107895780639f66af62146107c6578063a1f5fc03146107ef578063a22cb4651461082c578063a937f3db14610855578063ab76c01314610892578063ad267e72146108cf578063afc8136c1461090c578063b88d4fde14610949578063c5f4496a14610972578063c87b56dd146109af578063cbc9c4a3146109ec578063d8c6b1da14610a29578063e3395e9c14610a66578063e73ade8e14610aa3578063e985e9c514610abf578063f34ee28a14610afc578063f7f8c32b14610b25575b600080fd5b34801561022b57600080fd5b5061024660048036036102419190810190617bf1565b610b62565b6040516102539190618495565b60405180910390f35b34801561026857600080fd5b50610271610bc9565b60405161027e91906184d2565b60405180910390f35b34801561029357600080fd5b506102ae60048036036102a99190810190617d44565b610c6b565b6040516102bb91906183fe565b60405180910390f35b3480156102d057600080fd5b506102eb60048036036102e69190810190617bb5565b610cf2565b005b61030760048036036103029190810190617c43565b610ea3565b005b34801561031557600080fd5b5061031e6118a0565b60405161032b91906184d2565b60405180910390f35b34801561034057600080fd5b50610349611934565b6040516103569190618704565b60405180910390f35b34801561036b57600080fd5b5061038660048036036103819190810190617c43565b611941565b60405161039391906184d2565b60405180910390f35b3480156103a857600080fd5b506103c360048036036103be9190810190617aaf565b611a51565b005b3480156103d157600080fd5b506103ec60048036036103e79190810190617c43565b611aac565b6040516103f99190618495565b60405180910390f35b34801561040e57600080fd5b5061042960048036036104249190810190617c84565b611b31565b60405161043691906184d2565b60405180910390f35b34801561044b57600080fd5b5061046660048036036104619190810190617c43565b612fea565b60405161047391906184d2565b60405180910390f35b34801561048857600080fd5b506104a3600480360361049e9190810190617bb5565b6130fa565b6040516104b09190618704565b60405180910390f35b3480156104c557600080fd5b506104e060048036036104db9190810190617c43565b6131a7565b6040516104ed91906184d2565b60405180910390f35b34801561050257600080fd5b5061050b6132b7565b6040516105189190618704565b60405180910390f35b34801561052d57600080fd5b5061054860048036036105439190810190617aaf565b6132bd565b005b34801561055657600080fd5b50610571600480360361056c9190810190617c43565b6132de565b60405161057e91906183fe565b60405180910390f35b34801561059357600080fd5b506105ae60048036036105a99190810190617d44565b613376565b6040516105bb9190618704565b60405180910390f35b3480156105d057600080fd5b506105eb60048036036105e69190810190617c43565b6133e4565b6040516105f89190618704565b60405180910390f35b34801561060d57600080fd5b5061061661345c565b604051610624929190618465565b60405180910390f35b34801561063957600080fd5b50610654600480360361064f9190810190617c43565b6135d7565b60405161066191906184d2565b60405180910390f35b34801561067657600080fd5b50610691600480360361068c9190810190617c43565b6136e7565b60405161069e91906184d2565b60405180910390f35b3480156106b357600080fd5b506106ce60048036036106c99190810190617d44565b6137f7565b6040516106db91906183fe565b60405180910390f35b3480156106f057600080fd5b5061070b60048036036107069190810190617a4a565b6138ab565b6040516107189190618704565b60405180910390f35b34801561072d57600080fd5b5061074860048036036107439190810190617c43565b61396c565b60405161075591906184d2565b60405180910390f35b34801561076a57600080fd5b50610773613a7c565b60405161078091906184d2565b60405180910390f35b34801561079557600080fd5b506107b060048036036107ab9190810190617c43565b613b1e565b6040516107bd91906184d2565b60405180910390f35b3480156107d257600080fd5b506107ed60048036036107e89190810190617cf0565b613c75565b005b3480156107fb57600080fd5b5061081660048036036108119190810190617c43565b614230565b604051610823919061871f565b60405180910390f35b34801561083857600080fd5b50610853600480360361084e9190810190617b79565b61437d565b005b34801561086157600080fd5b5061087c60048036036108779190810190617c43565b6144eb565b60405161088991906184d2565b60405180910390f35b34801561089e57600080fd5b506108b960048036036108b49190810190617c43565b6145fb565b6040516108c691906184d2565b60405180910390f35b3480156108db57600080fd5b506108f660048036036108f19190810190617c43565b61470b565b60405161090391906184d2565b60405180910390f35b34801561091857600080fd5b50610933600480360361092e9190810190617d44565b61481b565b60405161094091906184b0565b60405180910390f35b34801561095557600080fd5b50610970600480360361096b9190810190617afe565b6148d6565b005b34801561097e57600080fd5b5061099960048036036109949190810190617c43565b614934565b6040516109a691906184d2565b60405180910390f35b3480156109bb57600080fd5b506109d660048036036109d19190810190617d44565b614a44565b6040516109e391906184d2565b60405180910390f35b3480156109f857600080fd5b50610a136004803603610a0e9190810190617c43565b614b43565b604051610a20919061871f565b60405180910390f35b348015610a3557600080fd5b50610a506004803603610a4b9190810190617c43565b614c90565b604051610a5d919061871f565b60405180910390f35b348015610a7257600080fd5b50610a8d6004803603610a889190810190617c43565b615182565b604051610a9a91906184d2565b60405180910390f35b610abd6004803603610ab89190810190617c43565b615292565b005b348015610acb57600080fd5b50610ae66004803603610ae19190810190617a73565b615434565b604051610af39190618495565b60405180910390f35b348015610b0857600080fd5b50610b236004803603610b1e9190810190617c43565b6154c8565b005b348015610b3157600080fd5b50610b4c6004803603610b479190810190617c43565b615942565b604051610b59919061871f565b60405180910390f35b6000806000837bffffffffffffffffffffffffffffffffffffffffffffffffffffffff19167bffffffffffffffffffffffffffffffffffffffffffffffffffffffff1916815260200190815260200160002060009054906101000a900460ff169050919050565b606060098054600181600116156101000203166002900480601f016020809104026020016040519081016040528092919081815260200182805460018160011615610100020316600290048015610c615780601f10610c3657610100808354040283529160200191610c61565b820191906000526020600020905b815481529060010190602001808311610c4457829003601f168201915b5050505050905090565b6000610c7682615e34565b1515610cb7576040517f08c379a0000000000000000000000000000000000000000000000000000000008152600401610cae90618644565b60405180910390fd5b6002600083815260200190815260200160002060009054906101000a900473ffffffffffffffffffffffffffffffffffffffff169050919050565b6000610cfd826137f7565b90508073ffffffffffffffffffffffffffffffffffffffff168373ffffffffffffffffffffffffffffffffffffffff1614151515610d70576040517f08c379a0000000000000000000000000000000000000000000000000000000008152600401610d67906186a4565b60405180910390fd5b8073ffffffffffffffffffffffffffffffffffffffff163373ffffffffffffffffffffffffffffffffffffffff161480610db05750610daf8133615434565b5b1515610df1576040517f08c379a0000000000000000000000000000000000000000000000000000000008152600401610de8906185e4565b60405180910390fd5b826002600084815260200190815260200160002060006101000a81548173ffffffffffffffffffffffffffffffffffffffff021916908373ffffffffffffffffffffffffffffffffffffffff160217905550818373ffffffffffffffffffffffffffffffffffffffff168273ffffffffffffffffffffffffffffffffffffffff167f8c5be1e5ebec7d5bd14f71427d1e84f3dd0314c0f7b2291e5b200ac8c7c3b92560405160405180910390a4505050565b806000600c826040518082805190602001908083835b602083101515610ede5780518252602082019150602081019050602083039250610eb9565b6001836020036101000a0380198251168184511680821785525050505050509050019150509081526020016040518091039020600b0160029054906101000a900460ff1660ff161115611136576040600c826040518082805190602001908083835b602083101515610f655780518252602082019150602081019050602083039250610f40565b6001836020036101000a0380198251168184511680821785525050505050509050019150509081526020016040518091039020600b0160009054906101000a900460ff1660ff16811515610fb557fe5b04610e10600c836040518082805190602001908083835b602083101515610ff15780518252602082019150602081019050602083039250610fcc565b6001836020036101000a0380198251168184511680821785525050505050509050019150509081526020016040518091039020600e0154420381151561103357fe5b040260ff03600c826040518082805190602001908083835b602083101515611070578051825260208201915060208101905060208303925061104b565b6001836020036101000a0380198251168184511680821785525050505050509050019150509081526020016040518091039020600b0160026101000a81548160ff021916908360ff16021790555042600c826040518082805190602001908083835b6020831015156110f757805182526020820191506020810190506020830392506110d2565b6001836020036101000a0380198251168184511680821785525050505050509050019150509081526020016040518091039020600e0181905550611247565b6000600c826040518082805190602001908083835b602083101515611170578051825260208201915060208101905060208303925061114b565b6001836020036101000a0380198251168184511680821785525050505050509050019150509081526020016040518091039020600b0160026101000a81548160ff021916908360ff1602179055506000600c826040518082805190602001908083835b6020831015156111f857805182526020820191506020810190506020830392506111d3565b6001836020036101000a0380198251168184511680821785525050505050509050019150509081526020016040518091039020600b0160036101000a81548160ff021916908360ff1602179055505b34600c836040518082805190602001908083835b602083101515611280578051825260208201915060208101905060208303925061125b565b6001836020036101000a0380198251168184511680821785525050505050509050019150509081526020016040518091039020600c0154111515156112c457600080fd5b60011515600c836040518082805190602001908083835b60208310151561130057805182526020820191506020810190506020830392506112db565b6001836020036101000a0380198251168184511680821785525050505050509050019150509081526020016040518091039020600d0160009054906101000a900460ff16151514151561135257600080fd5b3373ffffffffffffffffffffffffffffffffffffffff16600c836040518082805190602001908083835b6020831015156113a1578051825260208201915060208101905060208303925061137c565b6001836020036101000a0380198251168184511680821785525050505050509050019150509081526020016040518091039020600b0160049054906101000a900473ffffffffffffffffffffffffffffffffffffffff1673ffffffffffffffffffffffffffffffffffffffff161415151561141b57600080fd5b600c826040518082805190602001908083835b602083101515611453578051825260208201915060208101905060208303925061142e565b6001836020036101000a0380198251168184511680821785525050505050509050019150509081526020016040518091039020600b0160049054906101000a900473ffffffffffffffffffffffffffffffffffffffff1673ffffffffffffffffffffffffffffffffffffffff166108fc600c846040518082805190602001908083835b6020831015156114fb57805182526020820191506020810190506020830392506114d6565b6001836020036101000a0380198251168184511680821785525050505050509050019150509081526020016040518091039020600c01549081150290604051600060405180830381858888f1935050505015801561155d573d6000803e3d6000fd5b506000600c836040518082805190602001908083835b6020831015156115985780518252602082019150602081019050602083039250611573565b6001836020036101000a0380198251168184511680821785525050505050509050019150509081526020016040518091039020600b0160049054906101000a900473ffffffffffffffffffffffffffffffffffffffff16905033600c846040518082805190602001908083835b60208310151561162a5780518252602082019150602081019050602083039250611605565b6001836020036101000a0380198251168184511680821785525050505050509050019150509081526020016040518091039020600b0160046101000a81548173ffffffffffffffffffffffffffffffffffffffff021916908373ffffffffffffffffffffffffffffffffffffffff1602179055506116a88333615ea6565b61174083600d60008473ffffffffffffffffffffffffffffffffffffffff1673ffffffffffffffffffffffffffffffffffffffff168152602001908152602001600020600e60008573ffffffffffffffffffffffffffffffffffffffff1673ffffffffffffffffffffffffffffffffffffffff16815260200190815260200160002060009054906101000a900460ff1660ff16616124565b600e60008273ffffffffffffffffffffffffffffffffffffffff1673ffffffffffffffffffffffffffffffffffffffff168152602001908152602001600020600081819054906101000a900460ff16809291906001900391906101000a81548160ff021916908360ff16021790555050600d60003373ffffffffffffffffffffffffffffffffffffffff1673ffffffffffffffffffffffffffffffffffffffff16815260200190815260200160002083908060018154018082558091505090600182039060005260206000200160009091929091909150908051906020019061182a929190617663565b5050600e60003373ffffffffffffffffffffffffffffffffffffffff1673ffffffffffffffffffffffffffffffffffffffff168152602001908152602001600020600081819054906101000a900460ff168092919060010191906101000a81548160ff021916908360ff16021790555050505050565b60606000424433604051602001808481526020018381526020018273ffffffffffffffffffffffffffffffffffffffff1673ffffffffffffffffffffffffffffffffffffffff166c0100000000000000000000000002815260140193505050506040516020818303038152906040528051906020012060019004905061192e61192882616274565b336163cd565b91505090565b6000600780549050905090565b6060600c826040518082805190602001908083835b60208310151561197b5780518252602082019150602081019050602083039250611956565b6001836020036101000a0380198251168184511680821785525050505050509050019150509081526020016040518091039020600a018054600181600116156101000203166002900480601f016020809104026020016040519081016040528092919081815260200182805460018160011615610100020316600290048015611a455780601f10611a1a57610100808354040283529160200191611a45565b820191906000526020600020905b815481529060010190602001808311611a2857829003601f168201915b50505050509050919050565b611a5b338261694d565b1515611a9c576040517f08c379a0000000000000000000000000000000000000000000000000000000008152600401611a93906186c4565b60405180910390fd5b611aa7838383616a2d565b505050565b6000600c826040518082805190602001908083835b602083101515611ae65780518252602082019150602081019050602083039250611ac1565b6001836020036101000a0380198251168184511680821785525050505050509050019150509081526020016040518091039020600d0160009054906101000a900460ff169050919050565b6060826000600c826040518082805190602001908083835b602083101515611b6e5780518252602082019150602081019050602083039250611b49565b6001836020036101000a0380198251168184511680821785525050505050509050019150509081526020016040518091039020600b0160029054906101000a900460ff1660ff161115611dc6576040600c826040518082805190602001908083835b602083101515611bf55780518252602082019150602081019050602083039250611bd0565b6001836020036101000a0380198251168184511680821785525050505050509050019150509081526020016040518091039020600b0160009054906101000a900460ff1660ff16811515611c4557fe5b04610e10600c836040518082805190602001908083835b602083101515611c815780518252602082019150602081019050602083039250611c5c565b6001836020036101000a0380198251168184511680821785525050505050509050019150509081526020016040518091039020600e01544203811515611cc357fe5b040260ff03600c826040518082805190602001908083835b602083101515611d005780518252602082019150602081019050602083039250611cdb565b6001836020036101000a0380198251168184511680821785525050505050509050019150509081526020016040518091039020600b0160026101000a81548160ff021916908360ff16021790555042600c826040518082805190602001908083835b602083101515611d875780518252602082019150602081019050602083039250611d62565b6001836020036101000a0380198251168184511680821785525050505050509050019150509081526020016040518091039020600e0181905550611ed7565b6000600c826040518082805190602001908083835b602083101515611e005780518252602082019150602081019050602083039250611ddb565b6001836020036101000a0380198251168184511680821785525050505050509050019150509081526020016040518091039020600b0160026101000a81548160ff021916908360ff1602179055506000600c826040518082805190602001908083835b602083101515611e885780518252602082019150602081019050602083039250611e63565b6001836020036101000a0380198251168184511680821785525050505050509050019150509081526020016040518091039020600b0160036101000a81548160ff021916908360ff1602179055505b826000600c826040518082805190602001908083835b602083101515611f125780518252602082019150602081019050602083039250611eed565b6001836020036101000a0380198251168184511680821785525050505050509050019150509081526020016040518091039020600b0160029054906101000a900460ff1660ff16111561216a576040600c826040518082805190602001908083835b602083101515611f995780518252602082019150602081019050602083039250611f74565b6001836020036101000a0380198251168184511680821785525050505050509050019150509081526020016040518091039020600b0160009054906101000a900460ff1660ff16811515611fe957fe5b04610e10600c836040518082805190602001908083835b6020831015156120255780518252602082019150602081019050602083039250612000565b6001836020036101000a0380198251168184511680821785525050505050509050019150509081526020016040518091039020600e0154420381151561206757fe5b040260ff03600c826040518082805190602001908083835b6020831015156120a4578051825260208201915060208101905060208303925061207f565b6001836020036101000a0380198251168184511680821785525050505050509050019150509081526020016040518091039020600b0160026101000a81548160ff021916908360ff16021790555042600c826040518082805190602001908083835b60208310151561212b5780518252602082019150602081019050602083039250612106565b6001836020036101000a0380198251168184511680821785525050505050509050019150509081526020016040518091039020600e018190555061227b565b6000600c826040518082805190602001908083835b6020831015156121a4578051825260208201915060208101905060208303925061217f565b6001836020036101000a0380198251168184511680821785525050505050509050019150509081526020016040518091039020600b0160026101000a81548160ff021916908360ff1602179055506000600c826040518082805190602001908083835b60208310151561222c5780518252602082019150602081019050602083039250612207565b6001836020036101000a0380198251168184511680821785525050505050509050019150509081526020016040518091039020600b0160036101000a81548160ff021916908360ff1602179055505b3373ffffffffffffffffffffffffffffffffffffffff16600c866040518082805190602001908083835b6020831015156122ca57805182526020820191506020810190506020830392506122a5565b6001836020036101000a0380198251168184511680821785525050505050509050019150509081526020016040518091039020600b0160049054906101000a900473ffffffffffffffffffffffffffffffffffffffff1673ffffffffffffffffffffffffffffffffffffffff1614151561234357600080fd5b3373ffffffffffffffffffffffffffffffffffffffff16600c856040518082805190602001908083835b602083101515612392578051825260208201915060208101905060208303925061236d565b6001836020036101000a0380198251168184511680821785525050505050509050019150509081526020016040518091039020600b0160049054906101000a900473ffffffffffffffffffffffffffffffffffffffff1673ffffffffffffffffffffffffffffffffffffffff1614151561240b57600080fd5b6000600c866040518082805190602001908083835b6020831015156124455780518252602082019150602081019050602083039250612420565b6001836020036101000a0380198251168184511680821785525050505050509050019150509081526020016040518091039020600b0160039054906101000a900460ff1660ff1611801561251757506000600c856040518082805190602001908083835b6020831015156124ce57805182526020820191506020810190506020830392506124a9565b6001836020036101000a0380198251168184511680821785525050505050509050019150509081526020016040518091039020600b0160039054906101000a900460ff1660ff16115b151561252257600080fd5b600061010042600c886040518082805190602001908083835b602083101515612560578051825260208201915060208101905060208303925061253b565b6001836020036101000a0380198251168184511680821785525050505050509050019150509081526020016040518091039020600b0160029054906101000a900460ff16600c886040518082805190602001908083835b6020831015156125dc57805182526020820191506020810190506020830392506125b7565b6001836020036101000a0380198251168184511680821785525050505050509050019150509081526020016040518091039020600b0160029054906101000a900460ff16604051602001808481526020018360ff1660ff167f01000000000000000000000000000000000000000000000000000000000000000281526001018260ff1660ff167f0100000000000000000000000000000000000000000000000000000000000000028152600101935050505060405160208183030381529060405280519060200120600190048115156126b157fe5b069050600c856040518082805190602001908083835b6020831015156126ec57805182526020820191506020810190506020830392506126c7565b6001836020036101000a0380198251168184511680821785525050505050509050019150509081526020016040518091039020600b0160039054906101000a900460ff1660ff16600c876040518082805190602001908083835b60208310151561276b5780518252602082019150602081019050602083039250612746565b6001836020036101000a0380198251168184511680821785525050505050509050019150509081526020016040518091039020600b0160039054906101000a900460ff1660ff160161ffff168160ff1661ffff161015156127cb57600080fd5b600c856040518082805190602001908083835b60208310151561280357805182526020820191506020810190506020830392506127de565b6001836020036101000a0380198251168184511680821785525050505050509050019150509081526020016040518091039020600b0160029054906101000a900460ff1660ff16600c876040518082805190602001908083835b602083101515612882578051825260208201915060208101905060208303925061285d565b6001836020036101000a0380198251168184511680821785525050505050509050019150509081526020016040518091039020600b0160029054906101000a900460ff1660ff161180156129d15750600c856040518082805190602001908083835b60208310151561290957805182526020820191506020810190506020830392506128e4565b6001836020036101000a0380198251168184511680821785525050505050509050019150509081526020016040518091039020600b0160039054906101000a900460ff1660ff16600c876040518082805190602001908083835b6020831015156129885780518252602082019150602081019050602083039250612963565b6001836020036101000a0380198251168184511680821785525050505050509050019150509081526020016040518091039020600b0160039054906101000a900460ff1660ff16115b156129e8576129e086336163cd565b935050612fe2565b600c856040518082805190602001908083835b602083101515612a2057805182526020820191506020810190506020830392506129fb565b6001836020036101000a0380198251168184511680821785525050505050509050019150509081526020016040518091039020600b0160029054906101000a900460ff1660ff16600c876040518082805190602001908083835b602083101515612a9f5780518252602082019150602081019050602083039250612a7a565b6001836020036101000a0380198251168184511680821785525050505050509050019150509081526020016040518091039020600b0160029054906101000a900460ff1660ff16118015612bee5750600c856040518082805190602001908083835b602083101515612b265780518252602082019150602081019050602083039250612b01565b6001836020036101000a0380198251168184511680821785525050505050509050019150509081526020016040518091039020600b0160039054906101000a900460ff1660ff16600c876040518082805190602001908083835b602083101515612ba55780518252602082019150602081019050602083039250612b80565b6001836020036101000a0380198251168184511680821785525050505050509050019150509081526020016040518091039020600b0160039054906101000a900460ff1660ff16105b15612cde57612cd6612c03876000601e616a51565b612c1087601e603f616a51565b6040516020018083805190602001908083835b602083101515612c485780518252602082019150602081019050602083039250612c23565b6001836020036101000a03801982511681845116808217855250505050505090500182805190602001908083835b602083101515612c9b5780518252602082019150602081019050602083039250612c76565b6001836020036101000a03801982511681845116808217855250505050505090500192505050604051602081830303815290604052336163cd565b935050612fe2565b600c856040518082805190602001908083835b602083101515612d165780518252602082019150602081019050602083039250612cf1565b6001836020036101000a0380198251168184511680821785525050505050509050019150509081526020016040518091039020600b0160029054906101000a900460ff1660ff16600c876040518082805190602001908083835b602083101515612d955780518252602082019150602081019050602083039250612d70565b6001836020036101000a0380198251168184511680821785525050505050509050019150509081526020016040518091039020600b0160029054906101000a900460ff1660ff16108015612ee45750600c856040518082805190602001908083835b602083101515612e1c5780518252602082019150602081019050602083039250612df7565b6001836020036101000a0380198251168184511680821785525050505050509050019150509081526020016040518091039020600b0160039054906101000a900460ff1660ff16600c876040518082805190602001908083835b602083101515612e9b5780518252602082019150602081019050602083039250612e76565b6001836020036101000a0380198251168184511680821785525050505050509050019150509081526020016040518091039020600b0160039054906101000a900460ff1660ff16115b15612fd457612fcc612ef987601e603f616a51565b612f06876000601e616a51565b6040516020018083805190602001908083835b602083101515612f3e5780518252602082019150602081019050602083039250612f19565b6001836020036101000a03801982511681845116808217855250505050505090500182805190602001908083835b602083101515612f915780518252602082019150602081019050602083039250612f6c565b6001836020036101000a03801982511681845116808217855250505050505090500192505050604051602081830303815290604052336163cd565b935050612fe2565b612fde85336163cd565b9350505b505092915050565b6060600c826040518082805190602001908083835b6020831015156130245780518252602082019150602081019050602083039250612fff565b6001836020036101000a03801982511681845116808217855250505050505090500191505090815260200160405180910390206002018054600181600116156101000203166002900480601f0160208091040260200160405190810160405280929190818152602001828054600181600116156101000203166002900480156130ee5780601f106130c3576101008083540402835291602001916130ee565b820191906000526020600020905b8154815290600101906020018083116130d157829003601f168201915b50505050509050919050565b6000613105836138ab565b82101515613148576040517f08c379a000000000000000000000000000000000000000000000000000000000815260040161313f90618524565b60405180910390fd5b600560008473ffffffffffffffffffffffffffffffffffffffff1673ffffffffffffffffffffffffffffffffffffffff1681526020019081526020016000208281548110151561319457fe5b9060005260206000200154905092915050565b6060600c826040518082805190602001908083835b6020831015156131e157805182526020820191506020810190506020830392506131bc565b6001836020036101000a03801982511681845116808217855250505050505090500191505090815260200160405180910390206009018054600181600116156101000203166002900480601f0160208091040260200160405190810160405280929190818152602001828054600181600116156101000203166002900480156132ab5780601f10613280576101008083540402835291602001916132ab565b820191906000526020600020905b81548152906001019060200180831161328e57829003601f168201915b50505050509050919050565b60105481565b6132d983838360206040519081016040528060008152506148d6565b505050565b6000600c826040518082805190602001908083835b60208310151561331857805182526020820191506020810190506020830392506132f3565b6001836020036101000a0380198251168184511680821785525050505050509050019150509081526020016040518091039020600b0160049054906101000a900473ffffffffffffffffffffffffffffffffffffffff169050919050565b6000613380611934565b821015156133c3576040517f08c379a00000000000000000000000000000000000000000000000000000000081526004016133ba906186e4565b60405180910390fd5b6007828154811015156133d257fe5b90600052602060002001549050919050565b6000600c826040518082805190602001908083835b60208310151561341e57805182526020820191506020810190506020830392506133f9565b6001836020036101000a0380198251168184511680821785525050505050509050019150509081526020016040518091039020600c01549050919050565b60606000600d60003373ffffffffffffffffffffffffffffffffffffffff1673ffffffffffffffffffffffffffffffffffffffff168152602001908152602001600020600e60003373ffffffffffffffffffffffffffffffffffffffff1673ffffffffffffffffffffffffffffffffffffffff16815260200190815260200160002060009054906101000a900460ff1681805480602002602001604051908101604052809291908181526020016000905b828210156135c9578382906000526020600020018054600181600116156101000203166002900480601f0160208091040260200160405190810160405280929190818152602001828054600181600116156101000203166002900480156135b55780601f1061358a576101008083540402835291602001916135b5565b820191906000526020600020905b81548152906001019060200180831161359857829003601f168201915b50505050508152602001906001019061350d565b505050509150915091509091565b6060600c826040518082805190602001908083835b60208310151561361157805182526020820191506020810190506020830392506135ec565b6001836020036101000a03801982511681845116808217855250505050505090500191505090815260200160405180910390206000018054600181600116156101000203166002900480601f0160208091040260200160405190810160405280929190818152602001828054600181600116156101000203166002900480156136db5780601f106136b0576101008083540402835291602001916136db565b820191906000526020600020905b8154815290600101906020018083116136be57829003601f168201915b50505050509050919050565b6060600c826040518082805190602001908083835b60208310151561372157805182526020820191506020810190506020830392506136fc565b6001836020036101000a03801982511681845116808217855250505050505090500191505090815260200160405180910390206004018054600181600116156101000203166002900480601f0160208091040260200160405190810160405280929190818152602001828054600181600116156101000203166002900480156137eb5780601f106137c0576101008083540402835291602001916137eb565b820191906000526020600020905b8154815290600101906020018083116137ce57829003601f168201915b50505050509050919050565b6000806001600084815260200190815260200160002060009054906101000a900473ffffffffffffffffffffffffffffffffffffffff169050600073ffffffffffffffffffffffffffffffffffffffff168173ffffffffffffffffffffffffffffffffffffffff16141515156138a2576040517f08c379a000000000000000000000000000000000000000000000000000000000815260040161389990618624565b60405180910390fd5b80915050919050565b60008073ffffffffffffffffffffffffffffffffffffffff168273ffffffffffffffffffffffffffffffffffffffff161415151561391e576040517f08c379a000000000000000000000000000000000000000000000000000000000815260040161391590618604565b60405180910390fd5b613965600360008473ffffffffffffffffffffffffffffffffffffffff1673ffffffffffffffffffffffffffffffffffffffff168152602001908152602001600020616b52565b9050919050565b6060600c826040518082805190602001908083835b6020831015156139a65780518252602082019150602081019050602083039250613981565b6001836020036101000a03801982511681845116808217855250505050505090500191505090815260200160405180910390206003018054600181600116156101000203166002900480601f016020809104026020016040519081016040528092919081815260200182805460018160011615610100020316600290048015613a705780601f10613a4557610100808354040283529160200191613a70565b820191906000526020600020905b815481529060010190602001808311613a5357829003601f168201915b50505050509050919050565b6060600a8054600181600116156101000203166002900480601f016020809104026020016040519081016040528092919081815260200182805460018160011615610100020316600290048015613b145780601f10613ae957610100808354040283529160200191613b14565b820191906000526020600020905b815481529060010190602001808311613af757829003601f168201915b5050505050905090565b60603073ffffffffffffffffffffffffffffffffffffffff168233604051602401613b4a9291906184f4565b6040516020818303038152906040527f895ad739000000000000000000000000000000000000000000000000000000007bffffffffffffffffffffffffffffffffffffffffffffffffffffffff19166020820180517bffffffffffffffffffffffffffffffffffffffffffffffffffffffff83818316178352505050506040518082805190602001908083835b602083101515613bfc5780518252602082019150602081019050602083039250613bd7565b6001836020036101000a038019825116818451168082178552505050505050905001915050600060405180830381855af49150503d8060008114613c5c576040519150601f19603f3d011682016040523d82523d6000602084013e613c61565b606091505b505050613c6e82336163cd565b9050919050565b816000600c826040518082805190602001908083835b602083101515613cb05780518252602082019150602081019050602083039250613c8b565b6001836020036101000a0380198251168184511680821785525050505050509050019150509081526020016040518091039020600b0160029054906101000a900460ff1660ff161115613f08576040600c826040518082805190602001908083835b602083101515613d375780518252602082019150602081019050602083039250613d12565b6001836020036101000a0380198251168184511680821785525050505050509050019150509081526020016040518091039020600b0160009054906101000a900460ff1660ff16811515613d8757fe5b04610e10600c836040518082805190602001908083835b602083101515613dc35780518252602082019150602081019050602083039250613d9e565b6001836020036101000a0380198251168184511680821785525050505050509050019150509081526020016040518091039020600e01544203811515613e0557fe5b040260ff03600c826040518082805190602001908083835b602083101515613e425780518252602082019150602081019050602083039250613e1d565b6001836020036101000a0380198251168184511680821785525050505050509050019150509081526020016040518091039020600b0160026101000a81548160ff021916908360ff16021790555042600c826040518082805190602001908083835b602083101515613ec95780518252602082019150602081019050602083039250613ea4565b6001836020036101000a0380198251168184511680821785525050505050509050019150509081526020016040518091039020600e0181905550614019565b6000600c826040518082805190602001908083835b602083101515613f425780518252602082019150602081019050602083039250613f1d565b6001836020036101000a0380198251168184511680821785525050505050509050019150509081526020016040518091039020600b0160026101000a81548160ff021916908360ff1602179055506000600c826040518082805190602001908083835b602083101515613fca5780518252602082019150602081019050602083039250613fa5565b6001836020036101000a0380198251168184511680821785525050505050509050019150509081526020016040518091039020600b0160036101000a81548160ff021916908360ff1602179055505b3373ffffffffffffffffffffffffffffffffffffffff16600c846040518082805190602001908083835b6020831015156140685780518252602082019150602081019050602083039250614043565b6001836020036101000a0380198251168184511680821785525050505050509050019150509081526020016040518091039020600b0160049054906101000a900473ffffffffffffffffffffffffffffffffffffffff1673ffffffffffffffffffffffffffffffffffffffff161415156140e157600080fd5b81600c846040518082805190602001908083835b60208310151561411a57805182526020820191506020810190506020830392506140f5565b6001836020036101000a0380198251168184511680821785525050505050509050019150509081526020016040518091039020600c01819055506001600c846040518082805190602001908083835b60208310151561418e5780518252602082019150602081019050602083039250614169565b6001836020036101000a0380198251168184511680821785525050505050509050019150509081526020016040518091039020600d0160006101000a81548160ff0219169083151502179055506001601060008282540192505081905550600f839080600181540180825580915050906001820390600052602060002001600090919290919091509080519060200190614229929190617663565b5050505050565b60003373ffffffffffffffffffffffffffffffffffffffff16600c836040518082805190602001908083835b602083101515614281578051825260208201915060208101905060208303925061425c565b6001836020036101000a0380198251168184511680821785525050505050509050019150509081526020016040518091039020600b0160049054906101000a900473ffffffffffffffffffffffffffffffffffffffff1673ffffffffffffffffffffffffffffffffffffffff161415156142fa57600080fd5b600c826040518082805190602001908083835b602083101515614332578051825260208201915060208101905060208303925061430d565b6001836020036101000a0380198251168184511680821785525050505050509050019150509081526020016040518091039020600b0160019054906101000a900460ff169050919050565b3373ffffffffffffffffffffffffffffffffffffffff168273ffffffffffffffffffffffffffffffffffffffff16141515156143ee576040517f08c379a00000000000000000000000000000000000000000000000000000000081526004016143e590618584565b60405180910390fd5b80600460003373ffffffffffffffffffffffffffffffffffffffff1673ffffffffffffffffffffffffffffffffffffffff16815260200190815260200160002060008473ffffffffffffffffffffffffffffffffffffffff1673ffffffffffffffffffffffffffffffffffffffff16815260200190815260200160002060006101000a81548160ff0219169083151502179055508173ffffffffffffffffffffffffffffffffffffffff163373ffffffffffffffffffffffffffffffffffffffff167f17307eab39ab6107e8899845ad3d59bd9653f200f220920489ca2b5937696c31836040516144df9190618495565b60405180910390a35050565b6060600c826040518082805190602001908083835b6020831015156145255780518252602082019150602081019050602083039250614500565b6001836020036101000a03801982511681845116808217855250505050505090500191505090815260200160405180910390206008018054600181600116156101000203166002900480601f0160208091040260200160405190810160405280929190818152602001828054600181600116156101000203166002900480156145ef5780601f106145c4576101008083540402835291602001916145ef565b820191906000526020600020905b8154815290600101906020018083116145d257829003601f168201915b50505050509050919050565b6060600c826040518082805190602001908083835b6020831015156146355780518252602082019150602081019050602083039250614610565b6001836020036101000a03801982511681845116808217855250505050505090500191505090815260200160405180910390206001018054600181600116156101000203166002900480601f0160208091040260200160405190810160405280929190818152602001828054600181600116156101000203166002900480156146ff5780601f106146d4576101008083540402835291602001916146ff565b820191906000526020600020905b8154815290600101906020018083116146e257829003601f168201915b50505050509050919050565b6060600c826040518082805190602001908083835b6020831015156147455780518252602082019150602081019050602083039250614720565b6001836020036101000a03801982511681845116808217855250505050505090500191505090815260200160405180910390206006018054600181600116156101000203166002900480601f01602080910402602001604051908101604052809291908181526020018280546001816001161561010002031660029004801561480f5780601f106147e45761010080835404028352916020019161480f565b820191906000526020600020905b8154815290600101906020018083116147f257829003601f168201915b50505050509050919050565b600f8181548110151561482a57fe5b906000526020600020016000915090508054600181600116156101000203166002900480601f0160208091040260200160405190810160405280929190818152602001828054600181600116156101000203166002900480156148ce5780601f106148a3576101008083540402835291602001916148ce565b820191906000526020600020905b8154815290600101906020018083116148b157829003601f168201915b505050505081565b6148e1848484611a51565b6148ed84848484616b60565b151561492e576040517f08c379a000000000000000000000000000000000000000000000000000000000815260040161492590618544565b60405180910390fd5b50505050565b6060600c826040518082805190602001908083835b60208310151561496e5780518252602082019150602081019050602083039250614949565b6001836020036101000a03801982511681845116808217855250505050505090500191505090815260200160405180910390206005018054600181600116156101000203166002900480601f016020809104026020016040519081016040528092919081815260200182805460018160011615610100020316600290048015614a385780601f10614a0d57610100808354040283529160200191614a38565b820191906000526020600020905b815481529060010190602001808311614a1b57829003601f168201915b50505050509050919050565b6060614a4f82615e34565b1515614a90576040517f08c379a0000000000000000000000000000000000000000000000000000000008152600401614a8790618684565b60405180910390fd5b600b60008381526020019081526020016000208054600181600116156101000203166002900480601f016020809104026020016040519081016040528092919081815260200182805460018160011615610100020316600290048015614b375780601f10614b0c57610100808354040283529160200191614b37565b820191906000526020600020905b815481529060010190602001808311614b1a57829003601f168201915b50505050509050919050565b60003373ffffffffffffffffffffffffffffffffffffffff16600c836040518082805190602001908083835b602083101515614b945780518252602082019150602081019050602083039250614b6f565b6001836020036101000a0380198251168184511680821785525050505050509050019150509081526020016040518091039020600b0160049054906101000a900473ffffffffffffffffffffffffffffffffffffffff1673ffffffffffffffffffffffffffffffffffffffff16141515614c0d57600080fd5b600c826040518082805190602001908083835b602083101515614c455780518252602082019150602081019050602083039250614c20565b6001836020036101000a0380198251168184511680821785525050505050509050019150509081526020016040518091039020600b0160009054906101000a900460ff169050919050565b6000816000600c826040518082805190602001908083835b602083101515614ccd5780518252602082019150602081019050602083039250614ca8565b6001836020036101000a0380198251168184511680821785525050505050509050019150509081526020016040518091039020600b0160029054906101000a900460ff1660ff161115614f25576040600c826040518082805190602001908083835b602083101515614d545780518252602082019150602081019050602083039250614d2f565b6001836020036101000a0380198251168184511680821785525050505050509050019150509081526020016040518091039020600b0160009054906101000a900460ff1660ff16811515614da457fe5b04610e10600c836040518082805190602001908083835b602083101515614de05780518252602082019150602081019050602083039250614dbb565b6001836020036101000a0380198251168184511680821785525050505050509050019150509081526020016040518091039020600e01544203811515614e2257fe5b040260ff03600c826040518082805190602001908083835b602083101515614e5f5780518252602082019150602081019050602083039250614e3a565b6001836020036101000a0380198251168184511680821785525050505050509050019150509081526020016040518091039020600b0160026101000a81548160ff021916908360ff16021790555042600c826040518082805190602001908083835b602083101515614ee65780518252602082019150602081019050602083039250614ec1565b6001836020036101000a0380198251168184511680821785525050505050509050019150509081526020016040518091039020600e0181905550615036565b6000600c826040518082805190602001908083835b602083101515614f5f5780518252602082019150602081019050602083039250614f3a565b6001836020036101000a0380198251168184511680821785525050505050509050019150509081526020016040518091039020600b0160026101000a81548160ff021916908360ff1602179055506000600c826040518082805190602001908083835b602083101515614fe75780518252602082019150602081019050602083039250614fc2565b6001836020036101000a0380198251168184511680821785525050505050509050019150509081526020016040518091039020600b0160036101000a81548160ff021916908360ff1602179055505b3373ffffffffffffffffffffffffffffffffffffffff16600c846040518082805190602001908083835b6020831015156150855780518252602082019150602081019050602083039250615060565b6001836020036101000a0380198251168184511680821785525050505050509050019150509081526020016040518091039020600b0160049054906101000a900473ffffffffffffffffffffffffffffffffffffffff1673ffffffffffffffffffffffffffffffffffffffff161415156150fe57600080fd5b600c836040518082805190602001908083835b6020831015156151365780518252602082019150602081019050602083039250615111565b6001836020036101000a0380198251168184511680821785525050505050509050019150509081526020016040518091039020600b0160039054906101000a900460ff16915050919050565b6060600c826040518082805190602001908083835b6020831015156151bc5780518252602082019150602081019050602083039250615197565b6001836020036101000a03801982511681845116808217855250505050505090500191505090815260200160405180910390206007018054600181600116156101000203166002900480601f0160208091040260200160405190810160405280929190818152602001828054600181600116156101000203166002900480156152865780601f1061525b57610100808354040283529160200191615286565b820191906000526020600020905b81548152906001019060200180831161526957829003601f168201915b50505050509050919050565b3373ffffffffffffffffffffffffffffffffffffffff16600c826040518082805190602001908083835b6020831015156152e157805182526020820191506020810190506020830392506152bc565b6001836020036101000a0380198251168184511680821785525050505050509050019150509081526020016040518091039020600b0160049054906101000a900473ffffffffffffffffffffffffffffffffffffffff1673ffffffffffffffffffffffffffffffffffffffff1614151561535a57600080fd5b600066071afd498d0000905080341015151561537557600080fd5b60003090508073ffffffffffffffffffffffffffffffffffffffff166108fc839081150290604051600060405180830381858888f193505050501580156153c0573d6000803e3d6000fd5b5042600c846040518082805190602001908083835b6020831015156153fa57805182526020820191506020810190506020830392506153d5565b6001836020036101000a03801982511681845116808217855250505050505090500191505090815260200160405180910390205050505050565b6000600460008473ffffffffffffffffffffffffffffffffffffffff1673ffffffffffffffffffffffffffffffffffffffff16815260200190815260200160002060008373ffffffffffffffffffffffffffffffffffffffff1673ffffffffffffffffffffffffffffffffffffffff16815260200190815260200160002060009054906101000a900460ff16905092915050565b806000600c826040518082805190602001908083835b60208310151561550357805182526020820191506020810190506020830392506154de565b6001836020036101000a0380198251168184511680821785525050505050509050019150509081526020016040518091039020600b0160029054906101000a900460ff1660ff16111561575b576040600c826040518082805190602001908083835b60208310151561558a5780518252602082019150602081019050602083039250615565565b6001836020036101000a0380198251168184511680821785525050505050509050019150509081526020016040518091039020600b0160009054906101000a900460ff1660ff168115156155da57fe5b04610e10600c836040518082805190602001908083835b60208310151561561657805182526020820191506020810190506020830392506155f1565b6001836020036101000a0380198251168184511680821785525050505050509050019150509081526020016040518091039020600e0154420381151561565857fe5b040260ff03600c826040518082805190602001908083835b6020831015156156955780518252602082019150602081019050602083039250615670565b6001836020036101000a0380198251168184511680821785525050505050509050019150509081526020016040518091039020600b0160026101000a81548160ff021916908360ff16021790555042600c826040518082805190602001908083835b60208310151561571c57805182526020820191506020810190506020830392506156f7565b6001836020036101000a0380198251168184511680821785525050505050509050019150509081526020016040518091039020600e018190555061586c565b6000600c826040518082805190602001908083835b6020831015156157955780518252602082019150602081019050602083039250615770565b6001836020036101000a0380198251168184511680821785525050505050509050019150509081526020016040518091039020600b0160026101000a81548160ff021916908360ff1602179055506000600c826040518082805190602001908083835b60208310151561581d57805182526020820191506020810190506020830392506157f8565b6001836020036101000a0380198251168184511680821785525050505050509050019150509081526020016040518091039020600b0160036101000a81548160ff021916908360ff1602179055505b3373ffffffffffffffffffffffffffffffffffffffff16600c836040518082805190602001908083835b6020831015156158bb5780518252602082019150602081019050602083039250615896565b6001836020036101000a0380198251168184511680821785525050505050509050019150509081526020016040518091039020600b0160049054906101000a900473ffffffffffffffffffffffffffffffffffffffff1673ffffffffffffffffffffffffffffffffffffffff1614151561593457600080fd5b61593e8233615ea6565b5050565b6000816000600c826040518082805190602001908083835b60208310151561597f578051825260208201915060208101905060208303925061595a565b6001836020036101000a0380198251168184511680821785525050505050509050019150509081526020016040518091039020600b0160029054906101000a900460ff1660ff161115615bd7576040600c826040518082805190602001908083835b602083101515615a0657805182526020820191506020810190506020830392506159e1565b6001836020036101000a0380198251168184511680821785525050505050509050019150509081526020016040518091039020600b0160009054906101000a900460ff1660ff16811515615a5657fe5b04610e10600c836040518082805190602001908083835b602083101515615a925780518252602082019150602081019050602083039250615a6d565b6001836020036101000a0380198251168184511680821785525050505050509050019150509081526020016040518091039020600e01544203811515615ad457fe5b040260ff03600c826040518082805190602001908083835b602083101515615b115780518252602082019150602081019050602083039250615aec565b6001836020036101000a0380198251168184511680821785525050505050509050019150509081526020016040518091039020600b0160026101000a81548160ff021916908360ff16021790555042600c826040518082805190602001908083835b602083101515615b985780518252602082019150602081019050602083039250615b73565b6001836020036101000a0380198251168184511680821785525050505050509050019150509081526020016040518091039020600e0181905550615ce8565b6000600c826040518082805190602001908083835b602083101515615c115780518252602082019150602081019050602083039250615bec565b6001836020036101000a0380198251168184511680821785525050505050509050019150509081526020016040518091039020600b0160026101000a81548160ff021916908360ff1602179055506000600c826040518082805190602001908083835b602083101515615c995780518252602082019150602081019050602083039250615c74565b6001836020036101000a0380198251168184511680821785525050505050509050019150509081526020016040518091039020600b0160036101000a81548160ff021916908360ff1602179055505b3373ffffffffffffffffffffffffffffffffffffffff16600c846040518082805190602001908083835b602083101515615d375780518252602082019150602081019050602083039250615d12565b6001836020036101000a0380198251168184511680821785525050505050509050019150509081526020016040518091039020600b0160049054906101000a900473ffffffffffffffffffffffffffffffffffffffff1673ffffffffffffffffffffffffffffffffffffffff16141515615db057600080fd5b600c836040518082805190602001908083835b602083101515615de85780518252602082019150602081019050602083039250615dc3565b6001836020036101000a0380198251168184511680821785525050505050509050019150509081526020016040518091039020600b0160029054906101000a900460ff16915050919050565b6000806001600084815260200190815260200160002060009054906101000a900473ffffffffffffffffffffffffffffffffffffffff169050600073ffffffffffffffffffffffffffffffffffffffff168173ffffffffffffffffffffffffffffffffffffffff161415915050919050565b8073ffffffffffffffffffffffffffffffffffffffff16600c836040518082805190602001908083835b602083101515615ef55780518252602082019150602081019050602083039250615ed0565b6001836020036101000a0380198251168184511680821785525050505050509050019150509081526020016040518091039020600b0160049054906101000a900473ffffffffffffffffffffffffffffffffffffffff1673ffffffffffffffffffffffffffffffffffffffff16141515615f6e57600080fd5b600c826040518082805190602001908083835b602083101515615fa65780518252602082019150602081019050602083039250615f81565b6001836020036101000a0380198251168184511680821785525050505050509050019150509081526020016040518091039020600d0160009054906101000a900460ff161515615ff557600080fd5b600060105411151561600657600080fd5b6000600c836040518082805190602001908083835b602083101515616040578051825260208201915060208101905060208303925061601b565b6001836020036101000a0380198251168184511680821785525050505050509050019150509081526020016040518091039020600c01819055506000600c836040518082805190602001908083835b6020831015156160b4578051825260208201915060208101905060208303925061608f565b6001836020036101000a0380198251168184511680821785525050505050509050019150509081526020016040518091039020600d0160006101000a81548160ff02191690831515021790555061610f82600f601054616124565b60016010600082825403925050819055505050565b600080905060018214156161615782805480151561613e57fe5b60019003818190600052602060002001600061615a91906176e3565b905561626e565b60008090505b6001830381101561626c578480519060200120848281548110151561618857fe5b9060005260206000200160405180828054600181600116156101000203166002900480156161ed5780601f106161cb5761010080835404028352918201916161ed565b820191906000526020600020905b8154815290600101906020018083116161d9575b50509150506040518091039020141561620557600191505b811561625f57836001820181548110151561621c57fe5b90600052602060002001848281548110151561623457fe5b90600052602060002001908054600181600116156101000203166002900461625d92919061772b565b505b8080600101915050616167565b505b50505050565b606060008214156162bc576040805190810160405280600181526020017f300000000000000000000000000000000000000000000000000000000000000081525090506163c8565b600082905060005b6000821415156162ea578080600101915050600a828115156162e257fe5b0491506162c4565b6060816040519080825280601f01601f19166020018201604052801561631f5781602001600182028038833980820191505090505b50905060006001830390505b6000861415156163c057600a8681151561634157fe5b066030017f01000000000000000000000000000000000000000000000000000000000000000282828060019003935081518110151561637c57fe5b9060200101907effffffffffffffffffffffffffffffffffffffffffffffffffffffffffffff1916908160001a905350600a868115156163b857fe5b04955061632b565b819450505050505b919050565b60606163d76177b2565b610260604051908101604052806163f18660006006616a51565b81526020016164038660066008616a51565b8152602001616415866008600e616a51565b815260200161642786600e6010616a51565b81526020016164398660106012616a51565b815260200161644b8660126018616a51565b815260200161645d866018601e616a51565b815260200161646f86601e6020616a51565b81526020016164818660206026616a51565b8152602001616493866026602c616a51565b81526020016164a586602c602e616a51565b81526020016164bf6164ba87602e6030616a51565b616cb1565b60ff1681526020016164dc6164d78760306032616a51565b616cb1565b60ff1681526020016164f96164f48760326034616a51565b616cb1565b60ff1681526020016165166165118760346036616a51565b616cb1565b60ff1681526020018473ffffffffffffffffffffffffffffffffffffffff168152602001600a815260200160011515815260200142815250905080600c856040518082805190602001908083835b6020831015156165895780518252602082019150602081019050602083039250616564565b6001836020036101000a038019825116818451168082178552505050505050905001915050908152602001604051809103902060008201518160000190805190602001906165d8929190617869565b5060208201518160010190805190602001906165f5929190617869565b506040820151816002019080519060200190616612929190617869565b50606082015181600301908051906020019061662f929190617869565b50608082015181600401908051906020019061664c929190617869565b5060a0820151816005019080519060200190616669929190617869565b5060c0820151816006019080519060200190616686929190617869565b5060e08201518160070190805190602001906166a3929190617869565b506101008201518160080190805190602001906166c1929190617869565b506101208201518160090190805190602001906166df929190617869565b5061014082015181600a0190805190602001906166fd929190617869565b5061016082015181600b0160006101000a81548160ff021916908360ff16021790555061018082015181600b0160016101000a81548160ff021916908360ff1602179055506101a082015181600b0160026101000a81548160ff021916908360ff1602179055506101c082015181600b0160036101000a81548160ff021916908360ff1602179055506101e082015181600b0160046101000a81548173ffffffffffffffffffffffffffffffffffffffff021916908373ffffffffffffffffffffffffffffffffffffffff16021790555061020082015181600c015561022082015181600d0160006101000a81548160ff02191690831515021790555061024082015181600e0155905050600d60008473ffffffffffffffffffffffffffffffffffffffff1673ffffffffffffffffffffffffffffffffffffffff168152602001908152602001600020849080600181540180825580915050906001820390600052602060002001600090919290919091509080519060200190616882929190617663565b5050600e60008473ffffffffffffffffffffffffffffffffffffffff1673ffffffffffffffffffffffffffffffffffffffff168152602001908152602001600020600081819054906101000a900460ff168092919060010191906101000a81548160ff021916908360ff160217905550506001601060008282540192505081905550600f849080600181540180825580915050906001820390600052602060002001600090919290919091509080519060200190616941929190617663565b50508391505092915050565b600061695882615e34565b1515616999576040517f08c379a0000000000000000000000000000000000000000000000000000000008152600401616990906185c4565b60405180910390fd5b60006169a4836137f7565b90508073ffffffffffffffffffffffffffffffffffffffff168473ffffffffffffffffffffffffffffffffffffffff161480616a1357508373ffffffffffffffffffffffffffffffffffffffff166169fb84610c6b565b73ffffffffffffffffffffffffffffffffffffffff16145b80616a245750616a238185615434565b5b91505092915050565b616a38838383617061565b616a428382617294565b616a4c8282617438565b505050565b60608084905060608484036040519080825280601f01601f191660200182016040528015616a8e5781602001600182028038833980820191505090505b50905060008590505b84811015616b45578281815181101515616aad57fe5b9060200101517f010000000000000000000000000000000000000000000000000000000000000090047f01000000000000000000000000000000000000000000000000000000000000000282878303815181101515616b0857fe5b9060200101907effffffffffffffffffffffffffffffffffffffffffffffffffffffffffffff1916908160001a9053508080600101915050616a97565b5080925050509392505050565b600081600001549050919050565b6000616b818473ffffffffffffffffffffffffffffffffffffffff166174ff565b1515616b905760019050616ca9565b60008473ffffffffffffffffffffffffffffffffffffffff1663150b7a02338887876040518563ffffffff167c0100000000000000000000000000000000000000000000000000000000028152600401616bed9493929190618419565b602060405180830381600087803b158015616c0757600080fd5b505af1158015616c1b573d6000803e3d6000fd5b505050506040513d601f19601f82011682018060405250616c3f9190810190617c1a565b905063150b7a027c0100000000000000000000000000000000000000000000000000000000027bffffffffffffffffffffffffffffffffffffffffffffffffffffffff1916817bffffffffffffffffffffffffffffffffffffffffffffffffffffffff1916149150505b949350505050565b600060206040519081016040528060008152508051906020012082805190602001201415616ce2576000905061705c565b600080905060397f010000000000000000000000000000000000000000000000000000000000000002836000815181101515616d1a57fe5b9060200101517f010000000000000000000000000000000000000000000000000000000000000090047f0100000000000000000000000000000000000000000000000000000000000000027effffffffffffffffffffffffffffffffffffffffffffffffffffffffffffff1916111515616e1a5760106030846000815181101515616da157fe5b9060200101517f010000000000000000000000000000000000000000000000000000000000000090047f0100000000000000000000000000000000000000000000000000000000000000027f01000000000000000000000000000000000000000000000000000000000000009004030281019050616ea2565b60106031846000815181101515616e2d57fe5b9060200101517f010000000000000000000000000000000000000000000000000000000000000090047f0100000000000000000000000000000000000000000000000000000000000000027f010000000000000000000000000000000000000000000000000000000000000090040302810190505b60397f010000000000000000000000000000000000000000000000000000000000000002836000815181101515616ed557fe5b9060200101517f010000000000000000000000000000000000000000000000000000000000000090047f0100000000000000000000000000000000000000000000000000000000000000027effffffffffffffffffffffffffffffffffffffffffffffffffffffffffffff1916111515616fd2576030836001815181101515616f5a57fe5b9060200101517f010000000000000000000000000000000000000000000000000000000000000090047f0100000000000000000000000000000000000000000000000000000000000000027f010000000000000000000000000000000000000000000000000000000000000090040381019050617057565b6031836001815181101515616fe357fe5b9060200101517f010000000000000000000000000000000000000000000000000000000000000090047f0100000000000000000000000000000000000000000000000000000000000000027f0100000000000000000000000000000000000000000000000000000000000000900403810190505b809150505b919050565b8273ffffffffffffffffffffffffffffffffffffffff16617081826137f7565b73ffffffffffffffffffffffffffffffffffffffff161415156170d9576040517f08c379a00000000000000000000000000000000000000000000000000000000081526004016170d090618664565b60405180910390fd5b600073ffffffffffffffffffffffffffffffffffffffff168273ffffffffffffffffffffffffffffffffffffffff161415151561714b576040517f08c379a000000000000000000000000000000000000000000000000000000000815260040161714290618564565b60405180910390fd5b61715481617512565b61719b600360008573ffffffffffffffffffffffffffffffffffffffff1673ffffffffffffffffffffffffffffffffffffffff1681526020019081526020016000206175d2565b6171e2600360008473ffffffffffffffffffffffffffffffffffffffff1673ffffffffffffffffffffffffffffffffffffffff1681526020019081526020016000206175f5565b816001600083815260200190815260200160002060006101000a81548173ffffffffffffffffffffffffffffffffffffffff021916908373ffffffffffffffffffffffffffffffffffffffff160217905550808273ffffffffffffffffffffffffffffffffffffffff168473ffffffffffffffffffffffffffffffffffffffff167fddf252ad1be2c89b69c2b068fc378daa952ba7f163c4a11628f55a4df523b3ef60405160405180910390a4505050565b60006172ec6001600560008673ffffffffffffffffffffffffffffffffffffffff1673ffffffffffffffffffffffffffffffffffffffff1681526020019081526020016000208054905061760b90919063ffffffff16565b905060006006600084815260200190815260200160002054905081811415156173df576000600560008673ffffffffffffffffffffffffffffffffffffffff1673ffffffffffffffffffffffffffffffffffffffff1681526020019081526020016000208381548110151561735d57fe5b9060005260206000200154905080600560008773ffffffffffffffffffffffffffffffffffffffff1673ffffffffffffffffffffffffffffffffffffffff168152602001908152602001600020838154811015156173b757fe5b9060005260206000200181905550816006600083815260200190815260200160002081905550505b600560008573ffffffffffffffffffffffffffffffffffffffff1673ffffffffffffffffffffffffffffffffffffffff16815260200190815260200160002080548091906001900361743191906178e9565b5050505050565b600560008373ffffffffffffffffffffffffffffffffffffffff1673ffffffffffffffffffffffffffffffffffffffff168152602001908152602001600020805490506006600083815260200190815260200160002081905550600560008373ffffffffffffffffffffffffffffffffffffffff1673ffffffffffffffffffffffffffffffffffffffff1681526020019081526020016000208190806001815401808255809150509060018203906000526020600020016000909192909190915055505050565b600080823b905060008111915050919050565b600073ffffffffffffffffffffffffffffffffffffffff166002600083815260200190815260200160002060009054906101000a900473ffffffffffffffffffffffffffffffffffffffff1673ffffffffffffffffffffffffffffffffffffffff161415156175cf5760006002600083815260200190815260200160002060006101000a81548173ffffffffffffffffffffffffffffffffffffffff021916908373ffffffffffffffffffffffffffffffffffffffff1602179055505b50565b6175ea6001826000015461760b90919063ffffffff16565b816000018190555050565b6001816000016000828254019250508190555050565b6000828211151515617652576040517f08c379a0000000000000000000000000000000000000000000000000000000008152600401617649906185a4565b60405180910390fd5b600082840390508091505092915050565b828054600181600116156101000203166002900490600052602060002090601f016020900481019282601f106176a457805160ff19168380011785556176d2565b828001600101855582156176d2579182015b828111156176d15782518255916020019190600101906176b6565b5b5090506176df9190617915565b5090565b50805460018160011615610100020316600290046000825580601f106177095750617728565b601f0160209004906000526020600020908101906177279190617915565b5b50565b828054600181600116156101000203166002900490600052602060002090601f016020900481019282601f1061776457805485556177a1565b828001600101855582156177a157600052602060002091601f016020900482015b828111156177a0578254825591600101919060010190617785565b5b5090506177ae9190617915565b5090565b610260604051908101604052806060815260200160608152602001606081526020016060815260200160608152602001606081526020016060815260200160608152602001606081526020016060815260200160608152602001600060ff168152602001600060ff168152602001600060ff168152602001600060ff168152602001600073ffffffffffffffffffffffffffffffffffffffff16815260200160008152602001600015158152602001600081525090565b828054600181600116156101000203166002900490600052602060002090601f016020900481019282601f106178aa57805160ff19168380011785556178d8565b828001600101855582156178d8579182015b828111156178d75782518255916020019190600101906178bc565b5b5090506178e59190617915565b5090565b8154818355818111156179105781836000526020600020918201910161790f9190617915565b5b505050565b61793791905b8082111561793357600081600090555060010161791b565b5090565b90565b6000617946823561886c565b905092915050565b600061795a823561887e565b905092915050565b600061796e823561888a565b905092915050565b6000617982825161888a565b905092915050565b600082601f830112151561799d57600080fd5b81356179b06179ab82618767565b61873a565b915080825260208301602083018583830111156179cc57600080fd5b6179d78382846188f6565b50505092915050565b600082601f83011215156179f357600080fd5b8135617a06617a0182618793565b61873a565b91508082526020830160208301858383011115617a2257600080fd5b617a2d8382846188f6565b50505092915050565b6000617a4282356188b6565b905092915050565b600060208284031215617a5c57600080fd5b6000617a6a8482850161793a565b91505092915050565b60008060408385031215617a8657600080fd5b6000617a948582860161793a565b9250506020617aa58582860161793a565b9150509250929050565b600080600060608486031215617ac457600080fd5b6000617ad28682870161793a565b9350506020617ae38682870161793a565b9250506040617af486828701617a36565b9150509250925092565b60008060008060808587031215617b1457600080fd5b6000617b228782880161793a565b9450506020617b338782880161793a565b9350506040617b4487828801617a36565b925050606085013567ffffffffffffffff811115617b6157600080fd5b617b6d8782880161798a565b91505092959194509250565b60008060408385031215617b8c57600080fd5b6000617b9a8582860161793a565b9250506020617bab8582860161794e565b9150509250929050565b60008060408385031215617bc857600080fd5b6000617bd68582860161793a565b9250506020617be785828601617a36565b9150509250929050565b600060208284031215617c0357600080fd5b6000617c1184828501617962565b91505092915050565b600060208284031215617c2c57600080fd5b6000617c3a84828501617976565b91505092915050565b600060208284031215617c5557600080fd5b600082013567ffffffffffffffff811115617c6f57600080fd5b617c7b848285016179e0565b91505092915050565b60008060408385031215617c9757600080fd5b600083013567ffffffffffffffff811115617cb157600080fd5b617cbd858286016179e0565b925050602083013567ffffffffffffffff811115617cda57600080fd5b617ce6858286016179e0565b9150509250929050565b60008060408385031215617d0357600080fd5b600083013567ffffffffffffffff811115617d1d57600080fd5b617d29858286016179e0565b9250506020617d3a85828601617a36565b9150509250929050565b600060208284031215617d5657600080fd5b6000617d6484828501617a36565b91505092915050565b617d76816188c0565b82525050565b617d8581618817565b82525050565b617d9481618805565b82525050565b6000617da5826187cc565b80845260208401935083602082028501617dbe856187bf565b60005b84811015617df7578383038852617dd9838351617e83565b9250617de4826187f8565b9150602088019750600181019050617dc1565b508196508694505050505092915050565b617e1181618829565b82525050565b6000617e22826187d7565b808452617e36816020860160208601618905565b617e3f81618938565b602085010191505092915050565b6000617e58826187ed565b808452617e6c816020860160208601618905565b617e7581618938565b602085010191505092915050565b6000617e8e826187e2565b808452617ea2816020860160208601618905565b617eab81618938565b602085010191505092915050565b6000602b82527f455243373231456e756d657261626c653a206f776e657220696e646578206f7560208301527f74206f6620626f756e64730000000000000000000000000000000000000000006040830152606082019050919050565b6000603282527f4552433732313a207472616e7366657220746f206e6f6e20455243373231526560208301527f63656976657220696d706c656d656e74657200000000000000000000000000006040830152606082019050919050565b6000602482527f4552433732313a207472616e7366657220746f20746865207a65726f2061646460208301527f72657373000000000000000000000000000000000000000000000000000000006040830152606082019050919050565b6000601982527f4552433732313a20617070726f766520746f2063616c6c6572000000000000006020830152604082019050919050565b6000601e82527f536166654d6174683a207375627472616374696f6e206f766572666c6f7700006020830152604082019050919050565b6000602c82527f4552433732313a206f70657261746f7220717565727920666f72206e6f6e657860208301527f697374656e7420746f6b656e00000000000000000000000000000000000000006040830152606082019050919050565b6000603882527f4552433732313a20617070726f76652063616c6c6572206973206e6f74206f7760208301527f6e6572206e6f7220617070726f76656420666f7220616c6c00000000000000006040830152606082019050919050565b6000602a82527f4552433732313a2062616c616e636520717565727920666f7220746865207a6560208301527f726f2061646472657373000000000000000000000000000000000000000000006040830152606082019050919050565b6000602982527f4552433732313a206f776e657220717565727920666f72206e6f6e657869737460208301527f656e7420746f6b656e00000000000000000000000000000000000000000000006040830152606082019050919050565b6000602c82527f4552433732313a20617070726f76656420717565727920666f72206e6f6e657860208301527f697374656e7420746f6b656e00000000000000000000000000000000000000006040830152606082019050919050565b6000602982527f4552433732313a207472616e73666572206f6620746f6b656e2074686174206960208301527f73206e6f74206f776e00000000000000000000000000000000000000000000006040830152606082019050919050565b6000602f82527f4552433732314d657461646174613a2055524920717565727920666f72206e6f60208301527f6e6578697374656e7420746f6b656e00000000000000000000000000000000006040830152606082019050919050565b6000602182527f4552433732313a20617070726f76616c20746f2063757272656e74206f776e6560208301527f72000000000000000000000000000000000000000000000000000000000000006040830152606082019050919050565b6000603182527f4552433732313a207472616e736665722063616c6c6572206973206e6f74206f60208301527f776e6572206e6f7220617070726f7665640000000000000000000000000000006040830152606082019050919050565b6000602c82527f455243373231456e756d657261626c653a20676c6f62616c20696e646578206f60208301527f7574206f6620626f756e647300000000000000000000000000000000000000006040830152606082019050919050565b6183e981618855565b82525050565b6183f88161885f565b82525050565b60006020820190506184136000830184617d8b565b92915050565b600060808201905061842e6000830187617d6d565b61843b6020830186617d8b565b61844860408301856183e0565b818103606083015261845a8184617e17565b905095945050505050565b6000604082019050818103600083015261847f8185617d9a565b905061848e60208301846183ef565b9392505050565b60006020820190506184aa6000830184617e08565b92915050565b600060208201905081810360008301526184ca8184617e83565b905092915050565b600060208201905081810360008301526184ec8184617e4d565b905092915050565b6000604082019050818103600083015261850e8185617e4d565b905061851d6020830184617d7c565b9392505050565b6000602082019050818103600083015261853d81617eb9565b9050919050565b6000602082019050818103600083015261855d81617f16565b9050919050565b6000602082019050818103600083015261857d81617f73565b9050919050565b6000602082019050818103600083015261859d81617fd0565b9050919050565b600060208201905081810360008301526185bd81618007565b9050919050565b600060208201905081810360008301526185dd8161803e565b9050919050565b600060208201905081810360008301526185fd8161809b565b9050919050565b6000602082019050818103600083015261861d816180f8565b9050919050565b6000602082019050818103600083015261863d81618155565b9050919050565b6000602082019050818103600083015261865d816181b2565b9050919050565b6000602082019050818103600083015261867d8161820f565b9050919050565b6000602082019050818103600083015261869d8161826c565b9050919050565b600060208201905081810360008301526186bd816182c9565b9050919050565b600060208201905081810360008301526186dd81618326565b9050919050565b600060208201905081810360008301526186fd81618383565b9050919050565b600060208201905061871960008301846183e0565b92915050565b600060208201905061873460008301846183ef565b92915050565b6000604051905081810181811067ffffffffffffffff8211171561875d57600080fd5b8060405250919050565b600067ffffffffffffffff82111561877e57600080fd5b601f19601f8301169050602081019050919050565b600067ffffffffffffffff8211156187aa57600080fd5b601f19601f8301169050602081019050919050565b6000602082019050919050565b600081519050919050565b600081519050919050565b600081519050919050565b600081519050919050565b6000602082019050919050565b600061881082618835565b9050919050565b600061882282618835565b9050919050565b60008115159050919050565b600073ffffffffffffffffffffffffffffffffffffffff82169050919050565b6000819050919050565b600060ff82169050919050565b600061887782618835565b9050919050565b60008115159050919050565b60007fffffffff0000000000000000000000000000000000000000000000000000000082169050919050565b6000819050919050565b60006188cb826188d2565b9050919050565b60006188dd826188e4565b9050919050565b60006188ef82618835565b9050919050565b82818337600083830152505050565b60005b83811015618923578082015181840152602081019050618908565b83811115618932576000848401525b50505050565b6000601f19601f830116905091905056fea265627a7a723058206703dea1a4a87ef5238eadd5c45f659765a7fdef477d7c7c3eb463a7bf7b7a1a6c6578706572696d656e74616cf50037",
  "source": "pragma solidity ^0.5.0;\npragma experimental ABIEncoderV2;\n\nimport \"./ERC721Full.sol\";\n\ncontract Pisi is ERC721Full {\n    // string[] public colors;\n    // mapping(string => bool) _colorExists;\n\n    struct PisiAttributes {\n        string eyeColor;\n        string eyeSize;\n        \n        string headColor;\n        string headSize;\n        \n        string beardSize;\n        \n        string tailColor;\n        string tailAccentColor;\n        string tailSize;\n        \n        string bodyColor;\n        string bodyAccentColor;\n\n        string stripeType;\n        \n        uint8 hungerness;\n        uint8 fragility;\n        uint8 fertility;\n        uint8 appeal;\n\n        address payable owner;\n        uint256 price;\n        bool onSale;\n        uint lastFeedingTime;\n    }\n    \n    mapping(string => PisiAttributes) _pisiCollection;\n    mapping(address => string[]) _personalCollection;\n    mapping(address => uint8) _personalCollectionSize;\n\n    string[] public _pisiHashesToSell;\n    uint256 public onSaleCount;\n\n    constructor() ERC721Full(\"Pisi\", \"PISI\") public {\n\n    }\n\n    function mint() public returns (string memory) {\n        uint256 rand = uint256(keccak256(abi.encodePacked(block.timestamp, block.difficulty, msg.sender)));\n\n        return decodeAttributes(uint2str(rand), msg.sender);\n    }\n\n    function decodeAttributes(string memory hashedAttr, address payable owner) internal returns (string memory){\n        PisiAttributes memory pa = PisiAttributes(\n            getNumberBetween(hashedAttr, 0, 6), // eyeColor, \n            getNumberBetween(hashedAttr, 6, 8), // eyeSize, \n            \n            getNumberBetween(hashedAttr, 8, 14), // headColor, \n            getNumberBetween(hashedAttr, 14, 16), // headSize, \n            \n            getNumberBetween(hashedAttr, 16, 18), // beardSize, *****\n            \n            getNumberBetween(hashedAttr, 18, 24), // tailColor, \n            getNumberBetween(hashedAttr, 24, 30), // tailAccentColor, *****\n            getNumberBetween(hashedAttr, 30, 32), // tailSize, \n            \n            getNumberBetween(hashedAttr, 32, 38), // bodyColor, \n            getNumberBetween(hashedAttr, 38, 44), // bodyAccentColor, \n    \n            getNumberBetween(hashedAttr, 44, 46), // stripeType, \n\n            str2Hexuint(getNumberBetween(hashedAttr, 46, 48)), // hungerness, \n            str2Hexuint(getNumberBetween(hashedAttr, 48, 50)), // fragility, \n            str2Hexuint(getNumberBetween(hashedAttr, 50, 52)), // fertility, \n            str2Hexuint(getNumberBetween(hashedAttr, 52, 54)), // appeal\n\n            owner,\n            10,\n            true,\n            block.timestamp\n        );\n\n        _pisiCollection[hashedAttr] = pa;\n        _personalCollection[owner].push(hashedAttr);\n        _personalCollectionSize[owner]++;\n        \n        onSaleCount += 1;\n\n        _pisiHashesToSell.push(hashedAttr);\n        return hashedAttr;\n    }\n\n    function testAttributes(string memory hashedAttr) public returns (string memory) {\n        address(this).delegatecall(abi.encodeWithSignature(\"decodeAttributes(string, address payable)\", hashedAttr, msg.sender));\n\n        return decodeAttributes(hashedAttr, msg.sender);\n    }\n\n    function putToSale(string memory pisiHash, uint256 price) public decreaseAppeal(pisiHash) {\n        require(_pisiCollection[pisiHash].owner == msg.sender);\n\n        _pisiCollection[pisiHash].price = price;\n        _pisiCollection[pisiHash].onSale = true;\n        onSaleCount += 1;\n        \n        _pisiHashesToSell.push(pisiHash);\n    }\n\n    function putDownFromSale(string memory pisiHash) public decreaseAppeal(pisiHash) {\n        require(_pisiCollection[pisiHash].owner == msg.sender);\n\n        removeElement(pisiHash, msg.sender);\n    }\n\n    function transferPisi(string memory pisiHash) public payable decreaseAppeal(pisiHash) {\n        require(_pisiCollection[pisiHash].price <= msg.value);\n        require(_pisiCollection[pisiHash].onSale == true);\n        require(_pisiCollection[pisiHash].owner != msg.sender);\n\n        _pisiCollection[pisiHash].owner.transfer(_pisiCollection[pisiHash].price);\n\n        address oldOwner = _pisiCollection[pisiHash].owner;\n\n        _pisiCollection[pisiHash].owner = msg.sender;\n\n        removeElement(pisiHash, msg.sender);\n\n        removeElementFromArray(pisiHash, _personalCollection[oldOwner], _personalCollectionSize[oldOwner]);\n        _personalCollectionSize[oldOwner]--;\n\n        _personalCollection[msg.sender].push(pisiHash);\n        _personalCollectionSize[msg.sender]++;\n    }\n\n    function breed(string memory pisiHash1, string memory pisiHash2) public decreaseAppeal(pisiHash1) decreaseAppeal(pisiHash2) returns (string memory) {\n        require(_pisiCollection[pisiHash1].owner == msg.sender);\n        require(_pisiCollection[pisiHash2].owner == msg.sender);\n        require(_pisiCollection[pisiHash1].appeal > 0 && _pisiCollection[pisiHash2].appeal > 0);\n\n        uint8 rand = uint8(uint256(keccak256(abi.encodePacked(block.timestamp, _pisiCollection[pisiHash1].fertility, _pisiCollection[pisiHash2].fertility))) % 256);\n\n        require(uint16(rand) < uint16(_pisiCollection[pisiHash1].appeal) + uint16(_pisiCollection[pisiHash2].appeal));\n\n        if (_pisiCollection[pisiHash1].fertility > _pisiCollection[pisiHash2].fertility && _pisiCollection[pisiHash1].appeal > _pisiCollection[pisiHash2].appeal) {\n            return decodeAttributes(pisiHash1, msg.sender);\n        }else if(_pisiCollection[pisiHash1].fertility > _pisiCollection[pisiHash2].fertility && _pisiCollection[pisiHash1].appeal < _pisiCollection[pisiHash2].appeal) {\n            return decodeAttributes(string(abi.encodePacked(getNumberBetween(pisiHash1, 0, 30), getNumberBetween(pisiHash2, 30, 63))), msg.sender);\n        } else if(_pisiCollection[pisiHash1].fertility < _pisiCollection[pisiHash2].fertility && _pisiCollection[pisiHash1].appeal > _pisiCollection[pisiHash2].appeal) {\n            return decodeAttributes(string(abi.encodePacked(getNumberBetween(pisiHash1, 30, 63), getNumberBetween(pisiHash2, 0, 30))), msg.sender);\n        } else {\n            return decodeAttributes(pisiHash2, msg.sender);\n        }\n    }\n\n    function gatherPersonalPisis() public view returns (string[] memory, uint8) {\n        return (_personalCollection[msg.sender], _personalCollectionSize[msg.sender]);\n    }\n\n    function feed(string memory pisiHash) public payable {\n        require(_pisiCollection[pisiHash].owner == msg.sender);\n\n        uint costOfFeeding = 0.002 ether;\n\n        require(msg.value >= costOfFeeding);\n\n        address payable thisAddr = address(uint160(address(this)));\n\n        thisAddr.transfer(costOfFeeding);\n\n        _pisiCollection[pisiHash].lastFeedingTime == block.timestamp;\n    }\n\n    modifier decreaseAppeal(string memory pisiHash) {\n        if(_pisiCollection[pisiHash].fertility > 0){\n            _pisiCollection[pisiHash].fertility = 255 - uint8((block.timestamp - _pisiCollection[pisiHash].lastFeedingTime) / 1 hours) * (_pisiCollection[pisiHash].hungerness / 64);\n            _pisiCollection[pisiHash].lastFeedingTime = block.timestamp;\n        } else{\n            _pisiCollection[pisiHash].fertility = 0;\n            _pisiCollection[pisiHash].appeal = 0;\n        }\n\n        _;\n    }\n\n    // HELPER FUNCTIONS\n\n    function removeElement(string memory pisiHashToRemove, address payable _owner) internal {\n        require(_pisiCollection[pisiHashToRemove].owner == _owner);\n        require(_pisiCollection[pisiHashToRemove].onSale);\n        require(onSaleCount > 0);\n        \n        _pisiCollection[pisiHashToRemove].price = 0;\n        _pisiCollection[pisiHashToRemove].onSale = false;\n\n        removeElementFromArray(pisiHashToRemove, _pisiHashesToSell, onSaleCount);\n\n        onSaleCount -= 1;\n    }\n\n    function removeElementFromArray(string memory toRemove, string[] storage removeFrom, uint count) internal {\n        bool move = false;\n\n        if(count == 1){\n            removeFrom.pop();\n        } else{\n            for (uint i = 0; i < count - 1; i++){\n                if(keccak256(bytes(removeFrom[i])) == keccak256(bytes(toRemove))){\n                    move = true;\n                }\n\n                if(move){\n                    removeFrom[i] = removeFrom[i + 1];\n                }\n            }\n        }\n    }\n    \n    function uint2str(uint _i) internal pure returns (string memory _uintAsString) {\n        if (_i == 0) {\n            return \"0\";\n        }\n        uint j = _i;\n        uint len;\n        while (j != 0) {\n            len++;\n            j /= 10;\n        }\n        bytes memory bstr = new bytes(len);\n        uint k = len - 1;\n        while (_i != 0) {\n            bstr[k--] = byte(uint8(48 + _i % 10));\n            _i /= 10;\n        }\n        return string(bstr);\n    }\n\n    function str2Hexuint(string memory _input) internal pure returns (uint8) {\n        if(keccak256(bytes(_input)) == keccak256(bytes(\"\"))) {\n            return 0;\n        }\n\n        uint8 res = 0;\n\n        if(bytes(_input)[0] <= 0x39){\n            res += (uint8(bytes(_input)[0]) - 0x30) * 16;\n        }else {\n            res += (uint8(bytes(_input)[0]) - 0x31) * 16;\n        }\n\n        if(bytes(_input)[0] <= 0x39){\n            res += (uint8(bytes(_input)[1]) - 0x30);\n        }else {\n            res += (uint8(bytes(_input)[1]) - 0x31);\n        }\n\n        return res;\n    }\n\n    // function getBodyAttr(string memory pisiHash, uint8 attCode) public view returns(string memory){\n    //     require(attCode < 7);\n\n    //     if(attCode == 0){ // eyeColor;\n    //         return _pisiCollection[pisiHash].eyeColor;\n    //     } else if(attCode == 1){ // eyeSize\n    //         return _pisiCollection[pisiHash].eyeSize;\n    //     } else if(attCode == 2){ // headColor\n    //         return _pisiCollection[pisiHash].headColor;\n    //     } else if(attCode == 3){ // headSize\n    //         return _pisiCollection[pisiHash].headSize;\n    //     } else if(attCode == 4){ // beardSize\n    //         return _pisiCollection[pisiHash].beardSize;\n    //     } else if(attCode == 5){ // tailColor\n    //         return _pisiCollection[pisiHash].tailColor;\n    //     } else if(attCode == 6){ // tailAccentColor\n    //         return _pisiCollection[pisiHash].tailAccentColor;\n    //     } else if(attCode == 6){ // tailSize\n    //         return _pisiCollection[pisiHash].tailSize;\n    //     } else if(attCode == 6){ // bodyColor\n    //         return _pisiCollection[pisiHash].bodyColor;\n    //     } else if(attCode == 6){ // bodyAccentColor\n    //         return _pisiCollection[pisiHash].bodyAccentColor;\n    //     } else if(attCode == 6){ // stripeType\n    //         return _pisiCollection[pisiHash].stripeType;\n    //     }else {\n    //         return \"\";\n    //     }\n    // }\n\n    // function getCharAttr(string memory pisiHash, uint8 attCode) public view returns(uint8){\n    //     require(_pisiCollection[pisiHash].owner <= msg.sender);\n    //     require(attCode < 4);\n\n    //     if(attCode == 0){ // hungerness;\n    //         return _pisiCollection[pisiHash].hungerness;\n    //     } else if(attCode == 1){ // fragility\n    //         return _pisiCollection[pisiHash].fragility;\n    //     } else if(attCode == 2){ // fertility\n    //         return _pisiCollection[pisiHash].fertility;\n    //     } else if(attCode == 3){ // appeal\n    //         return _pisiCollection[pisiHash].appeal;\n    //     } else {\n    //         return 0;\n    //     }\n    // }\n\n    function getEyeColor(string memory pisiHash) public view returns(string memory) {\n        return _pisiCollection[pisiHash].eyeColor;\n    }\n\n    function getEyeSize(string memory pisiHash) public view returns(string memory) {\n        return _pisiCollection[pisiHash].eyeSize;\n    }\n\n    function getHeadColor(string memory pisiHash) public view returns(string memory) {\n        return _pisiCollection[pisiHash].headColor;\n    }\n\n    function getHeadSize(string memory pisiHash) public view returns(string memory) {\n        return _pisiCollection[pisiHash].headSize;\n    }\n\n    function getBeardSize(string memory pisiHash) public view returns(string memory) {\n        return _pisiCollection[pisiHash].beardSize;\n    }\n\n    function getTailColor(string memory pisiHash) public view returns(string memory) {\n        return _pisiCollection[pisiHash].tailColor;\n    }\n\n    function getTailAccentColor(string memory pisiHash) public view returns(string memory) {\n        return _pisiCollection[pisiHash].tailAccentColor;\n    }\n\n    function getTailSize(string memory pisiHash) public view returns(string memory) {\n        return _pisiCollection[pisiHash].tailSize;\n    }\n\n    function getBodyColor(string memory pisiHash) public view returns(string memory) {\n        return _pisiCollection[pisiHash].bodyColor;\n    }\n\n    function getBodyAccentColor(string memory pisiHash) public view returns(string memory) {\n        return _pisiCollection[pisiHash].bodyAccentColor;\n    }\n\n    function getStripeType(string memory pisiHash) public view returns(string memory) {\n        return _pisiCollection[pisiHash].stripeType;\n    }\n\n    function getHungerness(string memory pisiHash) public view returns(uint8) {\n        require(_pisiCollection[pisiHash].owner == msg.sender);\n        return _pisiCollection[pisiHash].hungerness;\n    }\n\n    function getFragility(string memory pisiHash) public view returns(uint8) {\n        require(_pisiCollection[pisiHash].owner == msg.sender);\n\n        return _pisiCollection[pisiHash].fragility;\n    }\n\n    function getFertility(string memory pisiHash) public decreaseAppeal(pisiHash) returns(uint8) {\n        require(_pisiCollection[pisiHash].owner == msg.sender);\n\n        return _pisiCollection[pisiHash].fertility;\n    }\n\n    function getAppeal(string memory pisiHash) public decreaseAppeal(pisiHash) returns(uint8) {\n        require(_pisiCollection[pisiHash].owner == msg.sender);\n\n        return _pisiCollection[pisiHash].appeal;\n    }\n\n    function getOwner(string memory pisiHash) public view returns(address) {\n        return _pisiCollection[pisiHash].owner;\n    }\n    function getSale(string memory pisiHash) public view returns(bool) {\n        return _pisiCollection[pisiHash].onSale;\n    }\n function getPrice(string memory pisiHash) public view returns(uint256) {\n        return _pisiCollection[pisiHash].price;\n    }\n\n    function getNumberBetween(string memory str, uint startIndex, uint endIndex) pure internal returns (string memory) {\n        bytes memory strBytes = bytes(str);\n        bytes memory result = new bytes(endIndex-startIndex);\n        for(uint i = startIndex; i < endIndex; i++) {\n            result[i-startIndex] = strBytes[i];\n        }\n        return string(result);\n    }\n}",
  "sourcePath": "/Users/nidanurgunay/Desktop/CryptoPissies/src/contracts/Pisi.sol",
  "compiler": {
    "name": "solc",
    "version": "0.5.0+commit.1d4f565a.Emscripten.clang"
  },
  "schemaVersion": "3.0.2",
  "updatedAt": "2021-05-31T06:49:32.897Z",
  "devdoc": {
    "methods": {
      "approve(address,uint256)": {
        "details": "Approves another address to transfer the given token ID The zero address indicates there is no approved address. There can only be one approved address per token at a given time. Can only be called by the token owner or an approved operator.",
        "params": {
          "to": "address to be approved for the given token ID",
          "tokenId": "uint256 ID of the token to be approved"
        }
      },
      "balanceOf(address)": {
        "details": "Gets the balance of the specified address.",
        "params": {
          "owner": "address to query the balance of"
        },
        "return": "uint256 representing the amount owned by the passed address"
      },
      "getApproved(uint256)": {
        "details": "Gets the approved address for a token ID, or zero if no address set Reverts if the token ID does not exist.",
        "params": {
          "tokenId": "uint256 ID of the token to query the approval of"
        },
        "return": "address currently approved for the given token ID"
      },
      "isApprovedForAll(address,address)": {
        "details": "Tells whether an operator is approved by a given owner.",
        "params": {
          "operator": "operator address which you want to query the approval of",
          "owner": "owner address which you want to query the approval of"
        },
        "return": "bool whether the given operator is approved by the given owner"
      },
      "name()": {
        "details": "Gets the token name.",
        "return": "string representing the token name"
      },
      "ownerOf(uint256)": {
        "details": "Gets the owner of the specified token ID.",
        "params": {
          "tokenId": "uint256 ID of the token to query the owner of"
        },
        "return": "address currently marked as the owner of the given token ID"
      },
      "safeTransferFrom(address,address,uint256)": {
        "details": "Safely transfers the ownership of a given token ID to another address If the target address is a contract, it must implement `onERC721Received`, which is called upon a safe transfer, and return the magic value `bytes4(keccak256(\"onERC721Received(address,address,uint256,bytes)\"))`; otherwise, the transfer is reverted. Requires the msg.sender to be the owner, approved, or operator",
        "params": {
          "from": "current owner of the token",
          "to": "address to receive the ownership of the given token ID",
          "tokenId": "uint256 ID of the token to be transferred"
        }
      },
      "safeTransferFrom(address,address,uint256,bytes)": {
        "details": "Safely transfers the ownership of a given token ID to another address If the target address is a contract, it must implement `onERC721Received`, which is called upon a safe transfer, and return the magic value `bytes4(keccak256(\"onERC721Received(address,address,uint256,bytes)\"))`; otherwise, the transfer is reverted. Requires the msg.sender to be the owner, approved, or operator",
        "params": {
          "_data": "bytes data to send along with a safe transfer check",
          "from": "current owner of the token",
          "to": "address to receive the ownership of the given token ID",
          "tokenId": "uint256 ID of the token to be transferred"
        }
      },
      "setApprovalForAll(address,bool)": {
        "details": "Sets or unsets the approval of a given operator An operator is allowed to transfer all tokens of the sender on their behalf.",
        "params": {
          "approved": "representing the status of the approval to be set",
          "to": "operator address to set the approval"
        }
      },
      "supportsInterface(bytes4)": {
        "details": "See `IERC165.supportsInterface`.     * Time complexity O(1), guaranteed to always use less than 30 000 gas."
      },
      "symbol()": {
        "details": "Gets the token symbol.",
        "return": "string representing the token symbol"
      },
      "tokenByIndex(uint256)": {
        "details": "Gets the token ID at a given index of all the tokens in this contract Reverts if the index is greater or equal to the total number of tokens.",
        "params": {
          "index": "uint256 representing the index to be accessed of the tokens list"
        },
        "return": "uint256 token ID at the given index of the tokens list"
      },
      "tokenOfOwnerByIndex(address,uint256)": {
        "details": "Gets the token ID at a given index of the tokens list of the requested owner.",
        "params": {
          "index": "uint256 representing the index to be accessed of the requested tokens list",
          "owner": "address owning the tokens list to be accessed"
        },
        "return": "uint256 token ID at the given index of the tokens list owned by the requested address"
      },
      "tokenURI(uint256)": {
        "details": "Returns an URI for a given token ID. Throws if the token ID does not exist. May return an empty string.",
        "params": {
          "tokenId": "uint256 ID of the token to query"
        }
      },
      "totalSupply()": {
        "details": "Gets the total amount of tokens stored by the contract.",
        "return": "uint256 representing the total amount of tokens"
      },
      "transferFrom(address,address,uint256)": {
        "details": "Transfers the ownership of a given token ID to another address. Usage of this method is discouraged, use `safeTransferFrom` whenever possible. Requires the msg.sender to be the owner, approved, or operator.",
        "params": {
          "from": "current owner of the token",
          "to": "address to receive the ownership of the given token ID",
          "tokenId": "uint256 ID of the token to be transferred"
        }
      }
    }
  },
  "userdoc": {
    "methods": {}
  }
}