{
  "contractName": "Pisi",
  "abi": [
    {
      "constant": true,
      "inputs": [
        {
          "name": "interfaceId",
          "type": "bytes4"
        }
      ],
      "name": "supportsInterface",
      "outputs": [
        {
          "name": "",
          "type": "bool"
        }
      ],
      "payable": false,
      "stateMutability": "view",
      "type": "function",
      "signature": "0x01ffc9a7"
    },
    {
      "constant": true,
      "inputs": [],
      "name": "name",
      "outputs": [
        {
          "name": "",
          "type": "string"
        }
      ],
      "payable": false,
      "stateMutability": "view",
      "type": "function",
      "signature": "0x06fdde03"
    },
    {
      "constant": true,
      "inputs": [
        {
          "name": "tokenId",
          "type": "uint256"
        }
      ],
      "name": "getApproved",
      "outputs": [
        {
          "name": "",
          "type": "address"
        }
      ],
      "payable": false,
      "stateMutability": "view",
      "type": "function",
      "signature": "0x081812fc"
    },
    {
      "constant": false,
      "inputs": [
        {
          "name": "to",
          "type": "address"
        },
        {
          "name": "tokenId",
          "type": "uint256"
        }
      ],
      "name": "approve",
      "outputs": [],
      "payable": false,
      "stateMutability": "nonpayable",
      "type": "function",
      "signature": "0x095ea7b3"
    },
    {
      "constant": true,
      "inputs": [],
      "name": "totalSupply",
      "outputs": [
        {
          "name": "",
          "type": "uint256"
        }
      ],
      "payable": false,
      "stateMutability": "view",
      "type": "function",
      "signature": "0x18160ddd"
    },
    {
      "constant": false,
      "inputs": [
        {
          "name": "from",
          "type": "address"
        },
        {
          "name": "to",
          "type": "address"
        },
        {
          "name": "tokenId",
          "type": "uint256"
        }
      ],
      "name": "transferFrom",
      "outputs": [],
      "payable": false,
      "stateMutability": "nonpayable",
      "type": "function",
      "signature": "0x23b872dd"
    },
    {
      "constant": true,
      "inputs": [
        {
          "name": "owner",
          "type": "address"
        },
        {
          "name": "index",
          "type": "uint256"
        }
      ],
      "name": "tokenOfOwnerByIndex",
      "outputs": [
        {
          "name": "",
          "type": "uint256"
        }
      ],
      "payable": false,
      "stateMutability": "view",
      "type": "function",
      "signature": "0x2f745c59"
    },
    {
      "constant": true,
      "inputs": [],
      "name": "onSaleCount",
      "outputs": [
        {
          "name": "",
          "type": "uint256"
        }
      ],
      "payable": false,
      "stateMutability": "view",
      "type": "function",
      "signature": "0x356e7863"
    },
    {
      "constant": false,
      "inputs": [
        {
          "name": "from",
          "type": "address"
        },
        {
          "name": "to",
          "type": "address"
        },
        {
          "name": "tokenId",
          "type": "uint256"
        }
      ],
      "name": "safeTransferFrom",
      "outputs": [],
      "payable": false,
      "stateMutability": "nonpayable",
      "type": "function",
      "signature": "0x42842e0e"
    },
    {
      "constant": true,
      "inputs": [
        {
          "name": "index",
          "type": "uint256"
        }
      ],
      "name": "tokenByIndex",
      "outputs": [
        {
          "name": "",
          "type": "uint256"
        }
      ],
      "payable": false,
      "stateMutability": "view",
      "type": "function",
      "signature": "0x4f6ccce7"
    },
    {
      "constant": true,
      "inputs": [
        {
          "name": "tokenId",
          "type": "uint256"
        }
      ],
      "name": "ownerOf",
      "outputs": [
        {
          "name": "",
          "type": "address"
        }
      ],
      "payable": false,
      "stateMutability": "view",
      "type": "function",
      "signature": "0x6352211e"
    },
    {
      "constant": true,
      "inputs": [
        {
          "name": "owner",
          "type": "address"
        }
      ],
      "name": "balanceOf",
      "outputs": [
        {
          "name": "",
          "type": "uint256"
        }
      ],
      "payable": false,
      "stateMutability": "view",
      "type": "function",
      "signature": "0x70a08231"
    },
    {
      "constant": true,
      "inputs": [],
      "name": "symbol",
      "outputs": [
        {
          "name": "",
          "type": "string"
        }
      ],
      "payable": false,
      "stateMutability": "view",
      "type": "function",
      "signature": "0x95d89b41"
    },
    {
      "constant": false,
      "inputs": [
        {
          "name": "to",
          "type": "address"
        },
        {
          "name": "approved",
          "type": "bool"
        }
      ],
      "name": "setApprovalForAll",
      "outputs": [],
      "payable": false,
      "stateMutability": "nonpayable",
      "type": "function",
      "signature": "0xa22cb465"
    },
    {
      "constant": true,
      "inputs": [
        {
          "name": "",
          "type": "uint256"
        }
      ],
      "name": "_pisiHashesToSell",
      "outputs": [
        {
          "name": "",
          "type": "string"
        }
      ],
      "payable": false,
      "stateMutability": "view",
      "type": "function",
      "signature": "0xafc8136c"
    },
    {
      "constant": false,
      "inputs": [
        {
          "name": "from",
          "type": "address"
        },
        {
          "name": "to",
          "type": "address"
        },
        {
          "name": "tokenId",
          "type": "uint256"
        },
        {
          "name": "_data",
          "type": "bytes"
        }
      ],
      "name": "safeTransferFrom",
      "outputs": [],
      "payable": false,
      "stateMutability": "nonpayable",
      "type": "function",
      "signature": "0xb88d4fde"
    },
    {
      "constant": true,
      "inputs": [
        {
          "name": "tokenId",
          "type": "uint256"
        }
      ],
      "name": "tokenURI",
      "outputs": [
        {
          "name": "",
          "type": "string"
        }
      ],
      "payable": false,
      "stateMutability": "view",
      "type": "function",
      "signature": "0xc87b56dd"
    },
    {
      "constant": true,
      "inputs": [
        {
          "name": "owner",
          "type": "address"
        },
        {
          "name": "operator",
          "type": "address"
        }
      ],
      "name": "isApprovedForAll",
      "outputs": [
        {
          "name": "",
          "type": "bool"
        }
      ],
      "payable": false,
      "stateMutability": "view",
      "type": "function",
      "signature": "0xe985e9c5"
    },
    {
      "inputs": [],
      "payable": false,
      "stateMutability": "nonpayable",
      "type": "constructor",
      "signature": "constructor"
    },
    {
      "anonymous": false,
      "inputs": [
        {
          "indexed": true,
          "name": "from",
          "type": "address"
        },
        {
          "indexed": true,
          "name": "to",
          "type": "address"
        },
        {
          "indexed": true,
          "name": "tokenId",
          "type": "uint256"
        }
      ],
      "name": "Transfer",
      "type": "event",
      "signature": "0xddf252ad1be2c89b69c2b068fc378daa952ba7f163c4a11628f55a4df523b3ef"
    },
    {
      "anonymous": false,
      "inputs": [
        {
          "indexed": true,
          "name": "owner",
          "type": "address"
        },
        {
          "indexed": true,
          "name": "approved",
          "type": "address"
        },
        {
          "indexed": true,
          "name": "tokenId",
          "type": "uint256"
        }
      ],
      "name": "Approval",
      "type": "event",
      "signature": "0x8c5be1e5ebec7d5bd14f71427d1e84f3dd0314c0f7b2291e5b200ac8c7c3b925"
    },
    {
      "anonymous": false,
      "inputs": [
        {
          "indexed": true,
          "name": "owner",
          "type": "address"
        },
        {
          "indexed": true,
          "name": "operator",
          "type": "address"
        },
        {
          "indexed": false,
          "name": "approved",
          "type": "bool"
        }
      ],
      "name": "ApprovalForAll",
      "type": "event",
      "signature": "0x17307eab39ab6107e8899845ad3d59bd9653f200f220920489ca2b5937696c31"
    },
    {
      "constant": false,
      "inputs": [
        {
          "name": "_color",
          "type": "string"
        }
      ],
      "name": "mint",
      "outputs": [],
      "payable": false,
      "stateMutability": "nonpayable",
      "type": "function",
      "signature": "0xd85d3d27"
    },
    {
      "constant": false,
      "inputs": [
        {
          "name": "hashedAttr",
          "type": "string"
        }
      ],
      "name": "testAttributes",
      "outputs": [
        {
          "name": "",
          "type": "string"
        }
      ],
      "payable": false,
      "stateMutability": "nonpayable",
      "type": "function",
      "signature": "0x9ace6dc1"
    },
    {
      "constant": false,
      "inputs": [],
      "name": "randomAttributes",
      "outputs": [
        {
          "name": "",
          "type": "string"
        }
      ],
      "payable": false,
      "stateMutability": "nonpayable",
      "type": "function",
      "signature": "0x48c0992b"
    },
    {
      "constant": false,
      "inputs": [
        {
          "name": "pisiHash",
          "type": "string"
        },
        {
          "name": "price",
          "type": "uint256"
        }
      ],
      "name": "putToSale",
      "outputs": [],
      "payable": false,
      "stateMutability": "nonpayable",
      "type": "function",
      "signature": "0x9f66af62"
    },
    {
      "constant": false,
      "inputs": [
        {
          "name": "pisiHash",
          "type": "string"
        }
      ],
      "name": "putDownFromSale",
      "outputs": [],
      "payable": false,
      "stateMutability": "nonpayable",
      "type": "function",
      "signature": "0xf34ee28a"
    },
    {
      "constant": false,
      "inputs": [
        {
          "name": "pisiHash",
          "type": "string"
        }
      ],
      "name": "transferPisi",
      "outputs": [],
      "payable": true,
      "stateMutability": "payable",
      "type": "function",
      "signature": "0x09c39896"
    },
    {
      "constant": true,
      "inputs": [],
      "name": "gatherPersonalPisis",
      "outputs": [
        {
          "name": "",
          "type": "string[]"
        }
      ],
      "payable": false,
      "stateMutability": "view",
      "type": "function",
      "signature": "0x52b56df6"
    },
    {
      "constant": true,
      "inputs": [
        {
          "name": "pisiHash",
          "type": "string"
        }
      ],
      "name": "getEyeColor",
      "outputs": [
        {
          "name": "",
          "type": "string"
        }
      ],
      "payable": false,
      "stateMutability": "view",
      "type": "function",
      "signature": "0x5aee4330"
    },
    {
      "constant": true,
      "inputs": [
        {
          "name": "pisiHash",
          "type": "string"
        }
      ],
      "name": "getEyeSize",
      "outputs": [
        {
          "name": "",
          "type": "string"
        }
      ],
      "payable": false,
      "stateMutability": "view",
      "type": "function",
      "signature": "0xab76c013"
    },
    {
      "constant": true,
      "inputs": [
        {
          "name": "pisiHash",
          "type": "string"
        }
      ],
      "name": "getHeadColor",
      "outputs": [
        {
          "name": "",
          "type": "string"
        }
      ],
      "payable": false,
      "stateMutability": "view",
      "type": "function",
      "signature": "0x2f1c4ba3"
    },
    {
      "constant": true,
      "inputs": [
        {
          "name": "pisiHash",
          "type": "string"
        }
      ],
      "name": "getHeadSize",
      "outputs": [
        {
          "name": "",
          "type": "string"
        }
      ],
      "payable": false,
      "stateMutability": "view",
      "type": "function",
      "signature": "0x72eb3e09"
    },
    {
      "constant": true,
      "inputs": [
        {
          "name": "pisiHash",
          "type": "string"
        }
      ],
      "name": "getBeardSize",
      "outputs": [
        {
          "name": "",
          "type": "string"
        }
      ],
      "payable": false,
      "stateMutability": "view",
      "type": "function",
      "signature": "0x5d30e7e2"
    },
    {
      "constant": true,
      "inputs": [
        {
          "name": "pisiHash",
          "type": "string"
        }
      ],
      "name": "getTailColor",
      "outputs": [
        {
          "name": "",
          "type": "string"
        }
      ],
      "payable": false,
      "stateMutability": "view",
      "type": "function",
      "signature": "0xc5f4496a"
    },
    {
      "constant": true,
      "inputs": [
        {
          "name": "pisiHash",
          "type": "string"
        }
      ],
      "name": "getTailAccentColor",
      "outputs": [
        {
          "name": "",
          "type": "string"
        }
      ],
      "payable": false,
      "stateMutability": "view",
      "type": "function",
      "signature": "0xad267e72"
    },
    {
      "constant": true,
      "inputs": [
        {
          "name": "pisiHash",
          "type": "string"
        }
      ],
      "name": "getTailSize",
      "outputs": [
        {
          "name": "",
          "type": "string"
        }
      ],
      "payable": false,
      "stateMutability": "view",
      "type": "function",
      "signature": "0xe3395e9c"
    },
    {
      "constant": true,
      "inputs": [
        {
          "name": "pisiHash",
          "type": "string"
        }
      ],
      "name": "getBodyColor",
      "outputs": [
        {
          "name": "",
          "type": "string"
        }
      ],
      "payable": false,
      "stateMutability": "view",
      "type": "function",
      "signature": "0xa937f3db"
    },
    {
      "constant": true,
      "inputs": [
        {
          "name": "pisiHash",
          "type": "string"
        }
      ],
      "name": "getBodyAccentColor",
      "outputs": [
        {
          "name": "",
          "type": "string"
        }
      ],
      "payable": false,
      "stateMutability": "view",
      "type": "function",
      "signature": "0x33ccc11a"
    },
    {
      "constant": true,
      "inputs": [
        {
          "name": "pisiHash",
          "type": "string"
        }
      ],
      "name": "getStripeType",
      "outputs": [
        {
          "name": "",
          "type": "string"
        }
      ],
      "payable": false,
      "stateMutability": "view",
      "type": "function",
      "signature": "0x1e9abcac"
    },
    {
      "constant": true,
      "inputs": [
        {
          "name": "pisiHash",
          "type": "string"
        }
      ],
      "name": "getHungerness",
      "outputs": [
        {
          "name": "",
          "type": "string"
        }
      ],
      "payable": false,
      "stateMutability": "view",
      "type": "function",
      "signature": "0xcbc9c4a3"
    },
    {
      "constant": true,
      "inputs": [
        {
          "name": "pisiHash",
          "type": "string"
        }
      ],
      "name": "getFragility",
      "outputs": [
        {
          "name": "",
          "type": "string"
        }
      ],
      "payable": false,
      "stateMutability": "view",
      "type": "function",
      "signature": "0xa1f5fc03"
    },
    {
      "constant": true,
      "inputs": [
        {
          "name": "pisiHash",
          "type": "string"
        }
      ],
      "name": "getFertility",
      "outputs": [
        {
          "name": "",
          "type": "string"
        }
      ],
      "payable": false,
      "stateMutability": "view",
      "type": "function",
      "signature": "0xf7f8c32b"
    },
    {
      "constant": true,
      "inputs": [
        {
          "name": "pisiHash",
          "type": "string"
        }
      ],
      "name": "getAppeal",
      "outputs": [
        {
          "name": "",
          "type": "string"
        }
      ],
      "payable": false,
      "stateMutability": "view",
      "type": "function",
      "signature": "0xd8c6b1da"
    },
    {
      "constant": true,
      "inputs": [
        {
          "name": "pisiHash",
          "type": "string"
        }
      ],
      "name": "getOwner",
      "outputs": [
        {
          "name": "",
          "type": "address"
        }
      ],
      "payable": false,
      "stateMutability": "view",
      "type": "function",
      "signature": "0x4aaf4a12"
    }
  ],
  "bytecode": "0x60806040523480156200001157600080fd5b506040805190810160405280600481526020017f50697369000000000000000000000000000000000000000000000000000000008152506040805190810160405280600481526020017f50495349000000000000000000000000000000000000000000000000000000008152508181620000bd6301ffc9a77c010000000000000000000000000000000000000000000000000000000002620001b0640100000000026401000000009004565b620000fa6380ac58cd7c010000000000000000000000000000000000000000000000000000000002620001b0640100000000026401000000009004565b6200013763780e9d637c010000000000000000000000000000000000000000000000000000000002620001b0640100000000026401000000009004565b81600990805190602001906200014f929190620002a6565b5080600a908051906020019062000168929190620002a6565b50620001a6635b5e139f7c010000000000000000000000000000000000000000000000000000000002620001b0640100000000026401000000009004565b50505050620003ae565b63ffffffff7c010000000000000000000000000000000000000000000000000000000002817bffffffffffffffffffffffffffffffffffffffffffffffffffffffff1916141515156200023a576040517f08c379a000000000000000000000000000000000000000000000000000000000815260040162000231906200038c565b60405180910390fd5b6001600080837bffffffffffffffffffffffffffffffffffffffffffffffffffffffff19167bffffffffffffffffffffffffffffffffffffffffffffffffffffffff1916815260200190815260200160002060006101000a81548160ff02191690831515021790555050565b828054600181600116156101000203166002900490600052602060002090601f016020900481019282601f10620002e957805160ff19168380011785556200031a565b828001600101855582156200031a579182015b8281111562000319578251825591602001919060010190620002fc565b5b5090506200032991906200032d565b5090565b6200035291905b808211156200034e57600081600090555060010162000334565b5090565b90565b6000601c82527f4552433136353a20696e76616c696420696e74657266616365206964000000006020830152604082019050919050565b60006020820190508181036000830152620003a78162000355565b9050919050565b61534680620003be6000396000f3fe6080604052600436106101f9576000357c0100000000000000000000000000000000000000000000000000000000900463ffffffff16806301ffc9a7146101fe57806306fdde031461023b578063081812fc14610266578063095ea7b3146102a357806309c39896146102cc57806318160ddd146102e85780631e9abcac1461031357806323b872dd146103505780632f1c4ba3146103795780632f745c59146103b657806333ccc11a146103f3578063356e78631461043057806342842e0e1461045b57806348c0992b146104845780634aaf4a12146104af5780634f6ccce7146104ec57806352b56df6146105295780635aee4330146105545780635d30e7e2146105915780636352211e146105ce57806370a082311461060b57806372eb3e091461064857806395d89b41146106855780639ace6dc1146106b05780639f66af62146106ed578063a1f5fc0314610716578063a22cb46514610753578063a937f3db1461077c578063ab76c013146107b9578063ad267e72146107f6578063afc8136c14610833578063b88d4fde14610870578063c5f4496a14610899578063c87b56dd146108d6578063cbc9c4a314610913578063d85d3d2714610950578063d8c6b1da14610979578063e3395e9c146109b6578063e985e9c5146109f3578063f34ee28a14610a30578063f7f8c32b14610a59575b600080fd5b34801561020a57600080fd5b5061022560048036036102209190810190614665565b610a96565b6040516102329190614e80565b60405180910390f35b34801561024757600080fd5b50610250610afd565b60405161025d9190614ebd565b60405180910390f35b34801561027257600080fd5b5061028d6004803603610288919081019061474c565b610b9f565b60405161029a9190614df7565b60405180910390f35b3480156102af57600080fd5b506102ca60048036036102c59190810190614629565b610c26565b005b6102e660048036036102e191908101906146b7565b610dd7565b005b3480156102f457600080fd5b506102fd610f9c565b60405161030a91906150ef565b60405180910390f35b34801561031f57600080fd5b5061033a600480360361033591908101906146b7565b610fa9565b6040516103479190614ebd565b60405180910390f35b34801561035c57600080fd5b5061037760048036036103729190810190614523565b6110b9565b005b34801561038557600080fd5b506103a0600480360361039b91908101906146b7565b611114565b6040516103ad9190614ebd565b60405180910390f35b3480156103c257600080fd5b506103dd60048036036103d89190810190614629565b611224565b6040516103ea91906150ef565b60405180910390f35b3480156103ff57600080fd5b5061041a600480360361041591908101906146b7565b6112d1565b6040516104279190614ebd565b60405180910390f35b34801561043c57600080fd5b506104456113e1565b60405161045291906150ef565b60405180910390f35b34801561046757600080fd5b50610482600480360361047d9190810190614523565b6113e7565b005b34801561049057600080fd5b50610499611408565b6040516104a69190614ebd565b60405180910390f35b3480156104bb57600080fd5b506104d660048036036104d191908101906146b7565b61149c565b6040516104e39190614df7565b60405180910390f35b3480156104f857600080fd5b50610513600480360361050e919081019061474c565b611534565b60405161052091906150ef565b60405180910390f35b34801561053557600080fd5b5061053e6115a2565b60405161054b9190614e5e565b60405180910390f35b34801561056057600080fd5b5061057b600480360361057691908101906146b7565b6116c8565b6040516105889190614ebd565b60405180910390f35b34801561059d57600080fd5b506105b860048036036105b391908101906146b7565b6117d8565b6040516105c59190614ebd565b60405180910390f35b3480156105da57600080fd5b506105f560048036036105f0919081019061474c565b6118e8565b6040516106029190614df7565b60405180910390f35b34801561061757600080fd5b50610632600480360361062d91908101906144be565b61199c565b60405161063f91906150ef565b60405180910390f35b34801561065457600080fd5b5061066f600480360361066a91908101906146b7565b611a5d565b60405161067c9190614ebd565b60405180910390f35b34801561069157600080fd5b5061069a611b6d565b6040516106a79190614ebd565b60405180910390f35b3480156106bc57600080fd5b506106d760048036036106d291908101906146b7565b611c0f565b6040516106e49190614ebd565b60405180910390f35b3480156106f957600080fd5b50610714600480360361070f91908101906146f8565b611d66565b005b34801561072257600080fd5b5061073d600480360361073891908101906146b7565b611f7c565b60405161074a9190614ebd565b60405180910390f35b34801561075f57600080fd5b5061077a600480360361077591908101906145ed565b61208c565b005b34801561078857600080fd5b506107a3600480360361079e91908101906146b7565b6121fa565b6040516107b09190614ebd565b60405180910390f35b3480156107c557600080fd5b506107e060048036036107db91908101906146b7565b61230a565b6040516107ed9190614ebd565b60405180910390f35b34801561080257600080fd5b5061081d600480360361081891908101906146b7565b61241a565b60405161082a9190614ebd565b60405180910390f35b34801561083f57600080fd5b5061085a6004803603610855919081019061474c565b61252a565b6040516108679190614e9b565b60405180910390f35b34801561087c57600080fd5b5061089760048036036108929190810190614572565b6125e5565b005b3480156108a557600080fd5b506108c060048036036108bb91908101906146b7565b612643565b6040516108cd9190614ebd565b60405180910390f35b3480156108e257600080fd5b506108fd60048036036108f8919081019061474c565b612753565b60405161090a9190614ebd565b60405180910390f35b34801561091f57600080fd5b5061093a600480360361093591908101906146b7565b612852565b6040516109479190614ebd565b60405180910390f35b34801561095c57600080fd5b50610977600480360361097291908101906146b7565b612962565b005b34801561098557600080fd5b506109a0600480360361099b91908101906146b7565b612965565b6040516109ad9190614ebd565b60405180910390f35b3480156109c257600080fd5b506109dd60048036036109d891908101906146b7565b612a75565b6040516109ea9190614ebd565b60405180910390f35b3480156109ff57600080fd5b50610a1a6004803603610a1591908101906144e7565b612b85565b604051610a279190614e80565b60405180910390f35b348015610a3c57600080fd5b50610a576004803603610a5291908101906146b7565b612c19565b005b348015610a6557600080fd5b50610a806004803603610a7b91908101906146b7565b612cee565b604051610a8d9190614ebd565b60405180910390f35b6000806000837bffffffffffffffffffffffffffffffffffffffffffffffffffffffff19167bffffffffffffffffffffffffffffffffffffffffffffffffffffffff1916815260200190815260200160002060009054906101000a900460ff169050919050565b606060098054600181600116156101000203166002900480601f016020809104026020016040519081016040528092919081815260200182805460018160011615610100020316600290048015610b955780601f10610b6a57610100808354040283529160200191610b95565b820191906000526020600020905b815481529060010190602001808311610b7857829003601f168201915b5050505050905090565b6000610baa82612dfe565b1515610beb576040517f08c379a0000000000000000000000000000000000000000000000000000000008152600401610be29061502f565b60405180910390fd5b6002600083815260200190815260200160002060009054906101000a900473ffffffffffffffffffffffffffffffffffffffff169050919050565b6000610c31826118e8565b90508073ffffffffffffffffffffffffffffffffffffffff168373ffffffffffffffffffffffffffffffffffffffff1614151515610ca4576040517f08c379a0000000000000000000000000000000000000000000000000000000008152600401610c9b9061508f565b60405180910390fd5b8073ffffffffffffffffffffffffffffffffffffffff163373ffffffffffffffffffffffffffffffffffffffff161480610ce45750610ce38133612b85565b5b1515610d25576040517f08c379a0000000000000000000000000000000000000000000000000000000008152600401610d1c90614fcf565b60405180910390fd5b826002600084815260200190815260200160002060006101000a81548173ffffffffffffffffffffffffffffffffffffffff021916908373ffffffffffffffffffffffffffffffffffffffff160217905550818373ffffffffffffffffffffffffffffffffffffffff168273ffffffffffffffffffffffffffffffffffffffff167f8c5be1e5ebec7d5bd14f71427d1e84f3dd0314c0f7b2291e5b200ac8c7c3b92560405160405180910390a4505050565b34600c826040518082805190602001908083835b602083101515610e105780518252602082019150602081019050602083039250610deb565b6001836020036101000a03801982511681845116808217855250505050505090500191505090815260200160405180910390206010015411151515610e5457600080fd5b60011515600c826040518082805190602001908083835b602083101515610e905780518252602082019150602081019050602083039250610e6b565b6001836020036101000a038019825116818451168082178552505050505050905001915050908152602001604051809103902060110160009054906101000a900460ff161515141515610ee257600080fd5b33600c826040518082805190602001908083835b602083101515610f1b5780518252602082019150602081019050602083039250610ef6565b6001836020036101000a0380198251168184511680821785525050505050509050019150509081526020016040518091039020600f0160006101000a81548173ffffffffffffffffffffffffffffffffffffffff021916908373ffffffffffffffffffffffffffffffffffffffff160217905550610f998133612e70565b50565b6000600780549050905090565b6060600c826040518082805190602001908083835b602083101515610fe35780518252602082019150602081019050602083039250610fbe565b6001836020036101000a0380198251168184511680821785525050505050509050019150509081526020016040518091039020600a018054600181600116156101000203166002900480601f0160208091040260200160405190810160405280929190818152602001828054600181600116156101000203166002900480156110ad5780601f10611082576101008083540402835291602001916110ad565b820191906000526020600020905b81548152906001019060200180831161109057829003601f168201915b50505050509050919050565b6110c33382613233565b1515611104576040517f08c379a00000000000000000000000000000000000000000000000000000000081526004016110fb906150af565b60405180910390fd5b61110f838383613313565b505050565b6060600c826040518082805190602001908083835b60208310151561114e5780518252602082019150602081019050602083039250611129565b6001836020036101000a03801982511681845116808217855250505050505090500191505090815260200160405180910390206002018054600181600116156101000203166002900480601f0160208091040260200160405190810160405280929190818152602001828054600181600116156101000203166002900480156112185780601f106111ed57610100808354040283529160200191611218565b820191906000526020600020905b8154815290600101906020018083116111fb57829003601f168201915b50505050509050919050565b600061122f8361199c565b82101515611272576040517f08c379a000000000000000000000000000000000000000000000000000000000815260040161126990614f0f565b60405180910390fd5b600560008473ffffffffffffffffffffffffffffffffffffffff1673ffffffffffffffffffffffffffffffffffffffff168152602001908152602001600020828154811015156112be57fe5b9060005260206000200154905092915050565b6060600c826040518082805190602001908083835b60208310151561130b57805182526020820191506020810190506020830392506112e6565b6001836020036101000a03801982511681845116808217855250505050505090500191505090815260200160405180910390206009018054600181600116156101000203166002900480601f0160208091040260200160405190810160405280929190818152602001828054600181600116156101000203166002900480156113d55780601f106113aa576101008083540402835291602001916113d5565b820191906000526020600020905b8154815290600101906020018083116113b857829003601f168201915b50505050509050919050565b600f5481565b61140383838360206040519081016040528060008152506125e5565b505050565b60606000424433604051602001808481526020018381526020018273ffffffffffffffffffffffffffffffffffffffff1673ffffffffffffffffffffffffffffffffffffffff166c0100000000000000000000000002815260140193505050506040516020818303038152906040528051906020012060019004905061149661149082613337565b33613490565b91505090565b6000600c826040518082805190602001908083835b6020831015156114d657805182526020820191506020810190506020830392506114b1565b6001836020036101000a0380198251168184511680821785525050505050509050019150509081526020016040518091039020600f0160009054906101000a900473ffffffffffffffffffffffffffffffffffffffff169050919050565b600061153e610f9c565b82101515611581576040517f08c379a0000000000000000000000000000000000000000000000000000000008152600401611578906150cf565b60405180910390fd5b60078281548110151561159057fe5b90600052602060002001549050919050565b6060600d60003373ffffffffffffffffffffffffffffffffffffffff1673ffffffffffffffffffffffffffffffffffffffff168152602001908152602001600020805480602002602001604051908101604052809291908181526020016000905b828210156116bf578382906000526020600020018054600181600116156101000203166002900480601f0160208091040260200160405190810160405280929190818152602001828054600181600116156101000203166002900480156116ab5780601f10611680576101008083540402835291602001916116ab565b820191906000526020600020905b81548152906001019060200180831161168e57829003601f168201915b505050505081526020019060010190611603565b50505050905090565b6060600c826040518082805190602001908083835b60208310151561170257805182526020820191506020810190506020830392506116dd565b6001836020036101000a03801982511681845116808217855250505050505090500191505090815260200160405180910390206000018054600181600116156101000203166002900480601f0160208091040260200160405190810160405280929190818152602001828054600181600116156101000203166002900480156117cc5780601f106117a1576101008083540402835291602001916117cc565b820191906000526020600020905b8154815290600101906020018083116117af57829003601f168201915b50505050509050919050565b6060600c826040518082805190602001908083835b60208310151561181257805182526020820191506020810190506020830392506117ed565b6001836020036101000a03801982511681845116808217855250505050505090500191505090815260200160405180910390206004018054600181600116156101000203166002900480601f0160208091040260200160405190810160405280929190818152602001828054600181600116156101000203166002900480156118dc5780601f106118b1576101008083540402835291602001916118dc565b820191906000526020600020905b8154815290600101906020018083116118bf57829003601f168201915b50505050509050919050565b6000806001600084815260200190815260200160002060009054906101000a900473ffffffffffffffffffffffffffffffffffffffff169050600073ffffffffffffffffffffffffffffffffffffffff168173ffffffffffffffffffffffffffffffffffffffff1614151515611993576040517f08c379a000000000000000000000000000000000000000000000000000000000815260040161198a9061500f565b60405180910390fd5b80915050919050565b60008073ffffffffffffffffffffffffffffffffffffffff168273ffffffffffffffffffffffffffffffffffffffff1614151515611a0f576040517f08c379a0000000000000000000000000000000000000000000000000000000008152600401611a0690614fef565b60405180910390fd5b611a56600360008473ffffffffffffffffffffffffffffffffffffffff1673ffffffffffffffffffffffffffffffffffffffff168152602001908152602001600020613888565b9050919050565b6060600c826040518082805190602001908083835b602083101515611a975780518252602082019150602081019050602083039250611a72565b6001836020036101000a03801982511681845116808217855250505050505090500191505090815260200160405180910390206003018054600181600116156101000203166002900480601f016020809104026020016040519081016040528092919081815260200182805460018160011615610100020316600290048015611b615780601f10611b3657610100808354040283529160200191611b61565b820191906000526020600020905b815481529060010190602001808311611b4457829003601f168201915b50505050509050919050565b6060600a8054600181600116156101000203166002900480601f016020809104026020016040519081016040528092919081815260200182805460018160011615610100020316600290048015611c055780601f10611bda57610100808354040283529160200191611c05565b820191906000526020600020905b815481529060010190602001808311611be857829003601f168201915b5050505050905090565b60603073ffffffffffffffffffffffffffffffffffffffff168233604051602401611c3b929190614edf565b6040516020818303038152906040527f895ad739000000000000000000000000000000000000000000000000000000007bffffffffffffffffffffffffffffffffffffffffffffffffffffffff19166020820180517bffffffffffffffffffffffffffffffffffffffffffffffffffffffff83818316178352505050506040518082805190602001908083835b602083101515611ced5780518252602082019150602081019050602083039250611cc8565b6001836020036101000a038019825116818451168082178552505050505050905001915050600060405180830381855af49150503d8060008114611d4d576040519150601f19603f3d011682016040523d82523d6000602084013e611d52565b606091505b505050611d5f8233613490565b9050919050565b3373ffffffffffffffffffffffffffffffffffffffff16600c836040518082805190602001908083835b602083101515611db55780518252602082019150602081019050602083039250611d90565b6001836020036101000a0380198251168184511680821785525050505050509050019150509081526020016040518091039020600f0160009054906101000a900473ffffffffffffffffffffffffffffffffffffffff1673ffffffffffffffffffffffffffffffffffffffff16141515611e2e57600080fd5b80600c836040518082805190602001908083835b602083101515611e675780518252602082019150602081019050602083039250611e42565b6001836020036101000a0380198251168184511680821785525050505050509050019150509081526020016040518091039020601001819055506001600c836040518082805190602001908083835b602083101515611edb5780518252602082019150602081019050602083039250611eb6565b6001836020036101000a038019825116818451168082178552505050505050905001915050908152602001604051809103902060110160006101000a81548160ff0219169083151502179055506001600f60008282540192505081905550600e829080600181540180825580915050906001820390600052602060002001600090919290919091509080519060200190611f769291906140ea565b50505050565b6060600c826040518082805190602001908083835b602083101515611fb65780518252602082019150602081019050602083039250611f91565b6001836020036101000a0380198251168184511680821785525050505050509050019150509081526020016040518091039020600c018054600181600116156101000203166002900480601f0160208091040260200160405190810160405280929190818152602001828054600181600116156101000203166002900480156120805780601f1061205557610100808354040283529160200191612080565b820191906000526020600020905b81548152906001019060200180831161206357829003601f168201915b50505050509050919050565b3373ffffffffffffffffffffffffffffffffffffffff168273ffffffffffffffffffffffffffffffffffffffff16141515156120fd576040517f08c379a00000000000000000000000000000000000000000000000000000000081526004016120f490614f6f565b60405180910390fd5b80600460003373ffffffffffffffffffffffffffffffffffffffff1673ffffffffffffffffffffffffffffffffffffffff16815260200190815260200160002060008473ffffffffffffffffffffffffffffffffffffffff1673ffffffffffffffffffffffffffffffffffffffff16815260200190815260200160002060006101000a81548160ff0219169083151502179055508173ffffffffffffffffffffffffffffffffffffffff163373ffffffffffffffffffffffffffffffffffffffff167f17307eab39ab6107e8899845ad3d59bd9653f200f220920489ca2b5937696c31836040516121ee9190614e80565b60405180910390a35050565b6060600c826040518082805190602001908083835b602083101515612234578051825260208201915060208101905060208303925061220f565b6001836020036101000a03801982511681845116808217855250505050505090500191505090815260200160405180910390206008018054600181600116156101000203166002900480601f0160208091040260200160405190810160405280929190818152602001828054600181600116156101000203166002900480156122fe5780601f106122d3576101008083540402835291602001916122fe565b820191906000526020600020905b8154815290600101906020018083116122e157829003601f168201915b50505050509050919050565b6060600c826040518082805190602001908083835b602083101515612344578051825260208201915060208101905060208303925061231f565b6001836020036101000a03801982511681845116808217855250505050505090500191505090815260200160405180910390206001018054600181600116156101000203166002900480601f01602080910402602001604051908101604052809291908181526020018280546001816001161561010002031660029004801561240e5780601f106123e35761010080835404028352916020019161240e565b820191906000526020600020905b8154815290600101906020018083116123f157829003601f168201915b50505050509050919050565b6060600c826040518082805190602001908083835b602083101515612454578051825260208201915060208101905060208303925061242f565b6001836020036101000a03801982511681845116808217855250505050505090500191505090815260200160405180910390206006018054600181600116156101000203166002900480601f01602080910402602001604051908101604052809291908181526020018280546001816001161561010002031660029004801561251e5780601f106124f35761010080835404028352916020019161251e565b820191906000526020600020905b81548152906001019060200180831161250157829003601f168201915b50505050509050919050565b600e8181548110151561253957fe5b906000526020600020016000915090508054600181600116156101000203166002900480601f0160208091040260200160405190810160405280929190818152602001828054600181600116156101000203166002900480156125dd5780601f106125b2576101008083540402835291602001916125dd565b820191906000526020600020905b8154815290600101906020018083116125c057829003601f168201915b505050505081565b6125f08484846110b9565b6125fc84848484613896565b151561263d576040517f08c379a000000000000000000000000000000000000000000000000000000000815260040161263490614f2f565b60405180910390fd5b50505050565b6060600c826040518082805190602001908083835b60208310151561267d5780518252602082019150602081019050602083039250612658565b6001836020036101000a03801982511681845116808217855250505050505090500191505090815260200160405180910390206005018054600181600116156101000203166002900480601f0160208091040260200160405190810160405280929190818152602001828054600181600116156101000203166002900480156127475780601f1061271c57610100808354040283529160200191612747565b820191906000526020600020905b81548152906001019060200180831161272a57829003601f168201915b50505050509050919050565b606061275e82612dfe565b151561279f576040517f08c379a00000000000000000000000000000000000000000000000000000000081526004016127969061506f565b60405180910390fd5b600b60008381526020019081526020016000208054600181600116156101000203166002900480601f0160208091040260200160405190810160405280929190818152602001828054600181600116156101000203166002900480156128465780601f1061281b57610100808354040283529160200191612846565b820191906000526020600020905b81548152906001019060200180831161282957829003601f168201915b50505050509050919050565b6060600c826040518082805190602001908083835b60208310151561288c5780518252602082019150602081019050602083039250612867565b6001836020036101000a0380198251168184511680821785525050505050509050019150509081526020016040518091039020600b018054600181600116156101000203166002900480601f0160208091040260200160405190810160405280929190818152602001828054600181600116156101000203166002900480156129565780601f1061292b57610100808354040283529160200191612956565b820191906000526020600020905b81548152906001019060200180831161293957829003601f168201915b50505050509050919050565b50565b6060600c826040518082805190602001908083835b60208310151561299f578051825260208201915060208101905060208303925061297a565b6001836020036101000a0380198251168184511680821785525050505050509050019150509081526020016040518091039020600e018054600181600116156101000203166002900480601f016020809104026020016040519081016040528092919081815260200182805460018160011615610100020316600290048015612a695780601f10612a3e57610100808354040283529160200191612a69565b820191906000526020600020905b815481529060010190602001808311612a4c57829003601f168201915b50505050509050919050565b6060600c826040518082805190602001908083835b602083101515612aaf5780518252602082019150602081019050602083039250612a8a565b6001836020036101000a03801982511681845116808217855250505050505090500191505090815260200160405180910390206007018054600181600116156101000203166002900480601f016020809104026020016040519081016040528092919081815260200182805460018160011615610100020316600290048015612b795780601f10612b4e57610100808354040283529160200191612b79565b820191906000526020600020905b815481529060010190602001808311612b5c57829003601f168201915b50505050509050919050565b6000600460008473ffffffffffffffffffffffffffffffffffffffff1673ffffffffffffffffffffffffffffffffffffffff16815260200190815260200160002060008373ffffffffffffffffffffffffffffffffffffffff1673ffffffffffffffffffffffffffffffffffffffff16815260200190815260200160002060009054906101000a900460ff16905092915050565b3373ffffffffffffffffffffffffffffffffffffffff16600c826040518082805190602001908083835b602083101515612c685780518252602082019150602081019050602083039250612c43565b6001836020036101000a0380198251168184511680821785525050505050509050019150509081526020016040518091039020600f0160009054906101000a900473ffffffffffffffffffffffffffffffffffffffff1673ffffffffffffffffffffffffffffffffffffffff16141515612ce157600080fd5b612ceb8133612e70565b50565b6060600c826040518082805190602001908083835b602083101515612d285780518252602082019150602081019050602083039250612d03565b6001836020036101000a0380198251168184511680821785525050505050509050019150509081526020016040518091039020600d018054600181600116156101000203166002900480601f016020809104026020016040519081016040528092919081815260200182805460018160011615610100020316600290048015612df25780601f10612dc757610100808354040283529160200191612df2565b820191906000526020600020905b815481529060010190602001808311612dd557829003601f168201915b50505050509050919050565b6000806001600084815260200190815260200160002060009054906101000a900473ffffffffffffffffffffffffffffffffffffffff169050600073ffffffffffffffffffffffffffffffffffffffff168173ffffffffffffffffffffffffffffffffffffffff161415915050919050565b8073ffffffffffffffffffffffffffffffffffffffff16600c836040518082805190602001908083835b602083101515612ebf5780518252602082019150602081019050602083039250612e9a565b6001836020036101000a0380198251168184511680821785525050505050509050019150509081526020016040518091039020600f0160009054906101000a900473ffffffffffffffffffffffffffffffffffffffff1673ffffffffffffffffffffffffffffffffffffffff16141515612f3857600080fd5b600c826040518082805190602001908083835b602083101515612f705780518252602082019150602081019050602083039250612f4b565b6001836020036101000a038019825116818451168082178552505050505050905001915050908152602001604051809103902060110160009054906101000a900460ff161515612fbf57600080fd5b6000600f54111515612fd057600080fd5b60008090506000600c846040518082805190602001908083835b60208310151561300f5780518252602082019150602081019050602083039250612fea565b6001836020036101000a0380198251168184511680821785525050505050509050019150509081526020016040518091039020601001819055506000600c846040518082805190602001908083835b602083101515613083578051825260208201915060208101905060208303925061305e565b6001836020036101000a038019825116818451168082178552505050505050905001915050908152602001604051809103902060110160006101000a81548160ff0219169083151502179055506001600f54141561310b57600e80548015156130e857fe5b600190038181906000526020600020016000613104919061416a565b905561321d565b60008090505b6001600f540381101561321b578380519060200120600e8281548110151561313557fe5b90600052602060002001604051808280546001816001161561010002031660029004801561319a5780601f1061317857610100808354040283529182019161319a565b820191906000526020600020905b815481529060010190602001808311613186575b5050915050604051809103902014156131b257600191505b811561320e57600e600182018154811015156131ca57fe5b90600052602060002001600e828154811015156131e357fe5b90600052602060002001908054600181600116156101000203166002900461320c9291906141b2565b505b8080600101915050613111565b505b6001600f60008282540392505081905550505050565b600061323e82612dfe565b151561327f576040517f08c379a000000000000000000000000000000000000000000000000000000000815260040161327690614faf565b60405180910390fd5b600061328a836118e8565b90508073ffffffffffffffffffffffffffffffffffffffff168473ffffffffffffffffffffffffffffffffffffffff1614806132f957508373ffffffffffffffffffffffffffffffffffffffff166132e184610b9f565b73ffffffffffffffffffffffffffffffffffffffff16145b8061330a57506133098185612b85565b5b91505092915050565b61331e8383836139e7565b6133288382613c1a565b6133328282613dbe565b505050565b6060600082141561337f576040805190810160405280600181526020017f3000000000000000000000000000000000000000000000000000000000000000815250905061348b565b600082905060005b6000821415156133ad578080600101915050600a828115156133a557fe5b049150613387565b6060816040519080825280601f01601f1916602001820160405280156133e25781602001600182028038833980820191505090505b50905060006001830390505b60008614151561348357600a8681151561340457fe5b066030017f01000000000000000000000000000000000000000000000000000000000000000282828060019003935081518110151561343f57fe5b9060200101907effffffffffffffffffffffffffffffffffffffffffffffffffffffffffffff1916908160001a905350600a8681151561347b57fe5b0495506133ee565b819450505050505b919050565b606061349a614239565b610240604051908101604052806134b48660006006613e85565b81526020016134c68660066008613e85565b81526020016134d8866008600e613e85565b81526020016134ea86600e6010613e85565b81526020016134fc8660106012613e85565b815260200161350e8660126018613e85565b8152602001613520866018601e613e85565b815260200161353286601e6020613e85565b81526020016135448660206026613e85565b8152602001613556866026602c613e85565b815260200161356886602c602e613e85565b815260200161357a86602e6030613e85565b815260200161358c8660306032613e85565b815260200161359e8660326034613e85565b81526020016135b08660346036613e85565b81526020018473ffffffffffffffffffffffffffffffffffffffff1681526020016000815260200160001515815250905080600c856040518082805190602001908083835b60208310151561361a57805182526020820191506020810190506020830392506135f5565b6001836020036101000a038019825116818451168082178552505050505050905001915050908152602001604051809103902060008201518160000190805190602001906136699291906142dd565b5060208201518160010190805190602001906136869291906142dd565b5060408201518160020190805190602001906136a39291906142dd565b5060608201518160030190805190602001906136c09291906142dd565b5060808201518160040190805190602001906136dd9291906142dd565b5060a08201518160050190805190602001906136fa9291906142dd565b5060c08201518160060190805190602001906137179291906142dd565b5060e08201518160070190805190602001906137349291906142dd565b506101008201518160080190805190602001906137529291906142dd565b506101208201518160090190805190602001906137709291906142dd565b5061014082015181600a01908051906020019061378e9291906142dd565b5061016082015181600b0190805190602001906137ac9291906142dd565b5061018082015181600c0190805190602001906137ca9291906142dd565b506101a082015181600d0190805190602001906137e89291906142dd565b506101c082015181600e0190805190602001906138069291906142dd565b506101e082015181600f0160006101000a81548173ffffffffffffffffffffffffffffffffffffffff021916908373ffffffffffffffffffffffffffffffffffffffff16021790555061020082015181601001556102208201518160110160006101000a81548160ff0219169083151502179055509050508391505092915050565b600081600001549050919050565b60006138b78473ffffffffffffffffffffffffffffffffffffffff16613f86565b15156138c657600190506139df565b60008473ffffffffffffffffffffffffffffffffffffffff1663150b7a02338887876040518563ffffffff167c01000000000000000000000000000000000000000000000000000000000281526004016139239493929190614e12565b602060405180830381600087803b15801561393d57600080fd5b505af1158015613951573d6000803e3d6000fd5b505050506040513d601f19601f82011682018060405250613975919081019061468e565b905063150b7a027c0100000000000000000000000000000000000000000000000000000000027bffffffffffffffffffffffffffffffffffffffffffffffffffffffff1916817bffffffffffffffffffffffffffffffffffffffffffffffffffffffff1916149150505b949350505050565b8273ffffffffffffffffffffffffffffffffffffffff16613a07826118e8565b73ffffffffffffffffffffffffffffffffffffffff16141515613a5f576040517f08c379a0000000000000000000000000000000000000000000000000000000008152600401613a569061504f565b60405180910390fd5b600073ffffffffffffffffffffffffffffffffffffffff168273ffffffffffffffffffffffffffffffffffffffff1614151515613ad1576040517f08c379a0000000000000000000000000000000000000000000000000000000008152600401613ac890614f4f565b60405180910390fd5b613ada81613f99565b613b21600360008573ffffffffffffffffffffffffffffffffffffffff1673ffffffffffffffffffffffffffffffffffffffff168152602001908152602001600020614059565b613b68600360008473ffffffffffffffffffffffffffffffffffffffff1673ffffffffffffffffffffffffffffffffffffffff16815260200190815260200160002061407c565b816001600083815260200190815260200160002060006101000a81548173ffffffffffffffffffffffffffffffffffffffff021916908373ffffffffffffffffffffffffffffffffffffffff160217905550808273ffffffffffffffffffffffffffffffffffffffff168473ffffffffffffffffffffffffffffffffffffffff167fddf252ad1be2c89b69c2b068fc378daa952ba7f163c4a11628f55a4df523b3ef60405160405180910390a4505050565b6000613c726001600560008673ffffffffffffffffffffffffffffffffffffffff1673ffffffffffffffffffffffffffffffffffffffff1681526020019081526020016000208054905061409290919063ffffffff16565b90506000600660008481526020019081526020016000205490508181141515613d65576000600560008673ffffffffffffffffffffffffffffffffffffffff1673ffffffffffffffffffffffffffffffffffffffff16815260200190815260200160002083815481101515613ce357fe5b9060005260206000200154905080600560008773ffffffffffffffffffffffffffffffffffffffff1673ffffffffffffffffffffffffffffffffffffffff16815260200190815260200160002083815481101515613d3d57fe5b9060005260206000200181905550816006600083815260200190815260200160002081905550505b600560008573ffffffffffffffffffffffffffffffffffffffff1673ffffffffffffffffffffffffffffffffffffffff168152602001908152602001600020805480919060019003613db7919061435d565b5050505050565b600560008373ffffffffffffffffffffffffffffffffffffffff1673ffffffffffffffffffffffffffffffffffffffff168152602001908152602001600020805490506006600083815260200190815260200160002081905550600560008373ffffffffffffffffffffffffffffffffffffffff1673ffffffffffffffffffffffffffffffffffffffff1681526020019081526020016000208190806001815401808255809150509060018203906000526020600020016000909192909190915055505050565b60608084905060608484036040519080825280601f01601f191660200182016040528015613ec25781602001600182028038833980820191505090505b50905060008590505b84811015613f79578281815181101515613ee157fe5b9060200101517f010000000000000000000000000000000000000000000000000000000000000090047f01000000000000000000000000000000000000000000000000000000000000000282878303815181101515613f3c57fe5b9060200101907effffffffffffffffffffffffffffffffffffffffffffffffffffffffffffff1916908160001a9053508080600101915050613ecb565b5080925050509392505050565b600080823b905060008111915050919050565b600073ffffffffffffffffffffffffffffffffffffffff166002600083815260200190815260200160002060009054906101000a900473ffffffffffffffffffffffffffffffffffffffff1673ffffffffffffffffffffffffffffffffffffffff161415156140565760006002600083815260200190815260200160002060006101000a81548173ffffffffffffffffffffffffffffffffffffffff021916908373ffffffffffffffffffffffffffffffffffffffff1602179055505b50565b6140716001826000015461409290919063ffffffff16565b816000018190555050565b6001816000016000828254019250508190555050565b60008282111515156140d9576040517f08c379a00000000000000000000000000000000000000000000000000000000081526004016140d090614f8f565b60405180910390fd5b600082840390508091505092915050565b828054600181600116156101000203166002900490600052602060002090601f016020900481019282601f1061412b57805160ff1916838001178555614159565b82800160010185558215614159579182015b8281111561415857825182559160200191906001019061413d565b5b5090506141669190614389565b5090565b50805460018160011615610100020316600290046000825580601f1061419057506141af565b601f0160209004906000526020600020908101906141ae9190614389565b5b50565b828054600181600116156101000203166002900490600052602060002090601f016020900481019282601f106141eb5780548555614228565b8280016001018555821561422857600052602060002091601f016020900482015b8281111561422757825482559160010191906001019061420c565b5b5090506142359190614389565b5090565b61024060405190810160405280606081526020016060815260200160608152602001606081526020016060815260200160608152602001606081526020016060815260200160608152602001606081526020016060815260200160608152602001606081526020016060815260200160608152602001600073ffffffffffffffffffffffffffffffffffffffff168152602001600081526020016000151581525090565b828054600181600116156101000203166002900490600052602060002090601f016020900481019282601f1061431e57805160ff191683800117855561434c565b8280016001018555821561434c579182015b8281111561434b578251825591602001919060010190614330565b5b5090506143599190614389565b5090565b815481835581811115614384578183600052602060002091820191016143839190614389565b5b505050565b6143ab91905b808211156143a757600081600090555060010161438f565b5090565b90565b60006143ba823561522f565b905092915050565b60006143ce8235615241565b905092915050565b60006143e2823561524d565b905092915050565b60006143f6825161524d565b905092915050565b600082601f830112151561441157600080fd5b813561442461441f82615137565b61510a565b9150808252602083016020830185838301111561444057600080fd5b61444b8382846152b9565b50505092915050565b600082601f830112151561446757600080fd5b813561447a61447582615163565b61510a565b9150808252602083016020830185838301111561449657600080fd5b6144a18382846152b9565b50505092915050565b60006144b68235615279565b905092915050565b6000602082840312156144d057600080fd5b60006144de848285016143ae565b91505092915050565b600080604083850312156144fa57600080fd5b6000614508858286016143ae565b9250506020614519858286016143ae565b9150509250929050565b60008060006060848603121561453857600080fd5b6000614546868287016143ae565b9350506020614557868287016143ae565b9250506040614568868287016144aa565b9150509250925092565b6000806000806080858703121561458857600080fd5b6000614596878288016143ae565b94505060206145a7878288016143ae565b93505060406145b8878288016144aa565b925050606085013567ffffffffffffffff8111156145d557600080fd5b6145e1878288016143fe565b91505092959194509250565b6000806040838503121561460057600080fd5b600061460e858286016143ae565b925050602061461f858286016143c2565b9150509250929050565b6000806040838503121561463c57600080fd5b600061464a858286016143ae565b925050602061465b858286016144aa565b9150509250929050565b60006020828403121561467757600080fd5b6000614685848285016143d6565b91505092915050565b6000602082840312156146a057600080fd5b60006146ae848285016143ea565b91505092915050565b6000602082840312156146c957600080fd5b600082013567ffffffffffffffff8111156146e357600080fd5b6146ef84828501614454565b91505092915050565b6000806040838503121561470b57600080fd5b600083013567ffffffffffffffff81111561472557600080fd5b61473185828601614454565b9250506020614742858286016144aa565b9150509250929050565b60006020828403121561475e57600080fd5b600061476c848285016144aa565b91505092915050565b61477e81615283565b82525050565b61478d816151e7565b82525050565b61479c816151d5565b82525050565b60006147ad8261519c565b808452602084019350836020820285016147c68561518f565b60005b848110156147ff5783830388526147e183835161488b565b92506147ec826151c8565b91506020880197506001810190506147c9565b508196508694505050505092915050565b614819816151f9565b82525050565b600061482a826151a7565b80845261483e8160208601602086016152c8565b614847816152fb565b602085010191505092915050565b6000614860826151bd565b8084526148748160208601602086016152c8565b61487d816152fb565b602085010191505092915050565b6000614896826151b2565b8084526148aa8160208601602086016152c8565b6148b3816152fb565b602085010191505092915050565b6000602b82527f455243373231456e756d657261626c653a206f776e657220696e646578206f7560208301527f74206f6620626f756e64730000000000000000000000000000000000000000006040830152606082019050919050565b6000603282527f4552433732313a207472616e7366657220746f206e6f6e20455243373231526560208301527f63656976657220696d706c656d656e74657200000000000000000000000000006040830152606082019050919050565b6000602482527f4552433732313a207472616e7366657220746f20746865207a65726f2061646460208301527f72657373000000000000000000000000000000000000000000000000000000006040830152606082019050919050565b6000601982527f4552433732313a20617070726f766520746f2063616c6c6572000000000000006020830152604082019050919050565b6000601e82527f536166654d6174683a207375627472616374696f6e206f766572666c6f7700006020830152604082019050919050565b6000602c82527f4552433732313a206f70657261746f7220717565727920666f72206e6f6e657860208301527f697374656e7420746f6b656e00000000000000000000000000000000000000006040830152606082019050919050565b6000603882527f4552433732313a20617070726f76652063616c6c6572206973206e6f74206f7760208301527f6e6572206e6f7220617070726f76656420666f7220616c6c00000000000000006040830152606082019050919050565b6000602a82527f4552433732313a2062616c616e636520717565727920666f7220746865207a6560208301527f726f2061646472657373000000000000000000000000000000000000000000006040830152606082019050919050565b6000602982527f4552433732313a206f776e657220717565727920666f72206e6f6e657869737460208301527f656e7420746f6b656e00000000000000000000000000000000000000000000006040830152606082019050919050565b6000602c82527f4552433732313a20617070726f76656420717565727920666f72206e6f6e657860208301527f697374656e7420746f6b656e00000000000000000000000000000000000000006040830152606082019050919050565b6000602982527f4552433732313a207472616e73666572206f6620746f6b656e2074686174206960208301527f73206e6f74206f776e00000000000000000000000000000000000000000000006040830152606082019050919050565b6000602f82527f4552433732314d657461646174613a2055524920717565727920666f72206e6f60208301527f6e6578697374656e7420746f6b656e00000000000000000000000000000000006040830152606082019050919050565b6000602182527f4552433732313a20617070726f76616c20746f2063757272656e74206f776e6560208301527f72000000000000000000000000000000000000000000000000000000000000006040830152606082019050919050565b6000603182527f4552433732313a207472616e736665722063616c6c6572206973206e6f74206f60208301527f776e6572206e6f7220617070726f7665640000000000000000000000000000006040830152606082019050919050565b6000602c82527f455243373231456e756d657261626c653a20676c6f62616c20696e646578206f60208301527f7574206f6620626f756e647300000000000000000000000000000000000000006040830152606082019050919050565b614df181615225565b82525050565b6000602082019050614e0c6000830184614793565b92915050565b6000608082019050614e276000830187614775565b614e346020830186614793565b614e416040830185614de8565b8181036060830152614e53818461481f565b905095945050505050565b60006020820190508181036000830152614e7881846147a2565b905092915050565b6000602082019050614e956000830184614810565b92915050565b60006020820190508181036000830152614eb5818461488b565b905092915050565b60006020820190508181036000830152614ed78184614855565b905092915050565b60006040820190508181036000830152614ef98185614855565b9050614f086020830184614784565b9392505050565b60006020820190508181036000830152614f28816148c1565b9050919050565b60006020820190508181036000830152614f488161491e565b9050919050565b60006020820190508181036000830152614f688161497b565b9050919050565b60006020820190508181036000830152614f88816149d8565b9050919050565b60006020820190508181036000830152614fa881614a0f565b9050919050565b60006020820190508181036000830152614fc881614a46565b9050919050565b60006020820190508181036000830152614fe881614aa3565b9050919050565b6000602082019050818103600083015261500881614b00565b9050919050565b6000602082019050818103600083015261502881614b5d565b9050919050565b6000602082019050818103600083015261504881614bba565b9050919050565b6000602082019050818103600083015261506881614c17565b9050919050565b6000602082019050818103600083015261508881614c74565b9050919050565b600060208201905081810360008301526150a881614cd1565b9050919050565b600060208201905081810360008301526150c881614d2e565b9050919050565b600060208201905081810360008301526150e881614d8b565b9050919050565b60006020820190506151046000830184614de8565b92915050565b6000604051905081810181811067ffffffffffffffff8211171561512d57600080fd5b8060405250919050565b600067ffffffffffffffff82111561514e57600080fd5b601f19601f8301169050602081019050919050565b600067ffffffffffffffff82111561517a57600080fd5b601f19601f8301169050602081019050919050565b6000602082019050919050565b600081519050919050565b600081519050919050565b600081519050919050565b600081519050919050565b6000602082019050919050565b60006151e082615205565b9050919050565b60006151f282615205565b9050919050565b60008115159050919050565b600073ffffffffffffffffffffffffffffffffffffffff82169050919050565b6000819050919050565b600061523a82615205565b9050919050565b60008115159050919050565b60007fffffffff0000000000000000000000000000000000000000000000000000000082169050919050565b6000819050919050565b600061528e82615295565b9050919050565b60006152a0826152a7565b9050919050565b60006152b282615205565b9050919050565b82818337600083830152505050565b60005b838110156152e65780820151818401526020810190506152cb565b838111156152f5576000848401525b50505050565b6000601f19601f830116905091905056fea265627a7a723058209331ec55dbea6400fcb29eb9bd07cec7ac123a2bc1a0fd295c6fb708a95e25a96c6578706572696d656e74616cf50037",
  "source": "pragma solidity ^0.5.0;\npragma experimental ABIEncoderV2;\n\nimport \"./ERC721Full.sol\";\n\ncontract Pisi is ERC721Full {\n    // string[] public colors;\n    // mapping(string => bool) _colorExists;\n\n    struct PisiAttributes {\n        string eyeColor;\n        string eyeSize;\n        \n        string headColor;\n        string headSize;\n        \n        string beardSize;\n        \n        string tailColor;\n        string tailAccentColor;\n        string tailSize;\n        \n        string bodyColor;\n        string bodyAccentColor;\n\n        string stripeType;\n        \n        string hungerness;\n        string fragility;\n        string fertility;\n        string appeal;\n\n        address payable owner;\n        uint256 price;\n        bool onSale;\n    }\n    \n    mapping(string => PisiAttributes) _pisiCollection;\n    mapping(address => string[]) _personalCollection;\n\n    string[] public _pisiHashesToSell;\n    uint256 public onSaleCount;\n\n    constructor() ERC721Full(\"Pisi\", \"PISI\") public {\n\n    }\n\n    function mint(string memory _color) public {\n        // // Require unique color\n        // require(!_colorExists[_color]);\n        // // Color - add it\n        // uint _id = colors.push(_color);\n        // // Call the mint function\n        // _mint(msg.sender, _id);\n        // // Color - track it\n        // _colorExists[_color] = true;\n    }\n\n    function decodeAttributes(string memory hashedAttr, address payable owner) internal returns (string memory){\n        PisiAttributes memory pa = PisiAttributes(\n            getNumberBetween(hashedAttr, 0, 6), // eyeColor, \n            getNumberBetween(hashedAttr, 6, 8), // eyeSize, \n            \n            getNumberBetween(hashedAttr, 8, 14), // headColor, \n            getNumberBetween(hashedAttr, 14, 16), // headSize, \n            \n            getNumberBetween(hashedAttr, 16, 18), // beardSize, *****\n            \n            getNumberBetween(hashedAttr, 18, 24), // tailColor, \n            getNumberBetween(hashedAttr, 24, 30), // tailAccentColor, *****\n            getNumberBetween(hashedAttr, 30, 32), // tailSize, \n            \n            getNumberBetween(hashedAttr, 32, 38), // bodyColor, \n            getNumberBetween(hashedAttr, 38, 44), // bodyAccentColor, \n    \n            getNumberBetween(hashedAttr, 44, 46), // stripeType, \n\n            getNumberBetween(hashedAttr, 46, 48), // hungerness, \n            getNumberBetween(hashedAttr, 48, 50), // fragility, \n            getNumberBetween(hashedAttr, 50, 52), // fertility, \n            getNumberBetween(hashedAttr, 52, 54), // appeal\n\n            owner,\n            0,\n            false\n        );\n\n        _pisiCollection[hashedAttr] = pa;\n\n        return hashedAttr;\n    }\n\n    function testAttributes(string memory hashedAttr) public returns (string memory) {\n        address(this).delegatecall(abi.encodeWithSignature(\"decodeAttributes(string, address payable)\", hashedAttr, msg.sender));\n\n        return decodeAttributes(hashedAttr, msg.sender);\n    }\n\n    function randomAttributes() public returns (string memory) {\n        uint256 rand = uint256(keccak256(abi.encodePacked(block.timestamp, block.difficulty, msg.sender)));\n\n        return decodeAttributes(uint2str(rand), msg.sender);\n    }\n\n    function putToSale(string memory pisiHash, uint256 price) public {\n        require(_pisiCollection[pisiHash].owner == msg.sender);\n\n        _pisiCollection[pisiHash].price = price;\n        _pisiCollection[pisiHash].onSale = true;\n        onSaleCount += 1;\n        \n        _pisiHashesToSell.push(pisiHash);\n    }\n\n    function putDownFromSale(string memory pisiHash) public {\n        require(_pisiCollection[pisiHash].owner == msg.sender);\n\n        removeElement(pisiHash, msg.sender);\n    }\n\n    function transferPisi(string memory pisiHash) public payable {\n        require(_pisiCollection[pisiHash].price <= msg.value);\n        require(_pisiCollection[pisiHash].onSale == true);\n\n        _pisiCollection[pisiHash].owner = msg.sender;\n\n        removeElement(pisiHash, msg.sender);\n    }\n\n    function gatherPersonalPisis() public view returns (string[] memory) {\n        return _personalCollection[msg.sender];\n    }\n\n    // HELPER FUNCTIONS\n\n    function removeElement(string memory pisiHashToRemove, address payable _owner) internal {\n        require(_pisiCollection[pisiHashToRemove].owner == _owner);\n        require(_pisiCollection[pisiHashToRemove].onSale);\n        require(onSaleCount > 0);\n\n        bool move = false;\n        \n        _pisiCollection[pisiHashToRemove].price = 0;\n        _pisiCollection[pisiHashToRemove].onSale = false;\n\n        if(onSaleCount == 1){\n            _pisiHashesToSell.pop();\n        } else{\n            for (uint i = 0; i < onSaleCount - 1; i++){\n                if(keccak256(bytes(_pisiHashesToSell[i])) == keccak256(bytes(pisiHashToRemove))){\n                    move = true;\n                }\n\n                if(move){\n                    _pisiHashesToSell[i] = _pisiHashesToSell[i + 1];\n                }\n            }\n        }\n\n        onSaleCount -= 1;\n    }\n    \n    function uint2str(uint _i) internal pure returns (string memory _uintAsString) {\n        if (_i == 0) {\n            return \"0\";\n        }\n        uint j = _i;\n        uint len;\n        while (j != 0) {\n            len++;\n            j /= 10;\n        }\n        bytes memory bstr = new bytes(len);\n        uint k = len - 1;\n        while (_i != 0) {\n            bstr[k--] = byte(uint8(48 + _i % 10));\n            _i /= 10;\n        }\n        return string(bstr);\n    }\n\n    function getEyeColor(string memory pisiHash) public view returns(string memory) {\n        return _pisiCollection[pisiHash].eyeColor;\n    }\n\n    function getEyeSize(string memory pisiHash) public view returns(string memory) {\n        return _pisiCollection[pisiHash].eyeSize;\n    }\n\n    function getHeadColor(string memory pisiHash) public view returns(string memory) {\n        return _pisiCollection[pisiHash].headColor;\n    }\n\n    function getHeadSize(string memory pisiHash) public view returns(string memory) {\n        return _pisiCollection[pisiHash].headSize;\n    }\n\n    function getBeardSize(string memory pisiHash) public view returns(string memory) {\n        return _pisiCollection[pisiHash].beardSize;\n    }\n\n    function getTailColor(string memory pisiHash) public view returns(string memory) {\n        return _pisiCollection[pisiHash].tailColor;\n    }\n\n    function getTailAccentColor(string memory pisiHash) public view returns(string memory) {\n        return _pisiCollection[pisiHash].tailAccentColor;\n    }\n\n    function getTailSize(string memory pisiHash) public view returns(string memory) {\n        return _pisiCollection[pisiHash].tailSize;\n    }\n\n    function getBodyColor(string memory pisiHash) public view returns(string memory) {\n        return _pisiCollection[pisiHash].bodyColor;\n    }\n\n    function getBodyAccentColor(string memory pisiHash) public view returns(string memory) {\n        return _pisiCollection[pisiHash].bodyAccentColor;\n    }\n\n    function getStripeType(string memory pisiHash) public view returns(string memory) {\n        return _pisiCollection[pisiHash].stripeType;\n    }\n\n    function getHungerness(string memory pisiHash) public view returns(string memory) {\n        return _pisiCollection[pisiHash].hungerness;\n    }\n\n    function getFragility(string memory pisiHash) public view returns(string memory) {\n        return _pisiCollection[pisiHash].fragility;\n    }\n\n    function getFertility(string memory pisiHash) public view returns(string memory) {\n        return _pisiCollection[pisiHash].fertility;\n    }\n\n    function getAppeal(string memory pisiHash) public view returns(string memory) {\n        return _pisiCollection[pisiHash].appeal;\n    }\n\n    function getOwner(string memory pisiHash) public view returns(address) {\n        return _pisiCollection[pisiHash].owner;\n    }\n\n    function getNumberBetween(string memory str, uint startIndex, uint endIndex) pure internal returns (string memory) {\n        bytes memory strBytes = bytes(str);\n        bytes memory result = new bytes(endIndex-startIndex);\n        for(uint i = startIndex; i < endIndex; i++) {\n            result[i-startIndex] = strBytes[i];\n        }\n        return string(result);\n    }\n}",
  "sourcePath": "D:/CryptoPissies/CryptoPissies/src/contracts/Pisi.sol",
  "compiler": {
    "name": "solc",
    "version": "0.5.0+commit.1d4f565a.Emscripten.clang"
  },
  "schemaVersion": "3.0.2",
  "updatedAt": "2021-05-16T14:53:08.333Z",
  "devdoc": {
    "methods": {
      "approve(address,uint256)": {
        "details": "Approves another address to transfer the given token ID The zero address indicates there is no approved address. There can only be one approved address per token at a given time. Can only be called by the token owner or an approved operator.",
        "params": {
          "to": "address to be approved for the given token ID",
          "tokenId": "uint256 ID of the token to be approved"
        }
      },
      "balanceOf(address)": {
        "details": "Gets the balance of the specified address.",
        "params": {
          "owner": "address to query the balance of"
        },
        "return": "uint256 representing the amount owned by the passed address"
      },
      "getApproved(uint256)": {
        "details": "Gets the approved address for a token ID, or zero if no address set Reverts if the token ID does not exist.",
        "params": {
          "tokenId": "uint256 ID of the token to query the approval of"
        },
        "return": "address currently approved for the given token ID"
      },
      "isApprovedForAll(address,address)": {
        "details": "Tells whether an operator is approved by a given owner.",
        "params": {
          "operator": "operator address which you want to query the approval of",
          "owner": "owner address which you want to query the approval of"
        },
        "return": "bool whether the given operator is approved by the given owner"
      },
      "name()": {
        "details": "Gets the token name.",
        "return": "string representing the token name"
      },
      "ownerOf(uint256)": {
        "details": "Gets the owner of the specified token ID.",
        "params": {
          "tokenId": "uint256 ID of the token to query the owner of"
        },
        "return": "address currently marked as the owner of the given token ID"
      },
      "safeTransferFrom(address,address,uint256)": {
        "details": "Safely transfers the ownership of a given token ID to another address If the target address is a contract, it must implement `onERC721Received`, which is called upon a safe transfer, and return the magic value `bytes4(keccak256(\"onERC721Received(address,address,uint256,bytes)\"))`; otherwise, the transfer is reverted. Requires the msg.sender to be the owner, approved, or operator",
        "params": {
          "from": "current owner of the token",
          "to": "address to receive the ownership of the given token ID",
          "tokenId": "uint256 ID of the token to be transferred"
        }
      },
      "safeTransferFrom(address,address,uint256,bytes)": {
        "details": "Safely transfers the ownership of a given token ID to another address If the target address is a contract, it must implement `onERC721Received`, which is called upon a safe transfer, and return the magic value `bytes4(keccak256(\"onERC721Received(address,address,uint256,bytes)\"))`; otherwise, the transfer is reverted. Requires the msg.sender to be the owner, approved, or operator",
        "params": {
          "_data": "bytes data to send along with a safe transfer check",
          "from": "current owner of the token",
          "to": "address to receive the ownership of the given token ID",
          "tokenId": "uint256 ID of the token to be transferred"
        }
      },
      "setApprovalForAll(address,bool)": {
        "details": "Sets or unsets the approval of a given operator An operator is allowed to transfer all tokens of the sender on their behalf.",
        "params": {
          "approved": "representing the status of the approval to be set",
          "to": "operator address to set the approval"
        }
      },
      "supportsInterface(bytes4)": {
        "details": "See `IERC165.supportsInterface`.     * Time complexity O(1), guaranteed to always use less than 30 000 gas."
      },
      "symbol()": {
        "details": "Gets the token symbol.",
        "return": "string representing the token symbol"
      },
      "tokenByIndex(uint256)": {
        "details": "Gets the token ID at a given index of all the tokens in this contract Reverts if the index is greater or equal to the total number of tokens.",
        "params": {
          "index": "uint256 representing the index to be accessed of the tokens list"
        },
        "return": "uint256 token ID at the given index of the tokens list"
      },
      "tokenOfOwnerByIndex(address,uint256)": {
        "details": "Gets the token ID at a given index of the tokens list of the requested owner.",
        "params": {
          "index": "uint256 representing the index to be accessed of the requested tokens list",
          "owner": "address owning the tokens list to be accessed"
        },
        "return": "uint256 token ID at the given index of the tokens list owned by the requested address"
      },
      "tokenURI(uint256)": {
        "details": "Returns an URI for a given token ID. Throws if the token ID does not exist. May return an empty string.",
        "params": {
          "tokenId": "uint256 ID of the token to query"
        }
      },
      "totalSupply()": {
        "details": "Gets the total amount of tokens stored by the contract.",
        "return": "uint256 representing the total amount of tokens"
      },
      "transferFrom(address,address,uint256)": {
        "details": "Transfers the ownership of a given token ID to another address. Usage of this method is discouraged, use `safeTransferFrom` whenever possible. Requires the msg.sender to be the owner, approved, or operator.",
        "params": {
          "from": "current owner of the token",
          "to": "address to receive the ownership of the given token ID",
          "tokenId": "uint256 ID of the token to be transferred"
        }
      }
    }
  },
  "userdoc": {
    "methods": {}
  }
}