{
  "contractName": "Pisi",
  "abi": [
    {
      "constant": true,
      "inputs": [
        {
          "name": "interfaceId",
          "type": "bytes4"
        }
      ],
      "name": "supportsInterface",
      "outputs": [
        {
          "name": "",
          "type": "bool"
        }
      ],
      "payable": false,
      "stateMutability": "view",
      "type": "function",
      "signature": "0x01ffc9a7"
    },
    {
      "constant": true,
      "inputs": [],
      "name": "name",
      "outputs": [
        {
          "name": "",
          "type": "string"
        }
      ],
      "payable": false,
      "stateMutability": "view",
      "type": "function",
      "signature": "0x06fdde03"
    },
    {
      "constant": true,
      "inputs": [
        {
          "name": "tokenId",
          "type": "uint256"
        }
      ],
      "name": "getApproved",
      "outputs": [
        {
          "name": "",
          "type": "address"
        }
      ],
      "payable": false,
      "stateMutability": "view",
      "type": "function",
      "signature": "0x081812fc"
    },
    {
      "constant": false,
      "inputs": [
        {
          "name": "to",
          "type": "address"
        },
        {
          "name": "tokenId",
          "type": "uint256"
        }
      ],
      "name": "approve",
      "outputs": [],
      "payable": false,
      "stateMutability": "nonpayable",
      "type": "function",
      "signature": "0x095ea7b3"
    },
    {
      "constant": true,
      "inputs": [],
      "name": "totalSupply",
      "outputs": [
        {
          "name": "",
          "type": "uint256"
        }
      ],
      "payable": false,
      "stateMutability": "view",
      "type": "function",
      "signature": "0x18160ddd"
    },
    {
      "constant": false,
      "inputs": [
        {
          "name": "from",
          "type": "address"
        },
        {
          "name": "to",
          "type": "address"
        },
        {
          "name": "tokenId",
          "type": "uint256"
        }
      ],
      "name": "transferFrom",
      "outputs": [],
      "payable": false,
      "stateMutability": "nonpayable",
      "type": "function",
      "signature": "0x23b872dd"
    },
    {
      "constant": true,
      "inputs": [
        {
          "name": "owner",
          "type": "address"
        },
        {
          "name": "index",
          "type": "uint256"
        }
      ],
      "name": "tokenOfOwnerByIndex",
      "outputs": [
        {
          "name": "",
          "type": "uint256"
        }
      ],
      "payable": false,
      "stateMutability": "view",
      "type": "function",
      "signature": "0x2f745c59"
    },
    {
      "constant": true,
      "inputs": [],
      "name": "onSaleCount",
      "outputs": [
        {
          "name": "",
          "type": "uint256"
        }
      ],
      "payable": false,
      "stateMutability": "view",
      "type": "function",
      "signature": "0x356e7863"
    },
    {
      "constant": false,
      "inputs": [
        {
          "name": "from",
          "type": "address"
        },
        {
          "name": "to",
          "type": "address"
        },
        {
          "name": "tokenId",
          "type": "uint256"
        }
      ],
      "name": "safeTransferFrom",
      "outputs": [],
      "payable": false,
      "stateMutability": "nonpayable",
      "type": "function",
      "signature": "0x42842e0e"
    },
    {
      "constant": true,
      "inputs": [
        {
          "name": "index",
          "type": "uint256"
        }
      ],
      "name": "tokenByIndex",
      "outputs": [
        {
          "name": "",
          "type": "uint256"
        }
      ],
      "payable": false,
      "stateMutability": "view",
      "type": "function",
      "signature": "0x4f6ccce7"
    },
    {
      "constant": true,
      "inputs": [
        {
          "name": "tokenId",
          "type": "uint256"
        }
      ],
      "name": "ownerOf",
      "outputs": [
        {
          "name": "",
          "type": "address"
        }
      ],
      "payable": false,
      "stateMutability": "view",
      "type": "function",
      "signature": "0x6352211e"
    },
    {
      "constant": true,
      "inputs": [
        {
          "name": "owner",
          "type": "address"
        }
      ],
      "name": "balanceOf",
      "outputs": [
        {
          "name": "",
          "type": "uint256"
        }
      ],
      "payable": false,
      "stateMutability": "view",
      "type": "function",
      "signature": "0x70a08231"
    },
    {
      "constant": true,
      "inputs": [],
      "name": "symbol",
      "outputs": [
        {
          "name": "",
          "type": "string"
        }
      ],
      "payable": false,
      "stateMutability": "view",
      "type": "function",
      "signature": "0x95d89b41"
    },
    {
      "constant": false,
      "inputs": [
        {
          "name": "to",
          "type": "address"
        },
        {
          "name": "approved",
          "type": "bool"
        }
      ],
      "name": "setApprovalForAll",
      "outputs": [],
      "payable": false,
      "stateMutability": "nonpayable",
      "type": "function",
      "signature": "0xa22cb465"
    },
    {
      "constant": true,
      "inputs": [
        {
          "name": "",
          "type": "uint256"
        }
      ],
      "name": "_pisiHashesToSell",
      "outputs": [
        {
          "name": "",
          "type": "string"
        }
      ],
      "payable": false,
      "stateMutability": "view",
      "type": "function",
      "signature": "0xafc8136c"
    },
    {
      "constant": false,
      "inputs": [
        {
          "name": "from",
          "type": "address"
        },
        {
          "name": "to",
          "type": "address"
        },
        {
          "name": "tokenId",
          "type": "uint256"
        },
        {
          "name": "_data",
          "type": "bytes"
        }
      ],
      "name": "safeTransferFrom",
      "outputs": [],
      "payable": false,
      "stateMutability": "nonpayable",
      "type": "function",
      "signature": "0xb88d4fde"
    },
    {
      "constant": true,
      "inputs": [
        {
          "name": "tokenId",
          "type": "uint256"
        }
      ],
      "name": "tokenURI",
      "outputs": [
        {
          "name": "",
          "type": "string"
        }
      ],
      "payable": false,
      "stateMutability": "view",
      "type": "function",
      "signature": "0xc87b56dd"
    },
    {
      "constant": true,
      "inputs": [
        {
          "name": "owner",
          "type": "address"
        },
        {
          "name": "operator",
          "type": "address"
        }
      ],
      "name": "isApprovedForAll",
      "outputs": [
        {
          "name": "",
          "type": "bool"
        }
      ],
      "payable": false,
      "stateMutability": "view",
      "type": "function",
      "signature": "0xe985e9c5"
    },
    {
      "inputs": [],
      "payable": false,
      "stateMutability": "nonpayable",
      "type": "constructor",
      "signature": "constructor"
    },
    {
      "anonymous": false,
      "inputs": [
        {
          "indexed": true,
          "name": "from",
          "type": "address"
        },
        {
          "indexed": true,
          "name": "to",
          "type": "address"
        },
        {
          "indexed": true,
          "name": "tokenId",
          "type": "uint256"
        }
      ],
      "name": "Transfer",
      "type": "event",
      "signature": "0xddf252ad1be2c89b69c2b068fc378daa952ba7f163c4a11628f55a4df523b3ef"
    },
    {
      "anonymous": false,
      "inputs": [
        {
          "indexed": true,
          "name": "owner",
          "type": "address"
        },
        {
          "indexed": true,
          "name": "approved",
          "type": "address"
        },
        {
          "indexed": true,
          "name": "tokenId",
          "type": "uint256"
        }
      ],
      "name": "Approval",
      "type": "event",
      "signature": "0x8c5be1e5ebec7d5bd14f71427d1e84f3dd0314c0f7b2291e5b200ac8c7c3b925"
    },
    {
      "anonymous": false,
      "inputs": [
        {
          "indexed": true,
          "name": "owner",
          "type": "address"
        },
        {
          "indexed": true,
          "name": "operator",
          "type": "address"
        },
        {
          "indexed": false,
          "name": "approved",
          "type": "bool"
        }
      ],
      "name": "ApprovalForAll",
      "type": "event",
      "signature": "0x17307eab39ab6107e8899845ad3d59bd9653f200f220920489ca2b5937696c31"
    },
    {
      "constant": false,
      "inputs": [],
      "name": "mint",
      "outputs": [
        {
          "name": "",
          "type": "string"
        }
      ],
      "payable": false,
      "stateMutability": "nonpayable",
      "type": "function",
      "signature": "0x1249c58b"
    },
    {
      "constant": false,
      "inputs": [
        {
          "name": "hashedAttr",
          "type": "string"
        }
      ],
      "name": "testAttributes",
      "outputs": [
        {
          "name": "",
          "type": "string"
        }
      ],
      "payable": false,
      "stateMutability": "nonpayable",
      "type": "function",
      "signature": "0x9ace6dc1"
    },
    {
      "constant": false,
      "inputs": [
        {
          "name": "pisiHash",
          "type": "string"
        },
        {
          "name": "price",
          "type": "uint256"
        }
      ],
      "name": "putToSale",
      "outputs": [],
      "payable": false,
      "stateMutability": "nonpayable",
      "type": "function",
      "signature": "0x9f66af62"
    },
    {
      "constant": false,
      "inputs": [
        {
          "name": "pisiHash",
          "type": "string"
        }
      ],
      "name": "putDownFromSale",
      "outputs": [],
      "payable": false,
      "stateMutability": "nonpayable",
      "type": "function",
      "signature": "0xf34ee28a"
    },
    {
      "constant": false,
      "inputs": [
        {
          "name": "pisiHash",
          "type": "string"
        }
      ],
      "name": "transferPisi",
      "outputs": [],
      "payable": true,
      "stateMutability": "payable",
      "type": "function",
      "signature": "0x09c39896"
    },
    {
      "constant": false,
      "inputs": [
        {
          "name": "pisiHash1",
          "type": "string"
        },
        {
          "name": "pisiHash2",
          "type": "string"
        }
      ],
      "name": "breed",
      "outputs": [
        {
          "name": "",
          "type": "string"
        }
      ],
      "payable": false,
      "stateMutability": "nonpayable",
      "type": "function",
      "signature": "0x2e6fb8e2"
    },
    {
      "constant": true,
      "inputs": [],
      "name": "gatherPersonalPisis",
      "outputs": [
        {
          "name": "",
          "type": "string[]"
        },
        {
          "name": "",
          "type": "uint8"
        }
      ],
      "payable": false,
      "stateMutability": "view",
      "type": "function",
      "signature": "0x52b56df6"
    },
    {
      "constant": false,
      "inputs": [
        {
          "name": "pisiHash",
          "type": "string"
        }
      ],
      "name": "feed",
      "outputs": [],
      "payable": true,
      "stateMutability": "payable",
      "type": "function",
      "signature": "0xe73ade8e"
    },
    {
      "constant": true,
      "inputs": [
        {
          "name": "pisiHash",
          "type": "string"
        }
      ],
      "name": "getEyeColor",
      "outputs": [
        {
          "name": "",
          "type": "string"
        }
      ],
      "payable": false,
      "stateMutability": "view",
      "type": "function",
      "signature": "0x5aee4330"
    },
    {
      "constant": true,
      "inputs": [
        {
          "name": "pisiHash",
          "type": "string"
        }
      ],
      "name": "getEyeSize",
      "outputs": [
        {
          "name": "",
          "type": "string"
        }
      ],
      "payable": false,
      "stateMutability": "view",
      "type": "function",
      "signature": "0xab76c013"
    },
    {
      "constant": true,
      "inputs": [
        {
          "name": "pisiHash",
          "type": "string"
        }
      ],
      "name": "getHeadColor",
      "outputs": [
        {
          "name": "",
          "type": "string"
        }
      ],
      "payable": false,
      "stateMutability": "view",
      "type": "function",
      "signature": "0x2f1c4ba3"
    },
    {
      "constant": true,
      "inputs": [
        {
          "name": "pisiHash",
          "type": "string"
        }
      ],
      "name": "getHeadSize",
      "outputs": [
        {
          "name": "",
          "type": "string"
        }
      ],
      "payable": false,
      "stateMutability": "view",
      "type": "function",
      "signature": "0x72eb3e09"
    },
    {
      "constant": true,
      "inputs": [
        {
          "name": "pisiHash",
          "type": "string"
        }
      ],
      "name": "getBeardSize",
      "outputs": [
        {
          "name": "",
          "type": "string"
        }
      ],
      "payable": false,
      "stateMutability": "view",
      "type": "function",
      "signature": "0x5d30e7e2"
    },
    {
      "constant": true,
      "inputs": [
        {
          "name": "pisiHash",
          "type": "string"
        }
      ],
      "name": "getTailColor",
      "outputs": [
        {
          "name": "",
          "type": "string"
        }
      ],
      "payable": false,
      "stateMutability": "view",
      "type": "function",
      "signature": "0xc5f4496a"
    },
    {
      "constant": true,
      "inputs": [
        {
          "name": "pisiHash",
          "type": "string"
        }
      ],
      "name": "getTailAccentColor",
      "outputs": [
        {
          "name": "",
          "type": "string"
        }
      ],
      "payable": false,
      "stateMutability": "view",
      "type": "function",
      "signature": "0xad267e72"
    },
    {
      "constant": true,
      "inputs": [
        {
          "name": "pisiHash",
          "type": "string"
        }
      ],
      "name": "getTailSize",
      "outputs": [
        {
          "name": "",
          "type": "string"
        }
      ],
      "payable": false,
      "stateMutability": "view",
      "type": "function",
      "signature": "0xe3395e9c"
    },
    {
      "constant": true,
      "inputs": [
        {
          "name": "pisiHash",
          "type": "string"
        }
      ],
      "name": "getBodyColor",
      "outputs": [
        {
          "name": "",
          "type": "string"
        }
      ],
      "payable": false,
      "stateMutability": "view",
      "type": "function",
      "signature": "0xa937f3db"
    },
    {
      "constant": true,
      "inputs": [
        {
          "name": "pisiHash",
          "type": "string"
        }
      ],
      "name": "getBodyAccentColor",
      "outputs": [
        {
          "name": "",
          "type": "string"
        }
      ],
      "payable": false,
      "stateMutability": "view",
      "type": "function",
      "signature": "0x33ccc11a"
    },
    {
      "constant": true,
      "inputs": [
        {
          "name": "pisiHash",
          "type": "string"
        }
      ],
      "name": "getStripeType",
      "outputs": [
        {
          "name": "",
          "type": "string"
        }
      ],
      "payable": false,
      "stateMutability": "view",
      "type": "function",
      "signature": "0x1e9abcac"
    },
    {
      "constant": true,
      "inputs": [
        {
          "name": "pisiHash",
          "type": "string"
        }
      ],
      "name": "getHungerness",
      "outputs": [
        {
          "name": "",
          "type": "uint8"
        }
      ],
      "payable": false,
      "stateMutability": "view",
      "type": "function",
      "signature": "0xcbc9c4a3"
    },
    {
      "constant": true,
      "inputs": [
        {
          "name": "pisiHash",
          "type": "string"
        }
      ],
      "name": "getFragility",
      "outputs": [
        {
          "name": "",
          "type": "uint8"
        }
      ],
      "payable": false,
      "stateMutability": "view",
      "type": "function",
      "signature": "0xa1f5fc03"
    },
    {
      "constant": true,
      "inputs": [
        {
          "name": "pisiHash",
          "type": "string"
        }
      ],
      "name": "getFertility",
      "outputs": [
        {
          "name": "",
          "type": "uint8"
        }
      ],
      "payable": false,
      "stateMutability": "view",
      "type": "function",
      "signature": "0xf7f8c32b"
    },
    {
      "constant": true,
      "inputs": [
        {
          "name": "pisiHash",
          "type": "string"
        }
      ],
      "name": "getAppeal",
      "outputs": [
        {
          "name": "",
          "type": "uint8"
        }
      ],
      "payable": false,
      "stateMutability": "view",
      "type": "function",
      "signature": "0xd8c6b1da"
    },
    {
      "constant": true,
      "inputs": [
        {
          "name": "pisiHash",
          "type": "string"
        }
      ],
      "name": "getOwner",
      "outputs": [
        {
          "name": "",
          "type": "address"
        }
      ],
      "payable": false,
      "stateMutability": "view",
      "type": "function",
      "signature": "0x4aaf4a12"
    }
  ],
  "bytecode": "0x60806040523480156200001157600080fd5b506040805190810160405280600481526020017f50697369000000000000000000000000000000000000000000000000000000008152506040805190810160405280600481526020017f50495349000000000000000000000000000000000000000000000000000000008152508181620000bd6301ffc9a77c010000000000000000000000000000000000000000000000000000000002620001b0640100000000026401000000009004565b620000fa6380ac58cd7c010000000000000000000000000000000000000000000000000000000002620001b0640100000000026401000000009004565b6200013763780e9d637c010000000000000000000000000000000000000000000000000000000002620001b0640100000000026401000000009004565b81600990805190602001906200014f929190620002a6565b5080600a908051906020019062000168929190620002a6565b50620001a6635b5e139f7c010000000000000000000000000000000000000000000000000000000002620001b0640100000000026401000000009004565b50505050620003ae565b63ffffffff7c010000000000000000000000000000000000000000000000000000000002817bffffffffffffffffffffffffffffffffffffffffffffffffffffffff1916141515156200023a576040517f08c379a000000000000000000000000000000000000000000000000000000000815260040162000231906200038c565b60405180910390fd5b6001600080837bffffffffffffffffffffffffffffffffffffffffffffffffffffffff19167bffffffffffffffffffffffffffffffffffffffffffffffffffffffff1916815260200190815260200160002060006101000a81548160ff02191690831515021790555050565b828054600181600116156101000203166002900490600052602060002090601f016020900481019282601f10620002e957805160ff19168380011785556200031a565b828001600101855582156200031a579182015b8281111562000319578251825591602001919060010190620002fc565b5b5090506200032991906200032d565b5090565b6200035291905b808211156200034e57600081600090555060010162000334565b5090565b90565b6000601c82527f4552433136353a20696e76616c696420696e74657266616365206964000000006020830152604082019050919050565b60006020820190508181036000830152620003a78162000355565b9050919050565b617d5880620003be6000396000f3fe608060405260043610610204576000357c0100000000000000000000000000000000000000000000000000000000900463ffffffff16806301ffc9a71461020957806306fdde0314610246578063081812fc14610271578063095ea7b3146102ae57806309c39896146102d75780631249c58b146102f357806318160ddd1461031e5780631e9abcac1461034957806323b872dd146103865780632e6fb8e2146103af5780632f1c4ba3146103ec5780632f745c591461042957806333ccc11a14610466578063356e7863146104a357806342842e0e146104ce5780634aaf4a12146104f75780634f6ccce71461053457806352b56df6146105715780635aee43301461059d5780635d30e7e2146105da5780636352211e1461061757806370a082311461065457806372eb3e091461069157806395d89b41146106ce5780639ace6dc1146106f95780639f66af6214610736578063a1f5fc031461075f578063a22cb4651461079c578063a937f3db146107c5578063ab76c01314610802578063ad267e721461083f578063afc8136c1461087c578063b88d4fde146108b9578063c5f4496a146108e2578063c87b56dd1461091f578063cbc9c4a31461095c578063d8c6b1da14610999578063e3395e9c146109d6578063e73ade8e14610a13578063e985e9c514610a2f578063f34ee28a14610a6c578063f7f8c32b14610a95575b600080fd5b34801561021557600080fd5b50610230600480360361022b9190810190616fc6565b610ad2565b60405161023d919061786a565b60405180910390f35b34801561025257600080fd5b5061025b610b39565b60405161026891906178a7565b60405180910390f35b34801561027d57600080fd5b5061029860048036036102939190810190617119565b610bdb565b6040516102a591906177d3565b60405180910390f35b3480156102ba57600080fd5b506102d560048036036102d09190810190616f8a565b610c62565b005b6102f160048036036102ec9190810190617018565b610e13565b005b3480156102ff57600080fd5b506103086116d4565b60405161031591906178a7565b60405180910390f35b34801561032a57600080fd5b50610333611768565b6040516103409190617ad9565b60405180910390f35b34801561035557600080fd5b50610370600480360361036b9190810190617018565b611775565b60405161037d91906178a7565b60405180910390f35b34801561039257600080fd5b506103ad60048036036103a89190810190616e84565b611885565b005b3480156103bb57600080fd5b506103d660048036036103d19190810190617059565b6118e0565b6040516103e391906178a7565b60405180910390f35b3480156103f857600080fd5b50610413600480360361040e9190810190617018565b612cb3565b60405161042091906178a7565b60405180910390f35b34801561043557600080fd5b50610450600480360361044b9190810190616f8a565b612dc3565b60405161045d9190617ad9565b60405180910390f35b34801561047257600080fd5b5061048d60048036036104889190810190617018565b612e70565b60405161049a91906178a7565b60405180910390f35b3480156104af57600080fd5b506104b8612f80565b6040516104c59190617ad9565b60405180910390f35b3480156104da57600080fd5b506104f560048036036104f09190810190616e84565b612f86565b005b34801561050357600080fd5b5061051e60048036036105199190810190617018565b612fa7565b60405161052b91906177d3565b60405180910390f35b34801561054057600080fd5b5061055b60048036036105569190810190617119565b61303f565b6040516105689190617ad9565b60405180910390f35b34801561057d57600080fd5b506105866130ad565b60405161059492919061783a565b60405180910390f35b3480156105a957600080fd5b506105c460048036036105bf9190810190617018565b613228565b6040516105d191906178a7565b60405180910390f35b3480156105e657600080fd5b5061060160048036036105fc9190810190617018565b613338565b60405161060e91906178a7565b60405180910390f35b34801561062357600080fd5b5061063e60048036036106399190810190617119565b613448565b60405161064b91906177d3565b60405180910390f35b34801561066057600080fd5b5061067b60048036036106769190810190616e1f565b6134fc565b6040516106889190617ad9565b60405180910390f35b34801561069d57600080fd5b506106b860048036036106b39190810190617018565b6135bd565b6040516106c591906178a7565b60405180910390f35b3480156106da57600080fd5b506106e36136cd565b6040516106f091906178a7565b60405180910390f35b34801561070557600080fd5b50610720600480360361071b9190810190617018565b61376f565b60405161072d91906178a7565b60405180910390f35b34801561074257600080fd5b5061075d600480360361075891908101906170c5565b6138c6565b005b34801561076b57600080fd5b5061078660048036036107819190810190617018565b613e0e565b6040516107939190617af4565b60405180910390f35b3480156107a857600080fd5b506107c360048036036107be9190810190616f4e565b613f5c565b005b3480156107d157600080fd5b506107ec60048036036107e79190810190617018565b6140ca565b6040516107f991906178a7565b60405180910390f35b34801561080e57600080fd5b5061082960048036036108249190810190617018565b6141da565b60405161083691906178a7565b60405180910390f35b34801561084b57600080fd5b5061086660048036036108619190810190617018565b6142ea565b60405161087391906178a7565b60405180910390f35b34801561088857600080fd5b506108a3600480360361089e9190810190617119565b6143fa565b6040516108b09190617885565b60405180910390f35b3480156108c557600080fd5b506108e060048036036108db9190810190616ed3565b6144b5565b005b3480156108ee57600080fd5b5061090960048036036109049190810190617018565b614513565b60405161091691906178a7565b60405180910390f35b34801561092b57600080fd5b5061094660048036036109419190810190617119565b614623565b60405161095391906178a7565b60405180910390f35b34801561096857600080fd5b50610983600480360361097e9190810190617018565b614722565b6040516109909190617af4565b60405180910390f35b3480156109a557600080fd5b506109c060048036036109bb9190810190617018565b614870565b6040516109cd9190617af4565b60405180910390f35b3480156109e257600080fd5b506109fd60048036036109f89190810190617018565b6149be565b604051610a0a91906178a7565b60405180910390f35b610a2d6004803603610a289190810190617018565b614ace565b005b348015610a3b57600080fd5b50610a566004803603610a519190810190616e48565b614c70565b604051610a63919061786a565b60405180910390f35b348015610a7857600080fd5b50610a936004803603610a8e9190810190617018565b614d04565b005b348015610aa157600080fd5b50610abc6004803603610ab79190810190617018565b61510b565b604051610ac99190617af4565b60405180910390f35b6000806000837bffffffffffffffffffffffffffffffffffffffffffffffffffffffff19167bffffffffffffffffffffffffffffffffffffffffffffffffffffffff1916815260200190815260200160002060009054906101000a900460ff169050919050565b606060098054600181600116156101000203166002900480601f016020809104026020016040519081016040528092919081815260200182805460018160011615610100020316600290048015610bd15780601f10610ba657610100808354040283529160200191610bd1565b820191906000526020600020905b815481529060010190602001808311610bb457829003601f168201915b5050505050905090565b6000610be682615259565b1515610c27576040517f08c379a0000000000000000000000000000000000000000000000000000000008152600401610c1e90617a19565b60405180910390fd5b6002600083815260200190815260200160002060009054906101000a900473ffffffffffffffffffffffffffffffffffffffff169050919050565b6000610c6d82613448565b90508073ffffffffffffffffffffffffffffffffffffffff168373ffffffffffffffffffffffffffffffffffffffff1614151515610ce0576040517f08c379a0000000000000000000000000000000000000000000000000000000008152600401610cd790617a79565b60405180910390fd5b8073ffffffffffffffffffffffffffffffffffffffff163373ffffffffffffffffffffffffffffffffffffffff161480610d205750610d1f8133614c70565b5b1515610d61576040517f08c379a0000000000000000000000000000000000000000000000000000000008152600401610d58906179b9565b60405180910390fd5b826002600084815260200190815260200160002060006101000a81548173ffffffffffffffffffffffffffffffffffffffff021916908373ffffffffffffffffffffffffffffffffffffffff160217905550818373ffffffffffffffffffffffffffffffffffffffff168273ffffffffffffffffffffffffffffffffffffffff167f8c5be1e5ebec7d5bd14f71427d1e84f3dd0314c0f7b2291e5b200ac8c7c3b92560405160405180910390a4505050565b806000600c826040518082805190602001908083835b602083101515610e4e5780518252602082019150602081019050602083039250610e29565b6001836020036101000a0380198251168184511680821785525050505050509050019150509081526020016040518091039020600b0160029054906101000a900460ff1660ff161115611033576040600c826040518082805190602001908083835b602083101515610ed55780518252602082019150602081019050602083039250610eb0565b6001836020036101000a0380198251168184511680821785525050505050509050019150509081526020016040518091039020600b0160009054906101000a900460ff1660ff16811515610f2557fe5b04610e10600c836040518082805190602001908083835b602083101515610f615780518252602082019150602081019050602083039250610f3c565b6001836020036101000a0380198251168184511680821785525050505050509050019150509081526020016040518091039020600e01544203811515610fa357fe5b040260ff03600c826040518082805190602001908083835b602083101515610fe05780518252602082019150602081019050602083039250610fbb565b6001836020036101000a0380198251168184511680821785525050505050509050019150509081526020016040518091039020600b0160026101000a81548160ff021916908360ff160217905550611144565b6000600c826040518082805190602001908083835b60208310151561106d5780518252602082019150602081019050602083039250611048565b6001836020036101000a0380198251168184511680821785525050505050509050019150509081526020016040518091039020600b0160026101000a81548160ff021916908360ff1602179055506000600c826040518082805190602001908083835b6020831015156110f557805182526020820191506020810190506020830392506110d0565b6001836020036101000a0380198251168184511680821785525050505050509050019150509081526020016040518091039020600b0160036101000a81548160ff021916908360ff1602179055505b34600c836040518082805190602001908083835b60208310151561117d5780518252602082019150602081019050602083039250611158565b6001836020036101000a0380198251168184511680821785525050505050509050019150509081526020016040518091039020600c0154111515156111c157600080fd5b60011515600c836040518082805190602001908083835b6020831015156111fd57805182526020820191506020810190506020830392506111d8565b6001836020036101000a0380198251168184511680821785525050505050509050019150509081526020016040518091039020600d0160009054906101000a900460ff16151514151561124f57600080fd5b600c826040518082805190602001908083835b6020831015156112875780518252602082019150602081019050602083039250611262565b6001836020036101000a0380198251168184511680821785525050505050509050019150509081526020016040518091039020600b0160049054906101000a900473ffffffffffffffffffffffffffffffffffffffff1673ffffffffffffffffffffffffffffffffffffffff166108fc600c846040518082805190602001908083835b60208310151561132f578051825260208201915060208101905060208303925061130a565b6001836020036101000a0380198251168184511680821785525050505050509050019150509081526020016040518091039020600c01549081150290604051600060405180830381858888f19350505050158015611391573d6000803e3d6000fd5b506000600c836040518082805190602001908083835b6020831015156113cc57805182526020820191506020810190506020830392506113a7565b6001836020036101000a0380198251168184511680821785525050505050509050019150509081526020016040518091039020600b0160049054906101000a900473ffffffffffffffffffffffffffffffffffffffff16905033600c846040518082805190602001908083835b60208310151561145e5780518252602082019150602081019050602083039250611439565b6001836020036101000a0380198251168184511680821785525050505050509050019150509081526020016040518091039020600b0160046101000a81548173ffffffffffffffffffffffffffffffffffffffff021916908373ffffffffffffffffffffffffffffffffffffffff1602179055506114dc83336152cb565b61157483600d60008473ffffffffffffffffffffffffffffffffffffffff1673ffffffffffffffffffffffffffffffffffffffff168152602001908152602001600020600e60008573ffffffffffffffffffffffffffffffffffffffff1673ffffffffffffffffffffffffffffffffffffffff16815260200190815260200160002060009054906101000a900460ff1660ff16615549565b600e60008273ffffffffffffffffffffffffffffffffffffffff1673ffffffffffffffffffffffffffffffffffffffff168152602001908152602001600020600081819054906101000a900460ff16809291906001900391906101000a81548160ff021916908360ff16021790555050600d60003373ffffffffffffffffffffffffffffffffffffffff1673ffffffffffffffffffffffffffffffffffffffff16815260200190815260200160002083908060018154018082558091505090600182039060005260206000200160009091929091909150908051906020019061165e929190616a38565b5050600e60003373ffffffffffffffffffffffffffffffffffffffff1673ffffffffffffffffffffffffffffffffffffffff168152602001908152602001600020600081819054906101000a900460ff168092919060010191906101000a81548160ff021916908360ff16021790555050505050565b60606000424433604051602001808481526020018381526020018273ffffffffffffffffffffffffffffffffffffffff1673ffffffffffffffffffffffffffffffffffffffff166c0100000000000000000000000002815260140193505050506040516020818303038152906040528051906020012060019004905061176261175c82615699565b336157f2565b91505090565b6000600780549050905090565b6060600c826040518082805190602001908083835b6020831015156117af578051825260208201915060208101905060208303925061178a565b6001836020036101000a0380198251168184511680821785525050505050509050019150509081526020016040518091039020600a018054600181600116156101000203166002900480601f0160208091040260200160405190810160405280929190818152602001828054600181600116156101000203166002900480156118795780601f1061184e57610100808354040283529160200191611879565b820191906000526020600020905b81548152906001019060200180831161185c57829003601f168201915b50505050509050919050565b61188f3382615d22565b15156118d0576040517f08c379a00000000000000000000000000000000000000000000000000000000081526004016118c790617a99565b60405180910390fd5b6118db838383615e02565b505050565b6060826000600c826040518082805190602001908083835b60208310151561191d57805182526020820191506020810190506020830392506118f8565b6001836020036101000a0380198251168184511680821785525050505050509050019150509081526020016040518091039020600b0160029054906101000a900460ff1660ff161115611b02576040600c826040518082805190602001908083835b6020831015156119a4578051825260208201915060208101905060208303925061197f565b6001836020036101000a0380198251168184511680821785525050505050509050019150509081526020016040518091039020600b0160009054906101000a900460ff1660ff168115156119f457fe5b04610e10600c836040518082805190602001908083835b602083101515611a305780518252602082019150602081019050602083039250611a0b565b6001836020036101000a0380198251168184511680821785525050505050509050019150509081526020016040518091039020600e01544203811515611a7257fe5b040260ff03600c826040518082805190602001908083835b602083101515611aaf5780518252602082019150602081019050602083039250611a8a565b6001836020036101000a0380198251168184511680821785525050505050509050019150509081526020016040518091039020600b0160026101000a81548160ff021916908360ff160217905550611c13565b6000600c826040518082805190602001908083835b602083101515611b3c5780518252602082019150602081019050602083039250611b17565b6001836020036101000a0380198251168184511680821785525050505050509050019150509081526020016040518091039020600b0160026101000a81548160ff021916908360ff1602179055506000600c826040518082805190602001908083835b602083101515611bc45780518252602082019150602081019050602083039250611b9f565b6001836020036101000a0380198251168184511680821785525050505050509050019150509081526020016040518091039020600b0160036101000a81548160ff021916908360ff1602179055505b826000600c826040518082805190602001908083835b602083101515611c4e5780518252602082019150602081019050602083039250611c29565b6001836020036101000a0380198251168184511680821785525050505050509050019150509081526020016040518091039020600b0160029054906101000a900460ff1660ff161115611e33576040600c826040518082805190602001908083835b602083101515611cd55780518252602082019150602081019050602083039250611cb0565b6001836020036101000a0380198251168184511680821785525050505050509050019150509081526020016040518091039020600b0160009054906101000a900460ff1660ff16811515611d2557fe5b04610e10600c836040518082805190602001908083835b602083101515611d615780518252602082019150602081019050602083039250611d3c565b6001836020036101000a0380198251168184511680821785525050505050509050019150509081526020016040518091039020600e01544203811515611da357fe5b040260ff03600c826040518082805190602001908083835b602083101515611de05780518252602082019150602081019050602083039250611dbb565b6001836020036101000a0380198251168184511680821785525050505050509050019150509081526020016040518091039020600b0160026101000a81548160ff021916908360ff160217905550611f44565b6000600c826040518082805190602001908083835b602083101515611e6d5780518252602082019150602081019050602083039250611e48565b6001836020036101000a0380198251168184511680821785525050505050509050019150509081526020016040518091039020600b0160026101000a81548160ff021916908360ff1602179055506000600c826040518082805190602001908083835b602083101515611ef55780518252602082019150602081019050602083039250611ed0565b6001836020036101000a0380198251168184511680821785525050505050509050019150509081526020016040518091039020600b0160036101000a81548160ff021916908360ff1602179055505b3373ffffffffffffffffffffffffffffffffffffffff16600c866040518082805190602001908083835b602083101515611f935780518252602082019150602081019050602083039250611f6e565b6001836020036101000a0380198251168184511680821785525050505050509050019150509081526020016040518091039020600b0160049054906101000a900473ffffffffffffffffffffffffffffffffffffffff1673ffffffffffffffffffffffffffffffffffffffff1614151561200c57600080fd5b3373ffffffffffffffffffffffffffffffffffffffff16600c856040518082805190602001908083835b60208310151561205b5780518252602082019150602081019050602083039250612036565b6001836020036101000a0380198251168184511680821785525050505050509050019150509081526020016040518091039020600b0160049054906101000a900473ffffffffffffffffffffffffffffffffffffffff1673ffffffffffffffffffffffffffffffffffffffff161415156120d457600080fd5b6000600c866040518082805190602001908083835b60208310151561210e57805182526020820191506020810190506020830392506120e9565b6001836020036101000a0380198251168184511680821785525050505050509050019150509081526020016040518091039020600b0160039054906101000a900460ff1660ff161180156121e057506000600c856040518082805190602001908083835b6020831015156121975780518252602082019150602081019050602083039250612172565b6001836020036101000a0380198251168184511680821785525050505050509050019150509081526020016040518091039020600b0160039054906101000a900460ff1660ff16115b15156121eb57600080fd5b600061010042600c886040518082805190602001908083835b6020831015156122295780518252602082019150602081019050602083039250612204565b6001836020036101000a0380198251168184511680821785525050505050509050019150509081526020016040518091039020600b0160029054906101000a900460ff16600c886040518082805190602001908083835b6020831015156122a55780518252602082019150602081019050602083039250612280565b6001836020036101000a0380198251168184511680821785525050505050509050019150509081526020016040518091039020600b0160029054906101000a900460ff16604051602001808481526020018360ff1660ff167f01000000000000000000000000000000000000000000000000000000000000000281526001018260ff1660ff167f01000000000000000000000000000000000000000000000000000000000000000281526001019350505050604051602081830303815290604052805190602001206001900481151561237a57fe5b069050600c856040518082805190602001908083835b6020831015156123b55780518252602082019150602081019050602083039250612390565b6001836020036101000a0380198251168184511680821785525050505050509050019150509081526020016040518091039020600b0160039054906101000a900460ff1660ff16600c876040518082805190602001908083835b602083101515612434578051825260208201915060208101905060208303925061240f565b6001836020036101000a0380198251168184511680821785525050505050509050019150509081526020016040518091039020600b0160039054906101000a900460ff1660ff160161ffff168160ff1661ffff1610151561249457600080fd5b600c856040518082805190602001908083835b6020831015156124cc57805182526020820191506020810190506020830392506124a7565b6001836020036101000a0380198251168184511680821785525050505050509050019150509081526020016040518091039020600b0160029054906101000a900460ff1660ff16600c876040518082805190602001908083835b60208310151561254b5780518252602082019150602081019050602083039250612526565b6001836020036101000a0380198251168184511680821785525050505050509050019150509081526020016040518091039020600b0160029054906101000a900460ff1660ff1611801561269a5750600c856040518082805190602001908083835b6020831015156125d257805182526020820191506020810190506020830392506125ad565b6001836020036101000a0380198251168184511680821785525050505050509050019150509081526020016040518091039020600b0160039054906101000a900460ff1660ff16600c876040518082805190602001908083835b602083101515612651578051825260208201915060208101905060208303925061262c565b6001836020036101000a0380198251168184511680821785525050505050509050019150509081526020016040518091039020600b0160039054906101000a900460ff1660ff16115b156126b1576126a986336157f2565b935050612cab565b600c856040518082805190602001908083835b6020831015156126e957805182526020820191506020810190506020830392506126c4565b6001836020036101000a0380198251168184511680821785525050505050509050019150509081526020016040518091039020600b0160029054906101000a900460ff1660ff16600c876040518082805190602001908083835b6020831015156127685780518252602082019150602081019050602083039250612743565b6001836020036101000a0380198251168184511680821785525050505050509050019150509081526020016040518091039020600b0160029054906101000a900460ff1660ff161180156128b75750600c856040518082805190602001908083835b6020831015156127ef57805182526020820191506020810190506020830392506127ca565b6001836020036101000a0380198251168184511680821785525050505050509050019150509081526020016040518091039020600b0160039054906101000a900460ff1660ff16600c876040518082805190602001908083835b60208310151561286e5780518252602082019150602081019050602083039250612849565b6001836020036101000a0380198251168184511680821785525050505050509050019150509081526020016040518091039020600b0160039054906101000a900460ff1660ff16105b156129a75761299f6128cc876000601e615e26565b6128d987601e603f615e26565b6040516020018083805190602001908083835b60208310151561291157805182526020820191506020810190506020830392506128ec565b6001836020036101000a03801982511681845116808217855250505050505090500182805190602001908083835b602083101515612964578051825260208201915060208101905060208303925061293f565b6001836020036101000a03801982511681845116808217855250505050505090500192505050604051602081830303815290604052336157f2565b935050612cab565b600c856040518082805190602001908083835b6020831015156129df57805182526020820191506020810190506020830392506129ba565b6001836020036101000a0380198251168184511680821785525050505050509050019150509081526020016040518091039020600b0160029054906101000a900460ff1660ff16600c876040518082805190602001908083835b602083101515612a5e5780518252602082019150602081019050602083039250612a39565b6001836020036101000a0380198251168184511680821785525050505050509050019150509081526020016040518091039020600b0160029054906101000a900460ff1660ff16108015612bad5750600c856040518082805190602001908083835b602083101515612ae55780518252602082019150602081019050602083039250612ac0565b6001836020036101000a0380198251168184511680821785525050505050509050019150509081526020016040518091039020600b0160039054906101000a900460ff1660ff16600c876040518082805190602001908083835b602083101515612b645780518252602082019150602081019050602083039250612b3f565b6001836020036101000a0380198251168184511680821785525050505050509050019150509081526020016040518091039020600b0160039054906101000a900460ff1660ff16115b15612c9d57612c95612bc287601e603f615e26565b612bcf876000601e615e26565b6040516020018083805190602001908083835b602083101515612c075780518252602082019150602081019050602083039250612be2565b6001836020036101000a03801982511681845116808217855250505050505090500182805190602001908083835b602083101515612c5a5780518252602082019150602081019050602083039250612c35565b6001836020036101000a03801982511681845116808217855250505050505090500192505050604051602081830303815290604052336157f2565b935050612cab565b612ca785336157f2565b9350505b505092915050565b6060600c826040518082805190602001908083835b602083101515612ced5780518252602082019150602081019050602083039250612cc8565b6001836020036101000a03801982511681845116808217855250505050505090500191505090815260200160405180910390206002018054600181600116156101000203166002900480601f016020809104026020016040519081016040528092919081815260200182805460018160011615610100020316600290048015612db75780601f10612d8c57610100808354040283529160200191612db7565b820191906000526020600020905b815481529060010190602001808311612d9a57829003601f168201915b50505050509050919050565b6000612dce836134fc565b82101515612e11576040517f08c379a0000000000000000000000000000000000000000000000000000000008152600401612e08906178f9565b60405180910390fd5b600560008473ffffffffffffffffffffffffffffffffffffffff1673ffffffffffffffffffffffffffffffffffffffff16815260200190815260200160002082815481101515612e5d57fe5b9060005260206000200154905092915050565b6060600c826040518082805190602001908083835b602083101515612eaa5780518252602082019150602081019050602083039250612e85565b6001836020036101000a03801982511681845116808217855250505050505090500191505090815260200160405180910390206009018054600181600116156101000203166002900480601f016020809104026020016040519081016040528092919081815260200182805460018160011615610100020316600290048015612f745780601f10612f4957610100808354040283529160200191612f74565b820191906000526020600020905b815481529060010190602001808311612f5757829003601f168201915b50505050509050919050565b60105481565b612fa283838360206040519081016040528060008152506144b5565b505050565b6000600c826040518082805190602001908083835b602083101515612fe15780518252602082019150602081019050602083039250612fbc565b6001836020036101000a0380198251168184511680821785525050505050509050019150509081526020016040518091039020600b0160049054906101000a900473ffffffffffffffffffffffffffffffffffffffff169050919050565b6000613049611768565b8210151561308c576040517f08c379a000000000000000000000000000000000000000000000000000000000815260040161308390617ab9565b60405180910390fd5b60078281548110151561309b57fe5b90600052602060002001549050919050565b60606000600d60003373ffffffffffffffffffffffffffffffffffffffff1673ffffffffffffffffffffffffffffffffffffffff168152602001908152602001600020600e60003373ffffffffffffffffffffffffffffffffffffffff1673ffffffffffffffffffffffffffffffffffffffff16815260200190815260200160002060009054906101000a900460ff1681805480602002602001604051908101604052809291908181526020016000905b8282101561321a578382906000526020600020018054600181600116156101000203166002900480601f0160208091040260200160405190810160405280929190818152602001828054600181600116156101000203166002900480156132065780601f106131db57610100808354040283529160200191613206565b820191906000526020600020905b8154815290600101906020018083116131e957829003601f168201915b50505050508152602001906001019061315e565b505050509150915091509091565b6060600c826040518082805190602001908083835b602083101515613262578051825260208201915060208101905060208303925061323d565b6001836020036101000a03801982511681845116808217855250505050505090500191505090815260200160405180910390206000018054600181600116156101000203166002900480601f01602080910402602001604051908101604052809291908181526020018280546001816001161561010002031660029004801561332c5780601f106133015761010080835404028352916020019161332c565b820191906000526020600020905b81548152906001019060200180831161330f57829003601f168201915b50505050509050919050565b6060600c826040518082805190602001908083835b602083101515613372578051825260208201915060208101905060208303925061334d565b6001836020036101000a03801982511681845116808217855250505050505090500191505090815260200160405180910390206004018054600181600116156101000203166002900480601f01602080910402602001604051908101604052809291908181526020018280546001816001161561010002031660029004801561343c5780601f106134115761010080835404028352916020019161343c565b820191906000526020600020905b81548152906001019060200180831161341f57829003601f168201915b50505050509050919050565b6000806001600084815260200190815260200160002060009054906101000a900473ffffffffffffffffffffffffffffffffffffffff169050600073ffffffffffffffffffffffffffffffffffffffff168173ffffffffffffffffffffffffffffffffffffffff16141515156134f3576040517f08c379a00000000000000000000000000000000000000000000000000000000081526004016134ea906179f9565b60405180910390fd5b80915050919050565b60008073ffffffffffffffffffffffffffffffffffffffff168273ffffffffffffffffffffffffffffffffffffffff161415151561356f576040517f08c379a0000000000000000000000000000000000000000000000000000000008152600401613566906179d9565b60405180910390fd5b6135b6600360008473ffffffffffffffffffffffffffffffffffffffff1673ffffffffffffffffffffffffffffffffffffffff168152602001908152602001600020615f27565b9050919050565b6060600c826040518082805190602001908083835b6020831015156135f757805182526020820191506020810190506020830392506135d2565b6001836020036101000a03801982511681845116808217855250505050505090500191505090815260200160405180910390206003018054600181600116156101000203166002900480601f0160208091040260200160405190810160405280929190818152602001828054600181600116156101000203166002900480156136c15780601f10613696576101008083540402835291602001916136c1565b820191906000526020600020905b8154815290600101906020018083116136a457829003601f168201915b50505050509050919050565b6060600a8054600181600116156101000203166002900480601f0160208091040260200160405190810160405280929190818152602001828054600181600116156101000203166002900480156137655780601f1061373a57610100808354040283529160200191613765565b820191906000526020600020905b81548152906001019060200180831161374857829003601f168201915b5050505050905090565b60603073ffffffffffffffffffffffffffffffffffffffff16823360405160240161379b9291906178c9565b6040516020818303038152906040527f895ad739000000000000000000000000000000000000000000000000000000007bffffffffffffffffffffffffffffffffffffffffffffffffffffffff19166020820180517bffffffffffffffffffffffffffffffffffffffffffffffffffffffff83818316178352505050506040518082805190602001908083835b60208310151561384d5780518252602082019150602081019050602083039250613828565b6001836020036101000a038019825116818451168082178552505050505050905001915050600060405180830381855af49150503d80600081146138ad576040519150601f19603f3d011682016040523d82523d6000602084013e6138b2565b606091505b5050506138bf82336157f2565b9050919050565b816000600c826040518082805190602001908083835b60208310151561390157805182526020820191506020810190506020830392506138dc565b6001836020036101000a0380198251168184511680821785525050505050509050019150509081526020016040518091039020600b0160029054906101000a900460ff1660ff161115613ae6576040600c826040518082805190602001908083835b6020831015156139885780518252602082019150602081019050602083039250613963565b6001836020036101000a0380198251168184511680821785525050505050509050019150509081526020016040518091039020600b0160009054906101000a900460ff1660ff168115156139d857fe5b04610e10600c836040518082805190602001908083835b602083101515613a1457805182526020820191506020810190506020830392506139ef565b6001836020036101000a0380198251168184511680821785525050505050509050019150509081526020016040518091039020600e01544203811515613a5657fe5b040260ff03600c826040518082805190602001908083835b602083101515613a935780518252602082019150602081019050602083039250613a6e565b6001836020036101000a0380198251168184511680821785525050505050509050019150509081526020016040518091039020600b0160026101000a81548160ff021916908360ff160217905550613bf7565b6000600c826040518082805190602001908083835b602083101515613b205780518252602082019150602081019050602083039250613afb565b6001836020036101000a0380198251168184511680821785525050505050509050019150509081526020016040518091039020600b0160026101000a81548160ff021916908360ff1602179055506000600c826040518082805190602001908083835b602083101515613ba85780518252602082019150602081019050602083039250613b83565b6001836020036101000a0380198251168184511680821785525050505050509050019150509081526020016040518091039020600b0160036101000a81548160ff021916908360ff1602179055505b3373ffffffffffffffffffffffffffffffffffffffff16600c846040518082805190602001908083835b602083101515613c465780518252602082019150602081019050602083039250613c21565b6001836020036101000a0380198251168184511680821785525050505050509050019150509081526020016040518091039020600b0160049054906101000a900473ffffffffffffffffffffffffffffffffffffffff1673ffffffffffffffffffffffffffffffffffffffff16141515613cbf57600080fd5b81600c846040518082805190602001908083835b602083101515613cf85780518252602082019150602081019050602083039250613cd3565b6001836020036101000a0380198251168184511680821785525050505050509050019150509081526020016040518091039020600c01819055506001600c846040518082805190602001908083835b602083101515613d6c5780518252602082019150602081019050602083039250613d47565b6001836020036101000a0380198251168184511680821785525050505050509050019150509081526020016040518091039020600d0160006101000a81548160ff0219169083151502179055506001601060008282540192505081905550600f839080600181540180825580915050906001820390600052602060002001600090919290919091509080519060200190613e07929190616a38565b5050505050565b60003373ffffffffffffffffffffffffffffffffffffffff16600c836040518082805190602001908083835b602083101515613e5f5780518252602082019150602081019050602083039250613e3a565b6001836020036101000a0380198251168184511680821785525050505050509050019150509081526020016040518091039020600b0160049054906101000a900473ffffffffffffffffffffffffffffffffffffffff1673ffffffffffffffffffffffffffffffffffffffff1611151515613ed957600080fd5b600c826040518082805190602001908083835b602083101515613f115780518252602082019150602081019050602083039250613eec565b6001836020036101000a0380198251168184511680821785525050505050509050019150509081526020016040518091039020600b0160019054906101000a900460ff169050919050565b3373ffffffffffffffffffffffffffffffffffffffff168273ffffffffffffffffffffffffffffffffffffffff1614151515613fcd576040517f08c379a0000000000000000000000000000000000000000000000000000000008152600401613fc490617959565b60405180910390fd5b80600460003373ffffffffffffffffffffffffffffffffffffffff1673ffffffffffffffffffffffffffffffffffffffff16815260200190815260200160002060008473ffffffffffffffffffffffffffffffffffffffff1673ffffffffffffffffffffffffffffffffffffffff16815260200190815260200160002060006101000a81548160ff0219169083151502179055508173ffffffffffffffffffffffffffffffffffffffff163373ffffffffffffffffffffffffffffffffffffffff167f17307eab39ab6107e8899845ad3d59bd9653f200f220920489ca2b5937696c31836040516140be919061786a565b60405180910390a35050565b6060600c826040518082805190602001908083835b60208310151561410457805182526020820191506020810190506020830392506140df565b6001836020036101000a03801982511681845116808217855250505050505090500191505090815260200160405180910390206008018054600181600116156101000203166002900480601f0160208091040260200160405190810160405280929190818152602001828054600181600116156101000203166002900480156141ce5780601f106141a3576101008083540402835291602001916141ce565b820191906000526020600020905b8154815290600101906020018083116141b157829003601f168201915b50505050509050919050565b6060600c826040518082805190602001908083835b60208310151561421457805182526020820191506020810190506020830392506141ef565b6001836020036101000a03801982511681845116808217855250505050505090500191505090815260200160405180910390206001018054600181600116156101000203166002900480601f0160208091040260200160405190810160405280929190818152602001828054600181600116156101000203166002900480156142de5780601f106142b3576101008083540402835291602001916142de565b820191906000526020600020905b8154815290600101906020018083116142c157829003601f168201915b50505050509050919050565b6060600c826040518082805190602001908083835b60208310151561432457805182526020820191506020810190506020830392506142ff565b6001836020036101000a03801982511681845116808217855250505050505090500191505090815260200160405180910390206006018054600181600116156101000203166002900480601f0160208091040260200160405190810160405280929190818152602001828054600181600116156101000203166002900480156143ee5780601f106143c3576101008083540402835291602001916143ee565b820191906000526020600020905b8154815290600101906020018083116143d157829003601f168201915b50505050509050919050565b600f8181548110151561440957fe5b906000526020600020016000915090508054600181600116156101000203166002900480601f0160208091040260200160405190810160405280929190818152602001828054600181600116156101000203166002900480156144ad5780601f10614482576101008083540402835291602001916144ad565b820191906000526020600020905b81548152906001019060200180831161449057829003601f168201915b505050505081565b6144c0848484611885565b6144cc84848484615f35565b151561450d576040517f08c379a000000000000000000000000000000000000000000000000000000000815260040161450490617919565b60405180910390fd5b50505050565b6060600c826040518082805190602001908083835b60208310151561454d5780518252602082019150602081019050602083039250614528565b6001836020036101000a03801982511681845116808217855250505050505090500191505090815260200160405180910390206005018054600181600116156101000203166002900480601f0160208091040260200160405190810160405280929190818152602001828054600181600116156101000203166002900480156146175780601f106145ec57610100808354040283529160200191614617565b820191906000526020600020905b8154815290600101906020018083116145fa57829003601f168201915b50505050509050919050565b606061462e82615259565b151561466f576040517f08c379a000000000000000000000000000000000000000000000000000000000815260040161466690617a59565b60405180910390fd5b600b60008381526020019081526020016000208054600181600116156101000203166002900480601f0160208091040260200160405190810160405280929190818152602001828054600181600116156101000203166002900480156147165780601f106146eb57610100808354040283529160200191614716565b820191906000526020600020905b8154815290600101906020018083116146f957829003601f168201915b50505050509050919050565b60003373ffffffffffffffffffffffffffffffffffffffff16600c836040518082805190602001908083835b602083101515614773578051825260208201915060208101905060208303925061474e565b6001836020036101000a0380198251168184511680821785525050505050509050019150509081526020016040518091039020600b0160049054906101000a900473ffffffffffffffffffffffffffffffffffffffff1673ffffffffffffffffffffffffffffffffffffffff16111515156147ed57600080fd5b600c826040518082805190602001908083835b6020831015156148255780518252602082019150602081019050602083039250614800565b6001836020036101000a0380198251168184511680821785525050505050509050019150509081526020016040518091039020600b0160009054906101000a900460ff169050919050565b60003373ffffffffffffffffffffffffffffffffffffffff16600c836040518082805190602001908083835b6020831015156148c1578051825260208201915060208101905060208303925061489c565b6001836020036101000a0380198251168184511680821785525050505050509050019150509081526020016040518091039020600b0160049054906101000a900473ffffffffffffffffffffffffffffffffffffffff1673ffffffffffffffffffffffffffffffffffffffff161115151561493b57600080fd5b600c826040518082805190602001908083835b602083101515614973578051825260208201915060208101905060208303925061494e565b6001836020036101000a0380198251168184511680821785525050505050509050019150509081526020016040518091039020600b0160039054906101000a900460ff169050919050565b6060600c826040518082805190602001908083835b6020831015156149f857805182526020820191506020810190506020830392506149d3565b6001836020036101000a03801982511681845116808217855250505050505090500191505090815260200160405180910390206007018054600181600116156101000203166002900480601f016020809104026020016040519081016040528092919081815260200182805460018160011615610100020316600290048015614ac25780601f10614a9757610100808354040283529160200191614ac2565b820191906000526020600020905b815481529060010190602001808311614aa557829003601f168201915b50505050509050919050565b3373ffffffffffffffffffffffffffffffffffffffff16600c826040518082805190602001908083835b602083101515614b1d5780518252602082019150602081019050602083039250614af8565b6001836020036101000a0380198251168184511680821785525050505050509050019150509081526020016040518091039020600b0160049054906101000a900473ffffffffffffffffffffffffffffffffffffffff1673ffffffffffffffffffffffffffffffffffffffff16141515614b9657600080fd5b600066071afd498d00009050803410151515614bb157600080fd5b60003090508073ffffffffffffffffffffffffffffffffffffffff166108fc839081150290604051600060405180830381858888f19350505050158015614bfc573d6000803e3d6000fd5b5042600c846040518082805190602001908083835b602083101515614c365780518252602082019150602081019050602083039250614c11565b6001836020036101000a03801982511681845116808217855250505050505090500191505090815260200160405180910390205050505050565b6000600460008473ffffffffffffffffffffffffffffffffffffffff1673ffffffffffffffffffffffffffffffffffffffff16815260200190815260200160002060008373ffffffffffffffffffffffffffffffffffffffff1673ffffffffffffffffffffffffffffffffffffffff16815260200190815260200160002060009054906101000a900460ff16905092915050565b806000600c826040518082805190602001908083835b602083101515614d3f5780518252602082019150602081019050602083039250614d1a565b6001836020036101000a0380198251168184511680821785525050505050509050019150509081526020016040518091039020600b0160029054906101000a900460ff1660ff161115614f24576040600c826040518082805190602001908083835b602083101515614dc65780518252602082019150602081019050602083039250614da1565b6001836020036101000a0380198251168184511680821785525050505050509050019150509081526020016040518091039020600b0160009054906101000a900460ff1660ff16811515614e1657fe5b04610e10600c836040518082805190602001908083835b602083101515614e525780518252602082019150602081019050602083039250614e2d565b6001836020036101000a0380198251168184511680821785525050505050509050019150509081526020016040518091039020600e01544203811515614e9457fe5b040260ff03600c826040518082805190602001908083835b602083101515614ed15780518252602082019150602081019050602083039250614eac565b6001836020036101000a0380198251168184511680821785525050505050509050019150509081526020016040518091039020600b0160026101000a81548160ff021916908360ff160217905550615035565b6000600c826040518082805190602001908083835b602083101515614f5e5780518252602082019150602081019050602083039250614f39565b6001836020036101000a0380198251168184511680821785525050505050509050019150509081526020016040518091039020600b0160026101000a81548160ff021916908360ff1602179055506000600c826040518082805190602001908083835b602083101515614fe65780518252602082019150602081019050602083039250614fc1565b6001836020036101000a0380198251168184511680821785525050505050509050019150509081526020016040518091039020600b0160036101000a81548160ff021916908360ff1602179055505b3373ffffffffffffffffffffffffffffffffffffffff16600c836040518082805190602001908083835b602083101515615084578051825260208201915060208101905060208303925061505f565b6001836020036101000a0380198251168184511680821785525050505050509050019150509081526020016040518091039020600b0160049054906101000a900473ffffffffffffffffffffffffffffffffffffffff1673ffffffffffffffffffffffffffffffffffffffff161415156150fd57600080fd5b61510782336152cb565b5050565b60003373ffffffffffffffffffffffffffffffffffffffff16600c836040518082805190602001908083835b60208310151561515c5780518252602082019150602081019050602083039250615137565b6001836020036101000a0380198251168184511680821785525050505050509050019150509081526020016040518091039020600b0160049054906101000a900473ffffffffffffffffffffffffffffffffffffffff1673ffffffffffffffffffffffffffffffffffffffff16111515156151d657600080fd5b600c826040518082805190602001908083835b60208310151561520e57805182526020820191506020810190506020830392506151e9565b6001836020036101000a0380198251168184511680821785525050505050509050019150509081526020016040518091039020600b0160029054906101000a900460ff169050919050565b6000806001600084815260200190815260200160002060009054906101000a900473ffffffffffffffffffffffffffffffffffffffff169050600073ffffffffffffffffffffffffffffffffffffffff168173ffffffffffffffffffffffffffffffffffffffff161415915050919050565b8073ffffffffffffffffffffffffffffffffffffffff16600c836040518082805190602001908083835b60208310151561531a57805182526020820191506020810190506020830392506152f5565b6001836020036101000a0380198251168184511680821785525050505050509050019150509081526020016040518091039020600b0160049054906101000a900473ffffffffffffffffffffffffffffffffffffffff1673ffffffffffffffffffffffffffffffffffffffff1614151561539357600080fd5b600c826040518082805190602001908083835b6020831015156153cb57805182526020820191506020810190506020830392506153a6565b6001836020036101000a0380198251168184511680821785525050505050509050019150509081526020016040518091039020600d0160009054906101000a900460ff16151561541a57600080fd5b600060105411151561542b57600080fd5b6000600c836040518082805190602001908083835b6020831015156154655780518252602082019150602081019050602083039250615440565b6001836020036101000a0380198251168184511680821785525050505050509050019150509081526020016040518091039020600c01819055506000600c836040518082805190602001908083835b6020831015156154d957805182526020820191506020810190506020830392506154b4565b6001836020036101000a0380198251168184511680821785525050505050509050019150509081526020016040518091039020600d0160006101000a81548160ff02191690831515021790555061553482600f601054615549565b60016010600082825403925050819055505050565b600080905060018214156155865782805480151561556357fe5b60019003818190600052602060002001600061557f9190616ab8565b9055615693565b60008090505b6001830381101561569157848051906020012084828154811015156155ad57fe5b9060005260206000200160405180828054600181600116156101000203166002900480156156125780601f106155f0576101008083540402835291820191615612565b820191906000526020600020905b8154815290600101906020018083116155fe575b50509150506040518091039020141561562a57600191505b811561568457836001820181548110151561564157fe5b90600052602060002001848281548110151561565957fe5b906000526020600020019080546001816001161561010002031660029004615682929190616b00565b505b808060010191505061558c565b505b50505050565b606060008214156156e1576040805190810160405280600181526020017f300000000000000000000000000000000000000000000000000000000000000081525090506157ed565b600082905060005b60008214151561570f578080600101915050600a8281151561570757fe5b0491506156e9565b6060816040519080825280601f01601f1916602001820160405280156157445781602001600182028038833980820191505090505b50905060006001830390505b6000861415156157e557600a8681151561576657fe5b066030017f0100000000000000000000000000000000000000000000000000000000000000028282806001900393508151811015156157a157fe5b9060200101907effffffffffffffffffffffffffffffffffffffffffffffffffffffffffffff1916908160001a905350600a868115156157dd57fe5b049550615750565b819450505050505b919050565b60606157fc616b87565b610260604051908101604052806158168660006006615e26565b81526020016158288660066008615e26565b815260200161583a866008600e615e26565b815260200161584c86600e6010615e26565b815260200161585e8660106012615e26565b81526020016158708660126018615e26565b8152602001615882866018601e615e26565b815260200161589486601e6020615e26565b81526020016158a68660206026615e26565b81526020016158b8866026602c615e26565b81526020016158ca86602c602e615e26565b81526020016158e46158df87602e6030615e26565b616086565b60ff1681526020016159016158fc8760306032615e26565b616086565b60ff16815260200161591e6159198760326034615e26565b616086565b60ff16815260200161593b6159368760346036615e26565b616086565b60ff1681526020018473ffffffffffffffffffffffffffffffffffffffff1681526020016000815260200160001515815260200142815250905080600c856040518082805190602001908083835b6020831015156159ae5780518252602082019150602081019050602083039250615989565b6001836020036101000a038019825116818451168082178552505050505050905001915050908152602001604051809103902060008201518160000190805190602001906159fd929190616c3e565b506020820151816001019080519060200190615a1a929190616c3e565b506040820151816002019080519060200190615a37929190616c3e565b506060820151816003019080519060200190615a54929190616c3e565b506080820151816004019080519060200190615a71929190616c3e565b5060a0820151816005019080519060200190615a8e929190616c3e565b5060c0820151816006019080519060200190615aab929190616c3e565b5060e0820151816007019080519060200190615ac8929190616c3e565b50610100820151816008019080519060200190615ae6929190616c3e565b50610120820151816009019080519060200190615b04929190616c3e565b5061014082015181600a019080519060200190615b22929190616c3e565b5061016082015181600b0160006101000a81548160ff021916908360ff16021790555061018082015181600b0160016101000a81548160ff021916908360ff1602179055506101a082015181600b0160026101000a81548160ff021916908360ff1602179055506101c082015181600b0160036101000a81548160ff021916908360ff1602179055506101e082015181600b0160046101000a81548173ffffffffffffffffffffffffffffffffffffffff021916908373ffffffffffffffffffffffffffffffffffffffff16021790555061020082015181600c015561022082015181600d0160006101000a81548160ff02191690831515021790555061024082015181600e0155905050600d60008473ffffffffffffffffffffffffffffffffffffffff1673ffffffffffffffffffffffffffffffffffffffff168152602001908152602001600020849080600181540180825580915050906001820390600052602060002001600090919290919091509080519060200190615ca7929190616a38565b5050600e60008473ffffffffffffffffffffffffffffffffffffffff1673ffffffffffffffffffffffffffffffffffffffff168152602001908152602001600020600081819054906101000a900460ff168092919060010191906101000a81548160ff021916908360ff160217905550508391505092915050565b6000615d2d82615259565b1515615d6e576040517f08c379a0000000000000000000000000000000000000000000000000000000008152600401615d6590617999565b60405180910390fd5b6000615d7983613448565b90508073ffffffffffffffffffffffffffffffffffffffff168473ffffffffffffffffffffffffffffffffffffffff161480615de857508373ffffffffffffffffffffffffffffffffffffffff16615dd084610bdb565b73ffffffffffffffffffffffffffffffffffffffff16145b80615df95750615df88185614c70565b5b91505092915050565b615e0d838383616436565b615e178382616669565b615e21828261680d565b505050565b60608084905060608484036040519080825280601f01601f191660200182016040528015615e635781602001600182028038833980820191505090505b50905060008590505b84811015615f1a578281815181101515615e8257fe5b9060200101517f010000000000000000000000000000000000000000000000000000000000000090047f01000000000000000000000000000000000000000000000000000000000000000282878303815181101515615edd57fe5b9060200101907effffffffffffffffffffffffffffffffffffffffffffffffffffffffffffff1916908160001a9053508080600101915050615e6c565b5080925050509392505050565b600081600001549050919050565b6000615f568473ffffffffffffffffffffffffffffffffffffffff166168d4565b1515615f65576001905061607e565b60008473ffffffffffffffffffffffffffffffffffffffff1663150b7a02338887876040518563ffffffff167c0100000000000000000000000000000000000000000000000000000000028152600401615fc294939291906177ee565b602060405180830381600087803b158015615fdc57600080fd5b505af1158015615ff0573d6000803e3d6000fd5b505050506040513d601f19601f820116820180604052506160149190810190616fef565b905063150b7a027c0100000000000000000000000000000000000000000000000000000000027bffffffffffffffffffffffffffffffffffffffffffffffffffffffff1916817bffffffffffffffffffffffffffffffffffffffffffffffffffffffff1916149150505b949350505050565b6000602060405190810160405280600081525080519060200120828051906020012014156160b75760009050616431565b600080905060397f0100000000000000000000000000000000000000000000000000000000000000028360008151811015156160ef57fe5b9060200101517f010000000000000000000000000000000000000000000000000000000000000090047f0100000000000000000000000000000000000000000000000000000000000000027effffffffffffffffffffffffffffffffffffffffffffffffffffffffffffff19161115156161ef576010603084600081518110151561617657fe5b9060200101517f010000000000000000000000000000000000000000000000000000000000000090047f0100000000000000000000000000000000000000000000000000000000000000027f01000000000000000000000000000000000000000000000000000000000000009004030281019050616277565b6010603184600081518110151561620257fe5b9060200101517f010000000000000000000000000000000000000000000000000000000000000090047f0100000000000000000000000000000000000000000000000000000000000000027f010000000000000000000000000000000000000000000000000000000000000090040302810190505b60397f0100000000000000000000000000000000000000000000000000000000000000028360008151811015156162aa57fe5b9060200101517f010000000000000000000000000000000000000000000000000000000000000090047f0100000000000000000000000000000000000000000000000000000000000000027effffffffffffffffffffffffffffffffffffffffffffffffffffffffffffff19161115156163a757603083600181518110151561632f57fe5b9060200101517f010000000000000000000000000000000000000000000000000000000000000090047f0100000000000000000000000000000000000000000000000000000000000000027f01000000000000000000000000000000000000000000000000000000000000009004038101905061642c565b60318360018151811015156163b857fe5b9060200101517f010000000000000000000000000000000000000000000000000000000000000090047f0100000000000000000000000000000000000000000000000000000000000000027f0100000000000000000000000000000000000000000000000000000000000000900403810190505b809150505b919050565b8273ffffffffffffffffffffffffffffffffffffffff1661645682613448565b73ffffffffffffffffffffffffffffffffffffffff161415156164ae576040517f08c379a00000000000000000000000000000000000000000000000000000000081526004016164a590617a39565b60405180910390fd5b600073ffffffffffffffffffffffffffffffffffffffff168273ffffffffffffffffffffffffffffffffffffffff1614151515616520576040517f08c379a000000000000000000000000000000000000000000000000000000000815260040161651790617939565b60405180910390fd5b616529816168e7565b616570600360008573ffffffffffffffffffffffffffffffffffffffff1673ffffffffffffffffffffffffffffffffffffffff1681526020019081526020016000206169a7565b6165b7600360008473ffffffffffffffffffffffffffffffffffffffff1673ffffffffffffffffffffffffffffffffffffffff1681526020019081526020016000206169ca565b816001600083815260200190815260200160002060006101000a81548173ffffffffffffffffffffffffffffffffffffffff021916908373ffffffffffffffffffffffffffffffffffffffff160217905550808273ffffffffffffffffffffffffffffffffffffffff168473ffffffffffffffffffffffffffffffffffffffff167fddf252ad1be2c89b69c2b068fc378daa952ba7f163c4a11628f55a4df523b3ef60405160405180910390a4505050565b60006166c16001600560008673ffffffffffffffffffffffffffffffffffffffff1673ffffffffffffffffffffffffffffffffffffffff168152602001908152602001600020805490506169e090919063ffffffff16565b905060006006600084815260200190815260200160002054905081811415156167b4576000600560008673ffffffffffffffffffffffffffffffffffffffff1673ffffffffffffffffffffffffffffffffffffffff1681526020019081526020016000208381548110151561673257fe5b9060005260206000200154905080600560008773ffffffffffffffffffffffffffffffffffffffff1673ffffffffffffffffffffffffffffffffffffffff1681526020019081526020016000208381548110151561678c57fe5b9060005260206000200181905550816006600083815260200190815260200160002081905550505b600560008573ffffffffffffffffffffffffffffffffffffffff1673ffffffffffffffffffffffffffffffffffffffff1681526020019081526020016000208054809190600190036168069190616cbe565b5050505050565b600560008373ffffffffffffffffffffffffffffffffffffffff1673ffffffffffffffffffffffffffffffffffffffff168152602001908152602001600020805490506006600083815260200190815260200160002081905550600560008373ffffffffffffffffffffffffffffffffffffffff1673ffffffffffffffffffffffffffffffffffffffff1681526020019081526020016000208190806001815401808255809150509060018203906000526020600020016000909192909190915055505050565b600080823b905060008111915050919050565b600073ffffffffffffffffffffffffffffffffffffffff166002600083815260200190815260200160002060009054906101000a900473ffffffffffffffffffffffffffffffffffffffff1673ffffffffffffffffffffffffffffffffffffffff161415156169a45760006002600083815260200190815260200160002060006101000a81548173ffffffffffffffffffffffffffffffffffffffff021916908373ffffffffffffffffffffffffffffffffffffffff1602179055505b50565b6169bf600182600001546169e090919063ffffffff16565b816000018190555050565b6001816000016000828254019250508190555050565b6000828211151515616a27576040517f08c379a0000000000000000000000000000000000000000000000000000000008152600401616a1e90617979565b60405180910390fd5b600082840390508091505092915050565b828054600181600116156101000203166002900490600052602060002090601f016020900481019282601f10616a7957805160ff1916838001178555616aa7565b82800160010185558215616aa7579182015b82811115616aa6578251825591602001919060010190616a8b565b5b509050616ab49190616cea565b5090565b50805460018160011615610100020316600290046000825580601f10616ade5750616afd565b601f016020900490600052602060002090810190616afc9190616cea565b5b50565b828054600181600116156101000203166002900490600052602060002090601f016020900481019282601f10616b395780548555616b76565b82800160010185558215616b7657600052602060002091601f016020900482015b82811115616b75578254825591600101919060010190616b5a565b5b509050616b839190616cea565b5090565b610260604051908101604052806060815260200160608152602001606081526020016060815260200160608152602001606081526020016060815260200160608152602001606081526020016060815260200160608152602001600060ff168152602001600060ff168152602001600060ff168152602001600060ff168152602001600073ffffffffffffffffffffffffffffffffffffffff16815260200160008152602001600015158152602001600081525090565b828054600181600116156101000203166002900490600052602060002090601f016020900481019282601f10616c7f57805160ff1916838001178555616cad565b82800160010185558215616cad579182015b82811115616cac578251825591602001919060010190616c91565b5b509050616cba9190616cea565b5090565b815481835581811115616ce557818360005260206000209182019101616ce49190616cea565b5b505050565b616d0c91905b80821115616d08576000816000905550600101616cf0565b5090565b90565b6000616d1b8235617c41565b905092915050565b6000616d2f8235617c53565b905092915050565b6000616d438235617c5f565b905092915050565b6000616d578251617c5f565b905092915050565b600082601f8301121515616d7257600080fd5b8135616d85616d8082617b3c565b617b0f565b91508082526020830160208301858383011115616da157600080fd5b616dac838284617ccb565b50505092915050565b600082601f8301121515616dc857600080fd5b8135616ddb616dd682617b68565b617b0f565b91508082526020830160208301858383011115616df757600080fd5b616e02838284617ccb565b50505092915050565b6000616e178235617c8b565b905092915050565b600060208284031215616e3157600080fd5b6000616e3f84828501616d0f565b91505092915050565b60008060408385031215616e5b57600080fd5b6000616e6985828601616d0f565b9250506020616e7a85828601616d0f565b9150509250929050565b600080600060608486031215616e9957600080fd5b6000616ea786828701616d0f565b9350506020616eb886828701616d0f565b9250506040616ec986828701616e0b565b9150509250925092565b60008060008060808587031215616ee957600080fd5b6000616ef787828801616d0f565b9450506020616f0887828801616d0f565b9350506040616f1987828801616e0b565b925050606085013567ffffffffffffffff811115616f3657600080fd5b616f4287828801616d5f565b91505092959194509250565b60008060408385031215616f6157600080fd5b6000616f6f85828601616d0f565b9250506020616f8085828601616d23565b9150509250929050565b60008060408385031215616f9d57600080fd5b6000616fab85828601616d0f565b9250506020616fbc85828601616e0b565b9150509250929050565b600060208284031215616fd857600080fd5b6000616fe684828501616d37565b91505092915050565b60006020828403121561700157600080fd5b600061700f84828501616d4b565b91505092915050565b60006020828403121561702a57600080fd5b600082013567ffffffffffffffff81111561704457600080fd5b61705084828501616db5565b91505092915050565b6000806040838503121561706c57600080fd5b600083013567ffffffffffffffff81111561708657600080fd5b61709285828601616db5565b925050602083013567ffffffffffffffff8111156170af57600080fd5b6170bb85828601616db5565b9150509250929050565b600080604083850312156170d857600080fd5b600083013567ffffffffffffffff8111156170f257600080fd5b6170fe85828601616db5565b925050602061710f85828601616e0b565b9150509250929050565b60006020828403121561712b57600080fd5b600061713984828501616e0b565b91505092915050565b61714b81617c95565b82525050565b61715a81617bec565b82525050565b61716981617bda565b82525050565b600061717a82617ba1565b8084526020840193508360208202850161719385617b94565b60005b848110156171cc5783830388526171ae838351617258565b92506171b982617bcd565b9150602088019750600181019050617196565b508196508694505050505092915050565b6171e681617bfe565b82525050565b60006171f782617bac565b80845261720b816020860160208601617cda565b61721481617d0d565b602085010191505092915050565b600061722d82617bc2565b808452617241816020860160208601617cda565b61724a81617d0d565b602085010191505092915050565b600061726382617bb7565b808452617277816020860160208601617cda565b61728081617d0d565b602085010191505092915050565b6000602b82527f455243373231456e756d657261626c653a206f776e657220696e646578206f7560208301527f74206f6620626f756e64730000000000000000000000000000000000000000006040830152606082019050919050565b6000603282527f4552433732313a207472616e7366657220746f206e6f6e20455243373231526560208301527f63656976657220696d706c656d656e74657200000000000000000000000000006040830152606082019050919050565b6000602482527f4552433732313a207472616e7366657220746f20746865207a65726f2061646460208301527f72657373000000000000000000000000000000000000000000000000000000006040830152606082019050919050565b6000601982527f4552433732313a20617070726f766520746f2063616c6c6572000000000000006020830152604082019050919050565b6000601e82527f536166654d6174683a207375627472616374696f6e206f766572666c6f7700006020830152604082019050919050565b6000602c82527f4552433732313a206f70657261746f7220717565727920666f72206e6f6e657860208301527f697374656e7420746f6b656e00000000000000000000000000000000000000006040830152606082019050919050565b6000603882527f4552433732313a20617070726f76652063616c6c6572206973206e6f74206f7760208301527f6e6572206e6f7220617070726f76656420666f7220616c6c00000000000000006040830152606082019050919050565b6000602a82527f4552433732313a2062616c616e636520717565727920666f7220746865207a6560208301527f726f2061646472657373000000000000000000000000000000000000000000006040830152606082019050919050565b6000602982527f4552433732313a206f776e657220717565727920666f72206e6f6e657869737460208301527f656e7420746f6b656e00000000000000000000000000000000000000000000006040830152606082019050919050565b6000602c82527f4552433732313a20617070726f76656420717565727920666f72206e6f6e657860208301527f697374656e7420746f6b656e00000000000000000000000000000000000000006040830152606082019050919050565b6000602982527f4552433732313a207472616e73666572206f6620746f6b656e2074686174206960208301527f73206e6f74206f776e00000000000000000000000000000000000000000000006040830152606082019050919050565b6000602f82527f4552433732314d657461646174613a2055524920717565727920666f72206e6f60208301527f6e6578697374656e7420746f6b656e00000000000000000000000000000000006040830152606082019050919050565b6000602182527f4552433732313a20617070726f76616c20746f2063757272656e74206f776e6560208301527f72000000000000000000000000000000000000000000000000000000000000006040830152606082019050919050565b6000603182527f4552433732313a207472616e736665722063616c6c6572206973206e6f74206f60208301527f776e6572206e6f7220617070726f7665640000000000000000000000000000006040830152606082019050919050565b6000602c82527f455243373231456e756d657261626c653a20676c6f62616c20696e646578206f60208301527f7574206f6620626f756e647300000000000000000000000000000000000000006040830152606082019050919050565b6177be81617c2a565b82525050565b6177cd81617c34565b82525050565b60006020820190506177e86000830184617160565b92915050565b60006080820190506178036000830187617142565b6178106020830186617160565b61781d60408301856177b5565b818103606083015261782f81846171ec565b905095945050505050565b60006040820190508181036000830152617854818561716f565b905061786360208301846177c4565b9392505050565b600060208201905061787f60008301846171dd565b92915050565b6000602082019050818103600083015261789f8184617258565b905092915050565b600060208201905081810360008301526178c18184617222565b905092915050565b600060408201905081810360008301526178e38185617222565b90506178f26020830184617151565b9392505050565b600060208201905081810360008301526179128161728e565b9050919050565b60006020820190508181036000830152617932816172eb565b9050919050565b6000602082019050818103600083015261795281617348565b9050919050565b60006020820190508181036000830152617972816173a5565b9050919050565b60006020820190508181036000830152617992816173dc565b9050919050565b600060208201905081810360008301526179b281617413565b9050919050565b600060208201905081810360008301526179d281617470565b9050919050565b600060208201905081810360008301526179f2816174cd565b9050919050565b60006020820190508181036000830152617a128161752a565b9050919050565b60006020820190508181036000830152617a3281617587565b9050919050565b60006020820190508181036000830152617a52816175e4565b9050919050565b60006020820190508181036000830152617a7281617641565b9050919050565b60006020820190508181036000830152617a928161769e565b9050919050565b60006020820190508181036000830152617ab2816176fb565b9050919050565b60006020820190508181036000830152617ad281617758565b9050919050565b6000602082019050617aee60008301846177b5565b92915050565b6000602082019050617b0960008301846177c4565b92915050565b6000604051905081810181811067ffffffffffffffff82111715617b3257600080fd5b8060405250919050565b600067ffffffffffffffff821115617b5357600080fd5b601f19601f8301169050602081019050919050565b600067ffffffffffffffff821115617b7f57600080fd5b601f19601f8301169050602081019050919050565b6000602082019050919050565b600081519050919050565b600081519050919050565b600081519050919050565b600081519050919050565b6000602082019050919050565b6000617be582617c0a565b9050919050565b6000617bf782617c0a565b9050919050565b60008115159050919050565b600073ffffffffffffffffffffffffffffffffffffffff82169050919050565b6000819050919050565b600060ff82169050919050565b6000617c4c82617c0a565b9050919050565b60008115159050919050565b60007fffffffff0000000000000000000000000000000000000000000000000000000082169050919050565b6000819050919050565b6000617ca082617ca7565b9050919050565b6000617cb282617cb9565b9050919050565b6000617cc482617c0a565b9050919050565b82818337600083830152505050565b60005b83811015617cf8578082015181840152602081019050617cdd565b83811115617d07576000848401525b50505050565b6000601f19601f830116905091905056fea265627a7a723058204819e3797cb97745d7ce0268e338aef2e953f69ce19fcb7e6cb24209e75310026c6578706572696d656e74616cf50037",
  "source": "pragma solidity ^0.5.0;\npragma experimental ABIEncoderV2;\n\nimport \"./ERC721Full.sol\";\n\ncontract Pisi is ERC721Full {\n    // string[] public colors;\n    // mapping(string => bool) _colorExists;\n\n    struct PisiAttributes {\n        string eyeColor;\n        string eyeSize;\n        \n        string headColor;\n        string headSize;\n        \n        string beardSize;\n        \n        string tailColor;\n        string tailAccentColor;\n        string tailSize;\n        \n        string bodyColor;\n        string bodyAccentColor;\n\n        string stripeType;\n        \n        uint8 hungerness;\n        uint8 fragility;\n        uint8 fertility;\n        uint8 appeal;\n\n        address payable owner;\n        uint256 price;\n        bool onSale;\n        uint lastFeedingTime;\n    }\n    \n    mapping(string => PisiAttributes) _pisiCollection;\n    mapping(address => string[]) _personalCollection;\n    mapping(address => uint8) _personalCollectionSize;\n\n    string[] public _pisiHashesToSell;\n    uint256 public onSaleCount;\n\n    constructor() ERC721Full(\"Pisi\", \"PISI\") public {\n\n    }\n\n    function mint() public returns (string memory) {\n        uint256 rand = uint256(keccak256(abi.encodePacked(block.timestamp, block.difficulty, msg.sender)));\n\n        return decodeAttributes(uint2str(rand), msg.sender);\n    }\n\n    function decodeAttributes(string memory hashedAttr, address payable owner) internal returns (string memory){\n        PisiAttributes memory pa = PisiAttributes(\n            getNumberBetween(hashedAttr, 0, 6), // eyeColor, \n            getNumberBetween(hashedAttr, 6, 8), // eyeSize, \n            \n            getNumberBetween(hashedAttr, 8, 14), // headColor, \n            getNumberBetween(hashedAttr, 14, 16), // headSize, \n            \n            getNumberBetween(hashedAttr, 16, 18), // beardSize, *****\n            \n            getNumberBetween(hashedAttr, 18, 24), // tailColor, \n            getNumberBetween(hashedAttr, 24, 30), // tailAccentColor, *****\n            getNumberBetween(hashedAttr, 30, 32), // tailSize, \n            \n            getNumberBetween(hashedAttr, 32, 38), // bodyColor, \n            getNumberBetween(hashedAttr, 38, 44), // bodyAccentColor, \n    \n            getNumberBetween(hashedAttr, 44, 46), // stripeType, \n\n            str2Hexuint(getNumberBetween(hashedAttr, 46, 48)), // hungerness, \n            str2Hexuint(getNumberBetween(hashedAttr, 48, 50)), // fragility, \n            str2Hexuint(getNumberBetween(hashedAttr, 50, 52)), // fertility, \n            str2Hexuint(getNumberBetween(hashedAttr, 52, 54)), // appeal\n\n            owner,\n            0,\n            false,\n            block.timestamp\n        );\n\n        _pisiCollection[hashedAttr] = pa;\n        _personalCollection[owner].push(hashedAttr);\n        _personalCollectionSize[owner]++;\n\n        return hashedAttr;\n    }\n\n    function testAttributes(string memory hashedAttr) public returns (string memory) {\n        address(this).delegatecall(abi.encodeWithSignature(\"decodeAttributes(string, address payable)\", hashedAttr, msg.sender));\n\n        return decodeAttributes(hashedAttr, msg.sender);\n    }\n\n    function putToSale(string memory pisiHash, uint256 price) public decreaseAppeal(pisiHash) {\n        require(_pisiCollection[pisiHash].owner == msg.sender);\n\n        _pisiCollection[pisiHash].price = price;\n        _pisiCollection[pisiHash].onSale = true;\n        onSaleCount += 1;\n        \n        _pisiHashesToSell.push(pisiHash);\n    }\n\n    function putDownFromSale(string memory pisiHash) public decreaseAppeal(pisiHash) {\n        require(_pisiCollection[pisiHash].owner == msg.sender);\n\n        removeElement(pisiHash, msg.sender);\n    }\n\n    function transferPisi(string memory pisiHash) public payable decreaseAppeal(pisiHash) {\n        require(_pisiCollection[pisiHash].price <= msg.value);\n        require(_pisiCollection[pisiHash].onSale == true);\n\n        _pisiCollection[pisiHash].owner.transfer(_pisiCollection[pisiHash].price);\n\n        address oldOwner = _pisiCollection[pisiHash].owner;\n\n        _pisiCollection[pisiHash].owner = msg.sender;\n\n        removeElement(pisiHash, msg.sender);\n\n        removeElementFromArray(pisiHash, _personalCollection[oldOwner], _personalCollectionSize[oldOwner]);\n        _personalCollectionSize[oldOwner]--;\n\n        _personalCollection[msg.sender].push(pisiHash);\n        _personalCollectionSize[msg.sender]++;\n    }\n\n    function breed(string memory pisiHash1, string memory pisiHash2) public decreaseAppeal(pisiHash1) decreaseAppeal(pisiHash2) returns (string memory) {\n        require(_pisiCollection[pisiHash1].owner == msg.sender);\n        require(_pisiCollection[pisiHash2].owner == msg.sender);\n        require(_pisiCollection[pisiHash1].appeal > 0 && _pisiCollection[pisiHash2].appeal > 0);\n\n        uint8 rand = uint8(uint256(keccak256(abi.encodePacked(block.timestamp, _pisiCollection[pisiHash1].fertility, _pisiCollection[pisiHash2].fertility))) % 256);\n\n        require(uint16(rand) < uint16(_pisiCollection[pisiHash1].appeal) + uint16(_pisiCollection[pisiHash2].appeal));\n\n        if (_pisiCollection[pisiHash1].fertility > _pisiCollection[pisiHash2].fertility && _pisiCollection[pisiHash1].appeal > _pisiCollection[pisiHash2].appeal) {\n            return decodeAttributes(pisiHash1, msg.sender);\n        }else if(_pisiCollection[pisiHash1].fertility > _pisiCollection[pisiHash2].fertility && _pisiCollection[pisiHash1].appeal < _pisiCollection[pisiHash2].appeal) {\n            return decodeAttributes(string(abi.encodePacked(getNumberBetween(pisiHash1, 0, 30), getNumberBetween(pisiHash2, 30, 63))), msg.sender);\n        } else if(_pisiCollection[pisiHash1].fertility < _pisiCollection[pisiHash2].fertility && _pisiCollection[pisiHash1].appeal > _pisiCollection[pisiHash2].appeal) {\n            return decodeAttributes(string(abi.encodePacked(getNumberBetween(pisiHash1, 30, 63), getNumberBetween(pisiHash2, 0, 30))), msg.sender);\n        } else {\n            return decodeAttributes(pisiHash2, msg.sender);\n        }\n    }\n\n    function gatherPersonalPisis() public view returns (string[] memory, uint8) {\n        return (_personalCollection[msg.sender], _personalCollectionSize[msg.sender]);\n    }\n\n    function feed(string memory pisiHash) public payable {\n        require(_pisiCollection[pisiHash].owner == msg.sender);\n\n        uint costOfFeeding = 0.002 ether;\n\n        require(msg.value >= costOfFeeding);\n\n        address payable thisAddr = address(uint160(address(this)));\n\n        thisAddr.transfer(costOfFeeding);\n\n        _pisiCollection[pisiHash].lastFeedingTime == block.timestamp;\n    }\n\n    modifier decreaseAppeal(string memory pisiHash) {\n        if(_pisiCollection[pisiHash].fertility > 0){\n            _pisiCollection[pisiHash].fertility = 255 - uint8((block.timestamp - _pisiCollection[pisiHash].lastFeedingTime) / 1 hours) * (_pisiCollection[pisiHash].hungerness / 64);\n        } else{\n            _pisiCollection[pisiHash].fertility = 0;\n            _pisiCollection[pisiHash].appeal = 0;\n        }\n\n        _;\n    }\n\n    // HELPER FUNCTIONS\n\n    function removeElement(string memory pisiHashToRemove, address payable _owner) internal {\n        require(_pisiCollection[pisiHashToRemove].owner == _owner);\n        require(_pisiCollection[pisiHashToRemove].onSale);\n        require(onSaleCount > 0);\n        \n        _pisiCollection[pisiHashToRemove].price = 0;\n        _pisiCollection[pisiHashToRemove].onSale = false;\n\n        removeElementFromArray(pisiHashToRemove, _pisiHashesToSell, onSaleCount);\n\n        onSaleCount -= 1;\n    }\n\n    function removeElementFromArray(string memory toRemove, string[] storage removeFrom, uint count) internal {\n        bool move = false;\n\n        if(count == 1){\n            removeFrom.pop();\n        } else{\n            for (uint i = 0; i < count - 1; i++){\n                if(keccak256(bytes(removeFrom[i])) == keccak256(bytes(toRemove))){\n                    move = true;\n                }\n\n                if(move){\n                    removeFrom[i] = removeFrom[i + 1];\n                }\n            }\n        }\n    }\n    \n    function uint2str(uint _i) internal pure returns (string memory _uintAsString) {\n        if (_i == 0) {\n            return \"0\";\n        }\n        uint j = _i;\n        uint len;\n        while (j != 0) {\n            len++;\n            j /= 10;\n        }\n        bytes memory bstr = new bytes(len);\n        uint k = len - 1;\n        while (_i != 0) {\n            bstr[k--] = byte(uint8(48 + _i % 10));\n            _i /= 10;\n        }\n        return string(bstr);\n    }\n\n    function str2Hexuint(string memory _input) internal pure returns (uint8) {\n        if(keccak256(bytes(_input)) == keccak256(bytes(\"\"))) {\n            return 0;\n        }\n\n        uint8 res = 0;\n\n        if(bytes(_input)[0] <= 0x39){\n            res += (uint8(bytes(_input)[0]) - 0x30) * 16;\n        }else {\n            res += (uint8(bytes(_input)[0]) - 0x31) * 16;\n        }\n\n        if(bytes(_input)[0] <= 0x39){\n            res += (uint8(bytes(_input)[1]) - 0x30);\n        }else {\n            res += (uint8(bytes(_input)[1]) - 0x31);\n        }\n\n        return res;\n    }\n\n    // function getBodyAttr(string memory pisiHash, uint8 attCode) public view returns(string memory){\n    //     require(attCode < 7);\n\n    //     if(attCode == 0){ // eyeColor;\n    //         return _pisiCollection[pisiHash].eyeColor;\n    //     } else if(attCode == 1){ // eyeSize\n    //         return _pisiCollection[pisiHash].eyeSize;\n    //     } else if(attCode == 2){ // headColor\n    //         return _pisiCollection[pisiHash].headColor;\n    //     } else if(attCode == 3){ // headSize\n    //         return _pisiCollection[pisiHash].headSize;\n    //     } else if(attCode == 4){ // beardSize\n    //         return _pisiCollection[pisiHash].beardSize;\n    //     } else if(attCode == 5){ // tailColor\n    //         return _pisiCollection[pisiHash].tailColor;\n    //     } else if(attCode == 6){ // tailAccentColor\n    //         return _pisiCollection[pisiHash].tailAccentColor;\n    //     } else if(attCode == 6){ // tailSize\n    //         return _pisiCollection[pisiHash].tailSize;\n    //     } else if(attCode == 6){ // bodyColor\n    //         return _pisiCollection[pisiHash].bodyColor;\n    //     } else if(attCode == 6){ // bodyAccentColor\n    //         return _pisiCollection[pisiHash].bodyAccentColor;\n    //     } else if(attCode == 6){ // stripeType\n    //         return _pisiCollection[pisiHash].stripeType;\n    //     }else {\n    //         return \"\";\n    //     }\n    // }\n\n    // function getCharAttr(string memory pisiHash, uint8 attCode) public view returns(uint8){\n    //     require(_pisiCollection[pisiHash].owner <= msg.sender);\n    //     require(attCode < 4);\n\n    //     if(attCode == 0){ // hungerness;\n    //         return _pisiCollection[pisiHash].hungerness;\n    //     } else if(attCode == 1){ // fragility\n    //         return _pisiCollection[pisiHash].fragility;\n    //     } else if(attCode == 2){ // fertility\n    //         return _pisiCollection[pisiHash].fertility;\n    //     } else if(attCode == 3){ // appeal\n    //         return _pisiCollection[pisiHash].appeal;\n    //     } else {\n    //         return 0;\n    //     }\n    // }\n\n    function getEyeColor(string memory pisiHash) public view returns(string memory) {\n        return _pisiCollection[pisiHash].eyeColor;\n    }\n\n    function getEyeSize(string memory pisiHash) public view returns(string memory) {\n        return _pisiCollection[pisiHash].eyeSize;\n    }\n\n    function getHeadColor(string memory pisiHash) public view returns(string memory) {\n        return _pisiCollection[pisiHash].headColor;\n    }\n\n    function getHeadSize(string memory pisiHash) public view returns(string memory) {\n        return _pisiCollection[pisiHash].headSize;\n    }\n\n    function getBeardSize(string memory pisiHash) public view returns(string memory) {\n        return _pisiCollection[pisiHash].beardSize;\n    }\n\n    function getTailColor(string memory pisiHash) public view returns(string memory) {\n        return _pisiCollection[pisiHash].tailColor;\n    }\n\n    function getTailAccentColor(string memory pisiHash) public view returns(string memory) {\n        return _pisiCollection[pisiHash].tailAccentColor;\n    }\n\n    function getTailSize(string memory pisiHash) public view returns(string memory) {\n        return _pisiCollection[pisiHash].tailSize;\n    }\n\n    function getBodyColor(string memory pisiHash) public view returns(string memory) {\n        return _pisiCollection[pisiHash].bodyColor;\n    }\n\n    function getBodyAccentColor(string memory pisiHash) public view returns(string memory) {\n        return _pisiCollection[pisiHash].bodyAccentColor;\n    }\n\n    function getStripeType(string memory pisiHash) public view returns(string memory) {\n        return _pisiCollection[pisiHash].stripeType;\n    }\n\n    function getHungerness(string memory pisiHash) public view returns(uint8) {\n        require(_pisiCollection[pisiHash].owner <= msg.sender);\n        return _pisiCollection[pisiHash].hungerness;\n    }\n\n    function getFragility(string memory pisiHash) public view returns(uint8) {\n        require(_pisiCollection[pisiHash].owner <= msg.sender);\n\n        return _pisiCollection[pisiHash].fragility;\n    }\n\n    function getFertility(string memory pisiHash) public view returns(uint8) {\n        require(_pisiCollection[pisiHash].owner <= msg.sender);\n\n        return _pisiCollection[pisiHash].fertility;\n    }\n\n    function getAppeal(string memory pisiHash) public view returns(uint8) {\n        require(_pisiCollection[pisiHash].owner <= msg.sender);\n\n        return _pisiCollection[pisiHash].appeal;\n    }\n\n    function getOwner(string memory pisiHash) public view returns(address) {\n        return _pisiCollection[pisiHash].owner;\n    }\n\n    function getNumberBetween(string memory str, uint startIndex, uint endIndex) pure internal returns (string memory) {\n        bytes memory strBytes = bytes(str);\n        bytes memory result = new bytes(endIndex-startIndex);\n        for(uint i = startIndex; i < endIndex; i++) {\n            result[i-startIndex] = strBytes[i];\n        }\n        return string(result);\n    }\n}",
  "sourcePath": "D:/CryptoPissies/CryptoPissies/src/contracts/Pisi.sol",
  "compiler": {
    "name": "solc",
    "version": "0.5.0+commit.1d4f565a.Emscripten.clang"
  },
  "schemaVersion": "3.0.2",
  "updatedAt": "2021-05-18T17:16:51.696Z",
  "devdoc": {
    "methods": {
      "approve(address,uint256)": {
        "details": "Approves another address to transfer the given token ID The zero address indicates there is no approved address. There can only be one approved address per token at a given time. Can only be called by the token owner or an approved operator.",
        "params": {
          "to": "address to be approved for the given token ID",
          "tokenId": "uint256 ID of the token to be approved"
        }
      },
      "balanceOf(address)": {
        "details": "Gets the balance of the specified address.",
        "params": {
          "owner": "address to query the balance of"
        },
        "return": "uint256 representing the amount owned by the passed address"
      },
      "getApproved(uint256)": {
        "details": "Gets the approved address for a token ID, or zero if no address set Reverts if the token ID does not exist.",
        "params": {
          "tokenId": "uint256 ID of the token to query the approval of"
        },
        "return": "address currently approved for the given token ID"
      },
      "isApprovedForAll(address,address)": {
        "details": "Tells whether an operator is approved by a given owner.",
        "params": {
          "operator": "operator address which you want to query the approval of",
          "owner": "owner address which you want to query the approval of"
        },
        "return": "bool whether the given operator is approved by the given owner"
      },
      "name()": {
        "details": "Gets the token name.",
        "return": "string representing the token name"
      },
      "ownerOf(uint256)": {
        "details": "Gets the owner of the specified token ID.",
        "params": {
          "tokenId": "uint256 ID of the token to query the owner of"
        },
        "return": "address currently marked as the owner of the given token ID"
      },
      "safeTransferFrom(address,address,uint256)": {
        "details": "Safely transfers the ownership of a given token ID to another address If the target address is a contract, it must implement `onERC721Received`, which is called upon a safe transfer, and return the magic value `bytes4(keccak256(\"onERC721Received(address,address,uint256,bytes)\"))`; otherwise, the transfer is reverted. Requires the msg.sender to be the owner, approved, or operator",
        "params": {
          "from": "current owner of the token",
          "to": "address to receive the ownership of the given token ID",
          "tokenId": "uint256 ID of the token to be transferred"
        }
      },
      "safeTransferFrom(address,address,uint256,bytes)": {
        "details": "Safely transfers the ownership of a given token ID to another address If the target address is a contract, it must implement `onERC721Received`, which is called upon a safe transfer, and return the magic value `bytes4(keccak256(\"onERC721Received(address,address,uint256,bytes)\"))`; otherwise, the transfer is reverted. Requires the msg.sender to be the owner, approved, or operator",
        "params": {
          "_data": "bytes data to send along with a safe transfer check",
          "from": "current owner of the token",
          "to": "address to receive the ownership of the given token ID",
          "tokenId": "uint256 ID of the token to be transferred"
        }
      },
      "setApprovalForAll(address,bool)": {
        "details": "Sets or unsets the approval of a given operator An operator is allowed to transfer all tokens of the sender on their behalf.",
        "params": {
          "approved": "representing the status of the approval to be set",
          "to": "operator address to set the approval"
        }
      },
      "supportsInterface(bytes4)": {
        "details": "See `IERC165.supportsInterface`.     * Time complexity O(1), guaranteed to always use less than 30 000 gas."
      },
      "symbol()": {
        "details": "Gets the token symbol.",
        "return": "string representing the token symbol"
      },
      "tokenByIndex(uint256)": {
        "details": "Gets the token ID at a given index of all the tokens in this contract Reverts if the index is greater or equal to the total number of tokens.",
        "params": {
          "index": "uint256 representing the index to be accessed of the tokens list"
        },
        "return": "uint256 token ID at the given index of the tokens list"
      },
      "tokenOfOwnerByIndex(address,uint256)": {
        "details": "Gets the token ID at a given index of the tokens list of the requested owner.",
        "params": {
          "index": "uint256 representing the index to be accessed of the requested tokens list",
          "owner": "address owning the tokens list to be accessed"
        },
        "return": "uint256 token ID at the given index of the tokens list owned by the requested address"
      },
      "tokenURI(uint256)": {
        "details": "Returns an URI for a given token ID. Throws if the token ID does not exist. May return an empty string.",
        "params": {
          "tokenId": "uint256 ID of the token to query"
        }
      },
      "totalSupply()": {
        "details": "Gets the total amount of tokens stored by the contract.",
        "return": "uint256 representing the total amount of tokens"
      },
      "transferFrom(address,address,uint256)": {
        "details": "Transfers the ownership of a given token ID to another address. Usage of this method is discouraged, use `safeTransferFrom` whenever possible. Requires the msg.sender to be the owner, approved, or operator.",
        "params": {
          "from": "current owner of the token",
          "to": "address to receive the ownership of the given token ID",
          "tokenId": "uint256 ID of the token to be transferred"
        }
      }
    }
  },
  "userdoc": {
    "methods": {}
  }
}