{
  "contractName": "Pisi",
  "abi": [
    {
      "constant": true,
      "inputs": [
        {
          "name": "interfaceId",
          "type": "bytes4"
        }
      ],
      "name": "supportsInterface",
      "outputs": [
        {
          "name": "",
          "type": "bool"
        }
      ],
      "payable": false,
      "stateMutability": "view",
      "type": "function",
      "signature": "0x01ffc9a7"
    },
    {
      "constant": true,
      "inputs": [],
      "name": "name",
      "outputs": [
        {
          "name": "",
          "type": "string"
        }
      ],
      "payable": false,
      "stateMutability": "view",
      "type": "function",
      "signature": "0x06fdde03"
    },
    {
      "constant": true,
      "inputs": [
        {
          "name": "tokenId",
          "type": "uint256"
        }
      ],
      "name": "getApproved",
      "outputs": [
        {
          "name": "",
          "type": "address"
        }
      ],
      "payable": false,
      "stateMutability": "view",
      "type": "function",
      "signature": "0x081812fc"
    },
    {
      "constant": false,
      "inputs": [
        {
          "name": "to",
          "type": "address"
        },
        {
          "name": "tokenId",
          "type": "uint256"
        }
      ],
      "name": "approve",
      "outputs": [],
      "payable": false,
      "stateMutability": "nonpayable",
      "type": "function",
      "signature": "0x095ea7b3"
    },
    {
      "constant": true,
      "inputs": [],
      "name": "totalSupply",
      "outputs": [
        {
          "name": "",
          "type": "uint256"
        }
      ],
      "payable": false,
      "stateMutability": "view",
      "type": "function",
      "signature": "0x18160ddd"
    },
    {
      "constant": false,
      "inputs": [
        {
          "name": "from",
          "type": "address"
        },
        {
          "name": "to",
          "type": "address"
        },
        {
          "name": "tokenId",
          "type": "uint256"
        }
      ],
      "name": "transferFrom",
      "outputs": [],
      "payable": false,
      "stateMutability": "nonpayable",
      "type": "function",
      "signature": "0x23b872dd"
    },
    {
      "constant": true,
      "inputs": [
        {
          "name": "owner",
          "type": "address"
        },
        {
          "name": "index",
          "type": "uint256"
        }
      ],
      "name": "tokenOfOwnerByIndex",
      "outputs": [
        {
          "name": "",
          "type": "uint256"
        }
      ],
      "payable": false,
      "stateMutability": "view",
      "type": "function",
      "signature": "0x2f745c59"
    },
    {
      "constant": true,
      "inputs": [],
      "name": "onSaleCount",
      "outputs": [
        {
          "name": "",
          "type": "uint256"
        }
      ],
      "payable": false,
      "stateMutability": "view",
      "type": "function",
      "signature": "0x356e7863"
    },
    {
      "constant": false,
      "inputs": [
        {
          "name": "from",
          "type": "address"
        },
        {
          "name": "to",
          "type": "address"
        },
        {
          "name": "tokenId",
          "type": "uint256"
        }
      ],
      "name": "safeTransferFrom",
      "outputs": [],
      "payable": false,
      "stateMutability": "nonpayable",
      "type": "function",
      "signature": "0x42842e0e"
    },
    {
      "constant": true,
      "inputs": [
        {
          "name": "index",
          "type": "uint256"
        }
      ],
      "name": "tokenByIndex",
      "outputs": [
        {
          "name": "",
          "type": "uint256"
        }
      ],
      "payable": false,
      "stateMutability": "view",
      "type": "function",
      "signature": "0x4f6ccce7"
    },
    {
      "constant": true,
      "inputs": [
        {
          "name": "tokenId",
          "type": "uint256"
        }
      ],
      "name": "ownerOf",
      "outputs": [
        {
          "name": "",
          "type": "address"
        }
      ],
      "payable": false,
      "stateMutability": "view",
      "type": "function",
      "signature": "0x6352211e"
    },
    {
      "constant": true,
      "inputs": [
        {
          "name": "owner",
          "type": "address"
        }
      ],
      "name": "balanceOf",
      "outputs": [
        {
          "name": "",
          "type": "uint256"
        }
      ],
      "payable": false,
      "stateMutability": "view",
      "type": "function",
      "signature": "0x70a08231"
    },
    {
      "constant": true,
      "inputs": [],
      "name": "symbol",
      "outputs": [
        {
          "name": "",
          "type": "string"
        }
      ],
      "payable": false,
      "stateMutability": "view",
      "type": "function",
      "signature": "0x95d89b41"
    },
    {
      "constant": false,
      "inputs": [
        {
          "name": "to",
          "type": "address"
        },
        {
          "name": "approved",
          "type": "bool"
        }
      ],
      "name": "setApprovalForAll",
      "outputs": [],
      "payable": false,
      "stateMutability": "nonpayable",
      "type": "function",
      "signature": "0xa22cb465"
    },
    {
      "constant": true,
      "inputs": [
        {
          "name": "",
          "type": "uint256"
        }
      ],
      "name": "_pisiHashesToSell",
      "outputs": [
        {
          "name": "",
          "type": "string"
        }
      ],
      "payable": false,
      "stateMutability": "view",
      "type": "function",
      "signature": "0xafc8136c"
    },
    {
      "constant": false,
      "inputs": [
        {
          "name": "from",
          "type": "address"
        },
        {
          "name": "to",
          "type": "address"
        },
        {
          "name": "tokenId",
          "type": "uint256"
        },
        {
          "name": "_data",
          "type": "bytes"
        }
      ],
      "name": "safeTransferFrom",
      "outputs": [],
      "payable": false,
      "stateMutability": "nonpayable",
      "type": "function",
      "signature": "0xb88d4fde"
    },
    {
      "constant": true,
      "inputs": [
        {
          "name": "tokenId",
          "type": "uint256"
        }
      ],
      "name": "tokenURI",
      "outputs": [
        {
          "name": "",
          "type": "string"
        }
      ],
      "payable": false,
      "stateMutability": "view",
      "type": "function",
      "signature": "0xc87b56dd"
    },
    {
      "constant": true,
      "inputs": [
        {
          "name": "owner",
          "type": "address"
        },
        {
          "name": "operator",
          "type": "address"
        }
      ],
      "name": "isApprovedForAll",
      "outputs": [
        {
          "name": "",
          "type": "bool"
        }
      ],
      "payable": false,
      "stateMutability": "view",
      "type": "function",
      "signature": "0xe985e9c5"
    },
    {
      "inputs": [],
      "payable": false,
      "stateMutability": "nonpayable",
      "type": "constructor",
      "signature": "constructor"
    },
    {
      "anonymous": false,
      "inputs": [
        {
          "indexed": true,
          "name": "from",
          "type": "address"
        },
        {
          "indexed": true,
          "name": "to",
          "type": "address"
        },
        {
          "indexed": true,
          "name": "tokenId",
          "type": "uint256"
        }
      ],
      "name": "Transfer",
      "type": "event",
      "signature": "0xddf252ad1be2c89b69c2b068fc378daa952ba7f163c4a11628f55a4df523b3ef"
    },
    {
      "anonymous": false,
      "inputs": [
        {
          "indexed": true,
          "name": "owner",
          "type": "address"
        },
        {
          "indexed": true,
          "name": "approved",
          "type": "address"
        },
        {
          "indexed": true,
          "name": "tokenId",
          "type": "uint256"
        }
      ],
      "name": "Approval",
      "type": "event",
      "signature": "0x8c5be1e5ebec7d5bd14f71427d1e84f3dd0314c0f7b2291e5b200ac8c7c3b925"
    },
    {
      "anonymous": false,
      "inputs": [
        {
          "indexed": true,
          "name": "owner",
          "type": "address"
        },
        {
          "indexed": true,
          "name": "operator",
          "type": "address"
        },
        {
          "indexed": false,
          "name": "approved",
          "type": "bool"
        }
      ],
      "name": "ApprovalForAll",
      "type": "event",
      "signature": "0x17307eab39ab6107e8899845ad3d59bd9653f200f220920489ca2b5937696c31"
    },
    {
      "constant": false,
      "inputs": [],
      "name": "mint",
      "outputs": [
        {
          "name": "",
          "type": "string"
        }
      ],
      "payable": false,
      "stateMutability": "nonpayable",
      "type": "function",
      "signature": "0x1249c58b"
    },
    {
      "constant": false,
      "inputs": [
        {
          "name": "hashedAttr",
          "type": "string"
        }
      ],
      "name": "testAttributes",
      "outputs": [
        {
          "name": "",
          "type": "string"
        }
      ],
      "payable": false,
      "stateMutability": "nonpayable",
      "type": "function",
      "signature": "0x9ace6dc1"
    },
    {
      "constant": false,
      "inputs": [
        {
          "name": "pisiHash",
          "type": "string"
        },
        {
          "name": "price",
          "type": "uint256"
        }
      ],
      "name": "putToSale",
      "outputs": [],
      "payable": false,
      "stateMutability": "nonpayable",
      "type": "function",
      "signature": "0x9f66af62"
    },
    {
      "constant": false,
      "inputs": [
        {
          "name": "pisiHash",
          "type": "string"
        }
      ],
      "name": "putDownFromSale",
      "outputs": [],
      "payable": false,
      "stateMutability": "nonpayable",
      "type": "function",
      "signature": "0xf34ee28a"
    },
    {
      "constant": false,
      "inputs": [
        {
          "name": "pisiHash",
          "type": "string"
        }
      ],
      "name": "transferPisi",
      "outputs": [],
      "payable": true,
      "stateMutability": "payable",
      "type": "function",
      "signature": "0x09c39896"
    },
    {
      "constant": false,
      "inputs": [
        {
          "name": "pisiHash1",
          "type": "string"
        },
        {
          "name": "pisiHash2",
          "type": "string"
        }
      ],
      "name": "breed",
      "outputs": [
        {
          "name": "",
          "type": "string"
        }
      ],
      "payable": false,
      "stateMutability": "nonpayable",
      "type": "function",
      "signature": "0x2e6fb8e2"
    },
    {
      "constant": true,
      "inputs": [],
      "name": "gatherPersonalPisis",
      "outputs": [
        {
          "name": "",
          "type": "string[]"
        },
        {
          "name": "",
          "type": "uint8"
        }
      ],
      "payable": false,
      "stateMutability": "view",
      "type": "function",
      "signature": "0x52b56df6"
    },
    {
      "constant": false,
      "inputs": [
        {
          "name": "pisiHash",
          "type": "string"
        }
      ],
      "name": "feed",
      "outputs": [],
      "payable": true,
      "stateMutability": "payable",
      "type": "function",
      "signature": "0xe73ade8e"
    },
    {
      "constant": true,
      "inputs": [
        {
          "name": "pisiHash",
          "type": "string"
        }
      ],
      "name": "getEyeColor",
      "outputs": [
        {
          "name": "",
          "type": "string"
        }
      ],
      "payable": false,
      "stateMutability": "view",
      "type": "function",
      "signature": "0x5aee4330"
    },
    {
      "constant": true,
      "inputs": [
        {
          "name": "pisiHash",
          "type": "string"
        }
      ],
      "name": "getEyeSize",
      "outputs": [
        {
          "name": "",
          "type": "string"
        }
      ],
      "payable": false,
      "stateMutability": "view",
      "type": "function",
      "signature": "0xab76c013"
    },
    {
      "constant": true,
      "inputs": [
        {
          "name": "pisiHash",
          "type": "string"
        }
      ],
      "name": "getHeadColor",
      "outputs": [
        {
          "name": "",
          "type": "string"
        }
      ],
      "payable": false,
      "stateMutability": "view",
      "type": "function",
      "signature": "0x2f1c4ba3"
    },
    {
      "constant": true,
      "inputs": [
        {
          "name": "pisiHash",
          "type": "string"
        }
      ],
      "name": "getHeadSize",
      "outputs": [
        {
          "name": "",
          "type": "string"
        }
      ],
      "payable": false,
      "stateMutability": "view",
      "type": "function",
      "signature": "0x72eb3e09"
    },
    {
      "constant": true,
      "inputs": [
        {
          "name": "pisiHash",
          "type": "string"
        }
      ],
      "name": "getBeardSize",
      "outputs": [
        {
          "name": "",
          "type": "string"
        }
      ],
      "payable": false,
      "stateMutability": "view",
      "type": "function",
      "signature": "0x5d30e7e2"
    },
    {
      "constant": true,
      "inputs": [
        {
          "name": "pisiHash",
          "type": "string"
        }
      ],
      "name": "getTailColor",
      "outputs": [
        {
          "name": "",
          "type": "string"
        }
      ],
      "payable": false,
      "stateMutability": "view",
      "type": "function",
      "signature": "0xc5f4496a"
    },
    {
      "constant": true,
      "inputs": [
        {
          "name": "pisiHash",
          "type": "string"
        }
      ],
      "name": "getTailAccentColor",
      "outputs": [
        {
          "name": "",
          "type": "string"
        }
      ],
      "payable": false,
      "stateMutability": "view",
      "type": "function",
      "signature": "0xad267e72"
    },
    {
      "constant": true,
      "inputs": [
        {
          "name": "pisiHash",
          "type": "string"
        }
      ],
      "name": "getTailSize",
      "outputs": [
        {
          "name": "",
          "type": "string"
        }
      ],
      "payable": false,
      "stateMutability": "view",
      "type": "function",
      "signature": "0xe3395e9c"
    },
    {
      "constant": true,
      "inputs": [
        {
          "name": "pisiHash",
          "type": "string"
        }
      ],
      "name": "getBodyColor",
      "outputs": [
        {
          "name": "",
          "type": "string"
        }
      ],
      "payable": false,
      "stateMutability": "view",
      "type": "function",
      "signature": "0xa937f3db"
    },
    {
      "constant": true,
      "inputs": [
        {
          "name": "pisiHash",
          "type": "string"
        }
      ],
      "name": "getBodyAccentColor",
      "outputs": [
        {
          "name": "",
          "type": "string"
        }
      ],
      "payable": false,
      "stateMutability": "view",
      "type": "function",
      "signature": "0x33ccc11a"
    },
    {
      "constant": true,
      "inputs": [
        {
          "name": "pisiHash",
          "type": "string"
        }
      ],
      "name": "getStripeType",
      "outputs": [
        {
          "name": "",
          "type": "string"
        }
      ],
      "payable": false,
      "stateMutability": "view",
      "type": "function",
      "signature": "0x1e9abcac"
    },
    {
      "constant": true,
      "inputs": [
        {
          "name": "pisiHash",
          "type": "string"
        }
      ],
      "name": "getHungerness",
      "outputs": [
        {
          "name": "",
          "type": "uint8"
        }
      ],
      "payable": false,
      "stateMutability": "view",
      "type": "function",
      "signature": "0xcbc9c4a3"
    },
    {
      "constant": true,
      "inputs": [
        {
          "name": "pisiHash",
          "type": "string"
        }
      ],
      "name": "getFragility",
      "outputs": [
        {
          "name": "",
          "type": "uint8"
        }
      ],
      "payable": false,
      "stateMutability": "view",
      "type": "function",
      "signature": "0xa1f5fc03"
    },
    {
      "constant": false,
      "inputs": [
        {
          "name": "pisiHash",
          "type": "string"
        }
      ],
      "name": "getFertility",
      "outputs": [
        {
          "name": "",
          "type": "uint8"
        }
      ],
      "payable": false,
      "stateMutability": "nonpayable",
      "type": "function",
      "signature": "0xf7f8c32b"
    },
    {
      "constant": false,
      "inputs": [
        {
          "name": "pisiHash",
          "type": "string"
        }
      ],
      "name": "getAppeal",
      "outputs": [
        {
          "name": "",
          "type": "uint8"
        }
      ],
      "payable": false,
      "stateMutability": "nonpayable",
      "type": "function",
      "signature": "0xd8c6b1da"
    },
    {
      "constant": true,
      "inputs": [
        {
          "name": "pisiHash",
          "type": "string"
        }
      ],
      "name": "getOwner",
      "outputs": [
        {
          "name": "",
          "type": "address"
        }
      ],
      "payable": false,
      "stateMutability": "view",
      "type": "function",
      "signature": "0x4aaf4a12"
    }
  ],
  "bytecode": "0x60806040523480156200001157600080fd5b506040805190810160405280600481526020017f50697369000000000000000000000000000000000000000000000000000000008152506040805190810160405280600481526020017f50495349000000000000000000000000000000000000000000000000000000008152508181620000bd6301ffc9a77c010000000000000000000000000000000000000000000000000000000002620001b0640100000000026401000000009004565b620000fa6380ac58cd7c010000000000000000000000000000000000000000000000000000000002620001b0640100000000026401000000009004565b6200013763780e9d637c010000000000000000000000000000000000000000000000000000000002620001b0640100000000026401000000009004565b81600990805190602001906200014f929190620002a6565b5080600a908051906020019062000168929190620002a6565b50620001a6635b5e139f7c010000000000000000000000000000000000000000000000000000000002620001b0640100000000026401000000009004565b50505050620003ae565b63ffffffff7c010000000000000000000000000000000000000000000000000000000002817bffffffffffffffffffffffffffffffffffffffffffffffffffffffff1916141515156200023a576040517f08c379a000000000000000000000000000000000000000000000000000000000815260040162000231906200038c565b60405180910390fd5b6001600080837bffffffffffffffffffffffffffffffffffffffffffffffffffffffff19167bffffffffffffffffffffffffffffffffffffffffffffffffffffffff1916815260200190815260200160002060006101000a81548160ff02191690831515021790555050565b828054600181600116156101000203166002900490600052602060002090601f016020900481019282601f10620002e957805160ff19168380011785556200031a565b828001600101855582156200031a579182015b8281111562000319578251825591602001919060010190620002fc565b5b5090506200032991906200032d565b5090565b6200035291905b808211156200034e57600081600090555060010162000334565b5090565b90565b6000601c82527f4552433136353a20696e76616c696420696e74657266616365206964000000006020830152604082019050919050565b60006020820190508181036000830152620003a78162000355565b9050919050565b61873180620003be6000396000f3fe608060405260043610610204576000357c0100000000000000000000000000000000000000000000000000000000900463ffffffff16806301ffc9a71461020957806306fdde0314610246578063081812fc14610271578063095ea7b3146102ae57806309c39896146102d75780631249c58b146102f357806318160ddd1461031e5780631e9abcac1461034957806323b872dd146103865780632e6fb8e2146103af5780632f1c4ba3146103ec5780632f745c591461042957806333ccc11a14610466578063356e7863146104a357806342842e0e146104ce5780634aaf4a12146104f75780634f6ccce71461053457806352b56df6146105715780635aee43301461059d5780635d30e7e2146105da5780636352211e1461061757806370a082311461065457806372eb3e091461069157806395d89b41146106ce5780639ace6dc1146106f95780639f66af6214610736578063a1f5fc031461075f578063a22cb4651461079c578063a937f3db146107c5578063ab76c01314610802578063ad267e721461083f578063afc8136c1461087c578063b88d4fde146108b9578063c5f4496a146108e2578063c87b56dd1461091f578063cbc9c4a31461095c578063d8c6b1da14610999578063e3395e9c146109d6578063e73ade8e14610a13578063e985e9c514610a2f578063f34ee28a14610a6c578063f7f8c32b14610a95575b600080fd5b34801561021557600080fd5b50610230600480360361022b919081019061799f565b610ad2565b60405161023d9190618243565b60405180910390f35b34801561025257600080fd5b5061025b610b39565b6040516102689190618280565b60405180910390f35b34801561027d57600080fd5b5061029860048036036102939190810190617af2565b610bdb565b6040516102a591906181ac565b60405180910390f35b3480156102ba57600080fd5b506102d560048036036102d09190810190617963565b610c62565b005b6102f160048036036102ec91908101906179f1565b610e13565b005b3480156102ff57600080fd5b50610308611747565b6040516103159190618280565b60405180910390f35b34801561032a57600080fd5b506103336117db565b60405161034091906184b2565b60405180910390f35b34801561035557600080fd5b50610370600480360361036b91908101906179f1565b6117e8565b60405161037d9190618280565b60405180910390f35b34801561039257600080fd5b506103ad60048036036103a8919081019061785d565b6118f8565b005b3480156103bb57600080fd5b506103d660048036036103d19190810190617a32565b611953565b6040516103e39190618280565b60405180910390f35b3480156103f857600080fd5b50610413600480360361040e91908101906179f1565b612e0c565b6040516104209190618280565b60405180910390f35b34801561043557600080fd5b50610450600480360361044b9190810190617963565b612f1c565b60405161045d91906184b2565b60405180910390f35b34801561047257600080fd5b5061048d600480360361048891908101906179f1565b612fc9565b60405161049a9190618280565b60405180910390f35b3480156104af57600080fd5b506104b86130d9565b6040516104c591906184b2565b60405180910390f35b3480156104da57600080fd5b506104f560048036036104f0919081019061785d565b6130df565b005b34801561050357600080fd5b5061051e600480360361051991908101906179f1565b613100565b60405161052b91906181ac565b60405180910390f35b34801561054057600080fd5b5061055b60048036036105569190810190617af2565b613198565b60405161056891906184b2565b60405180910390f35b34801561057d57600080fd5b50610586613206565b604051610594929190618213565b60405180910390f35b3480156105a957600080fd5b506105c460048036036105bf91908101906179f1565b613381565b6040516105d19190618280565b60405180910390f35b3480156105e657600080fd5b5061060160048036036105fc91908101906179f1565b613491565b60405161060e9190618280565b60405180910390f35b34801561062357600080fd5b5061063e60048036036106399190810190617af2565b6135a1565b60405161064b91906181ac565b60405180910390f35b34801561066057600080fd5b5061067b600480360361067691908101906177f8565b613655565b60405161068891906184b2565b60405180910390f35b34801561069d57600080fd5b506106b860048036036106b391908101906179f1565b613716565b6040516106c59190618280565b60405180910390f35b3480156106da57600080fd5b506106e3613826565b6040516106f09190618280565b60405180910390f35b34801561070557600080fd5b50610720600480360361071b91908101906179f1565b6138c8565b60405161072d9190618280565b60405180910390f35b34801561074257600080fd5b5061075d60048036036107589190810190617a9e565b613a1f565b005b34801561076b57600080fd5b50610786600480360361078191908101906179f1565b613fda565b60405161079391906184cd565b60405180910390f35b3480156107a857600080fd5b506107c360048036036107be9190810190617927565b614128565b005b3480156107d157600080fd5b506107ec60048036036107e791908101906179f1565b614296565b6040516107f99190618280565b60405180910390f35b34801561080e57600080fd5b50610829600480360361082491908101906179f1565b6143a6565b6040516108369190618280565b60405180910390f35b34801561084b57600080fd5b50610866600480360361086191908101906179f1565b6144b6565b6040516108739190618280565b60405180910390f35b34801561088857600080fd5b506108a3600480360361089e9190810190617af2565b6145c6565b6040516108b0919061825e565b60405180910390f35b3480156108c557600080fd5b506108e060048036036108db91908101906178ac565b614681565b005b3480156108ee57600080fd5b50610909600480360361090491908101906179f1565b6146df565b6040516109169190618280565b60405180910390f35b34801561092b57600080fd5b5061094660048036036109419190810190617af2565b6147ef565b6040516109539190618280565b60405180910390f35b34801561096857600080fd5b50610983600480360361097e91908101906179f1565b6148ee565b60405161099091906184cd565b60405180910390f35b3480156109a557600080fd5b506109c060048036036109bb91908101906179f1565b614a3c565b6040516109cd91906184cd565b60405180910390f35b3480156109e257600080fd5b506109fd60048036036109f891908101906179f1565b614f2f565b604051610a0a9190618280565b60405180910390f35b610a2d6004803603610a2891908101906179f1565b61503f565b005b348015610a3b57600080fd5b50610a566004803603610a519190810190617821565b6151e1565b604051610a639190618243565b60405180910390f35b348015610a7857600080fd5b50610a936004803603610a8e91908101906179f1565b615275565b005b348015610aa157600080fd5b50610abc6004803603610ab791908101906179f1565b6156ef565b604051610ac991906184cd565b60405180910390f35b6000806000837bffffffffffffffffffffffffffffffffffffffffffffffffffffffff19167bffffffffffffffffffffffffffffffffffffffffffffffffffffffff1916815260200190815260200160002060009054906101000a900460ff169050919050565b606060098054600181600116156101000203166002900480601f016020809104026020016040519081016040528092919081815260200182805460018160011615610100020316600290048015610bd15780601f10610ba657610100808354040283529160200191610bd1565b820191906000526020600020905b815481529060010190602001808311610bb457829003601f168201915b5050505050905090565b6000610be682615be2565b1515610c27576040517f08c379a0000000000000000000000000000000000000000000000000000000008152600401610c1e906183f2565b60405180910390fd5b6002600083815260200190815260200160002060009054906101000a900473ffffffffffffffffffffffffffffffffffffffff169050919050565b6000610c6d826135a1565b90508073ffffffffffffffffffffffffffffffffffffffff168373ffffffffffffffffffffffffffffffffffffffff1614151515610ce0576040517f08c379a0000000000000000000000000000000000000000000000000000000008152600401610cd790618452565b60405180910390fd5b8073ffffffffffffffffffffffffffffffffffffffff163373ffffffffffffffffffffffffffffffffffffffff161480610d205750610d1f81336151e1565b5b1515610d61576040517f08c379a0000000000000000000000000000000000000000000000000000000008152600401610d5890618392565b60405180910390fd5b826002600084815260200190815260200160002060006101000a81548173ffffffffffffffffffffffffffffffffffffffff021916908373ffffffffffffffffffffffffffffffffffffffff160217905550818373ffffffffffffffffffffffffffffffffffffffff168273ffffffffffffffffffffffffffffffffffffffff167f8c5be1e5ebec7d5bd14f71427d1e84f3dd0314c0f7b2291e5b200ac8c7c3b92560405160405180910390a4505050565b806000600c826040518082805190602001908083835b602083101515610e4e5780518252602082019150602081019050602083039250610e29565b6001836020036101000a0380198251168184511680821785525050505050509050019150509081526020016040518091039020600b0160029054906101000a900460ff1660ff1611156110a6576040600c826040518082805190602001908083835b602083101515610ed55780518252602082019150602081019050602083039250610eb0565b6001836020036101000a0380198251168184511680821785525050505050509050019150509081526020016040518091039020600b0160009054906101000a900460ff1660ff16811515610f2557fe5b04610e10600c836040518082805190602001908083835b602083101515610f615780518252602082019150602081019050602083039250610f3c565b6001836020036101000a0380198251168184511680821785525050505050509050019150509081526020016040518091039020600e01544203811515610fa357fe5b040260ff03600c826040518082805190602001908083835b602083101515610fe05780518252602082019150602081019050602083039250610fbb565b6001836020036101000a0380198251168184511680821785525050505050509050019150509081526020016040518091039020600b0160026101000a81548160ff021916908360ff16021790555042600c826040518082805190602001908083835b6020831015156110675780518252602082019150602081019050602083039250611042565b6001836020036101000a0380198251168184511680821785525050505050509050019150509081526020016040518091039020600e01819055506111b7565b6000600c826040518082805190602001908083835b6020831015156110e057805182526020820191506020810190506020830392506110bb565b6001836020036101000a0380198251168184511680821785525050505050509050019150509081526020016040518091039020600b0160026101000a81548160ff021916908360ff1602179055506000600c826040518082805190602001908083835b6020831015156111685780518252602082019150602081019050602083039250611143565b6001836020036101000a0380198251168184511680821785525050505050509050019150509081526020016040518091039020600b0160036101000a81548160ff021916908360ff1602179055505b34600c836040518082805190602001908083835b6020831015156111f057805182526020820191506020810190506020830392506111cb565b6001836020036101000a0380198251168184511680821785525050505050509050019150509081526020016040518091039020600c01541115151561123457600080fd5b60011515600c836040518082805190602001908083835b602083101515611270578051825260208201915060208101905060208303925061124b565b6001836020036101000a0380198251168184511680821785525050505050509050019150509081526020016040518091039020600d0160009054906101000a900460ff1615151415156112c257600080fd5b600c826040518082805190602001908083835b6020831015156112fa57805182526020820191506020810190506020830392506112d5565b6001836020036101000a0380198251168184511680821785525050505050509050019150509081526020016040518091039020600b0160049054906101000a900473ffffffffffffffffffffffffffffffffffffffff1673ffffffffffffffffffffffffffffffffffffffff166108fc600c846040518082805190602001908083835b6020831015156113a2578051825260208201915060208101905060208303925061137d565b6001836020036101000a0380198251168184511680821785525050505050509050019150509081526020016040518091039020600c01549081150290604051600060405180830381858888f19350505050158015611404573d6000803e3d6000fd5b506000600c836040518082805190602001908083835b60208310151561143f578051825260208201915060208101905060208303925061141a565b6001836020036101000a0380198251168184511680821785525050505050509050019150509081526020016040518091039020600b0160049054906101000a900473ffffffffffffffffffffffffffffffffffffffff16905033600c846040518082805190602001908083835b6020831015156114d157805182526020820191506020810190506020830392506114ac565b6001836020036101000a0380198251168184511680821785525050505050509050019150509081526020016040518091039020600b0160046101000a81548173ffffffffffffffffffffffffffffffffffffffff021916908373ffffffffffffffffffffffffffffffffffffffff16021790555061154f8333615c54565b6115e783600d60008473ffffffffffffffffffffffffffffffffffffffff1673ffffffffffffffffffffffffffffffffffffffff168152602001908152602001600020600e60008573ffffffffffffffffffffffffffffffffffffffff1673ffffffffffffffffffffffffffffffffffffffff16815260200190815260200160002060009054906101000a900460ff1660ff16615ed2565b600e60008273ffffffffffffffffffffffffffffffffffffffff1673ffffffffffffffffffffffffffffffffffffffff168152602001908152602001600020600081819054906101000a900460ff16809291906001900391906101000a81548160ff021916908360ff16021790555050600d60003373ffffffffffffffffffffffffffffffffffffffff1673ffffffffffffffffffffffffffffffffffffffff1681526020019081526020016000208390806001815401808255809150509060018203906000526020600020016000909192909190915090805190602001906116d1929190617411565b5050600e60003373ffffffffffffffffffffffffffffffffffffffff1673ffffffffffffffffffffffffffffffffffffffff168152602001908152602001600020600081819054906101000a900460ff168092919060010191906101000a81548160ff021916908360ff16021790555050505050565b60606000424433604051602001808481526020018381526020018273ffffffffffffffffffffffffffffffffffffffff1673ffffffffffffffffffffffffffffffffffffffff166c010000000000000000000000000281526014019350505050604051602081830303815290604052805190602001206001900490506117d56117cf82616022565b3361617b565b91505090565b6000600780549050905090565b6060600c826040518082805190602001908083835b60208310151561182257805182526020820191506020810190506020830392506117fd565b6001836020036101000a0380198251168184511680821785525050505050509050019150509081526020016040518091039020600a018054600181600116156101000203166002900480601f0160208091040260200160405190810160405280929190818152602001828054600181600116156101000203166002900480156118ec5780601f106118c1576101008083540402835291602001916118ec565b820191906000526020600020905b8154815290600101906020018083116118cf57829003601f168201915b50505050509050919050565b61190233826166fb565b1515611943576040517f08c379a000000000000000000000000000000000000000000000000000000000815260040161193a90618472565b60405180910390fd5b61194e8383836167db565b505050565b6060826000600c826040518082805190602001908083835b602083101515611990578051825260208201915060208101905060208303925061196b565b6001836020036101000a0380198251168184511680821785525050505050509050019150509081526020016040518091039020600b0160029054906101000a900460ff1660ff161115611be8576040600c826040518082805190602001908083835b602083101515611a1757805182526020820191506020810190506020830392506119f2565b6001836020036101000a0380198251168184511680821785525050505050509050019150509081526020016040518091039020600b0160009054906101000a900460ff1660ff16811515611a6757fe5b04610e10600c836040518082805190602001908083835b602083101515611aa35780518252602082019150602081019050602083039250611a7e565b6001836020036101000a0380198251168184511680821785525050505050509050019150509081526020016040518091039020600e01544203811515611ae557fe5b040260ff03600c826040518082805190602001908083835b602083101515611b225780518252602082019150602081019050602083039250611afd565b6001836020036101000a0380198251168184511680821785525050505050509050019150509081526020016040518091039020600b0160026101000a81548160ff021916908360ff16021790555042600c826040518082805190602001908083835b602083101515611ba95780518252602082019150602081019050602083039250611b84565b6001836020036101000a0380198251168184511680821785525050505050509050019150509081526020016040518091039020600e0181905550611cf9565b6000600c826040518082805190602001908083835b602083101515611c225780518252602082019150602081019050602083039250611bfd565b6001836020036101000a0380198251168184511680821785525050505050509050019150509081526020016040518091039020600b0160026101000a81548160ff021916908360ff1602179055506000600c826040518082805190602001908083835b602083101515611caa5780518252602082019150602081019050602083039250611c85565b6001836020036101000a0380198251168184511680821785525050505050509050019150509081526020016040518091039020600b0160036101000a81548160ff021916908360ff1602179055505b826000600c826040518082805190602001908083835b602083101515611d345780518252602082019150602081019050602083039250611d0f565b6001836020036101000a0380198251168184511680821785525050505050509050019150509081526020016040518091039020600b0160029054906101000a900460ff1660ff161115611f8c576040600c826040518082805190602001908083835b602083101515611dbb5780518252602082019150602081019050602083039250611d96565b6001836020036101000a0380198251168184511680821785525050505050509050019150509081526020016040518091039020600b0160009054906101000a900460ff1660ff16811515611e0b57fe5b04610e10600c836040518082805190602001908083835b602083101515611e475780518252602082019150602081019050602083039250611e22565b6001836020036101000a0380198251168184511680821785525050505050509050019150509081526020016040518091039020600e01544203811515611e8957fe5b040260ff03600c826040518082805190602001908083835b602083101515611ec65780518252602082019150602081019050602083039250611ea1565b6001836020036101000a0380198251168184511680821785525050505050509050019150509081526020016040518091039020600b0160026101000a81548160ff021916908360ff16021790555042600c826040518082805190602001908083835b602083101515611f4d5780518252602082019150602081019050602083039250611f28565b6001836020036101000a0380198251168184511680821785525050505050509050019150509081526020016040518091039020600e018190555061209d565b6000600c826040518082805190602001908083835b602083101515611fc65780518252602082019150602081019050602083039250611fa1565b6001836020036101000a0380198251168184511680821785525050505050509050019150509081526020016040518091039020600b0160026101000a81548160ff021916908360ff1602179055506000600c826040518082805190602001908083835b60208310151561204e5780518252602082019150602081019050602083039250612029565b6001836020036101000a0380198251168184511680821785525050505050509050019150509081526020016040518091039020600b0160036101000a81548160ff021916908360ff1602179055505b3373ffffffffffffffffffffffffffffffffffffffff16600c866040518082805190602001908083835b6020831015156120ec57805182526020820191506020810190506020830392506120c7565b6001836020036101000a0380198251168184511680821785525050505050509050019150509081526020016040518091039020600b0160049054906101000a900473ffffffffffffffffffffffffffffffffffffffff1673ffffffffffffffffffffffffffffffffffffffff1614151561216557600080fd5b3373ffffffffffffffffffffffffffffffffffffffff16600c856040518082805190602001908083835b6020831015156121b4578051825260208201915060208101905060208303925061218f565b6001836020036101000a0380198251168184511680821785525050505050509050019150509081526020016040518091039020600b0160049054906101000a900473ffffffffffffffffffffffffffffffffffffffff1673ffffffffffffffffffffffffffffffffffffffff1614151561222d57600080fd5b6000600c866040518082805190602001908083835b6020831015156122675780518252602082019150602081019050602083039250612242565b6001836020036101000a0380198251168184511680821785525050505050509050019150509081526020016040518091039020600b0160039054906101000a900460ff1660ff1611801561233957506000600c856040518082805190602001908083835b6020831015156122f057805182526020820191506020810190506020830392506122cb565b6001836020036101000a0380198251168184511680821785525050505050509050019150509081526020016040518091039020600b0160039054906101000a900460ff1660ff16115b151561234457600080fd5b600061010042600c886040518082805190602001908083835b602083101515612382578051825260208201915060208101905060208303925061235d565b6001836020036101000a0380198251168184511680821785525050505050509050019150509081526020016040518091039020600b0160029054906101000a900460ff16600c886040518082805190602001908083835b6020831015156123fe57805182526020820191506020810190506020830392506123d9565b6001836020036101000a0380198251168184511680821785525050505050509050019150509081526020016040518091039020600b0160029054906101000a900460ff16604051602001808481526020018360ff1660ff167f01000000000000000000000000000000000000000000000000000000000000000281526001018260ff1660ff167f0100000000000000000000000000000000000000000000000000000000000000028152600101935050505060405160208183030381529060405280519060200120600190048115156124d357fe5b069050600c856040518082805190602001908083835b60208310151561250e57805182526020820191506020810190506020830392506124e9565b6001836020036101000a0380198251168184511680821785525050505050509050019150509081526020016040518091039020600b0160039054906101000a900460ff1660ff16600c876040518082805190602001908083835b60208310151561258d5780518252602082019150602081019050602083039250612568565b6001836020036101000a0380198251168184511680821785525050505050509050019150509081526020016040518091039020600b0160039054906101000a900460ff1660ff160161ffff168160ff1661ffff161015156125ed57600080fd5b600c856040518082805190602001908083835b6020831015156126255780518252602082019150602081019050602083039250612600565b6001836020036101000a0380198251168184511680821785525050505050509050019150509081526020016040518091039020600b0160029054906101000a900460ff1660ff16600c876040518082805190602001908083835b6020831015156126a4578051825260208201915060208101905060208303925061267f565b6001836020036101000a0380198251168184511680821785525050505050509050019150509081526020016040518091039020600b0160029054906101000a900460ff1660ff161180156127f35750600c856040518082805190602001908083835b60208310151561272b5780518252602082019150602081019050602083039250612706565b6001836020036101000a0380198251168184511680821785525050505050509050019150509081526020016040518091039020600b0160039054906101000a900460ff1660ff16600c876040518082805190602001908083835b6020831015156127aa5780518252602082019150602081019050602083039250612785565b6001836020036101000a0380198251168184511680821785525050505050509050019150509081526020016040518091039020600b0160039054906101000a900460ff1660ff16115b1561280a57612802863361617b565b935050612e04565b600c856040518082805190602001908083835b602083101515612842578051825260208201915060208101905060208303925061281d565b6001836020036101000a0380198251168184511680821785525050505050509050019150509081526020016040518091039020600b0160029054906101000a900460ff1660ff16600c876040518082805190602001908083835b6020831015156128c1578051825260208201915060208101905060208303925061289c565b6001836020036101000a0380198251168184511680821785525050505050509050019150509081526020016040518091039020600b0160029054906101000a900460ff1660ff16118015612a105750600c856040518082805190602001908083835b6020831015156129485780518252602082019150602081019050602083039250612923565b6001836020036101000a0380198251168184511680821785525050505050509050019150509081526020016040518091039020600b0160039054906101000a900460ff1660ff16600c876040518082805190602001908083835b6020831015156129c757805182526020820191506020810190506020830392506129a2565b6001836020036101000a0380198251168184511680821785525050505050509050019150509081526020016040518091039020600b0160039054906101000a900460ff1660ff16105b15612b0057612af8612a25876000601e6167ff565b612a3287601e603f6167ff565b6040516020018083805190602001908083835b602083101515612a6a5780518252602082019150602081019050602083039250612a45565b6001836020036101000a03801982511681845116808217855250505050505090500182805190602001908083835b602083101515612abd5780518252602082019150602081019050602083039250612a98565b6001836020036101000a038019825116818451168082178552505050505050905001925050506040516020818303038152906040523361617b565b935050612e04565b600c856040518082805190602001908083835b602083101515612b385780518252602082019150602081019050602083039250612b13565b6001836020036101000a0380198251168184511680821785525050505050509050019150509081526020016040518091039020600b0160029054906101000a900460ff1660ff16600c876040518082805190602001908083835b602083101515612bb75780518252602082019150602081019050602083039250612b92565b6001836020036101000a0380198251168184511680821785525050505050509050019150509081526020016040518091039020600b0160029054906101000a900460ff1660ff16108015612d065750600c856040518082805190602001908083835b602083101515612c3e5780518252602082019150602081019050602083039250612c19565b6001836020036101000a0380198251168184511680821785525050505050509050019150509081526020016040518091039020600b0160039054906101000a900460ff1660ff16600c876040518082805190602001908083835b602083101515612cbd5780518252602082019150602081019050602083039250612c98565b6001836020036101000a0380198251168184511680821785525050505050509050019150509081526020016040518091039020600b0160039054906101000a900460ff1660ff16115b15612df657612dee612d1b87601e603f6167ff565b612d28876000601e6167ff565b6040516020018083805190602001908083835b602083101515612d605780518252602082019150602081019050602083039250612d3b565b6001836020036101000a03801982511681845116808217855250505050505090500182805190602001908083835b602083101515612db35780518252602082019150602081019050602083039250612d8e565b6001836020036101000a038019825116818451168082178552505050505050905001925050506040516020818303038152906040523361617b565b935050612e04565b612e00853361617b565b9350505b505092915050565b6060600c826040518082805190602001908083835b602083101515612e465780518252602082019150602081019050602083039250612e21565b6001836020036101000a03801982511681845116808217855250505050505090500191505090815260200160405180910390206002018054600181600116156101000203166002900480601f016020809104026020016040519081016040528092919081815260200182805460018160011615610100020316600290048015612f105780601f10612ee557610100808354040283529160200191612f10565b820191906000526020600020905b815481529060010190602001808311612ef357829003601f168201915b50505050509050919050565b6000612f2783613655565b82101515612f6a576040517f08c379a0000000000000000000000000000000000000000000000000000000008152600401612f61906182d2565b60405180910390fd5b600560008473ffffffffffffffffffffffffffffffffffffffff1673ffffffffffffffffffffffffffffffffffffffff16815260200190815260200160002082815481101515612fb657fe5b9060005260206000200154905092915050565b6060600c826040518082805190602001908083835b6020831015156130035780518252602082019150602081019050602083039250612fde565b6001836020036101000a03801982511681845116808217855250505050505090500191505090815260200160405180910390206009018054600181600116156101000203166002900480601f0160208091040260200160405190810160405280929190818152602001828054600181600116156101000203166002900480156130cd5780601f106130a2576101008083540402835291602001916130cd565b820191906000526020600020905b8154815290600101906020018083116130b057829003601f168201915b50505050509050919050565b60105481565b6130fb8383836020604051908101604052806000815250614681565b505050565b6000600c826040518082805190602001908083835b60208310151561313a5780518252602082019150602081019050602083039250613115565b6001836020036101000a0380198251168184511680821785525050505050509050019150509081526020016040518091039020600b0160049054906101000a900473ffffffffffffffffffffffffffffffffffffffff169050919050565b60006131a26117db565b821015156131e5576040517f08c379a00000000000000000000000000000000000000000000000000000000081526004016131dc90618492565b60405180910390fd5b6007828154811015156131f457fe5b90600052602060002001549050919050565b60606000600d60003373ffffffffffffffffffffffffffffffffffffffff1673ffffffffffffffffffffffffffffffffffffffff168152602001908152602001600020600e60003373ffffffffffffffffffffffffffffffffffffffff1673ffffffffffffffffffffffffffffffffffffffff16815260200190815260200160002060009054906101000a900460ff1681805480602002602001604051908101604052809291908181526020016000905b82821015613373578382906000526020600020018054600181600116156101000203166002900480601f01602080910402602001604051908101604052809291908181526020018280546001816001161561010002031660029004801561335f5780601f106133345761010080835404028352916020019161335f565b820191906000526020600020905b81548152906001019060200180831161334257829003601f168201915b5050505050815260200190600101906132b7565b505050509150915091509091565b6060600c826040518082805190602001908083835b6020831015156133bb5780518252602082019150602081019050602083039250613396565b6001836020036101000a03801982511681845116808217855250505050505090500191505090815260200160405180910390206000018054600181600116156101000203166002900480601f0160208091040260200160405190810160405280929190818152602001828054600181600116156101000203166002900480156134855780601f1061345a57610100808354040283529160200191613485565b820191906000526020600020905b81548152906001019060200180831161346857829003601f168201915b50505050509050919050565b6060600c826040518082805190602001908083835b6020831015156134cb57805182526020820191506020810190506020830392506134a6565b6001836020036101000a03801982511681845116808217855250505050505090500191505090815260200160405180910390206004018054600181600116156101000203166002900480601f0160208091040260200160405190810160405280929190818152602001828054600181600116156101000203166002900480156135955780601f1061356a57610100808354040283529160200191613595565b820191906000526020600020905b81548152906001019060200180831161357857829003601f168201915b50505050509050919050565b6000806001600084815260200190815260200160002060009054906101000a900473ffffffffffffffffffffffffffffffffffffffff169050600073ffffffffffffffffffffffffffffffffffffffff168173ffffffffffffffffffffffffffffffffffffffff161415151561364c576040517f08c379a0000000000000000000000000000000000000000000000000000000008152600401613643906183d2565b60405180910390fd5b80915050919050565b60008073ffffffffffffffffffffffffffffffffffffffff168273ffffffffffffffffffffffffffffffffffffffff16141515156136c8576040517f08c379a00000000000000000000000000000000000000000000000000000000081526004016136bf906183b2565b60405180910390fd5b61370f600360008473ffffffffffffffffffffffffffffffffffffffff1673ffffffffffffffffffffffffffffffffffffffff168152602001908152602001600020616900565b9050919050565b6060600c826040518082805190602001908083835b602083101515613750578051825260208201915060208101905060208303925061372b565b6001836020036101000a03801982511681845116808217855250505050505090500191505090815260200160405180910390206003018054600181600116156101000203166002900480601f01602080910402602001604051908101604052809291908181526020018280546001816001161561010002031660029004801561381a5780601f106137ef5761010080835404028352916020019161381a565b820191906000526020600020905b8154815290600101906020018083116137fd57829003601f168201915b50505050509050919050565b6060600a8054600181600116156101000203166002900480601f0160208091040260200160405190810160405280929190818152602001828054600181600116156101000203166002900480156138be5780601f10613893576101008083540402835291602001916138be565b820191906000526020600020905b8154815290600101906020018083116138a157829003601f168201915b5050505050905090565b60603073ffffffffffffffffffffffffffffffffffffffff1682336040516024016138f49291906182a2565b6040516020818303038152906040527f895ad739000000000000000000000000000000000000000000000000000000007bffffffffffffffffffffffffffffffffffffffffffffffffffffffff19166020820180517bffffffffffffffffffffffffffffffffffffffffffffffffffffffff83818316178352505050506040518082805190602001908083835b6020831015156139a65780518252602082019150602081019050602083039250613981565b6001836020036101000a038019825116818451168082178552505050505050905001915050600060405180830381855af49150503d8060008114613a06576040519150601f19603f3d011682016040523d82523d6000602084013e613a0b565b606091505b505050613a18823361617b565b9050919050565b816000600c826040518082805190602001908083835b602083101515613a5a5780518252602082019150602081019050602083039250613a35565b6001836020036101000a0380198251168184511680821785525050505050509050019150509081526020016040518091039020600b0160029054906101000a900460ff1660ff161115613cb2576040600c826040518082805190602001908083835b602083101515613ae15780518252602082019150602081019050602083039250613abc565b6001836020036101000a0380198251168184511680821785525050505050509050019150509081526020016040518091039020600b0160009054906101000a900460ff1660ff16811515613b3157fe5b04610e10600c836040518082805190602001908083835b602083101515613b6d5780518252602082019150602081019050602083039250613b48565b6001836020036101000a0380198251168184511680821785525050505050509050019150509081526020016040518091039020600e01544203811515613baf57fe5b040260ff03600c826040518082805190602001908083835b602083101515613bec5780518252602082019150602081019050602083039250613bc7565b6001836020036101000a0380198251168184511680821785525050505050509050019150509081526020016040518091039020600b0160026101000a81548160ff021916908360ff16021790555042600c826040518082805190602001908083835b602083101515613c735780518252602082019150602081019050602083039250613c4e565b6001836020036101000a0380198251168184511680821785525050505050509050019150509081526020016040518091039020600e0181905550613dc3565b6000600c826040518082805190602001908083835b602083101515613cec5780518252602082019150602081019050602083039250613cc7565b6001836020036101000a0380198251168184511680821785525050505050509050019150509081526020016040518091039020600b0160026101000a81548160ff021916908360ff1602179055506000600c826040518082805190602001908083835b602083101515613d745780518252602082019150602081019050602083039250613d4f565b6001836020036101000a0380198251168184511680821785525050505050509050019150509081526020016040518091039020600b0160036101000a81548160ff021916908360ff1602179055505b3373ffffffffffffffffffffffffffffffffffffffff16600c846040518082805190602001908083835b602083101515613e125780518252602082019150602081019050602083039250613ded565b6001836020036101000a0380198251168184511680821785525050505050509050019150509081526020016040518091039020600b0160049054906101000a900473ffffffffffffffffffffffffffffffffffffffff1673ffffffffffffffffffffffffffffffffffffffff16141515613e8b57600080fd5b81600c846040518082805190602001908083835b602083101515613ec45780518252602082019150602081019050602083039250613e9f565b6001836020036101000a0380198251168184511680821785525050505050509050019150509081526020016040518091039020600c01819055506001600c846040518082805190602001908083835b602083101515613f385780518252602082019150602081019050602083039250613f13565b6001836020036101000a0380198251168184511680821785525050505050509050019150509081526020016040518091039020600d0160006101000a81548160ff0219169083151502179055506001601060008282540192505081905550600f839080600181540180825580915050906001820390600052602060002001600090919290919091509080519060200190613fd3929190617411565b5050505050565b60003373ffffffffffffffffffffffffffffffffffffffff16600c836040518082805190602001908083835b60208310151561402b5780518252602082019150602081019050602083039250614006565b6001836020036101000a0380198251168184511680821785525050505050509050019150509081526020016040518091039020600b0160049054906101000a900473ffffffffffffffffffffffffffffffffffffffff1673ffffffffffffffffffffffffffffffffffffffff16111515156140a557600080fd5b600c826040518082805190602001908083835b6020831015156140dd57805182526020820191506020810190506020830392506140b8565b6001836020036101000a0380198251168184511680821785525050505050509050019150509081526020016040518091039020600b0160019054906101000a900460ff169050919050565b3373ffffffffffffffffffffffffffffffffffffffff168273ffffffffffffffffffffffffffffffffffffffff1614151515614199576040517f08c379a000000000000000000000000000000000000000000000000000000000815260040161419090618332565b60405180910390fd5b80600460003373ffffffffffffffffffffffffffffffffffffffff1673ffffffffffffffffffffffffffffffffffffffff16815260200190815260200160002060008473ffffffffffffffffffffffffffffffffffffffff1673ffffffffffffffffffffffffffffffffffffffff16815260200190815260200160002060006101000a81548160ff0219169083151502179055508173ffffffffffffffffffffffffffffffffffffffff163373ffffffffffffffffffffffffffffffffffffffff167f17307eab39ab6107e8899845ad3d59bd9653f200f220920489ca2b5937696c318360405161428a9190618243565b60405180910390a35050565b6060600c826040518082805190602001908083835b6020831015156142d057805182526020820191506020810190506020830392506142ab565b6001836020036101000a03801982511681845116808217855250505050505090500191505090815260200160405180910390206008018054600181600116156101000203166002900480601f01602080910402602001604051908101604052809291908181526020018280546001816001161561010002031660029004801561439a5780601f1061436f5761010080835404028352916020019161439a565b820191906000526020600020905b81548152906001019060200180831161437d57829003601f168201915b50505050509050919050565b6060600c826040518082805190602001908083835b6020831015156143e057805182526020820191506020810190506020830392506143bb565b6001836020036101000a03801982511681845116808217855250505050505090500191505090815260200160405180910390206001018054600181600116156101000203166002900480601f0160208091040260200160405190810160405280929190818152602001828054600181600116156101000203166002900480156144aa5780601f1061447f576101008083540402835291602001916144aa565b820191906000526020600020905b81548152906001019060200180831161448d57829003601f168201915b50505050509050919050565b6060600c826040518082805190602001908083835b6020831015156144f057805182526020820191506020810190506020830392506144cb565b6001836020036101000a03801982511681845116808217855250505050505090500191505090815260200160405180910390206006018054600181600116156101000203166002900480601f0160208091040260200160405190810160405280929190818152602001828054600181600116156101000203166002900480156145ba5780601f1061458f576101008083540402835291602001916145ba565b820191906000526020600020905b81548152906001019060200180831161459d57829003601f168201915b50505050509050919050565b600f818154811015156145d557fe5b906000526020600020016000915090508054600181600116156101000203166002900480601f0160208091040260200160405190810160405280929190818152602001828054600181600116156101000203166002900480156146795780601f1061464e57610100808354040283529160200191614679565b820191906000526020600020905b81548152906001019060200180831161465c57829003601f168201915b505050505081565b61468c8484846118f8565b6146988484848461690e565b15156146d9576040517f08c379a00000000000000000000000000000000000000000000000000000000081526004016146d0906182f2565b60405180910390fd5b50505050565b6060600c826040518082805190602001908083835b60208310151561471957805182526020820191506020810190506020830392506146f4565b6001836020036101000a03801982511681845116808217855250505050505090500191505090815260200160405180910390206005018054600181600116156101000203166002900480601f0160208091040260200160405190810160405280929190818152602001828054600181600116156101000203166002900480156147e35780601f106147b8576101008083540402835291602001916147e3565b820191906000526020600020905b8154815290600101906020018083116147c657829003601f168201915b50505050509050919050565b60606147fa82615be2565b151561483b576040517f08c379a000000000000000000000000000000000000000000000000000000000815260040161483290618432565b60405180910390fd5b600b60008381526020019081526020016000208054600181600116156101000203166002900480601f0160208091040260200160405190810160405280929190818152602001828054600181600116156101000203166002900480156148e25780601f106148b7576101008083540402835291602001916148e2565b820191906000526020600020905b8154815290600101906020018083116148c557829003601f168201915b50505050509050919050565b60003373ffffffffffffffffffffffffffffffffffffffff16600c836040518082805190602001908083835b60208310151561493f578051825260208201915060208101905060208303925061491a565b6001836020036101000a0380198251168184511680821785525050505050509050019150509081526020016040518091039020600b0160049054906101000a900473ffffffffffffffffffffffffffffffffffffffff1673ffffffffffffffffffffffffffffffffffffffff16111515156149b957600080fd5b600c826040518082805190602001908083835b6020831015156149f157805182526020820191506020810190506020830392506149cc565b6001836020036101000a0380198251168184511680821785525050505050509050019150509081526020016040518091039020600b0160009054906101000a900460ff169050919050565b6000816000600c826040518082805190602001908083835b602083101515614a795780518252602082019150602081019050602083039250614a54565b6001836020036101000a0380198251168184511680821785525050505050509050019150509081526020016040518091039020600b0160029054906101000a900460ff1660ff161115614cd1576040600c826040518082805190602001908083835b602083101515614b005780518252602082019150602081019050602083039250614adb565b6001836020036101000a0380198251168184511680821785525050505050509050019150509081526020016040518091039020600b0160009054906101000a900460ff1660ff16811515614b5057fe5b04610e10600c836040518082805190602001908083835b602083101515614b8c5780518252602082019150602081019050602083039250614b67565b6001836020036101000a0380198251168184511680821785525050505050509050019150509081526020016040518091039020600e01544203811515614bce57fe5b040260ff03600c826040518082805190602001908083835b602083101515614c0b5780518252602082019150602081019050602083039250614be6565b6001836020036101000a0380198251168184511680821785525050505050509050019150509081526020016040518091039020600b0160026101000a81548160ff021916908360ff16021790555042600c826040518082805190602001908083835b602083101515614c925780518252602082019150602081019050602083039250614c6d565b6001836020036101000a0380198251168184511680821785525050505050509050019150509081526020016040518091039020600e0181905550614de2565b6000600c826040518082805190602001908083835b602083101515614d0b5780518252602082019150602081019050602083039250614ce6565b6001836020036101000a0380198251168184511680821785525050505050509050019150509081526020016040518091039020600b0160026101000a81548160ff021916908360ff1602179055506000600c826040518082805190602001908083835b602083101515614d935780518252602082019150602081019050602083039250614d6e565b6001836020036101000a0380198251168184511680821785525050505050509050019150509081526020016040518091039020600b0160036101000a81548160ff021916908360ff1602179055505b3373ffffffffffffffffffffffffffffffffffffffff16600c846040518082805190602001908083835b602083101515614e315780518252602082019150602081019050602083039250614e0c565b6001836020036101000a0380198251168184511680821785525050505050509050019150509081526020016040518091039020600b0160049054906101000a900473ffffffffffffffffffffffffffffffffffffffff1673ffffffffffffffffffffffffffffffffffffffff1611151515614eab57600080fd5b600c836040518082805190602001908083835b602083101515614ee35780518252602082019150602081019050602083039250614ebe565b6001836020036101000a0380198251168184511680821785525050505050509050019150509081526020016040518091039020600b0160039054906101000a900460ff16915050919050565b6060600c826040518082805190602001908083835b602083101515614f695780518252602082019150602081019050602083039250614f44565b6001836020036101000a03801982511681845116808217855250505050505090500191505090815260200160405180910390206007018054600181600116156101000203166002900480601f0160208091040260200160405190810160405280929190818152602001828054600181600116156101000203166002900480156150335780601f1061500857610100808354040283529160200191615033565b820191906000526020600020905b81548152906001019060200180831161501657829003601f168201915b50505050509050919050565b3373ffffffffffffffffffffffffffffffffffffffff16600c826040518082805190602001908083835b60208310151561508e5780518252602082019150602081019050602083039250615069565b6001836020036101000a0380198251168184511680821785525050505050509050019150509081526020016040518091039020600b0160049054906101000a900473ffffffffffffffffffffffffffffffffffffffff1673ffffffffffffffffffffffffffffffffffffffff1614151561510757600080fd5b600066071afd498d0000905080341015151561512257600080fd5b60003090508073ffffffffffffffffffffffffffffffffffffffff166108fc839081150290604051600060405180830381858888f1935050505015801561516d573d6000803e3d6000fd5b5042600c846040518082805190602001908083835b6020831015156151a75780518252602082019150602081019050602083039250615182565b6001836020036101000a03801982511681845116808217855250505050505090500191505090815260200160405180910390205050505050565b6000600460008473ffffffffffffffffffffffffffffffffffffffff1673ffffffffffffffffffffffffffffffffffffffff16815260200190815260200160002060008373ffffffffffffffffffffffffffffffffffffffff1673ffffffffffffffffffffffffffffffffffffffff16815260200190815260200160002060009054906101000a900460ff16905092915050565b806000600c826040518082805190602001908083835b6020831015156152b0578051825260208201915060208101905060208303925061528b565b6001836020036101000a0380198251168184511680821785525050505050509050019150509081526020016040518091039020600b0160029054906101000a900460ff1660ff161115615508576040600c826040518082805190602001908083835b6020831015156153375780518252602082019150602081019050602083039250615312565b6001836020036101000a0380198251168184511680821785525050505050509050019150509081526020016040518091039020600b0160009054906101000a900460ff1660ff1681151561538757fe5b04610e10600c836040518082805190602001908083835b6020831015156153c3578051825260208201915060208101905060208303925061539e565b6001836020036101000a0380198251168184511680821785525050505050509050019150509081526020016040518091039020600e0154420381151561540557fe5b040260ff03600c826040518082805190602001908083835b602083101515615442578051825260208201915060208101905060208303925061541d565b6001836020036101000a0380198251168184511680821785525050505050509050019150509081526020016040518091039020600b0160026101000a81548160ff021916908360ff16021790555042600c826040518082805190602001908083835b6020831015156154c957805182526020820191506020810190506020830392506154a4565b6001836020036101000a0380198251168184511680821785525050505050509050019150509081526020016040518091039020600e0181905550615619565b6000600c826040518082805190602001908083835b602083101515615542578051825260208201915060208101905060208303925061551d565b6001836020036101000a0380198251168184511680821785525050505050509050019150509081526020016040518091039020600b0160026101000a81548160ff021916908360ff1602179055506000600c826040518082805190602001908083835b6020831015156155ca57805182526020820191506020810190506020830392506155a5565b6001836020036101000a0380198251168184511680821785525050505050509050019150509081526020016040518091039020600b0160036101000a81548160ff021916908360ff1602179055505b3373ffffffffffffffffffffffffffffffffffffffff16600c836040518082805190602001908083835b6020831015156156685780518252602082019150602081019050602083039250615643565b6001836020036101000a0380198251168184511680821785525050505050509050019150509081526020016040518091039020600b0160049054906101000a900473ffffffffffffffffffffffffffffffffffffffff1673ffffffffffffffffffffffffffffffffffffffff161415156156e157600080fd5b6156eb8233615c54565b5050565b6000816000600c826040518082805190602001908083835b60208310151561572c5780518252602082019150602081019050602083039250615707565b6001836020036101000a0380198251168184511680821785525050505050509050019150509081526020016040518091039020600b0160029054906101000a900460ff1660ff161115615984576040600c826040518082805190602001908083835b6020831015156157b3578051825260208201915060208101905060208303925061578e565b6001836020036101000a0380198251168184511680821785525050505050509050019150509081526020016040518091039020600b0160009054906101000a900460ff1660ff1681151561580357fe5b04610e10600c836040518082805190602001908083835b60208310151561583f578051825260208201915060208101905060208303925061581a565b6001836020036101000a0380198251168184511680821785525050505050509050019150509081526020016040518091039020600e0154420381151561588157fe5b040260ff03600c826040518082805190602001908083835b6020831015156158be5780518252602082019150602081019050602083039250615899565b6001836020036101000a0380198251168184511680821785525050505050509050019150509081526020016040518091039020600b0160026101000a81548160ff021916908360ff16021790555042600c826040518082805190602001908083835b6020831015156159455780518252602082019150602081019050602083039250615920565b6001836020036101000a0380198251168184511680821785525050505050509050019150509081526020016040518091039020600e0181905550615a95565b6000600c826040518082805190602001908083835b6020831015156159be5780518252602082019150602081019050602083039250615999565b6001836020036101000a0380198251168184511680821785525050505050509050019150509081526020016040518091039020600b0160026101000a81548160ff021916908360ff1602179055506000600c826040518082805190602001908083835b602083101515615a465780518252602082019150602081019050602083039250615a21565b6001836020036101000a0380198251168184511680821785525050505050509050019150509081526020016040518091039020600b0160036101000a81548160ff021916908360ff1602179055505b3373ffffffffffffffffffffffffffffffffffffffff16600c846040518082805190602001908083835b602083101515615ae45780518252602082019150602081019050602083039250615abf565b6001836020036101000a0380198251168184511680821785525050505050509050019150509081526020016040518091039020600b0160049054906101000a900473ffffffffffffffffffffffffffffffffffffffff1673ffffffffffffffffffffffffffffffffffffffff1611151515615b5e57600080fd5b600c836040518082805190602001908083835b602083101515615b965780518252602082019150602081019050602083039250615b71565b6001836020036101000a0380198251168184511680821785525050505050509050019150509081526020016040518091039020600b0160029054906101000a900460ff16915050919050565b6000806001600084815260200190815260200160002060009054906101000a900473ffffffffffffffffffffffffffffffffffffffff169050600073ffffffffffffffffffffffffffffffffffffffff168173ffffffffffffffffffffffffffffffffffffffff161415915050919050565b8073ffffffffffffffffffffffffffffffffffffffff16600c836040518082805190602001908083835b602083101515615ca35780518252602082019150602081019050602083039250615c7e565b6001836020036101000a0380198251168184511680821785525050505050509050019150509081526020016040518091039020600b0160049054906101000a900473ffffffffffffffffffffffffffffffffffffffff1673ffffffffffffffffffffffffffffffffffffffff16141515615d1c57600080fd5b600c826040518082805190602001908083835b602083101515615d545780518252602082019150602081019050602083039250615d2f565b6001836020036101000a0380198251168184511680821785525050505050509050019150509081526020016040518091039020600d0160009054906101000a900460ff161515615da357600080fd5b6000601054111515615db457600080fd5b6000600c836040518082805190602001908083835b602083101515615dee5780518252602082019150602081019050602083039250615dc9565b6001836020036101000a0380198251168184511680821785525050505050509050019150509081526020016040518091039020600c01819055506000600c836040518082805190602001908083835b602083101515615e625780518252602082019150602081019050602083039250615e3d565b6001836020036101000a0380198251168184511680821785525050505050509050019150509081526020016040518091039020600d0160006101000a81548160ff021916908315150217905550615ebd82600f601054615ed2565b60016010600082825403925050819055505050565b60008090506001821415615f0f57828054801515615eec57fe5b600190038181906000526020600020016000615f089190617491565b905561601c565b60008090505b6001830381101561601a5784805190602001208482815481101515615f3657fe5b906000526020600020016040518082805460018160011615610100020316600290048015615f9b5780601f10615f79576101008083540402835291820191615f9b565b820191906000526020600020905b815481529060010190602001808311615f87575b505091505060405180910390201415615fb357600191505b811561600d578360018201815481101515615fca57fe5b906000526020600020018482815481101515615fe257fe5b90600052602060002001908054600181600116156101000203166002900461600b9291906174d9565b505b8080600101915050615f15565b505b50505050565b6060600082141561606a576040805190810160405280600181526020017f30000000000000000000000000000000000000000000000000000000000000008152509050616176565b600082905060005b600082141515616098578080600101915050600a8281151561609057fe5b049150616072565b6060816040519080825280601f01601f1916602001820160405280156160cd5781602001600182028038833980820191505090505b50905060006001830390505b60008614151561616e57600a868115156160ef57fe5b066030017f01000000000000000000000000000000000000000000000000000000000000000282828060019003935081518110151561612a57fe5b9060200101907effffffffffffffffffffffffffffffffffffffffffffffffffffffffffffff1916908160001a905350600a8681151561616657fe5b0495506160d9565b819450505050505b919050565b6060616185617560565b6102606040519081016040528061619f86600060066167ff565b81526020016161b186600660086167ff565b81526020016161c3866008600e6167ff565b81526020016161d586600e60106167ff565b81526020016161e786601060126167ff565b81526020016161f986601260186167ff565b815260200161620b866018601e6167ff565b815260200161621d86601e60206167ff565b815260200161622f86602060266167ff565b8152602001616241866026602c6167ff565b815260200161625386602c602e6167ff565b815260200161626d61626887602e60306167ff565b616a5f565b60ff16815260200161628a61628587603060326167ff565b616a5f565b60ff1681526020016162a76162a287603260346167ff565b616a5f565b60ff1681526020016162c46162bf87603460366167ff565b616a5f565b60ff1681526020018473ffffffffffffffffffffffffffffffffffffffff1681526020016064815260200160011515815260200142815250905080600c856040518082805190602001908083835b6020831015156163375780518252602082019150602081019050602083039250616312565b6001836020036101000a03801982511681845116808217855250505050505090500191505090815260200160405180910390206000820151816000019080519060200190616386929190617617565b5060208201518160010190805190602001906163a3929190617617565b5060408201518160020190805190602001906163c0929190617617565b5060608201518160030190805190602001906163dd929190617617565b5060808201518160040190805190602001906163fa929190617617565b5060a0820151816005019080519060200190616417929190617617565b5060c0820151816006019080519060200190616434929190617617565b5060e0820151816007019080519060200190616451929190617617565b5061010082015181600801908051906020019061646f929190617617565b5061012082015181600901908051906020019061648d929190617617565b5061014082015181600a0190805190602001906164ab929190617617565b5061016082015181600b0160006101000a81548160ff021916908360ff16021790555061018082015181600b0160016101000a81548160ff021916908360ff1602179055506101a082015181600b0160026101000a81548160ff021916908360ff1602179055506101c082015181600b0160036101000a81548160ff021916908360ff1602179055506101e082015181600b0160046101000a81548173ffffffffffffffffffffffffffffffffffffffff021916908373ffffffffffffffffffffffffffffffffffffffff16021790555061020082015181600c015561022082015181600d0160006101000a81548160ff02191690831515021790555061024082015181600e0155905050600d60008473ffffffffffffffffffffffffffffffffffffffff1673ffffffffffffffffffffffffffffffffffffffff168152602001908152602001600020849080600181540180825580915050906001820390600052602060002001600090919290919091509080519060200190616630929190617411565b5050600e60008473ffffffffffffffffffffffffffffffffffffffff1673ffffffffffffffffffffffffffffffffffffffff168152602001908152602001600020600081819054906101000a900460ff168092919060010191906101000a81548160ff021916908360ff160217905550506001601060008282540192505081905550600f8490806001815401808255809150509060018203906000526020600020016000909192909190915090805190602001906166ef929190617411565b50508391505092915050565b600061670682615be2565b1515616747576040517f08c379a000000000000000000000000000000000000000000000000000000000815260040161673e90618372565b60405180910390fd5b6000616752836135a1565b90508073ffffffffffffffffffffffffffffffffffffffff168473ffffffffffffffffffffffffffffffffffffffff1614806167c157508373ffffffffffffffffffffffffffffffffffffffff166167a984610bdb565b73ffffffffffffffffffffffffffffffffffffffff16145b806167d257506167d181856151e1565b5b91505092915050565b6167e6838383616e0f565b6167f08382617042565b6167fa82826171e6565b505050565b60608084905060608484036040519080825280601f01601f19166020018201604052801561683c5781602001600182028038833980820191505090505b50905060008590505b848110156168f357828181518110151561685b57fe5b9060200101517f010000000000000000000000000000000000000000000000000000000000000090047f010000000000000000000000000000000000000000000000000000000000000002828783038151811015156168b657fe5b9060200101907effffffffffffffffffffffffffffffffffffffffffffffffffffffffffffff1916908160001a9053508080600101915050616845565b5080925050509392505050565b600081600001549050919050565b600061692f8473ffffffffffffffffffffffffffffffffffffffff166172ad565b151561693e5760019050616a57565b60008473ffffffffffffffffffffffffffffffffffffffff1663150b7a02338887876040518563ffffffff167c010000000000000000000000000000000000000000000000000000000002815260040161699b94939291906181c7565b602060405180830381600087803b1580156169b557600080fd5b505af11580156169c9573d6000803e3d6000fd5b505050506040513d601f19601f820116820180604052506169ed91908101906179c8565b905063150b7a027c0100000000000000000000000000000000000000000000000000000000027bffffffffffffffffffffffffffffffffffffffffffffffffffffffff1916817bffffffffffffffffffffffffffffffffffffffffffffffffffffffff1916149150505b949350505050565b600060206040519081016040528060008152508051906020012082805190602001201415616a905760009050616e0a565b600080905060397f010000000000000000000000000000000000000000000000000000000000000002836000815181101515616ac857fe5b9060200101517f010000000000000000000000000000000000000000000000000000000000000090047f0100000000000000000000000000000000000000000000000000000000000000027effffffffffffffffffffffffffffffffffffffffffffffffffffffffffffff1916111515616bc85760106030846000815181101515616b4f57fe5b9060200101517f010000000000000000000000000000000000000000000000000000000000000090047f0100000000000000000000000000000000000000000000000000000000000000027f01000000000000000000000000000000000000000000000000000000000000009004030281019050616c50565b60106031846000815181101515616bdb57fe5b9060200101517f010000000000000000000000000000000000000000000000000000000000000090047f0100000000000000000000000000000000000000000000000000000000000000027f010000000000000000000000000000000000000000000000000000000000000090040302810190505b60397f010000000000000000000000000000000000000000000000000000000000000002836000815181101515616c8357fe5b9060200101517f010000000000000000000000000000000000000000000000000000000000000090047f0100000000000000000000000000000000000000000000000000000000000000027effffffffffffffffffffffffffffffffffffffffffffffffffffffffffffff1916111515616d80576030836001815181101515616d0857fe5b9060200101517f010000000000000000000000000000000000000000000000000000000000000090047f0100000000000000000000000000000000000000000000000000000000000000027f010000000000000000000000000000000000000000000000000000000000000090040381019050616e05565b6031836001815181101515616d9157fe5b9060200101517f010000000000000000000000000000000000000000000000000000000000000090047f0100000000000000000000000000000000000000000000000000000000000000027f0100000000000000000000000000000000000000000000000000000000000000900403810190505b809150505b919050565b8273ffffffffffffffffffffffffffffffffffffffff16616e2f826135a1565b73ffffffffffffffffffffffffffffffffffffffff16141515616e87576040517f08c379a0000000000000000000000000000000000000000000000000000000008152600401616e7e90618412565b60405180910390fd5b600073ffffffffffffffffffffffffffffffffffffffff168273ffffffffffffffffffffffffffffffffffffffff1614151515616ef9576040517f08c379a0000000000000000000000000000000000000000000000000000000008152600401616ef090618312565b60405180910390fd5b616f02816172c0565b616f49600360008573ffffffffffffffffffffffffffffffffffffffff1673ffffffffffffffffffffffffffffffffffffffff168152602001908152602001600020617380565b616f90600360008473ffffffffffffffffffffffffffffffffffffffff1673ffffffffffffffffffffffffffffffffffffffff1681526020019081526020016000206173a3565b816001600083815260200190815260200160002060006101000a81548173ffffffffffffffffffffffffffffffffffffffff021916908373ffffffffffffffffffffffffffffffffffffffff160217905550808273ffffffffffffffffffffffffffffffffffffffff168473ffffffffffffffffffffffffffffffffffffffff167fddf252ad1be2c89b69c2b068fc378daa952ba7f163c4a11628f55a4df523b3ef60405160405180910390a4505050565b600061709a6001600560008673ffffffffffffffffffffffffffffffffffffffff1673ffffffffffffffffffffffffffffffffffffffff168152602001908152602001600020805490506173b990919063ffffffff16565b9050600060066000848152602001908152602001600020549050818114151561718d576000600560008673ffffffffffffffffffffffffffffffffffffffff1673ffffffffffffffffffffffffffffffffffffffff1681526020019081526020016000208381548110151561710b57fe5b9060005260206000200154905080600560008773ffffffffffffffffffffffffffffffffffffffff1673ffffffffffffffffffffffffffffffffffffffff1681526020019081526020016000208381548110151561716557fe5b9060005260206000200181905550816006600083815260200190815260200160002081905550505b600560008573ffffffffffffffffffffffffffffffffffffffff1673ffffffffffffffffffffffffffffffffffffffff1681526020019081526020016000208054809190600190036171df9190617697565b5050505050565b600560008373ffffffffffffffffffffffffffffffffffffffff1673ffffffffffffffffffffffffffffffffffffffff168152602001908152602001600020805490506006600083815260200190815260200160002081905550600560008373ffffffffffffffffffffffffffffffffffffffff1673ffffffffffffffffffffffffffffffffffffffff1681526020019081526020016000208190806001815401808255809150509060018203906000526020600020016000909192909190915055505050565b600080823b905060008111915050919050565b600073ffffffffffffffffffffffffffffffffffffffff166002600083815260200190815260200160002060009054906101000a900473ffffffffffffffffffffffffffffffffffffffff1673ffffffffffffffffffffffffffffffffffffffff1614151561737d5760006002600083815260200190815260200160002060006101000a81548173ffffffffffffffffffffffffffffffffffffffff021916908373ffffffffffffffffffffffffffffffffffffffff1602179055505b50565b617398600182600001546173b990919063ffffffff16565b816000018190555050565b6001816000016000828254019250508190555050565b6000828211151515617400576040517f08c379a00000000000000000000000000000000000000000000000000000000081526004016173f790618352565b60405180910390fd5b600082840390508091505092915050565b828054600181600116156101000203166002900490600052602060002090601f016020900481019282601f1061745257805160ff1916838001178555617480565b82800160010185558215617480579182015b8281111561747f578251825591602001919060010190617464565b5b50905061748d91906176c3565b5090565b50805460018160011615610100020316600290046000825580601f106174b757506174d6565b601f0160209004906000526020600020908101906174d591906176c3565b5b50565b828054600181600116156101000203166002900490600052602060002090601f016020900481019282601f10617512578054855561754f565b8280016001018555821561754f57600052602060002091601f016020900482015b8281111561754e578254825591600101919060010190617533565b5b50905061755c91906176c3565b5090565b610260604051908101604052806060815260200160608152602001606081526020016060815260200160608152602001606081526020016060815260200160608152602001606081526020016060815260200160608152602001600060ff168152602001600060ff168152602001600060ff168152602001600060ff168152602001600073ffffffffffffffffffffffffffffffffffffffff16815260200160008152602001600015158152602001600081525090565b828054600181600116156101000203166002900490600052602060002090601f016020900481019282601f1061765857805160ff1916838001178555617686565b82800160010185558215617686579182015b8281111561768557825182559160200191906001019061766a565b5b50905061769391906176c3565b5090565b8154818355818111156176be578183600052602060002091820191016176bd91906176c3565b5b505050565b6176e591905b808211156176e15760008160009055506001016176c9565b5090565b90565b60006176f4823561861a565b905092915050565b6000617708823561862c565b905092915050565b600061771c8235618638565b905092915050565b60006177308251618638565b905092915050565b600082601f830112151561774b57600080fd5b813561775e61775982618515565b6184e8565b9150808252602083016020830185838301111561777a57600080fd5b6177858382846186a4565b50505092915050565b600082601f83011215156177a157600080fd5b81356177b46177af82618541565b6184e8565b915080825260208301602083018583830111156177d057600080fd5b6177db8382846186a4565b50505092915050565b60006177f08235618664565b905092915050565b60006020828403121561780a57600080fd5b6000617818848285016176e8565b91505092915050565b6000806040838503121561783457600080fd5b6000617842858286016176e8565b9250506020617853858286016176e8565b9150509250929050565b60008060006060848603121561787257600080fd5b6000617880868287016176e8565b9350506020617891868287016176e8565b92505060406178a2868287016177e4565b9150509250925092565b600080600080608085870312156178c257600080fd5b60006178d0878288016176e8565b94505060206178e1878288016176e8565b93505060406178f2878288016177e4565b925050606085013567ffffffffffffffff81111561790f57600080fd5b61791b87828801617738565b91505092959194509250565b6000806040838503121561793a57600080fd5b6000617948858286016176e8565b9250506020617959858286016176fc565b9150509250929050565b6000806040838503121561797657600080fd5b6000617984858286016176e8565b9250506020617995858286016177e4565b9150509250929050565b6000602082840312156179b157600080fd5b60006179bf84828501617710565b91505092915050565b6000602082840312156179da57600080fd5b60006179e884828501617724565b91505092915050565b600060208284031215617a0357600080fd5b600082013567ffffffffffffffff811115617a1d57600080fd5b617a298482850161778e565b91505092915050565b60008060408385031215617a4557600080fd5b600083013567ffffffffffffffff811115617a5f57600080fd5b617a6b8582860161778e565b925050602083013567ffffffffffffffff811115617a8857600080fd5b617a948582860161778e565b9150509250929050565b60008060408385031215617ab157600080fd5b600083013567ffffffffffffffff811115617acb57600080fd5b617ad78582860161778e565b9250506020617ae8858286016177e4565b9150509250929050565b600060208284031215617b0457600080fd5b6000617b12848285016177e4565b91505092915050565b617b248161866e565b82525050565b617b33816185c5565b82525050565b617b42816185b3565b82525050565b6000617b538261857a565b80845260208401935083602082028501617b6c8561856d565b60005b84811015617ba5578383038852617b87838351617c31565b9250617b92826185a6565b9150602088019750600181019050617b6f565b508196508694505050505092915050565b617bbf816185d7565b82525050565b6000617bd082618585565b808452617be48160208601602086016186b3565b617bed816186e6565b602085010191505092915050565b6000617c068261859b565b808452617c1a8160208601602086016186b3565b617c23816186e6565b602085010191505092915050565b6000617c3c82618590565b808452617c508160208601602086016186b3565b617c59816186e6565b602085010191505092915050565b6000602b82527f455243373231456e756d657261626c653a206f776e657220696e646578206f7560208301527f74206f6620626f756e64730000000000000000000000000000000000000000006040830152606082019050919050565b6000603282527f4552433732313a207472616e7366657220746f206e6f6e20455243373231526560208301527f63656976657220696d706c656d656e74657200000000000000000000000000006040830152606082019050919050565b6000602482527f4552433732313a207472616e7366657220746f20746865207a65726f2061646460208301527f72657373000000000000000000000000000000000000000000000000000000006040830152606082019050919050565b6000601982527f4552433732313a20617070726f766520746f2063616c6c6572000000000000006020830152604082019050919050565b6000601e82527f536166654d6174683a207375627472616374696f6e206f766572666c6f7700006020830152604082019050919050565b6000602c82527f4552433732313a206f70657261746f7220717565727920666f72206e6f6e657860208301527f697374656e7420746f6b656e00000000000000000000000000000000000000006040830152606082019050919050565b6000603882527f4552433732313a20617070726f76652063616c6c6572206973206e6f74206f7760208301527f6e6572206e6f7220617070726f76656420666f7220616c6c00000000000000006040830152606082019050919050565b6000602a82527f4552433732313a2062616c616e636520717565727920666f7220746865207a6560208301527f726f2061646472657373000000000000000000000000000000000000000000006040830152606082019050919050565b6000602982527f4552433732313a206f776e657220717565727920666f72206e6f6e657869737460208301527f656e7420746f6b656e00000000000000000000000000000000000000000000006040830152606082019050919050565b6000602c82527f4552433732313a20617070726f76656420717565727920666f72206e6f6e657860208301527f697374656e7420746f6b656e00000000000000000000000000000000000000006040830152606082019050919050565b6000602982527f4552433732313a207472616e73666572206f6620746f6b656e2074686174206960208301527f73206e6f74206f776e00000000000000000000000000000000000000000000006040830152606082019050919050565b6000602f82527f4552433732314d657461646174613a2055524920717565727920666f72206e6f60208301527f6e6578697374656e7420746f6b656e00000000000000000000000000000000006040830152606082019050919050565b6000602182527f4552433732313a20617070726f76616c20746f2063757272656e74206f776e6560208301527f72000000000000000000000000000000000000000000000000000000000000006040830152606082019050919050565b6000603182527f4552433732313a207472616e736665722063616c6c6572206973206e6f74206f60208301527f776e6572206e6f7220617070726f7665640000000000000000000000000000006040830152606082019050919050565b6000602c82527f455243373231456e756d657261626c653a20676c6f62616c20696e646578206f60208301527f7574206f6620626f756e647300000000000000000000000000000000000000006040830152606082019050919050565b61819781618603565b82525050565b6181a68161860d565b82525050565b60006020820190506181c16000830184617b39565b92915050565b60006080820190506181dc6000830187617b1b565b6181e96020830186617b39565b6181f6604083018561818e565b81810360608301526182088184617bc5565b905095945050505050565b6000604082019050818103600083015261822d8185617b48565b905061823c602083018461819d565b9392505050565b60006020820190506182586000830184617bb6565b92915050565b600060208201905081810360008301526182788184617c31565b905092915050565b6000602082019050818103600083015261829a8184617bfb565b905092915050565b600060408201905081810360008301526182bc8185617bfb565b90506182cb6020830184617b2a565b9392505050565b600060208201905081810360008301526182eb81617c67565b9050919050565b6000602082019050818103600083015261830b81617cc4565b9050919050565b6000602082019050818103600083015261832b81617d21565b9050919050565b6000602082019050818103600083015261834b81617d7e565b9050919050565b6000602082019050818103600083015261836b81617db5565b9050919050565b6000602082019050818103600083015261838b81617dec565b9050919050565b600060208201905081810360008301526183ab81617e49565b9050919050565b600060208201905081810360008301526183cb81617ea6565b9050919050565b600060208201905081810360008301526183eb81617f03565b9050919050565b6000602082019050818103600083015261840b81617f60565b9050919050565b6000602082019050818103600083015261842b81617fbd565b9050919050565b6000602082019050818103600083015261844b8161801a565b9050919050565b6000602082019050818103600083015261846b81618077565b9050919050565b6000602082019050818103600083015261848b816180d4565b9050919050565b600060208201905081810360008301526184ab81618131565b9050919050565b60006020820190506184c7600083018461818e565b92915050565b60006020820190506184e2600083018461819d565b92915050565b6000604051905081810181811067ffffffffffffffff8211171561850b57600080fd5b8060405250919050565b600067ffffffffffffffff82111561852c57600080fd5b601f19601f8301169050602081019050919050565b600067ffffffffffffffff82111561855857600080fd5b601f19601f8301169050602081019050919050565b6000602082019050919050565b600081519050919050565b600081519050919050565b600081519050919050565b600081519050919050565b6000602082019050919050565b60006185be826185e3565b9050919050565b60006185d0826185e3565b9050919050565b60008115159050919050565b600073ffffffffffffffffffffffffffffffffffffffff82169050919050565b6000819050919050565b600060ff82169050919050565b6000618625826185e3565b9050919050565b60008115159050919050565b60007fffffffff0000000000000000000000000000000000000000000000000000000082169050919050565b6000819050919050565b600061867982618680565b9050919050565b600061868b82618692565b9050919050565b600061869d826185e3565b9050919050565b82818337600083830152505050565b60005b838110156186d15780820151818401526020810190506186b6565b838111156186e0576000848401525b50505050565b6000601f19601f830116905091905056fea265627a7a72305820351f8b36c16162e7f217d77ec73df95320b54d88344f1fcb3f6875a6d679740d6c6578706572696d656e74616cf50037",
  "source": "pragma solidity ^0.5.0;\npragma experimental ABIEncoderV2;\n\nimport \"./ERC721Full.sol\";\n\ncontract Pisi is ERC721Full {\n    // string[] public colors;\n    // mapping(string => bool) _colorExists;\n\n    struct PisiAttributes {\n        string eyeColor;\n        string eyeSize;\n        \n        string headColor;\n        string headSize;\n        \n        string beardSize;\n        \n        string tailColor;\n        string tailAccentColor;\n        string tailSize;\n        \n        string bodyColor;\n        string bodyAccentColor;\n\n        string stripeType;\n        \n        uint8 hungerness;\n        uint8 fragility;\n        uint8 fertility;\n        uint8 appeal;\n\n        address payable owner;\n        uint256 price;\n        bool onSale;\n        uint lastFeedingTime;\n    }\n    \n    mapping(string => PisiAttributes) _pisiCollection;\n    mapping(address => string[]) _personalCollection;\n    mapping(address => uint8) _personalCollectionSize;\n\n    string[] public _pisiHashesToSell;\n    uint256 public onSaleCount;\n\n    constructor() ERC721Full(\"Pisi\", \"PISI\") public {\n\n    }\n\n    function mint() public returns (string memory) {\n        uint256 rand = uint256(keccak256(abi.encodePacked(block.timestamp, block.difficulty, msg.sender)));\n\n        return decodeAttributes(uint2str(rand), msg.sender);\n    }\n\n    function decodeAttributes(string memory hashedAttr, address payable owner) internal returns (string memory){\n        PisiAttributes memory pa = PisiAttributes(\n            getNumberBetween(hashedAttr, 0, 6), // eyeColor, \n            getNumberBetween(hashedAttr, 6, 8), // eyeSize, \n            \n            getNumberBetween(hashedAttr, 8, 14), // headColor, \n            getNumberBetween(hashedAttr, 14, 16), // headSize, \n            \n            getNumberBetween(hashedAttr, 16, 18), // beardSize, *****\n            \n            getNumberBetween(hashedAttr, 18, 24), // tailColor, \n            getNumberBetween(hashedAttr, 24, 30), // tailAccentColor, *****\n            getNumberBetween(hashedAttr, 30, 32), // tailSize, \n            \n            getNumberBetween(hashedAttr, 32, 38), // bodyColor, \n            getNumberBetween(hashedAttr, 38, 44), // bodyAccentColor, \n    \n            getNumberBetween(hashedAttr, 44, 46), // stripeType, \n\n            str2Hexuint(getNumberBetween(hashedAttr, 46, 48)), // hungerness, \n            str2Hexuint(getNumberBetween(hashedAttr, 48, 50)), // fragility, \n            str2Hexuint(getNumberBetween(hashedAttr, 50, 52)), // fertility, \n            str2Hexuint(getNumberBetween(hashedAttr, 52, 54)), // appeal\n\n            owner,\n            100,\n            true,\n            block.timestamp\n        );\n\n        _pisiCollection[hashedAttr] = pa;\n        _personalCollection[owner].push(hashedAttr);\n        _personalCollectionSize[owner]++;\n        \n        onSaleCount += 1;\n\n        _pisiHashesToSell.push(hashedAttr);\n        return hashedAttr;\n    }\n\n    function testAttributes(string memory hashedAttr) public returns (string memory) {\n        address(this).delegatecall(abi.encodeWithSignature(\"decodeAttributes(string, address payable)\", hashedAttr, msg.sender));\n\n        return decodeAttributes(hashedAttr, msg.sender);\n    }\n\n    function putToSale(string memory pisiHash, uint256 price) public decreaseAppeal(pisiHash) {\n        require(_pisiCollection[pisiHash].owner == msg.sender);\n\n        _pisiCollection[pisiHash].price = price;\n        _pisiCollection[pisiHash].onSale = true;\n        onSaleCount += 1;\n        \n        _pisiHashesToSell.push(pisiHash);\n    }\n\n    function putDownFromSale(string memory pisiHash) public decreaseAppeal(pisiHash) {\n        require(_pisiCollection[pisiHash].owner == msg.sender);\n\n        removeElement(pisiHash, msg.sender);\n    }\n\n    function transferPisi(string memory pisiHash) public payable decreaseAppeal(pisiHash) {\n        require(_pisiCollection[pisiHash].price <= msg.value);\n        require(_pisiCollection[pisiHash].onSale == true);\n\n        _pisiCollection[pisiHash].owner.transfer(_pisiCollection[pisiHash].price);\n\n        address oldOwner = _pisiCollection[pisiHash].owner;\n\n        _pisiCollection[pisiHash].owner = msg.sender;\n\n        removeElement(pisiHash, msg.sender);\n\n        removeElementFromArray(pisiHash, _personalCollection[oldOwner], _personalCollectionSize[oldOwner]);\n        _personalCollectionSize[oldOwner]--;\n\n        _personalCollection[msg.sender].push(pisiHash);\n        _personalCollectionSize[msg.sender]++;\n    }\n\n    function breed(string memory pisiHash1, string memory pisiHash2) public decreaseAppeal(pisiHash1) decreaseAppeal(pisiHash2) returns (string memory) {\n        require(_pisiCollection[pisiHash1].owner == msg.sender);\n        require(_pisiCollection[pisiHash2].owner == msg.sender);\n        require(_pisiCollection[pisiHash1].appeal > 0 && _pisiCollection[pisiHash2].appeal > 0);\n\n        uint8 rand = uint8(uint256(keccak256(abi.encodePacked(block.timestamp, _pisiCollection[pisiHash1].fertility, _pisiCollection[pisiHash2].fertility))) % 256);\n\n        require(uint16(rand) < uint16(_pisiCollection[pisiHash1].appeal) + uint16(_pisiCollection[pisiHash2].appeal));\n\n        if (_pisiCollection[pisiHash1].fertility > _pisiCollection[pisiHash2].fertility && _pisiCollection[pisiHash1].appeal > _pisiCollection[pisiHash2].appeal) {\n            return decodeAttributes(pisiHash1, msg.sender);\n        }else if(_pisiCollection[pisiHash1].fertility > _pisiCollection[pisiHash2].fertility && _pisiCollection[pisiHash1].appeal < _pisiCollection[pisiHash2].appeal) {\n            return decodeAttributes(string(abi.encodePacked(getNumberBetween(pisiHash1, 0, 30), getNumberBetween(pisiHash2, 30, 63))), msg.sender);\n        } else if(_pisiCollection[pisiHash1].fertility < _pisiCollection[pisiHash2].fertility && _pisiCollection[pisiHash1].appeal > _pisiCollection[pisiHash2].appeal) {\n            return decodeAttributes(string(abi.encodePacked(getNumberBetween(pisiHash1, 30, 63), getNumberBetween(pisiHash2, 0, 30))), msg.sender);\n        } else {\n            return decodeAttributes(pisiHash2, msg.sender);\n        }\n    }\n\n    function gatherPersonalPisis() public view returns (string[] memory, uint8) {\n        return (_personalCollection[msg.sender], _personalCollectionSize[msg.sender]);\n    }\n\n    function feed(string memory pisiHash) public payable {\n        require(_pisiCollection[pisiHash].owner == msg.sender);\n\n        uint costOfFeeding = 0.002 ether;\n\n        require(msg.value >= costOfFeeding);\n\n        address payable thisAddr = address(uint160(address(this)));\n\n        thisAddr.transfer(costOfFeeding);\n\n        _pisiCollection[pisiHash].lastFeedingTime == block.timestamp;\n    }\n\n    modifier decreaseAppeal(string memory pisiHash) {\n        if(_pisiCollection[pisiHash].fertility > 0){\n            _pisiCollection[pisiHash].fertility = 255 - uint8((block.timestamp - _pisiCollection[pisiHash].lastFeedingTime) / 1 hours) * (_pisiCollection[pisiHash].hungerness / 64);\n            _pisiCollection[pisiHash].lastFeedingTime = block.timestamp;\n        } else{\n            _pisiCollection[pisiHash].fertility = 0;\n            _pisiCollection[pisiHash].appeal = 0;\n        }\n\n        _;\n    }\n\n    // HELPER FUNCTIONS\n\n    function removeElement(string memory pisiHashToRemove, address payable _owner) internal {\n        require(_pisiCollection[pisiHashToRemove].owner == _owner);\n        require(_pisiCollection[pisiHashToRemove].onSale);\n        require(onSaleCount > 0);\n        \n        _pisiCollection[pisiHashToRemove].price = 0;\n        _pisiCollection[pisiHashToRemove].onSale = false;\n\n        removeElementFromArray(pisiHashToRemove, _pisiHashesToSell, onSaleCount);\n\n        onSaleCount -= 1;\n    }\n\n    function removeElementFromArray(string memory toRemove, string[] storage removeFrom, uint count) internal {\n        bool move = false;\n\n        if(count == 1){\n            removeFrom.pop();\n        } else{\n            for (uint i = 0; i < count - 1; i++){\n                if(keccak256(bytes(removeFrom[i])) == keccak256(bytes(toRemove))){\n                    move = true;\n                }\n\n                if(move){\n                    removeFrom[i] = removeFrom[i + 1];\n                }\n            }\n        }\n    }\n    \n    function uint2str(uint _i) internal pure returns (string memory _uintAsString) {\n        if (_i == 0) {\n            return \"0\";\n        }\n        uint j = _i;\n        uint len;\n        while (j != 0) {\n            len++;\n            j /= 10;\n        }\n        bytes memory bstr = new bytes(len);\n        uint k = len - 1;\n        while (_i != 0) {\n            bstr[k--] = byte(uint8(48 + _i % 10));\n            _i /= 10;\n        }\n        return string(bstr);\n    }\n\n    function str2Hexuint(string memory _input) internal pure returns (uint8) {\n        if(keccak256(bytes(_input)) == keccak256(bytes(\"\"))) {\n            return 0;\n        }\n\n        uint8 res = 0;\n\n        if(bytes(_input)[0] <= 0x39){\n            res += (uint8(bytes(_input)[0]) - 0x30) * 16;\n        }else {\n            res += (uint8(bytes(_input)[0]) - 0x31) * 16;\n        }\n\n        if(bytes(_input)[0] <= 0x39){\n            res += (uint8(bytes(_input)[1]) - 0x30);\n        }else {\n            res += (uint8(bytes(_input)[1]) - 0x31);\n        }\n\n        return res;\n    }\n\n    // function getBodyAttr(string memory pisiHash, uint8 attCode) public view returns(string memory){\n    //     require(attCode < 7);\n\n    //     if(attCode == 0){ // eyeColor;\n    //         return _pisiCollection[pisiHash].eyeColor;\n    //     } else if(attCode == 1){ // eyeSize\n    //         return _pisiCollection[pisiHash].eyeSize;\n    //     } else if(attCode == 2){ // headColor\n    //         return _pisiCollection[pisiHash].headColor;\n    //     } else if(attCode == 3){ // headSize\n    //         return _pisiCollection[pisiHash].headSize;\n    //     } else if(attCode == 4){ // beardSize\n    //         return _pisiCollection[pisiHash].beardSize;\n    //     } else if(attCode == 5){ // tailColor\n    //         return _pisiCollection[pisiHash].tailColor;\n    //     } else if(attCode == 6){ // tailAccentColor\n    //         return _pisiCollection[pisiHash].tailAccentColor;\n    //     } else if(attCode == 6){ // tailSize\n    //         return _pisiCollection[pisiHash].tailSize;\n    //     } else if(attCode == 6){ // bodyColor\n    //         return _pisiCollection[pisiHash].bodyColor;\n    //     } else if(attCode == 6){ // bodyAccentColor\n    //         return _pisiCollection[pisiHash].bodyAccentColor;\n    //     } else if(attCode == 6){ // stripeType\n    //         return _pisiCollection[pisiHash].stripeType;\n    //     }else {\n    //         return \"\";\n    //     }\n    // }\n\n    // function getCharAttr(string memory pisiHash, uint8 attCode) public view returns(uint8){\n    //     require(_pisiCollection[pisiHash].owner <= msg.sender);\n    //     require(attCode < 4);\n\n    //     if(attCode == 0){ // hungerness;\n    //         return _pisiCollection[pisiHash].hungerness;\n    //     } else if(attCode == 1){ // fragility\n    //         return _pisiCollection[pisiHash].fragility;\n    //     } else if(attCode == 2){ // fertility\n    //         return _pisiCollection[pisiHash].fertility;\n    //     } else if(attCode == 3){ // appeal\n    //         return _pisiCollection[pisiHash].appeal;\n    //     } else {\n    //         return 0;\n    //     }\n    // }\n\n    function getEyeColor(string memory pisiHash) public view returns(string memory) {\n        return _pisiCollection[pisiHash].eyeColor;\n    }\n\n    function getEyeSize(string memory pisiHash) public view returns(string memory) {\n        return _pisiCollection[pisiHash].eyeSize;\n    }\n\n    function getHeadColor(string memory pisiHash) public view returns(string memory) {\n        return _pisiCollection[pisiHash].headColor;\n    }\n\n    function getHeadSize(string memory pisiHash) public view returns(string memory) {\n        return _pisiCollection[pisiHash].headSize;\n    }\n\n    function getBeardSize(string memory pisiHash) public view returns(string memory) {\n        return _pisiCollection[pisiHash].beardSize;\n    }\n\n    function getTailColor(string memory pisiHash) public view returns(string memory) {\n        return _pisiCollection[pisiHash].tailColor;\n    }\n\n    function getTailAccentColor(string memory pisiHash) public view returns(string memory) {\n        return _pisiCollection[pisiHash].tailAccentColor;\n    }\n\n    function getTailSize(string memory pisiHash) public view returns(string memory) {\n        return _pisiCollection[pisiHash].tailSize;\n    }\n\n    function getBodyColor(string memory pisiHash) public view returns(string memory) {\n        return _pisiCollection[pisiHash].bodyColor;\n    }\n\n    function getBodyAccentColor(string memory pisiHash) public view returns(string memory) {\n        return _pisiCollection[pisiHash].bodyAccentColor;\n    }\n\n    function getStripeType(string memory pisiHash) public view returns(string memory) {\n        return _pisiCollection[pisiHash].stripeType;\n    }\n\n    function getHungerness(string memory pisiHash) public view returns(uint8) {\n        require(_pisiCollection[pisiHash].owner <= msg.sender);\n        return _pisiCollection[pisiHash].hungerness;\n    }\n\n    function getFragility(string memory pisiHash) public view returns(uint8) {\n        require(_pisiCollection[pisiHash].owner <= msg.sender);\n\n        return _pisiCollection[pisiHash].fragility;\n    }\n\n    function getFertility(string memory pisiHash) public decreaseAppeal(pisiHash) returns(uint8) {\n        require(_pisiCollection[pisiHash].owner <= msg.sender);\n\n        return _pisiCollection[pisiHash].fertility;\n    }\n\n    function getAppeal(string memory pisiHash) public decreaseAppeal(pisiHash) returns(uint8) {\n        require(_pisiCollection[pisiHash].owner <= msg.sender);\n\n        return _pisiCollection[pisiHash].appeal;\n    }\n\n    function getOwner(string memory pisiHash) public view returns(address) {\n        return _pisiCollection[pisiHash].owner;\n    }\n\n    function getNumberBetween(string memory str, uint startIndex, uint endIndex) pure internal returns (string memory) {\n        bytes memory strBytes = bytes(str);\n        bytes memory result = new bytes(endIndex-startIndex);\n        for(uint i = startIndex; i < endIndex; i++) {\n            result[i-startIndex] = strBytes[i];\n        }\n        return string(result);\n    }\n}",
  "sourcePath": "/Users/nidanurgunay/Desktop/CryptoPissies/src/contracts/Pisi.sol",
  "compiler": {
    "name": "solc",
    "version": "0.5.0+commit.1d4f565a.Emscripten.clang"
  },
  "schemaVersion": "3.0.2",
  "updatedAt": "2021-05-25T16:56:48.911Z",
  "devdoc": {
    "methods": {
      "approve(address,uint256)": {
        "details": "Approves another address to transfer the given token ID The zero address indicates there is no approved address. There can only be one approved address per token at a given time. Can only be called by the token owner or an approved operator.",
        "params": {
          "to": "address to be approved for the given token ID",
          "tokenId": "uint256 ID of the token to be approved"
        }
      },
      "balanceOf(address)": {
        "details": "Gets the balance of the specified address.",
        "params": {
          "owner": "address to query the balance of"
        },
        "return": "uint256 representing the amount owned by the passed address"
      },
      "getApproved(uint256)": {
        "details": "Gets the approved address for a token ID, or zero if no address set Reverts if the token ID does not exist.",
        "params": {
          "tokenId": "uint256 ID of the token to query the approval of"
        },
        "return": "address currently approved for the given token ID"
      },
      "isApprovedForAll(address,address)": {
        "details": "Tells whether an operator is approved by a given owner.",
        "params": {
          "operator": "operator address which you want to query the approval of",
          "owner": "owner address which you want to query the approval of"
        },
        "return": "bool whether the given operator is approved by the given owner"
      },
      "name()": {
        "details": "Gets the token name.",
        "return": "string representing the token name"
      },
      "ownerOf(uint256)": {
        "details": "Gets the owner of the specified token ID.",
        "params": {
          "tokenId": "uint256 ID of the token to query the owner of"
        },
        "return": "address currently marked as the owner of the given token ID"
      },
      "safeTransferFrom(address,address,uint256)": {
        "details": "Safely transfers the ownership of a given token ID to another address If the target address is a contract, it must implement `onERC721Received`, which is called upon a safe transfer, and return the magic value `bytes4(keccak256(\"onERC721Received(address,address,uint256,bytes)\"))`; otherwise, the transfer is reverted. Requires the msg.sender to be the owner, approved, or operator",
        "params": {
          "from": "current owner of the token",
          "to": "address to receive the ownership of the given token ID",
          "tokenId": "uint256 ID of the token to be transferred"
        }
      },
      "safeTransferFrom(address,address,uint256,bytes)": {
        "details": "Safely transfers the ownership of a given token ID to another address If the target address is a contract, it must implement `onERC721Received`, which is called upon a safe transfer, and return the magic value `bytes4(keccak256(\"onERC721Received(address,address,uint256,bytes)\"))`; otherwise, the transfer is reverted. Requires the msg.sender to be the owner, approved, or operator",
        "params": {
          "_data": "bytes data to send along with a safe transfer check",
          "from": "current owner of the token",
          "to": "address to receive the ownership of the given token ID",
          "tokenId": "uint256 ID of the token to be transferred"
        }
      },
      "setApprovalForAll(address,bool)": {
        "details": "Sets or unsets the approval of a given operator An operator is allowed to transfer all tokens of the sender on their behalf.",
        "params": {
          "approved": "representing the status of the approval to be set",
          "to": "operator address to set the approval"
        }
      },
      "supportsInterface(bytes4)": {
        "details": "See `IERC165.supportsInterface`.     * Time complexity O(1), guaranteed to always use less than 30 000 gas."
      },
      "symbol()": {
        "details": "Gets the token symbol.",
        "return": "string representing the token symbol"
      },
      "tokenByIndex(uint256)": {
        "details": "Gets the token ID at a given index of all the tokens in this contract Reverts if the index is greater or equal to the total number of tokens.",
        "params": {
          "index": "uint256 representing the index to be accessed of the tokens list"
        },
        "return": "uint256 token ID at the given index of the tokens list"
      },
      "tokenOfOwnerByIndex(address,uint256)": {
        "details": "Gets the token ID at a given index of the tokens list of the requested owner.",
        "params": {
          "index": "uint256 representing the index to be accessed of the requested tokens list",
          "owner": "address owning the tokens list to be accessed"
        },
        "return": "uint256 token ID at the given index of the tokens list owned by the requested address"
      },
      "tokenURI(uint256)": {
        "details": "Returns an URI for a given token ID. Throws if the token ID does not exist. May return an empty string.",
        "params": {
          "tokenId": "uint256 ID of the token to query"
        }
      },
      "totalSupply()": {
        "details": "Gets the total amount of tokens stored by the contract.",
        "return": "uint256 representing the total amount of tokens"
      },
      "transferFrom(address,address,uint256)": {
        "details": "Transfers the ownership of a given token ID to another address. Usage of this method is discouraged, use `safeTransferFrom` whenever possible. Requires the msg.sender to be the owner, approved, or operator.",
        "params": {
          "from": "current owner of the token",
          "to": "address to receive the ownership of the given token ID",
          "tokenId": "uint256 ID of the token to be transferred"
        }
      }
    }
  },
  "userdoc": {
    "methods": {}
  }
}