{
  "contractName": "Pisi",
  "abi": [
    {
      "constant": true,
      "inputs": [
        {
          "name": "interfaceId",
          "type": "bytes4"
        }
      ],
      "name": "supportsInterface",
      "outputs": [
        {
          "name": "",
          "type": "bool"
        }
      ],
      "payable": false,
      "stateMutability": "view",
      "type": "function",
      "signature": "0x01ffc9a7"
    },
    {
      "constant": true,
      "inputs": [],
      "name": "name",
      "outputs": [
        {
          "name": "",
          "type": "string"
        }
      ],
      "payable": false,
      "stateMutability": "view",
      "type": "function",
      "signature": "0x06fdde03"
    },
    {
      "constant": true,
      "inputs": [
        {
          "name": "tokenId",
          "type": "uint256"
        }
      ],
      "name": "getApproved",
      "outputs": [
        {
          "name": "",
          "type": "address"
        }
      ],
      "payable": false,
      "stateMutability": "view",
      "type": "function",
      "signature": "0x081812fc"
    },
    {
      "constant": false,
      "inputs": [
        {
          "name": "to",
          "type": "address"
        },
        {
          "name": "tokenId",
          "type": "uint256"
        }
      ],
      "name": "approve",
      "outputs": [],
      "payable": false,
      "stateMutability": "nonpayable",
      "type": "function",
      "signature": "0x095ea7b3"
    },
    {
      "constant": true,
      "inputs": [],
      "name": "totalSupply",
      "outputs": [
        {
          "name": "",
          "type": "uint256"
        }
      ],
      "payable": false,
      "stateMutability": "view",
      "type": "function",
      "signature": "0x18160ddd"
    },
    {
      "constant": false,
      "inputs": [
        {
          "name": "from",
          "type": "address"
        },
        {
          "name": "to",
          "type": "address"
        },
        {
          "name": "tokenId",
          "type": "uint256"
        }
      ],
      "name": "transferFrom",
      "outputs": [],
      "payable": false,
      "stateMutability": "nonpayable",
      "type": "function",
      "signature": "0x23b872dd"
    },
    {
      "constant": true,
      "inputs": [
        {
          "name": "owner",
          "type": "address"
        },
        {
          "name": "index",
          "type": "uint256"
        }
      ],
      "name": "tokenOfOwnerByIndex",
      "outputs": [
        {
          "name": "",
          "type": "uint256"
        }
      ],
      "payable": false,
      "stateMutability": "view",
      "type": "function",
      "signature": "0x2f745c59"
    },
    {
      "constant": true,
      "inputs": [],
      "name": "onSaleCount",
      "outputs": [
        {
          "name": "",
          "type": "uint256"
        }
      ],
      "payable": false,
      "stateMutability": "view",
      "type": "function",
      "signature": "0x356e7863"
    },
    {
      "constant": false,
      "inputs": [
        {
          "name": "from",
          "type": "address"
        },
        {
          "name": "to",
          "type": "address"
        },
        {
          "name": "tokenId",
          "type": "uint256"
        }
      ],
      "name": "safeTransferFrom",
      "outputs": [],
      "payable": false,
      "stateMutability": "nonpayable",
      "type": "function",
      "signature": "0x42842e0e"
    },
    {
      "constant": true,
      "inputs": [
        {
          "name": "index",
          "type": "uint256"
        }
      ],
      "name": "tokenByIndex",
      "outputs": [
        {
          "name": "",
          "type": "uint256"
        }
      ],
      "payable": false,
      "stateMutability": "view",
      "type": "function",
      "signature": "0x4f6ccce7"
    },
    {
      "constant": true,
      "inputs": [
        {
          "name": "tokenId",
          "type": "uint256"
        }
      ],
      "name": "ownerOf",
      "outputs": [
        {
          "name": "",
          "type": "address"
        }
      ],
      "payable": false,
      "stateMutability": "view",
      "type": "function",
      "signature": "0x6352211e"
    },
    {
      "constant": true,
      "inputs": [
        {
          "name": "owner",
          "type": "address"
        }
      ],
      "name": "balanceOf",
      "outputs": [
        {
          "name": "",
          "type": "uint256"
        }
      ],
      "payable": false,
      "stateMutability": "view",
      "type": "function",
      "signature": "0x70a08231"
    },
    {
      "constant": true,
      "inputs": [],
      "name": "symbol",
      "outputs": [
        {
          "name": "",
          "type": "string"
        }
      ],
      "payable": false,
      "stateMutability": "view",
      "type": "function",
      "signature": "0x95d89b41"
    },
    {
      "constant": false,
      "inputs": [
        {
          "name": "to",
          "type": "address"
        },
        {
          "name": "approved",
          "type": "bool"
        }
      ],
      "name": "setApprovalForAll",
      "outputs": [],
      "payable": false,
      "stateMutability": "nonpayable",
      "type": "function",
      "signature": "0xa22cb465"
    },
    {
      "constant": true,
      "inputs": [
        {
          "name": "",
          "type": "uint256"
        }
      ],
      "name": "_pisiHashesToSell",
      "outputs": [
        {
          "name": "",
          "type": "string"
        }
      ],
      "payable": false,
      "stateMutability": "view",
      "type": "function",
      "signature": "0xafc8136c"
    },
    {
      "constant": false,
      "inputs": [
        {
          "name": "from",
          "type": "address"
        },
        {
          "name": "to",
          "type": "address"
        },
        {
          "name": "tokenId",
          "type": "uint256"
        },
        {
          "name": "_data",
          "type": "bytes"
        }
      ],
      "name": "safeTransferFrom",
      "outputs": [],
      "payable": false,
      "stateMutability": "nonpayable",
      "type": "function",
      "signature": "0xb88d4fde"
    },
    {
      "constant": true,
      "inputs": [
        {
          "name": "tokenId",
          "type": "uint256"
        }
      ],
      "name": "tokenURI",
      "outputs": [
        {
          "name": "",
          "type": "string"
        }
      ],
      "payable": false,
      "stateMutability": "view",
      "type": "function",
      "signature": "0xc87b56dd"
    },
    {
      "constant": true,
      "inputs": [
        {
          "name": "owner",
          "type": "address"
        },
        {
          "name": "operator",
          "type": "address"
        }
      ],
      "name": "isApprovedForAll",
      "outputs": [
        {
          "name": "",
          "type": "bool"
        }
      ],
      "payable": false,
      "stateMutability": "view",
      "type": "function",
      "signature": "0xe985e9c5"
    },
    {
      "inputs": [],
      "payable": false,
      "stateMutability": "nonpayable",
      "type": "constructor",
      "signature": "constructor"
    },
    {
      "anonymous": false,
      "inputs": [
        {
          "indexed": true,
          "name": "from",
          "type": "address"
        },
        {
          "indexed": true,
          "name": "to",
          "type": "address"
        },
        {
          "indexed": true,
          "name": "tokenId",
          "type": "uint256"
        }
      ],
      "name": "Transfer",
      "type": "event",
      "signature": "0xddf252ad1be2c89b69c2b068fc378daa952ba7f163c4a11628f55a4df523b3ef"
    },
    {
      "anonymous": false,
      "inputs": [
        {
          "indexed": true,
          "name": "owner",
          "type": "address"
        },
        {
          "indexed": true,
          "name": "approved",
          "type": "address"
        },
        {
          "indexed": true,
          "name": "tokenId",
          "type": "uint256"
        }
      ],
      "name": "Approval",
      "type": "event",
      "signature": "0x8c5be1e5ebec7d5bd14f71427d1e84f3dd0314c0f7b2291e5b200ac8c7c3b925"
    },
    {
      "anonymous": false,
      "inputs": [
        {
          "indexed": true,
          "name": "owner",
          "type": "address"
        },
        {
          "indexed": true,
          "name": "operator",
          "type": "address"
        },
        {
          "indexed": false,
          "name": "approved",
          "type": "bool"
        }
      ],
      "name": "ApprovalForAll",
      "type": "event",
      "signature": "0x17307eab39ab6107e8899845ad3d59bd9653f200f220920489ca2b5937696c31"
    },
    {
      "constant": false,
      "inputs": [],
      "name": "mint",
      "outputs": [
        {
          "name": "",
          "type": "string"
        }
      ],
      "payable": false,
      "stateMutability": "nonpayable",
      "type": "function",
      "signature": "0x1249c58b"
    },
    {
      "constant": false,
      "inputs": [
        {
          "name": "hashedAttr",
          "type": "string"
        }
      ],
      "name": "testAttributes",
      "outputs": [
        {
          "name": "",
          "type": "string"
        }
      ],
      "payable": false,
      "stateMutability": "nonpayable",
      "type": "function",
      "signature": "0x9ace6dc1"
    },
    {
      "constant": false,
      "inputs": [
        {
          "name": "pisiHash",
          "type": "string"
        },
        {
          "name": "price",
          "type": "uint256"
        }
      ],
      "name": "putToSale",
      "outputs": [],
      "payable": false,
      "stateMutability": "nonpayable",
      "type": "function",
      "signature": "0x9f66af62"
    },
    {
      "constant": false,
      "inputs": [
        {
          "name": "pisiHash",
          "type": "string"
        }
      ],
      "name": "putDownFromSale",
      "outputs": [],
      "payable": false,
      "stateMutability": "nonpayable",
      "type": "function",
      "signature": "0xf34ee28a"
    },
    {
      "constant": false,
      "inputs": [
        {
          "name": "pisiHash",
          "type": "string"
        }
      ],
      "name": "transferPisi",
      "outputs": [],
      "payable": true,
      "stateMutability": "payable",
      "type": "function",
      "signature": "0x09c39896"
    },
    {
      "constant": false,
      "inputs": [
        {
          "name": "pisiHash1",
          "type": "string"
        },
        {
          "name": "pisiHash2",
          "type": "string"
        }
      ],
      "name": "breed",
      "outputs": [
        {
          "name": "",
          "type": "string"
        }
      ],
      "payable": false,
      "stateMutability": "nonpayable",
      "type": "function",
      "signature": "0x2e6fb8e2"
    },
    {
      "constant": true,
      "inputs": [],
      "name": "gatherPersonalPisis",
      "outputs": [
        {
          "name": "",
          "type": "string[]"
        },
        {
          "name": "",
          "type": "uint8"
        }
      ],
      "payable": false,
      "stateMutability": "view",
      "type": "function",
      "signature": "0x52b56df6"
    },
    {
      "constant": true,
      "inputs": [
        {
          "name": "pisiHash",
          "type": "string"
        }
      ],
      "name": "getEyeColor",
      "outputs": [
        {
          "name": "",
          "type": "string"
        }
      ],
      "payable": false,
      "stateMutability": "view",
      "type": "function",
      "signature": "0x5aee4330"
    },
    {
      "constant": true,
      "inputs": [
        {
          "name": "pisiHash",
          "type": "string"
        }
      ],
      "name": "getEyeSize",
      "outputs": [
        {
          "name": "",
          "type": "string"
        }
      ],
      "payable": false,
      "stateMutability": "view",
      "type": "function",
      "signature": "0xab76c013"
    },
    {
      "constant": true,
      "inputs": [
        {
          "name": "pisiHash",
          "type": "string"
        }
      ],
      "name": "getHeadColor",
      "outputs": [
        {
          "name": "",
          "type": "string"
        }
      ],
      "payable": false,
      "stateMutability": "view",
      "type": "function",
      "signature": "0x2f1c4ba3"
    },
    {
      "constant": true,
      "inputs": [
        {
          "name": "pisiHash",
          "type": "string"
        }
      ],
      "name": "getHeadSize",
      "outputs": [
        {
          "name": "",
          "type": "string"
        }
      ],
      "payable": false,
      "stateMutability": "view",
      "type": "function",
      "signature": "0x72eb3e09"
    },
    {
      "constant": true,
      "inputs": [
        {
          "name": "pisiHash",
          "type": "string"
        }
      ],
      "name": "getBeardSize",
      "outputs": [
        {
          "name": "",
          "type": "string"
        }
      ],
      "payable": false,
      "stateMutability": "view",
      "type": "function",
      "signature": "0x5d30e7e2"
    },
    {
      "constant": true,
      "inputs": [
        {
          "name": "pisiHash",
          "type": "string"
        }
      ],
      "name": "getTailColor",
      "outputs": [
        {
          "name": "",
          "type": "string"
        }
      ],
      "payable": false,
      "stateMutability": "view",
      "type": "function",
      "signature": "0xc5f4496a"
    },
    {
      "constant": true,
      "inputs": [
        {
          "name": "pisiHash",
          "type": "string"
        }
      ],
      "name": "getTailAccentColor",
      "outputs": [
        {
          "name": "",
          "type": "string"
        }
      ],
      "payable": false,
      "stateMutability": "view",
      "type": "function",
      "signature": "0xad267e72"
    },
    {
      "constant": true,
      "inputs": [
        {
          "name": "pisiHash",
          "type": "string"
        }
      ],
      "name": "getTailSize",
      "outputs": [
        {
          "name": "",
          "type": "string"
        }
      ],
      "payable": false,
      "stateMutability": "view",
      "type": "function",
      "signature": "0xe3395e9c"
    },
    {
      "constant": true,
      "inputs": [
        {
          "name": "pisiHash",
          "type": "string"
        }
      ],
      "name": "getBodyColor",
      "outputs": [
        {
          "name": "",
          "type": "string"
        }
      ],
      "payable": false,
      "stateMutability": "view",
      "type": "function",
      "signature": "0xa937f3db"
    },
    {
      "constant": true,
      "inputs": [
        {
          "name": "pisiHash",
          "type": "string"
        }
      ],
      "name": "getBodyAccentColor",
      "outputs": [
        {
          "name": "",
          "type": "string"
        }
      ],
      "payable": false,
      "stateMutability": "view",
      "type": "function",
      "signature": "0x33ccc11a"
    },
    {
      "constant": true,
      "inputs": [
        {
          "name": "pisiHash",
          "type": "string"
        }
      ],
      "name": "getStripeType",
      "outputs": [
        {
          "name": "",
          "type": "string"
        }
      ],
      "payable": false,
      "stateMutability": "view",
      "type": "function",
      "signature": "0x1e9abcac"
    },
    {
      "constant": true,
      "inputs": [
        {
          "name": "pisiHash",
          "type": "string"
        }
      ],
      "name": "getHungerness",
      "outputs": [
        {
          "name": "",
          "type": "uint8"
        }
      ],
      "payable": false,
      "stateMutability": "view",
      "type": "function",
      "signature": "0xcbc9c4a3"
    },
    {
      "constant": true,
      "inputs": [
        {
          "name": "pisiHash",
          "type": "string"
        }
      ],
      "name": "getFragility",
      "outputs": [
        {
          "name": "",
          "type": "uint8"
        }
      ],
      "payable": false,
      "stateMutability": "view",
      "type": "function",
      "signature": "0xa1f5fc03"
    },
    {
      "constant": true,
      "inputs": [
        {
          "name": "pisiHash",
          "type": "string"
        }
      ],
      "name": "getFertility",
      "outputs": [
        {
          "name": "",
          "type": "uint8"
        }
      ],
      "payable": false,
      "stateMutability": "view",
      "type": "function",
      "signature": "0xf7f8c32b"
    },
    {
      "constant": true,
      "inputs": [
        {
          "name": "pisiHash",
          "type": "string"
        }
      ],
      "name": "getAppeal",
      "outputs": [
        {
          "name": "",
          "type": "uint8"
        }
      ],
      "payable": false,
      "stateMutability": "view",
      "type": "function",
      "signature": "0xd8c6b1da"
    },
    {
      "constant": true,
      "inputs": [
        {
          "name": "pisiHash",
          "type": "string"
        }
      ],
      "name": "getOwner",
      "outputs": [
        {
          "name": "",
          "type": "address"
        }
      ],
      "payable": false,
      "stateMutability": "view",
      "type": "function",
      "signature": "0x4aaf4a12"
    }
  ],
  "bytecode": "0x60806040523480156200001157600080fd5b506040805190810160405280600481526020017f50697369000000000000000000000000000000000000000000000000000000008152506040805190810160405280600481526020017f50495349000000000000000000000000000000000000000000000000000000008152508181620000bd6301ffc9a77c010000000000000000000000000000000000000000000000000000000002620001b0640100000000026401000000009004565b620000fa6380ac58cd7c010000000000000000000000000000000000000000000000000000000002620001b0640100000000026401000000009004565b6200013763780e9d637c010000000000000000000000000000000000000000000000000000000002620001b0640100000000026401000000009004565b81600990805190602001906200014f929190620002a6565b5080600a908051906020019062000168929190620002a6565b50620001a6635b5e139f7c010000000000000000000000000000000000000000000000000000000002620001b0640100000000026401000000009004565b50505050620003ae565b63ffffffff7c010000000000000000000000000000000000000000000000000000000002817bffffffffffffffffffffffffffffffffffffffffffffffffffffffff1916141515156200023a576040517f08c379a000000000000000000000000000000000000000000000000000000000815260040162000231906200038c565b60405180910390fd5b6001600080837bffffffffffffffffffffffffffffffffffffffffffffffffffffffff19167bffffffffffffffffffffffffffffffffffffffffffffffffffffffff1916815260200190815260200160002060006101000a81548160ff02191690831515021790555050565b828054600181600116156101000203166002900490600052602060002090601f016020900481019282601f10620002e957805160ff19168380011785556200031a565b828001600101855582156200031a579182015b8281111562000319578251825591602001919060010190620002fc565b5b5090506200032991906200032d565b5090565b6200035291905b808211156200034e57600081600090555060010162000334565b5090565b90565b6000601c82527f4552433136353a20696e76616c696420696e74657266616365206964000000006020830152604082019050919050565b60006020820190508181036000830152620003a78162000355565b9050919050565b616b7d80620003be6000396000f3fe6080604052600436106101f9576000357c0100000000000000000000000000000000000000000000000000000000900463ffffffff16806301ffc9a7146101fe57806306fdde031461023b578063081812fc14610266578063095ea7b3146102a357806309c39896146102cc5780631249c58b146102e857806318160ddd146103135780631e9abcac1461033e57806323b872dd1461037b5780632e6fb8e2146103a45780632f1c4ba3146103e15780632f745c591461041e57806333ccc11a1461045b578063356e78631461049857806342842e0e146104c35780634aaf4a12146104ec5780634f6ccce71461052957806352b56df6146105665780635aee4330146105925780635d30e7e2146105cf5780636352211e1461060c57806370a082311461064957806372eb3e091461068657806395d89b41146106c35780639ace6dc1146106ee5780639f66af621461072b578063a1f5fc0314610754578063a22cb46514610791578063a937f3db146107ba578063ab76c013146107f7578063ad267e7214610834578063afc8136c14610871578063b88d4fde146108ae578063c5f4496a146108d7578063c87b56dd14610914578063cbc9c4a314610951578063d8c6b1da1461098e578063e3395e9c146109cb578063e985e9c514610a08578063f34ee28a14610a45578063f7f8c32b14610a6e575b600080fd5b34801561020a57600080fd5b5061022560048036036102209190810190615deb565b610aab565b604051610232919061668f565b60405180910390f35b34801561024757600080fd5b50610250610b12565b60405161025d91906166cc565b60405180910390f35b34801561027257600080fd5b5061028d60048036036102889190810190615f3e565b610bb4565b60405161029a91906165f8565b60405180910390f35b3480156102af57600080fd5b506102ca60048036036102c59190810190615daf565b610c3b565b005b6102e660048036036102e19190810190615e3d565b610dec565b005b3480156102f457600080fd5b506102fd61137b565b60405161030a91906166cc565b60405180910390f35b34801561031f57600080fd5b5061032861140f565b60405161033591906168fe565b60405180910390f35b34801561034a57600080fd5b5061036560048036036103609190810190615e3d565b61141c565b60405161037291906166cc565b60405180910390f35b34801561038757600080fd5b506103a2600480360361039d9190810190615ca9565b61152c565b005b3480156103b057600080fd5b506103cb60048036036103c69190810190615e7e565b611587565b6040516103d891906166cc565b60405180910390f35b3480156103ed57600080fd5b5061040860048036036104039190810190615e3d565b6122f6565b60405161041591906166cc565b60405180910390f35b34801561042a57600080fd5b5061044560048036036104409190810190615daf565b612406565b60405161045291906168fe565b60405180910390f35b34801561046757600080fd5b50610482600480360361047d9190810190615e3d565b6124b3565b60405161048f91906166cc565b60405180910390f35b3480156104a457600080fd5b506104ad6125c3565b6040516104ba91906168fe565b60405180910390f35b3480156104cf57600080fd5b506104ea60048036036104e59190810190615ca9565b6125c9565b005b3480156104f857600080fd5b50610513600480360361050e9190810190615e3d565b6125ea565b60405161052091906165f8565b60405180910390f35b34801561053557600080fd5b50610550600480360361054b9190810190615f3e565b612682565b60405161055d91906168fe565b60405180910390f35b34801561057257600080fd5b5061057b6126f0565b60405161058992919061665f565b60405180910390f35b34801561059e57600080fd5b506105b960048036036105b49190810190615e3d565b61286b565b6040516105c691906166cc565b60405180910390f35b3480156105db57600080fd5b506105f660048036036105f19190810190615e3d565b61297b565b60405161060391906166cc565b60405180910390f35b34801561061857600080fd5b50610633600480360361062e9190810190615f3e565b612a8b565b60405161064091906165f8565b60405180910390f35b34801561065557600080fd5b50610670600480360361066b9190810190615c44565b612b3f565b60405161067d91906168fe565b60405180910390f35b34801561069257600080fd5b506106ad60048036036106a89190810190615e3d565b612c00565b6040516106ba91906166cc565b60405180910390f35b3480156106cf57600080fd5b506106d8612d10565b6040516106e591906166cc565b60405180910390f35b3480156106fa57600080fd5b5061071560048036036107109190810190615e3d565b612db2565b60405161072291906166cc565b60405180910390f35b34801561073757600080fd5b50610752600480360361074d9190810190615eea565b612f09565b005b34801561076057600080fd5b5061077b60048036036107769190810190615e3d565b61311f565b6040516107889190616919565b60405180910390f35b34801561079d57600080fd5b506107b860048036036107b39190810190615d73565b61326d565b005b3480156107c657600080fd5b506107e160048036036107dc9190810190615e3d565b6133db565b6040516107ee91906166cc565b60405180910390f35b34801561080357600080fd5b5061081e60048036036108199190810190615e3d565b6134eb565b60405161082b91906166cc565b60405180910390f35b34801561084057600080fd5b5061085b60048036036108569190810190615e3d565b6135fb565b60405161086891906166cc565b60405180910390f35b34801561087d57600080fd5b5061089860048036036108939190810190615f3e565b61370b565b6040516108a591906166aa565b60405180910390f35b3480156108ba57600080fd5b506108d560048036036108d09190810190615cf8565b6137c6565b005b3480156108e357600080fd5b506108fe60048036036108f99190810190615e3d565b613824565b60405161090b91906166cc565b60405180910390f35b34801561092057600080fd5b5061093b60048036036109369190810190615f3e565b613934565b60405161094891906166cc565b60405180910390f35b34801561095d57600080fd5b5061097860048036036109739190810190615e3d565b613a33565b6040516109859190616919565b60405180910390f35b34801561099a57600080fd5b506109b560048036036109b09190810190615e3d565b613b81565b6040516109c29190616919565b60405180910390f35b3480156109d757600080fd5b506109f260048036036109ed9190810190615e3d565b613ccf565b6040516109ff91906166cc565b60405180910390f35b348015610a1457600080fd5b50610a2f6004803603610a2a9190810190615c6d565b613ddf565b604051610a3c919061668f565b60405180910390f35b348015610a5157600080fd5b50610a6c6004803603610a679190810190615e3d565b613e73565b005b348015610a7a57600080fd5b50610a956004803603610a909190810190615e3d565b613f48565b604051610aa29190616919565b60405180910390f35b6000806000837bffffffffffffffffffffffffffffffffffffffffffffffffffffffff19167bffffffffffffffffffffffffffffffffffffffffffffffffffffffff1916815260200190815260200160002060009054906101000a900460ff169050919050565b606060098054600181600116156101000203166002900480601f016020809104026020016040519081016040528092919081815260200182805460018160011615610100020316600290048015610baa5780601f10610b7f57610100808354040283529160200191610baa565b820191906000526020600020905b815481529060010190602001808311610b8d57829003601f168201915b5050505050905090565b6000610bbf82614096565b1515610c00576040517f08c379a0000000000000000000000000000000000000000000000000000000008152600401610bf79061683e565b60405180910390fd5b6002600083815260200190815260200160002060009054906101000a900473ffffffffffffffffffffffffffffffffffffffff169050919050565b6000610c4682612a8b565b90508073ffffffffffffffffffffffffffffffffffffffff168373ffffffffffffffffffffffffffffffffffffffff1614151515610cb9576040517f08c379a0000000000000000000000000000000000000000000000000000000008152600401610cb09061689e565b60405180910390fd5b8073ffffffffffffffffffffffffffffffffffffffff163373ffffffffffffffffffffffffffffffffffffffff161480610cf95750610cf88133613ddf565b5b1515610d3a576040517f08c379a0000000000000000000000000000000000000000000000000000000008152600401610d31906167de565b60405180910390fd5b826002600084815260200190815260200160002060006101000a81548173ffffffffffffffffffffffffffffffffffffffff021916908373ffffffffffffffffffffffffffffffffffffffff160217905550818373ffffffffffffffffffffffffffffffffffffffff168273ffffffffffffffffffffffffffffffffffffffff167f8c5be1e5ebec7d5bd14f71427d1e84f3dd0314c0f7b2291e5b200ac8c7c3b92560405160405180910390a4505050565b34600c826040518082805190602001908083835b602083101515610e255780518252602082019150602081019050602083039250610e00565b6001836020036101000a0380198251168184511680821785525050505050509050019150509081526020016040518091039020600c015411151515610e6957600080fd5b60011515600c826040518082805190602001908083835b602083101515610ea55780518252602082019150602081019050602083039250610e80565b6001836020036101000a0380198251168184511680821785525050505050509050019150509081526020016040518091039020600d0160009054906101000a900460ff161515141515610ef757600080fd5b600c816040518082805190602001908083835b602083101515610f2f5780518252602082019150602081019050602083039250610f0a565b6001836020036101000a0380198251168184511680821785525050505050509050019150509081526020016040518091039020600b0160049054906101000a900473ffffffffffffffffffffffffffffffffffffffff1673ffffffffffffffffffffffffffffffffffffffff166108fc600c836040518082805190602001908083835b602083101515610fd75780518252602082019150602081019050602083039250610fb2565b6001836020036101000a0380198251168184511680821785525050505050509050019150509081526020016040518091039020600c01549081150290604051600060405180830381858888f19350505050158015611039573d6000803e3d6000fd5b506000600c826040518082805190602001908083835b602083101515611074578051825260208201915060208101905060208303925061104f565b6001836020036101000a0380198251168184511680821785525050505050509050019150509081526020016040518091039020600b0160049054906101000a900473ffffffffffffffffffffffffffffffffffffffff16905033600c836040518082805190602001908083835b60208310151561110657805182526020820191506020810190506020830392506110e1565b6001836020036101000a0380198251168184511680821785525050505050509050019150509081526020016040518091039020600b0160046101000a81548173ffffffffffffffffffffffffffffffffffffffff021916908373ffffffffffffffffffffffffffffffffffffffff1602179055506111848233614108565b61121c82600d60008473ffffffffffffffffffffffffffffffffffffffff1673ffffffffffffffffffffffffffffffffffffffff168152602001908152602001600020600e60008573ffffffffffffffffffffffffffffffffffffffff1673ffffffffffffffffffffffffffffffffffffffff16815260200190815260200160002060009054906101000a900460ff1660ff16614386565b600e60008273ffffffffffffffffffffffffffffffffffffffff1673ffffffffffffffffffffffffffffffffffffffff168152602001908152602001600020600081819054906101000a900460ff16809291906001900391906101000a81548160ff021916908360ff16021790555050600d60003373ffffffffffffffffffffffffffffffffffffffff1673ffffffffffffffffffffffffffffffffffffffff168152602001908152602001600020829080600181540180825580915050906001820390600052602060002001600090919290919091509080519060200190611306929190615864565b5050600e60003373ffffffffffffffffffffffffffffffffffffffff1673ffffffffffffffffffffffffffffffffffffffff168152602001908152602001600020600081819054906101000a900460ff168092919060010191906101000a81548160ff021916908360ff160217905550505050565b60606000424433604051602001808481526020018381526020018273ffffffffffffffffffffffffffffffffffffffff1673ffffffffffffffffffffffffffffffffffffffff166c01000000000000000000000000028152601401935050505060405160208183030381529060405280519060200120600190049050611409611403826144d6565b3361462f565b91505090565b6000600780549050905090565b6060600c826040518082805190602001908083835b6020831015156114565780518252602082019150602081019050602083039250611431565b6001836020036101000a0380198251168184511680821785525050505050509050019150509081526020016040518091039020600a018054600181600116156101000203166002900480601f0160208091040260200160405190810160405280929190818152602001828054600181600116156101000203166002900480156115205780601f106114f557610100808354040283529160200191611520565b820191906000526020600020905b81548152906001019060200180831161150357829003601f168201915b50505050509050919050565b6115363382614b4e565b1515611577576040517f08c379a000000000000000000000000000000000000000000000000000000000815260040161156e906168be565b60405180910390fd5b611582838383614c2e565b505050565b60603373ffffffffffffffffffffffffffffffffffffffff16600c846040518082805190602001908083835b6020831015156115d857805182526020820191506020810190506020830392506115b3565b6001836020036101000a0380198251168184511680821785525050505050509050019150509081526020016040518091039020600b0160049054906101000a900473ffffffffffffffffffffffffffffffffffffffff1673ffffffffffffffffffffffffffffffffffffffff1614151561165157600080fd5b3373ffffffffffffffffffffffffffffffffffffffff16600c836040518082805190602001908083835b6020831015156116a0578051825260208201915060208101905060208303925061167b565b6001836020036101000a0380198251168184511680821785525050505050509050019150509081526020016040518091039020600b0160049054906101000a900473ffffffffffffffffffffffffffffffffffffffff1673ffffffffffffffffffffffffffffffffffffffff1614151561171957600080fd5b6000600c846040518082805190602001908083835b602083101515611753578051825260208201915060208101905060208303925061172e565b6001836020036101000a0380198251168184511680821785525050505050509050019150509081526020016040518091039020600b0160039054906101000a900460ff1660ff1611801561182557506000600c836040518082805190602001908083835b6020831015156117dc57805182526020820191506020810190506020830392506117b7565b6001836020036101000a0380198251168184511680821785525050505050509050019150509081526020016040518091039020600b0160039054906101000a900460ff1660ff16115b151561183057600080fd5b600061010042600c866040518082805190602001908083835b60208310151561186e5780518252602082019150602081019050602083039250611849565b6001836020036101000a0380198251168184511680821785525050505050509050019150509081526020016040518091039020600b0160029054906101000a900460ff16600c866040518082805190602001908083835b6020831015156118ea57805182526020820191506020810190506020830392506118c5565b6001836020036101000a0380198251168184511680821785525050505050509050019150509081526020016040518091039020600b0160029054906101000a900460ff16604051602001808481526020018360ff1660ff167f01000000000000000000000000000000000000000000000000000000000000000281526001018260ff1660ff167f0100000000000000000000000000000000000000000000000000000000000000028152600101935050505060405160208183030381529060405280519060200120600190048115156119bf57fe5b069050600c836040518082805190602001908083835b6020831015156119fa57805182526020820191506020810190506020830392506119d5565b6001836020036101000a0380198251168184511680821785525050505050509050019150509081526020016040518091039020600b0160039054906101000a900460ff1660ff16600c856040518082805190602001908083835b602083101515611a795780518252602082019150602081019050602083039250611a54565b6001836020036101000a0380198251168184511680821785525050505050509050019150509081526020016040518091039020600b0160039054906101000a900460ff1660ff160161ffff168160ff1661ffff16101515611ad957600080fd5b600c836040518082805190602001908083835b602083101515611b115780518252602082019150602081019050602083039250611aec565b6001836020036101000a0380198251168184511680821785525050505050509050019150509081526020016040518091039020600b0160029054906101000a900460ff1660ff16600c856040518082805190602001908083835b602083101515611b905780518252602082019150602081019050602083039250611b6b565b6001836020036101000a0380198251168184511680821785525050505050509050019150509081526020016040518091039020600b0160029054906101000a900460ff1660ff16118015611cdf5750600c836040518082805190602001908083835b602083101515611c175780518252602082019150602081019050602083039250611bf2565b6001836020036101000a0380198251168184511680821785525050505050509050019150509081526020016040518091039020600b0160039054906101000a900460ff1660ff16600c856040518082805190602001908083835b602083101515611c965780518252602082019150602081019050602083039250611c71565b6001836020036101000a0380198251168184511680821785525050505050509050019150509081526020016040518091039020600b0160039054906101000a900460ff1660ff16115b15611cf657611cee843361462f565b9150506122f0565b600c836040518082805190602001908083835b602083101515611d2e5780518252602082019150602081019050602083039250611d09565b6001836020036101000a0380198251168184511680821785525050505050509050019150509081526020016040518091039020600b0160029054906101000a900460ff1660ff16600c856040518082805190602001908083835b602083101515611dad5780518252602082019150602081019050602083039250611d88565b6001836020036101000a0380198251168184511680821785525050505050509050019150509081526020016040518091039020600b0160029054906101000a900460ff1660ff16118015611efc5750600c836040518082805190602001908083835b602083101515611e345780518252602082019150602081019050602083039250611e0f565b6001836020036101000a0380198251168184511680821785525050505050509050019150509081526020016040518091039020600b0160039054906101000a900460ff1660ff16600c856040518082805190602001908083835b602083101515611eb35780518252602082019150602081019050602083039250611e8e565b6001836020036101000a0380198251168184511680821785525050505050509050019150509081526020016040518091039020600b0160039054906101000a900460ff1660ff16105b15611fec57611fe4611f11856000601e614c52565b611f1e85601e603f614c52565b6040516020018083805190602001908083835b602083101515611f565780518252602082019150602081019050602083039250611f31565b6001836020036101000a03801982511681845116808217855250505050505090500182805190602001908083835b602083101515611fa95780518252602082019150602081019050602083039250611f84565b6001836020036101000a038019825116818451168082178552505050505050905001925050506040516020818303038152906040523361462f565b9150506122f0565b600c836040518082805190602001908083835b6020831015156120245780518252602082019150602081019050602083039250611fff565b6001836020036101000a0380198251168184511680821785525050505050509050019150509081526020016040518091039020600b0160029054906101000a900460ff1660ff16600c856040518082805190602001908083835b6020831015156120a3578051825260208201915060208101905060208303925061207e565b6001836020036101000a0380198251168184511680821785525050505050509050019150509081526020016040518091039020600b0160029054906101000a900460ff1660ff161080156121f25750600c836040518082805190602001908083835b60208310151561212a5780518252602082019150602081019050602083039250612105565b6001836020036101000a0380198251168184511680821785525050505050509050019150509081526020016040518091039020600b0160039054906101000a900460ff1660ff16600c856040518082805190602001908083835b6020831015156121a95780518252602082019150602081019050602083039250612184565b6001836020036101000a0380198251168184511680821785525050505050509050019150509081526020016040518091039020600b0160039054906101000a900460ff1660ff16115b156122e2576122da61220785601e603f614c52565b612214856000601e614c52565b6040516020018083805190602001908083835b60208310151561224c5780518252602082019150602081019050602083039250612227565b6001836020036101000a03801982511681845116808217855250505050505090500182805190602001908083835b60208310151561229f578051825260208201915060208101905060208303925061227a565b6001836020036101000a038019825116818451168082178552505050505050905001925050506040516020818303038152906040523361462f565b9150506122f0565b6122ec833361462f565b9150505b92915050565b6060600c826040518082805190602001908083835b602083101515612330578051825260208201915060208101905060208303925061230b565b6001836020036101000a03801982511681845116808217855250505050505090500191505090815260200160405180910390206002018054600181600116156101000203166002900480601f0160208091040260200160405190810160405280929190818152602001828054600181600116156101000203166002900480156123fa5780601f106123cf576101008083540402835291602001916123fa565b820191906000526020600020905b8154815290600101906020018083116123dd57829003601f168201915b50505050509050919050565b600061241183612b3f565b82101515612454576040517f08c379a000000000000000000000000000000000000000000000000000000000815260040161244b9061671e565b60405180910390fd5b600560008473ffffffffffffffffffffffffffffffffffffffff1673ffffffffffffffffffffffffffffffffffffffff168152602001908152602001600020828154811015156124a057fe5b9060005260206000200154905092915050565b6060600c826040518082805190602001908083835b6020831015156124ed57805182526020820191506020810190506020830392506124c8565b6001836020036101000a03801982511681845116808217855250505050505090500191505090815260200160405180910390206009018054600181600116156101000203166002900480601f0160208091040260200160405190810160405280929190818152602001828054600181600116156101000203166002900480156125b75780601f1061258c576101008083540402835291602001916125b7565b820191906000526020600020905b81548152906001019060200180831161259a57829003601f168201915b50505050509050919050565b60105481565b6125e583838360206040519081016040528060008152506137c6565b505050565b6000600c826040518082805190602001908083835b60208310151561262457805182526020820191506020810190506020830392506125ff565b6001836020036101000a0380198251168184511680821785525050505050509050019150509081526020016040518091039020600b0160049054906101000a900473ffffffffffffffffffffffffffffffffffffffff169050919050565b600061268c61140f565b821015156126cf576040517f08c379a00000000000000000000000000000000000000000000000000000000081526004016126c6906168de565b60405180910390fd5b6007828154811015156126de57fe5b90600052602060002001549050919050565b60606000600d60003373ffffffffffffffffffffffffffffffffffffffff1673ffffffffffffffffffffffffffffffffffffffff168152602001908152602001600020600e60003373ffffffffffffffffffffffffffffffffffffffff1673ffffffffffffffffffffffffffffffffffffffff16815260200190815260200160002060009054906101000a900460ff1681805480602002602001604051908101604052809291908181526020016000905b8282101561285d578382906000526020600020018054600181600116156101000203166002900480601f0160208091040260200160405190810160405280929190818152602001828054600181600116156101000203166002900480156128495780601f1061281e57610100808354040283529160200191612849565b820191906000526020600020905b81548152906001019060200180831161282c57829003601f168201915b5050505050815260200190600101906127a1565b505050509150915091509091565b6060600c826040518082805190602001908083835b6020831015156128a55780518252602082019150602081019050602083039250612880565b6001836020036101000a03801982511681845116808217855250505050505090500191505090815260200160405180910390206000018054600181600116156101000203166002900480601f01602080910402602001604051908101604052809291908181526020018280546001816001161561010002031660029004801561296f5780601f106129445761010080835404028352916020019161296f565b820191906000526020600020905b81548152906001019060200180831161295257829003601f168201915b50505050509050919050565b6060600c826040518082805190602001908083835b6020831015156129b55780518252602082019150602081019050602083039250612990565b6001836020036101000a03801982511681845116808217855250505050505090500191505090815260200160405180910390206004018054600181600116156101000203166002900480601f016020809104026020016040519081016040528092919081815260200182805460018160011615610100020316600290048015612a7f5780601f10612a5457610100808354040283529160200191612a7f565b820191906000526020600020905b815481529060010190602001808311612a6257829003601f168201915b50505050509050919050565b6000806001600084815260200190815260200160002060009054906101000a900473ffffffffffffffffffffffffffffffffffffffff169050600073ffffffffffffffffffffffffffffffffffffffff168173ffffffffffffffffffffffffffffffffffffffff1614151515612b36576040517f08c379a0000000000000000000000000000000000000000000000000000000008152600401612b2d9061681e565b60405180910390fd5b80915050919050565b60008073ffffffffffffffffffffffffffffffffffffffff168273ffffffffffffffffffffffffffffffffffffffff1614151515612bb2576040517f08c379a0000000000000000000000000000000000000000000000000000000008152600401612ba9906167fe565b60405180910390fd5b612bf9600360008473ffffffffffffffffffffffffffffffffffffffff1673ffffffffffffffffffffffffffffffffffffffff168152602001908152602001600020614d53565b9050919050565b6060600c826040518082805190602001908083835b602083101515612c3a5780518252602082019150602081019050602083039250612c15565b6001836020036101000a03801982511681845116808217855250505050505090500191505090815260200160405180910390206003018054600181600116156101000203166002900480601f016020809104026020016040519081016040528092919081815260200182805460018160011615610100020316600290048015612d045780601f10612cd957610100808354040283529160200191612d04565b820191906000526020600020905b815481529060010190602001808311612ce757829003601f168201915b50505050509050919050565b6060600a8054600181600116156101000203166002900480601f016020809104026020016040519081016040528092919081815260200182805460018160011615610100020316600290048015612da85780601f10612d7d57610100808354040283529160200191612da8565b820191906000526020600020905b815481529060010190602001808311612d8b57829003601f168201915b5050505050905090565b60603073ffffffffffffffffffffffffffffffffffffffff168233604051602401612dde9291906166ee565b6040516020818303038152906040527f895ad739000000000000000000000000000000000000000000000000000000007bffffffffffffffffffffffffffffffffffffffffffffffffffffffff19166020820180517bffffffffffffffffffffffffffffffffffffffffffffffffffffffff83818316178352505050506040518082805190602001908083835b602083101515612e905780518252602082019150602081019050602083039250612e6b565b6001836020036101000a038019825116818451168082178552505050505050905001915050600060405180830381855af49150503d8060008114612ef0576040519150601f19603f3d011682016040523d82523d6000602084013e612ef5565b606091505b505050612f02823361462f565b9050919050565b3373ffffffffffffffffffffffffffffffffffffffff16600c836040518082805190602001908083835b602083101515612f585780518252602082019150602081019050602083039250612f33565b6001836020036101000a0380198251168184511680821785525050505050509050019150509081526020016040518091039020600b0160049054906101000a900473ffffffffffffffffffffffffffffffffffffffff1673ffffffffffffffffffffffffffffffffffffffff16141515612fd157600080fd5b80600c836040518082805190602001908083835b60208310151561300a5780518252602082019150602081019050602083039250612fe5565b6001836020036101000a0380198251168184511680821785525050505050509050019150509081526020016040518091039020600c01819055506001600c836040518082805190602001908083835b60208310151561307e5780518252602082019150602081019050602083039250613059565b6001836020036101000a0380198251168184511680821785525050505050509050019150509081526020016040518091039020600d0160006101000a81548160ff0219169083151502179055506001601060008282540192505081905550600f829080600181540180825580915050906001820390600052602060002001600090919290919091509080519060200190613119929190615864565b50505050565b60003373ffffffffffffffffffffffffffffffffffffffff16600c836040518082805190602001908083835b602083101515613170578051825260208201915060208101905060208303925061314b565b6001836020036101000a0380198251168184511680821785525050505050509050019150509081526020016040518091039020600b0160049054906101000a900473ffffffffffffffffffffffffffffffffffffffff1673ffffffffffffffffffffffffffffffffffffffff16111515156131ea57600080fd5b600c826040518082805190602001908083835b60208310151561322257805182526020820191506020810190506020830392506131fd565b6001836020036101000a0380198251168184511680821785525050505050509050019150509081526020016040518091039020600b0160019054906101000a900460ff169050919050565b3373ffffffffffffffffffffffffffffffffffffffff168273ffffffffffffffffffffffffffffffffffffffff16141515156132de576040517f08c379a00000000000000000000000000000000000000000000000000000000081526004016132d59061677e565b60405180910390fd5b80600460003373ffffffffffffffffffffffffffffffffffffffff1673ffffffffffffffffffffffffffffffffffffffff16815260200190815260200160002060008473ffffffffffffffffffffffffffffffffffffffff1673ffffffffffffffffffffffffffffffffffffffff16815260200190815260200160002060006101000a81548160ff0219169083151502179055508173ffffffffffffffffffffffffffffffffffffffff163373ffffffffffffffffffffffffffffffffffffffff167f17307eab39ab6107e8899845ad3d59bd9653f200f220920489ca2b5937696c31836040516133cf919061668f565b60405180910390a35050565b6060600c826040518082805190602001908083835b60208310151561341557805182526020820191506020810190506020830392506133f0565b6001836020036101000a03801982511681845116808217855250505050505090500191505090815260200160405180910390206008018054600181600116156101000203166002900480601f0160208091040260200160405190810160405280929190818152602001828054600181600116156101000203166002900480156134df5780601f106134b4576101008083540402835291602001916134df565b820191906000526020600020905b8154815290600101906020018083116134c257829003601f168201915b50505050509050919050565b6060600c826040518082805190602001908083835b6020831015156135255780518252602082019150602081019050602083039250613500565b6001836020036101000a03801982511681845116808217855250505050505090500191505090815260200160405180910390206001018054600181600116156101000203166002900480601f0160208091040260200160405190810160405280929190818152602001828054600181600116156101000203166002900480156135ef5780601f106135c4576101008083540402835291602001916135ef565b820191906000526020600020905b8154815290600101906020018083116135d257829003601f168201915b50505050509050919050565b6060600c826040518082805190602001908083835b6020831015156136355780518252602082019150602081019050602083039250613610565b6001836020036101000a03801982511681845116808217855250505050505090500191505090815260200160405180910390206006018054600181600116156101000203166002900480601f0160208091040260200160405190810160405280929190818152602001828054600181600116156101000203166002900480156136ff5780601f106136d4576101008083540402835291602001916136ff565b820191906000526020600020905b8154815290600101906020018083116136e257829003601f168201915b50505050509050919050565b600f8181548110151561371a57fe5b906000526020600020016000915090508054600181600116156101000203166002900480601f0160208091040260200160405190810160405280929190818152602001828054600181600116156101000203166002900480156137be5780601f10613793576101008083540402835291602001916137be565b820191906000526020600020905b8154815290600101906020018083116137a157829003601f168201915b505050505081565b6137d184848461152c565b6137dd84848484614d61565b151561381e576040517f08c379a00000000000000000000000000000000000000000000000000000000081526004016138159061673e565b60405180910390fd5b50505050565b6060600c826040518082805190602001908083835b60208310151561385e5780518252602082019150602081019050602083039250613839565b6001836020036101000a03801982511681845116808217855250505050505090500191505090815260200160405180910390206005018054600181600116156101000203166002900480601f0160208091040260200160405190810160405280929190818152602001828054600181600116156101000203166002900480156139285780601f106138fd57610100808354040283529160200191613928565b820191906000526020600020905b81548152906001019060200180831161390b57829003601f168201915b50505050509050919050565b606061393f82614096565b1515613980576040517f08c379a00000000000000000000000000000000000000000000000000000000081526004016139779061687e565b60405180910390fd5b600b60008381526020019081526020016000208054600181600116156101000203166002900480601f016020809104026020016040519081016040528092919081815260200182805460018160011615610100020316600290048015613a275780601f106139fc57610100808354040283529160200191613a27565b820191906000526020600020905b815481529060010190602001808311613a0a57829003601f168201915b50505050509050919050565b60003373ffffffffffffffffffffffffffffffffffffffff16600c836040518082805190602001908083835b602083101515613a845780518252602082019150602081019050602083039250613a5f565b6001836020036101000a0380198251168184511680821785525050505050509050019150509081526020016040518091039020600b0160049054906101000a900473ffffffffffffffffffffffffffffffffffffffff1673ffffffffffffffffffffffffffffffffffffffff1611151515613afe57600080fd5b600c826040518082805190602001908083835b602083101515613b365780518252602082019150602081019050602083039250613b11565b6001836020036101000a0380198251168184511680821785525050505050509050019150509081526020016040518091039020600b0160009054906101000a900460ff169050919050565b60003373ffffffffffffffffffffffffffffffffffffffff16600c836040518082805190602001908083835b602083101515613bd25780518252602082019150602081019050602083039250613bad565b6001836020036101000a0380198251168184511680821785525050505050509050019150509081526020016040518091039020600b0160049054906101000a900473ffffffffffffffffffffffffffffffffffffffff1673ffffffffffffffffffffffffffffffffffffffff1611151515613c4c57600080fd5b600c826040518082805190602001908083835b602083101515613c845780518252602082019150602081019050602083039250613c5f565b6001836020036101000a0380198251168184511680821785525050505050509050019150509081526020016040518091039020600b0160039054906101000a900460ff169050919050565b6060600c826040518082805190602001908083835b602083101515613d095780518252602082019150602081019050602083039250613ce4565b6001836020036101000a03801982511681845116808217855250505050505090500191505090815260200160405180910390206007018054600181600116156101000203166002900480601f016020809104026020016040519081016040528092919081815260200182805460018160011615610100020316600290048015613dd35780601f10613da857610100808354040283529160200191613dd3565b820191906000526020600020905b815481529060010190602001808311613db657829003601f168201915b50505050509050919050565b6000600460008473ffffffffffffffffffffffffffffffffffffffff1673ffffffffffffffffffffffffffffffffffffffff16815260200190815260200160002060008373ffffffffffffffffffffffffffffffffffffffff1673ffffffffffffffffffffffffffffffffffffffff16815260200190815260200160002060009054906101000a900460ff16905092915050565b3373ffffffffffffffffffffffffffffffffffffffff16600c826040518082805190602001908083835b602083101515613ec25780518252602082019150602081019050602083039250613e9d565b6001836020036101000a0380198251168184511680821785525050505050509050019150509081526020016040518091039020600b0160049054906101000a900473ffffffffffffffffffffffffffffffffffffffff1673ffffffffffffffffffffffffffffffffffffffff16141515613f3b57600080fd5b613f458133614108565b50565b60003373ffffffffffffffffffffffffffffffffffffffff16600c836040518082805190602001908083835b602083101515613f995780518252602082019150602081019050602083039250613f74565b6001836020036101000a0380198251168184511680821785525050505050509050019150509081526020016040518091039020600b0160049054906101000a900473ffffffffffffffffffffffffffffffffffffffff1673ffffffffffffffffffffffffffffffffffffffff161115151561401357600080fd5b600c826040518082805190602001908083835b60208310151561404b5780518252602082019150602081019050602083039250614026565b6001836020036101000a0380198251168184511680821785525050505050509050019150509081526020016040518091039020600b0160029054906101000a900460ff169050919050565b6000806001600084815260200190815260200160002060009054906101000a900473ffffffffffffffffffffffffffffffffffffffff169050600073ffffffffffffffffffffffffffffffffffffffff168173ffffffffffffffffffffffffffffffffffffffff161415915050919050565b8073ffffffffffffffffffffffffffffffffffffffff16600c836040518082805190602001908083835b6020831015156141575780518252602082019150602081019050602083039250614132565b6001836020036101000a0380198251168184511680821785525050505050509050019150509081526020016040518091039020600b0160049054906101000a900473ffffffffffffffffffffffffffffffffffffffff1673ffffffffffffffffffffffffffffffffffffffff161415156141d057600080fd5b600c826040518082805190602001908083835b60208310151561420857805182526020820191506020810190506020830392506141e3565b6001836020036101000a0380198251168184511680821785525050505050509050019150509081526020016040518091039020600d0160009054906101000a900460ff16151561425757600080fd5b600060105411151561426857600080fd5b6000600c836040518082805190602001908083835b6020831015156142a2578051825260208201915060208101905060208303925061427d565b6001836020036101000a0380198251168184511680821785525050505050509050019150509081526020016040518091039020600c01819055506000600c836040518082805190602001908083835b60208310151561431657805182526020820191506020810190506020830392506142f1565b6001836020036101000a0380198251168184511680821785525050505050509050019150509081526020016040518091039020600d0160006101000a81548160ff02191690831515021790555061437182600f601054614386565b60016010600082825403925050819055505050565b600080905060018214156143c3578280548015156143a057fe5b6001900381819060005260206000200160006143bc91906158e4565b90556144d0565b60008090505b600183038110156144ce57848051906020012084828154811015156143ea57fe5b90600052602060002001604051808280546001816001161561010002031660029004801561444f5780601f1061442d57610100808354040283529182019161444f565b820191906000526020600020905b81548152906001019060200180831161443b575b50509150506040518091039020141561446757600191505b81156144c157836001820181548110151561447e57fe5b90600052602060002001848281548110151561449657fe5b9060005260206000200190805460018160011615610100020316600290046144bf92919061592c565b505b80806001019150506143c9565b505b50505050565b6060600082141561451e576040805190810160405280600181526020017f3000000000000000000000000000000000000000000000000000000000000000815250905061462a565b600082905060005b60008214151561454c578080600101915050600a8281151561454457fe5b049150614526565b6060816040519080825280601f01601f1916602001820160405280156145815781602001600182028038833980820191505090505b50905060006001830390505b60008614151561462257600a868115156145a357fe5b066030017f0100000000000000000000000000000000000000000000000000000000000000028282806001900393508151811015156145de57fe5b9060200101907effffffffffffffffffffffffffffffffffffffffffffffffffffffffffffff1916908160001a905350600a8681151561461a57fe5b04955061458d565b819450505050505b919050565b60606146396159b3565b610240604051908101604052806146538660006006614c52565b81526020016146658660066008614c52565b8152602001614677866008600e614c52565b815260200161468986600e6010614c52565b815260200161469b8660106012614c52565b81526020016146ad8660126018614c52565b81526020016146bf866018601e614c52565b81526020016146d186601e6020614c52565b81526020016146e38660206026614c52565b81526020016146f5866026602c614c52565b815260200161470786602c602e614c52565b815260200161472161471c87602e6030614c52565b614eb2565b60ff16815260200161473e6147398760306032614c52565b614eb2565b60ff16815260200161475b6147568760326034614c52565b614eb2565b60ff1681526020016147786147738760346036614c52565b614eb2565b60ff1681526020018473ffffffffffffffffffffffffffffffffffffffff1681526020016000815260200160001515815250905080600c856040518082805190602001908083835b6020831015156147e557805182526020820191506020810190506020830392506147c0565b6001836020036101000a03801982511681845116808217855250505050505090500191505090815260200160405180910390206000820151816000019080519060200190614834929190615a63565b506020820151816001019080519060200190614851929190615a63565b50604082015181600201908051906020019061486e929190615a63565b50606082015181600301908051906020019061488b929190615a63565b5060808201518160040190805190602001906148a8929190615a63565b5060a08201518160050190805190602001906148c5929190615a63565b5060c08201518160060190805190602001906148e2929190615a63565b5060e08201518160070190805190602001906148ff929190615a63565b5061010082015181600801908051906020019061491d929190615a63565b5061012082015181600901908051906020019061493b929190615a63565b5061014082015181600a019080519060200190614959929190615a63565b5061016082015181600b0160006101000a81548160ff021916908360ff16021790555061018082015181600b0160016101000a81548160ff021916908360ff1602179055506101a082015181600b0160026101000a81548160ff021916908360ff1602179055506101c082015181600b0160036101000a81548160ff021916908360ff1602179055506101e082015181600b0160046101000a81548173ffffffffffffffffffffffffffffffffffffffff021916908373ffffffffffffffffffffffffffffffffffffffff16021790555061020082015181600c015561022082015181600d0160006101000a81548160ff021916908315150217905550905050600d60008473ffffffffffffffffffffffffffffffffffffffff1673ffffffffffffffffffffffffffffffffffffffff168152602001908152602001600020849080600181540180825580915050906001820390600052602060002001600090919290919091509080519060200190614ad3929190615864565b5050600e60008473ffffffffffffffffffffffffffffffffffffffff1673ffffffffffffffffffffffffffffffffffffffff168152602001908152602001600020600081819054906101000a900460ff168092919060010191906101000a81548160ff021916908360ff160217905550508391505092915050565b6000614b5982614096565b1515614b9a576040517f08c379a0000000000000000000000000000000000000000000000000000000008152600401614b91906167be565b60405180910390fd5b6000614ba583612a8b565b90508073ffffffffffffffffffffffffffffffffffffffff168473ffffffffffffffffffffffffffffffffffffffff161480614c1457508373ffffffffffffffffffffffffffffffffffffffff16614bfc84610bb4565b73ffffffffffffffffffffffffffffffffffffffff16145b80614c255750614c248185613ddf565b5b91505092915050565b614c39838383615262565b614c438382615495565b614c4d8282615639565b505050565b60608084905060608484036040519080825280601f01601f191660200182016040528015614c8f5781602001600182028038833980820191505090505b50905060008590505b84811015614d46578281815181101515614cae57fe5b9060200101517f010000000000000000000000000000000000000000000000000000000000000090047f01000000000000000000000000000000000000000000000000000000000000000282878303815181101515614d0957fe5b9060200101907effffffffffffffffffffffffffffffffffffffffffffffffffffffffffffff1916908160001a9053508080600101915050614c98565b5080925050509392505050565b600081600001549050919050565b6000614d828473ffffffffffffffffffffffffffffffffffffffff16615700565b1515614d915760019050614eaa565b60008473ffffffffffffffffffffffffffffffffffffffff1663150b7a02338887876040518563ffffffff167c0100000000000000000000000000000000000000000000000000000000028152600401614dee9493929190616613565b602060405180830381600087803b158015614e0857600080fd5b505af1158015614e1c573d6000803e3d6000fd5b505050506040513d601f19601f82011682018060405250614e409190810190615e14565b905063150b7a027c0100000000000000000000000000000000000000000000000000000000027bffffffffffffffffffffffffffffffffffffffffffffffffffffffff1916817bffffffffffffffffffffffffffffffffffffffffffffffffffffffff1916149150505b949350505050565b600060206040519081016040528060008152508051906020012082805190602001201415614ee3576000905061525d565b600080905060397f010000000000000000000000000000000000000000000000000000000000000002836000815181101515614f1b57fe5b9060200101517f010000000000000000000000000000000000000000000000000000000000000090047f0100000000000000000000000000000000000000000000000000000000000000027effffffffffffffffffffffffffffffffffffffffffffffffffffffffffffff191611151561501b5760106030846000815181101515614fa257fe5b9060200101517f010000000000000000000000000000000000000000000000000000000000000090047f0100000000000000000000000000000000000000000000000000000000000000027f010000000000000000000000000000000000000000000000000000000000000090040302810190506150a3565b6010603184600081518110151561502e57fe5b9060200101517f010000000000000000000000000000000000000000000000000000000000000090047f0100000000000000000000000000000000000000000000000000000000000000027f010000000000000000000000000000000000000000000000000000000000000090040302810190505b60397f0100000000000000000000000000000000000000000000000000000000000000028360008151811015156150d657fe5b9060200101517f010000000000000000000000000000000000000000000000000000000000000090047f0100000000000000000000000000000000000000000000000000000000000000027effffffffffffffffffffffffffffffffffffffffffffffffffffffffffffff19161115156151d357603083600181518110151561515b57fe5b9060200101517f010000000000000000000000000000000000000000000000000000000000000090047f0100000000000000000000000000000000000000000000000000000000000000027f010000000000000000000000000000000000000000000000000000000000000090040381019050615258565b60318360018151811015156151e457fe5b9060200101517f010000000000000000000000000000000000000000000000000000000000000090047f0100000000000000000000000000000000000000000000000000000000000000027f0100000000000000000000000000000000000000000000000000000000000000900403810190505b809150505b919050565b8273ffffffffffffffffffffffffffffffffffffffff1661528282612a8b565b73ffffffffffffffffffffffffffffffffffffffff161415156152da576040517f08c379a00000000000000000000000000000000000000000000000000000000081526004016152d19061685e565b60405180910390fd5b600073ffffffffffffffffffffffffffffffffffffffff168273ffffffffffffffffffffffffffffffffffffffff161415151561534c576040517f08c379a00000000000000000000000000000000000000000000000000000000081526004016153439061675e565b60405180910390fd5b61535581615713565b61539c600360008573ffffffffffffffffffffffffffffffffffffffff1673ffffffffffffffffffffffffffffffffffffffff1681526020019081526020016000206157d3565b6153e3600360008473ffffffffffffffffffffffffffffffffffffffff1673ffffffffffffffffffffffffffffffffffffffff1681526020019081526020016000206157f6565b816001600083815260200190815260200160002060006101000a81548173ffffffffffffffffffffffffffffffffffffffff021916908373ffffffffffffffffffffffffffffffffffffffff160217905550808273ffffffffffffffffffffffffffffffffffffffff168473ffffffffffffffffffffffffffffffffffffffff167fddf252ad1be2c89b69c2b068fc378daa952ba7f163c4a11628f55a4df523b3ef60405160405180910390a4505050565b60006154ed6001600560008673ffffffffffffffffffffffffffffffffffffffff1673ffffffffffffffffffffffffffffffffffffffff1681526020019081526020016000208054905061580c90919063ffffffff16565b905060006006600084815260200190815260200160002054905081811415156155e0576000600560008673ffffffffffffffffffffffffffffffffffffffff1673ffffffffffffffffffffffffffffffffffffffff1681526020019081526020016000208381548110151561555e57fe5b9060005260206000200154905080600560008773ffffffffffffffffffffffffffffffffffffffff1673ffffffffffffffffffffffffffffffffffffffff168152602001908152602001600020838154811015156155b857fe5b9060005260206000200181905550816006600083815260200190815260200160002081905550505b600560008573ffffffffffffffffffffffffffffffffffffffff1673ffffffffffffffffffffffffffffffffffffffff1681526020019081526020016000208054809190600190036156329190615ae3565b5050505050565b600560008373ffffffffffffffffffffffffffffffffffffffff1673ffffffffffffffffffffffffffffffffffffffff168152602001908152602001600020805490506006600083815260200190815260200160002081905550600560008373ffffffffffffffffffffffffffffffffffffffff1673ffffffffffffffffffffffffffffffffffffffff1681526020019081526020016000208190806001815401808255809150509060018203906000526020600020016000909192909190915055505050565b600080823b905060008111915050919050565b600073ffffffffffffffffffffffffffffffffffffffff166002600083815260200190815260200160002060009054906101000a900473ffffffffffffffffffffffffffffffffffffffff1673ffffffffffffffffffffffffffffffffffffffff161415156157d05760006002600083815260200190815260200160002060006101000a81548173ffffffffffffffffffffffffffffffffffffffff021916908373ffffffffffffffffffffffffffffffffffffffff1602179055505b50565b6157eb6001826000015461580c90919063ffffffff16565b816000018190555050565b6001816000016000828254019250508190555050565b6000828211151515615853576040517f08c379a000000000000000000000000000000000000000000000000000000000815260040161584a9061679e565b60405180910390fd5b600082840390508091505092915050565b828054600181600116156101000203166002900490600052602060002090601f016020900481019282601f106158a557805160ff19168380011785556158d3565b828001600101855582156158d3579182015b828111156158d25782518255916020019190600101906158b7565b5b5090506158e09190615b0f565b5090565b50805460018160011615610100020316600290046000825580601f1061590a5750615929565b601f0160209004906000526020600020908101906159289190615b0f565b5b50565b828054600181600116156101000203166002900490600052602060002090601f016020900481019282601f1061596557805485556159a2565b828001600101855582156159a257600052602060002091601f016020900482015b828111156159a1578254825591600101919060010190615986565b5b5090506159af9190615b0f565b5090565b610240604051908101604052806060815260200160608152602001606081526020016060815260200160608152602001606081526020016060815260200160608152602001606081526020016060815260200160608152602001600060ff168152602001600060ff168152602001600060ff168152602001600060ff168152602001600073ffffffffffffffffffffffffffffffffffffffff168152602001600081526020016000151581525090565b828054600181600116156101000203166002900490600052602060002090601f016020900481019282601f10615aa457805160ff1916838001178555615ad2565b82800160010185558215615ad2579182015b82811115615ad1578251825591602001919060010190615ab6565b5b509050615adf9190615b0f565b5090565b815481835581811115615b0a57818360005260206000209182019101615b099190615b0f565b5b505050565b615b3191905b80821115615b2d576000816000905550600101615b15565b5090565b90565b6000615b408235616a66565b905092915050565b6000615b548235616a78565b905092915050565b6000615b688235616a84565b905092915050565b6000615b7c8251616a84565b905092915050565b600082601f8301121515615b9757600080fd5b8135615baa615ba582616961565b616934565b91508082526020830160208301858383011115615bc657600080fd5b615bd1838284616af0565b50505092915050565b600082601f8301121515615bed57600080fd5b8135615c00615bfb8261698d565b616934565b91508082526020830160208301858383011115615c1c57600080fd5b615c27838284616af0565b50505092915050565b6000615c3c8235616ab0565b905092915050565b600060208284031215615c5657600080fd5b6000615c6484828501615b34565b91505092915050565b60008060408385031215615c8057600080fd5b6000615c8e85828601615b34565b9250506020615c9f85828601615b34565b9150509250929050565b600080600060608486031215615cbe57600080fd5b6000615ccc86828701615b34565b9350506020615cdd86828701615b34565b9250506040615cee86828701615c30565b9150509250925092565b60008060008060808587031215615d0e57600080fd5b6000615d1c87828801615b34565b9450506020615d2d87828801615b34565b9350506040615d3e87828801615c30565b925050606085013567ffffffffffffffff811115615d5b57600080fd5b615d6787828801615b84565b91505092959194509250565b60008060408385031215615d8657600080fd5b6000615d9485828601615b34565b9250506020615da585828601615b48565b9150509250929050565b60008060408385031215615dc257600080fd5b6000615dd085828601615b34565b9250506020615de185828601615c30565b9150509250929050565b600060208284031215615dfd57600080fd5b6000615e0b84828501615b5c565b91505092915050565b600060208284031215615e2657600080fd5b6000615e3484828501615b70565b91505092915050565b600060208284031215615e4f57600080fd5b600082013567ffffffffffffffff811115615e6957600080fd5b615e7584828501615bda565b91505092915050565b60008060408385031215615e9157600080fd5b600083013567ffffffffffffffff811115615eab57600080fd5b615eb785828601615bda565b925050602083013567ffffffffffffffff811115615ed457600080fd5b615ee085828601615bda565b9150509250929050565b60008060408385031215615efd57600080fd5b600083013567ffffffffffffffff811115615f1757600080fd5b615f2385828601615bda565b9250506020615f3485828601615c30565b9150509250929050565b600060208284031215615f5057600080fd5b6000615f5e84828501615c30565b91505092915050565b615f7081616aba565b82525050565b615f7f81616a11565b82525050565b615f8e816169ff565b82525050565b6000615f9f826169c6565b80845260208401935083602082028501615fb8856169b9565b60005b84811015615ff1578383038852615fd383835161607d565b9250615fde826169f2565b9150602088019750600181019050615fbb565b508196508694505050505092915050565b61600b81616a23565b82525050565b600061601c826169d1565b808452616030816020860160208601616aff565b61603981616b32565b602085010191505092915050565b6000616052826169e7565b808452616066816020860160208601616aff565b61606f81616b32565b602085010191505092915050565b6000616088826169dc565b80845261609c816020860160208601616aff565b6160a581616b32565b602085010191505092915050565b6000602b82527f455243373231456e756d657261626c653a206f776e657220696e646578206f7560208301527f74206f6620626f756e64730000000000000000000000000000000000000000006040830152606082019050919050565b6000603282527f4552433732313a207472616e7366657220746f206e6f6e20455243373231526560208301527f63656976657220696d706c656d656e74657200000000000000000000000000006040830152606082019050919050565b6000602482527f4552433732313a207472616e7366657220746f20746865207a65726f2061646460208301527f72657373000000000000000000000000000000000000000000000000000000006040830152606082019050919050565b6000601982527f4552433732313a20617070726f766520746f2063616c6c6572000000000000006020830152604082019050919050565b6000601e82527f536166654d6174683a207375627472616374696f6e206f766572666c6f7700006020830152604082019050919050565b6000602c82527f4552433732313a206f70657261746f7220717565727920666f72206e6f6e657860208301527f697374656e7420746f6b656e00000000000000000000000000000000000000006040830152606082019050919050565b6000603882527f4552433732313a20617070726f76652063616c6c6572206973206e6f74206f7760208301527f6e6572206e6f7220617070726f76656420666f7220616c6c00000000000000006040830152606082019050919050565b6000602a82527f4552433732313a2062616c616e636520717565727920666f7220746865207a6560208301527f726f2061646472657373000000000000000000000000000000000000000000006040830152606082019050919050565b6000602982527f4552433732313a206f776e657220717565727920666f72206e6f6e657869737460208301527f656e7420746f6b656e00000000000000000000000000000000000000000000006040830152606082019050919050565b6000602c82527f4552433732313a20617070726f76656420717565727920666f72206e6f6e657860208301527f697374656e7420746f6b656e00000000000000000000000000000000000000006040830152606082019050919050565b6000602982527f4552433732313a207472616e73666572206f6620746f6b656e2074686174206960208301527f73206e6f74206f776e00000000000000000000000000000000000000000000006040830152606082019050919050565b6000602f82527f4552433732314d657461646174613a2055524920717565727920666f72206e6f60208301527f6e6578697374656e7420746f6b656e00000000000000000000000000000000006040830152606082019050919050565b6000602182527f4552433732313a20617070726f76616c20746f2063757272656e74206f776e6560208301527f72000000000000000000000000000000000000000000000000000000000000006040830152606082019050919050565b6000603182527f4552433732313a207472616e736665722063616c6c6572206973206e6f74206f60208301527f776e6572206e6f7220617070726f7665640000000000000000000000000000006040830152606082019050919050565b6000602c82527f455243373231456e756d657261626c653a20676c6f62616c20696e646578206f60208301527f7574206f6620626f756e647300000000000000000000000000000000000000006040830152606082019050919050565b6165e381616a4f565b82525050565b6165f281616a59565b82525050565b600060208201905061660d6000830184615f85565b92915050565b60006080820190506166286000830187615f67565b6166356020830186615f85565b61664260408301856165da565b81810360608301526166548184616011565b905095945050505050565b600060408201905081810360008301526166798185615f94565b905061668860208301846165e9565b9392505050565b60006020820190506166a46000830184616002565b92915050565b600060208201905081810360008301526166c4818461607d565b905092915050565b600060208201905081810360008301526166e68184616047565b905092915050565b600060408201905081810360008301526167088185616047565b90506167176020830184615f76565b9392505050565b60006020820190508181036000830152616737816160b3565b9050919050565b6000602082019050818103600083015261675781616110565b9050919050565b600060208201905081810360008301526167778161616d565b9050919050565b60006020820190508181036000830152616797816161ca565b9050919050565b600060208201905081810360008301526167b781616201565b9050919050565b600060208201905081810360008301526167d781616238565b9050919050565b600060208201905081810360008301526167f781616295565b9050919050565b60006020820190508181036000830152616817816162f2565b9050919050565b600060208201905081810360008301526168378161634f565b9050919050565b60006020820190508181036000830152616857816163ac565b9050919050565b6000602082019050818103600083015261687781616409565b9050919050565b6000602082019050818103600083015261689781616466565b9050919050565b600060208201905081810360008301526168b7816164c3565b9050919050565b600060208201905081810360008301526168d781616520565b9050919050565b600060208201905081810360008301526168f78161657d565b9050919050565b600060208201905061691360008301846165da565b92915050565b600060208201905061692e60008301846165e9565b92915050565b6000604051905081810181811067ffffffffffffffff8211171561695757600080fd5b8060405250919050565b600067ffffffffffffffff82111561697857600080fd5b601f19601f8301169050602081019050919050565b600067ffffffffffffffff8211156169a457600080fd5b601f19601f8301169050602081019050919050565b6000602082019050919050565b600081519050919050565b600081519050919050565b600081519050919050565b600081519050919050565b6000602082019050919050565b6000616a0a82616a2f565b9050919050565b6000616a1c82616a2f565b9050919050565b60008115159050919050565b600073ffffffffffffffffffffffffffffffffffffffff82169050919050565b6000819050919050565b600060ff82169050919050565b6000616a7182616a2f565b9050919050565b60008115159050919050565b60007fffffffff0000000000000000000000000000000000000000000000000000000082169050919050565b6000819050919050565b6000616ac582616acc565b9050919050565b6000616ad782616ade565b9050919050565b6000616ae982616a2f565b9050919050565b82818337600083830152505050565b60005b83811015616b1d578082015181840152602081019050616b02565b83811115616b2c576000848401525b50505050565b6000601f19601f830116905091905056fea265627a7a72305820b2eed061bd6c2e5504a26d279c65c9e4f90927adc594c7db88e9b999f94b40ed6c6578706572696d656e74616cf50037",
  "source": "pragma solidity ^0.5.0;\npragma experimental ABIEncoderV2;\n\nimport \"./ERC721Full.sol\";\n\ncontract Pisi is ERC721Full {\n    // string[] public colors;\n    // mapping(string => bool) _colorExists;\n\n    struct PisiAttributes {\n        string eyeColor;\n        string eyeSize;\n        \n        string headColor;\n        string headSize;\n        \n        string beardSize;\n        \n        string tailColor;\n        string tailAccentColor;\n        string tailSize;\n        \n        string bodyColor;\n        string bodyAccentColor;\n\n        string stripeType;\n        \n        uint8 hungerness;\n        uint8 fragility;\n        uint8 fertility;\n        uint8 appeal;\n\n        address payable owner;\n        uint256 price;\n        bool onSale;\n    }\n    \n    mapping(string => PisiAttributes) _pisiCollection;\n    mapping(address => string[]) _personalCollection;\n    mapping(address => uint8) _personalCollectionSize;\n\n    string[] public _pisiHashesToSell;\n    uint256 public onSaleCount;\n\n    constructor() ERC721Full(\"Pisi\", \"PISI\") public {\n\n    }\n\n    function mint() public returns (string memory) {\n        uint256 rand = uint256(keccak256(abi.encodePacked(block.timestamp, block.difficulty, msg.sender)));\n\n        return decodeAttributes(uint2str(rand), msg.sender);\n    }\n\n    function decodeAttributes(string memory hashedAttr, address payable owner) internal returns (string memory){\n        PisiAttributes memory pa = PisiAttributes(\n            getNumberBetween(hashedAttr, 0, 6), // eyeColor, \n            getNumberBetween(hashedAttr, 6, 8), // eyeSize, \n            \n            getNumberBetween(hashedAttr, 8, 14), // headColor, \n            getNumberBetween(hashedAttr, 14, 16), // headSize, \n            \n            getNumberBetween(hashedAttr, 16, 18), // beardSize, *****\n            \n            getNumberBetween(hashedAttr, 18, 24), // tailColor, \n            getNumberBetween(hashedAttr, 24, 30), // tailAccentColor, *****\n            getNumberBetween(hashedAttr, 30, 32), // tailSize, \n            \n            getNumberBetween(hashedAttr, 32, 38), // bodyColor, \n            getNumberBetween(hashedAttr, 38, 44), // bodyAccentColor, \n    \n            getNumberBetween(hashedAttr, 44, 46), // stripeType, \n\n            str2Hexuint(getNumberBetween(hashedAttr, 46, 48)), // hungerness, \n            str2Hexuint(getNumberBetween(hashedAttr, 48, 50)), // fragility, \n            str2Hexuint(getNumberBetween(hashedAttr, 50, 52)), // fertility, \n            str2Hexuint(getNumberBetween(hashedAttr, 52, 54)), // appeal\n\n            owner,\n            0,\n            false\n        );\n\n        _pisiCollection[hashedAttr] = pa;\n        _personalCollection[owner].push(hashedAttr);\n        _personalCollectionSize[owner]++;\n\n        return hashedAttr;\n    }\n\n    function testAttributes(string memory hashedAttr) public returns (string memory) {\n        address(this).delegatecall(abi.encodeWithSignature(\"decodeAttributes(string, address payable)\", hashedAttr, msg.sender));\n\n        return decodeAttributes(hashedAttr, msg.sender);\n    }\n\n    function putToSale(string memory pisiHash, uint256 price) public {\n        require(_pisiCollection[pisiHash].owner == msg.sender);\n\n        _pisiCollection[pisiHash].price = price;\n        _pisiCollection[pisiHash].onSale = true;\n        onSaleCount += 1;\n        \n        _pisiHashesToSell.push(pisiHash);\n    }\n\n    function putDownFromSale(string memory pisiHash) public {\n        require(_pisiCollection[pisiHash].owner == msg.sender);\n\n        removeElement(pisiHash, msg.sender);\n    }\n\n    function transferPisi(string memory pisiHash) public payable {\n        require(_pisiCollection[pisiHash].price <= msg.value);\n        require(_pisiCollection[pisiHash].onSale == true);\n\n        _pisiCollection[pisiHash].owner.transfer(_pisiCollection[pisiHash].price);\n\n        address oldOwner = _pisiCollection[pisiHash].owner;\n\n        _pisiCollection[pisiHash].owner = msg.sender;\n\n        removeElement(pisiHash, msg.sender);\n\n        removeElementFromArray(pisiHash, _personalCollection[oldOwner], _personalCollectionSize[oldOwner]);\n        _personalCollectionSize[oldOwner]--;\n\n        _personalCollection[msg.sender].push(pisiHash);\n        _personalCollectionSize[msg.sender]++;\n    }\n\n    function breed(string memory pisiHash1, string memory pisiHash2) public returns (string memory) {\n        require(_pisiCollection[pisiHash1].owner == msg.sender);\n        require(_pisiCollection[pisiHash2].owner == msg.sender);\n        require(_pisiCollection[pisiHash1].appeal > 0 && _pisiCollection[pisiHash2].appeal > 0);\n\n        uint8 rand = uint8(uint256(keccak256(abi.encodePacked(block.timestamp, _pisiCollection[pisiHash1].fertility, _pisiCollection[pisiHash2].fertility))) % 256);\n\n        require(uint16(rand) < uint16(_pisiCollection[pisiHash1].appeal) + uint16(_pisiCollection[pisiHash2].appeal));\n\n        if (_pisiCollection[pisiHash1].fertility > _pisiCollection[pisiHash2].fertility && _pisiCollection[pisiHash1].appeal > _pisiCollection[pisiHash2].appeal) {\n            return decodeAttributes(pisiHash1, msg.sender);\n        }else if(_pisiCollection[pisiHash1].fertility > _pisiCollection[pisiHash2].fertility && _pisiCollection[pisiHash1].appeal < _pisiCollection[pisiHash2].appeal) {\n            return decodeAttributes(string(abi.encodePacked(getNumberBetween(pisiHash1, 0, 30), getNumberBetween(pisiHash2, 30, 63))), msg.sender);\n        } else if(_pisiCollection[pisiHash1].fertility < _pisiCollection[pisiHash2].fertility && _pisiCollection[pisiHash1].appeal > _pisiCollection[pisiHash2].appeal) {\n            return decodeAttributes(string(abi.encodePacked(getNumberBetween(pisiHash1, 30, 63), getNumberBetween(pisiHash2, 0, 30))), msg.sender);\n        } else {\n            return decodeAttributes(pisiHash2, msg.sender);\n        }\n    }\n\n    function gatherPersonalPisis() public view returns (string[] memory, uint8) {\n        return (_personalCollection[msg.sender], _personalCollectionSize[msg.sender]);\n    }\n\n    // HELPER FUNCTIONS\n\n    function removeElement(string memory pisiHashToRemove, address payable _owner) internal {\n        require(_pisiCollection[pisiHashToRemove].owner == _owner);\n        require(_pisiCollection[pisiHashToRemove].onSale);\n        require(onSaleCount > 0);\n        \n        _pisiCollection[pisiHashToRemove].price = 0;\n        _pisiCollection[pisiHashToRemove].onSale = false;\n\n        removeElementFromArray(pisiHashToRemove, _pisiHashesToSell, onSaleCount);\n\n        onSaleCount -= 1;\n    }\n\n    function removeElementFromArray(string memory toRemove, string[] storage removeFrom, uint count) internal {\n        bool move = false;\n\n        if(count == 1){\n            removeFrom.pop();\n        } else{\n            for (uint i = 0; i < count - 1; i++){\n                if(keccak256(bytes(removeFrom[i])) == keccak256(bytes(toRemove))){\n                    move = true;\n                }\n\n                if(move){\n                    removeFrom[i] = removeFrom[i + 1];\n                }\n            }\n        }\n    }\n    \n    function uint2str(uint _i) internal pure returns (string memory _uintAsString) {\n        if (_i == 0) {\n            return \"0\";\n        }\n        uint j = _i;\n        uint len;\n        while (j != 0) {\n            len++;\n            j /= 10;\n        }\n        bytes memory bstr = new bytes(len);\n        uint k = len - 1;\n        while (_i != 0) {\n            bstr[k--] = byte(uint8(48 + _i % 10));\n            _i /= 10;\n        }\n        return string(bstr);\n    }\n\n    function str2Hexuint(string memory _input) internal pure returns (uint8) {\n        if(keccak256(bytes(_input)) == keccak256(bytes(\"\"))) {\n            return 0;\n        }\n\n        uint8 res = 0;\n\n        if(bytes(_input)[0] <= 0x39){\n            res += (uint8(bytes(_input)[0]) - 0x30) * 16;\n        }else {\n            res += (uint8(bytes(_input)[0]) - 0x31) * 16;\n        }\n\n        if(bytes(_input)[0] <= 0x39){\n            res += (uint8(bytes(_input)[1]) - 0x30);\n        }else {\n            res += (uint8(bytes(_input)[1]) - 0x31);\n        }\n\n        return res;\n    }\n\n    // function getBodyAttr(string memory pisiHash, uint8 attCode) public view returns(string memory){\n    //     require(attCode < 7);\n\n    //     if(attCode == 0){ // eyeColor;\n    //         return _pisiCollection[pisiHash].eyeColor;\n    //     } else if(attCode == 1){ // eyeSize\n    //         return _pisiCollection[pisiHash].eyeSize;\n    //     } else if(attCode == 2){ // headColor\n    //         return _pisiCollection[pisiHash].headColor;\n    //     } else if(attCode == 3){ // headSize\n    //         return _pisiCollection[pisiHash].headSize;\n    //     } else if(attCode == 4){ // beardSize\n    //         return _pisiCollection[pisiHash].beardSize;\n    //     } else if(attCode == 5){ // tailColor\n    //         return _pisiCollection[pisiHash].tailColor;\n    //     } else if(attCode == 6){ // tailAccentColor\n    //         return _pisiCollection[pisiHash].tailAccentColor;\n    //     } else if(attCode == 6){ // tailSize\n    //         return _pisiCollection[pisiHash].tailSize;\n    //     } else if(attCode == 6){ // bodyColor\n    //         return _pisiCollection[pisiHash].bodyColor;\n    //     } else if(attCode == 6){ // bodyAccentColor\n    //         return _pisiCollection[pisiHash].bodyAccentColor;\n    //     } else if(attCode == 6){ // stripeType\n    //         return _pisiCollection[pisiHash].stripeType;\n    //     }else {\n    //         return \"\";\n    //     }\n    // }\n\n    // function getCharAttr(string memory pisiHash, uint8 attCode) public view returns(uint8){\n    //     require(_pisiCollection[pisiHash].owner <= msg.sender);\n    //     require(attCode < 4);\n\n    //     if(attCode == 0){ // hungerness;\n    //         return _pisiCollection[pisiHash].hungerness;\n    //     } else if(attCode == 1){ // fragility\n    //         return _pisiCollection[pisiHash].fragility;\n    //     } else if(attCode == 2){ // fertility\n    //         return _pisiCollection[pisiHash].fertility;\n    //     } else if(attCode == 3){ // appeal\n    //         return _pisiCollection[pisiHash].appeal;\n    //     } else {\n    //         return 0;\n    //     }\n    // }\n\n    function getEyeColor(string memory pisiHash) public view returns(string memory) {\n        return _pisiCollection[pisiHash].eyeColor;\n    }\n\n    function getEyeSize(string memory pisiHash) public view returns(string memory) {\n        return _pisiCollection[pisiHash].eyeSize;\n    }\n\n    function getHeadColor(string memory pisiHash) public view returns(string memory) {\n        return _pisiCollection[pisiHash].headColor;\n    }\n\n    function getHeadSize(string memory pisiHash) public view returns(string memory) {\n        return _pisiCollection[pisiHash].headSize;\n    }\n\n    function getBeardSize(string memory pisiHash) public view returns(string memory) {\n        return _pisiCollection[pisiHash].beardSize;\n    }\n\n    function getTailColor(string memory pisiHash) public view returns(string memory) {\n        return _pisiCollection[pisiHash].tailColor;\n    }\n\n    function getTailAccentColor(string memory pisiHash) public view returns(string memory) {\n        return _pisiCollection[pisiHash].tailAccentColor;\n    }\n\n    function getTailSize(string memory pisiHash) public view returns(string memory) {\n        return _pisiCollection[pisiHash].tailSize;\n    }\n\n    function getBodyColor(string memory pisiHash) public view returns(string memory) {\n        return _pisiCollection[pisiHash].bodyColor;\n    }\n\n    function getBodyAccentColor(string memory pisiHash) public view returns(string memory) {\n        return _pisiCollection[pisiHash].bodyAccentColor;\n    }\n\n    function getStripeType(string memory pisiHash) public view returns(string memory) {\n        return _pisiCollection[pisiHash].stripeType;\n    }\n\n    function getHungerness(string memory pisiHash) public view returns(uint8) {\n        require(_pisiCollection[pisiHash].owner <= msg.sender);\n        return _pisiCollection[pisiHash].hungerness;\n    }\n\n    function getFragility(string memory pisiHash) public view returns(uint8) {\n        require(_pisiCollection[pisiHash].owner <= msg.sender);\n\n        return _pisiCollection[pisiHash].fragility;\n    }\n\n    function getFertility(string memory pisiHash) public view returns(uint8) {\n        require(_pisiCollection[pisiHash].owner <= msg.sender);\n\n        return _pisiCollection[pisiHash].fertility;\n    }\n\n    function getAppeal(string memory pisiHash) public view returns(uint8) {\n        require(_pisiCollection[pisiHash].owner <= msg.sender);\n\n        return _pisiCollection[pisiHash].appeal;\n    }\n\n    function getOwner(string memory pisiHash) public view returns(address) {\n        return _pisiCollection[pisiHash].owner;\n    }\n\n    function getNumberBetween(string memory str, uint startIndex, uint endIndex) pure internal returns (string memory) {\n        bytes memory strBytes = bytes(str);\n        bytes memory result = new bytes(endIndex-startIndex);\n        for(uint i = startIndex; i < endIndex; i++) {\n            result[i-startIndex] = strBytes[i];\n        }\n        return string(result);\n    }\n}",
  "sourcePath": "D:/CryptoPissies/CryptoPissies/src/contracts/Pisi.sol",
  "compiler": {
    "name": "solc",
    "version": "0.5.0+commit.1d4f565a.Emscripten.clang"
  },
  "schemaVersion": "3.0.2",
  "updatedAt": "2021-05-18T16:09:08.562Z",
  "devdoc": {
    "methods": {
      "approve(address,uint256)": {
        "details": "Approves another address to transfer the given token ID The zero address indicates there is no approved address. There can only be one approved address per token at a given time. Can only be called by the token owner or an approved operator.",
        "params": {
          "to": "address to be approved for the given token ID",
          "tokenId": "uint256 ID of the token to be approved"
        }
      },
      "balanceOf(address)": {
        "details": "Gets the balance of the specified address.",
        "params": {
          "owner": "address to query the balance of"
        },
        "return": "uint256 representing the amount owned by the passed address"
      },
      "getApproved(uint256)": {
        "details": "Gets the approved address for a token ID, or zero if no address set Reverts if the token ID does not exist.",
        "params": {
          "tokenId": "uint256 ID of the token to query the approval of"
        },
        "return": "address currently approved for the given token ID"
      },
      "isApprovedForAll(address,address)": {
        "details": "Tells whether an operator is approved by a given owner.",
        "params": {
          "operator": "operator address which you want to query the approval of",
          "owner": "owner address which you want to query the approval of"
        },
        "return": "bool whether the given operator is approved by the given owner"
      },
      "name()": {
        "details": "Gets the token name.",
        "return": "string representing the token name"
      },
      "ownerOf(uint256)": {
        "details": "Gets the owner of the specified token ID.",
        "params": {
          "tokenId": "uint256 ID of the token to query the owner of"
        },
        "return": "address currently marked as the owner of the given token ID"
      },
      "safeTransferFrom(address,address,uint256)": {
        "details": "Safely transfers the ownership of a given token ID to another address If the target address is a contract, it must implement `onERC721Received`, which is called upon a safe transfer, and return the magic value `bytes4(keccak256(\"onERC721Received(address,address,uint256,bytes)\"))`; otherwise, the transfer is reverted. Requires the msg.sender to be the owner, approved, or operator",
        "params": {
          "from": "current owner of the token",
          "to": "address to receive the ownership of the given token ID",
          "tokenId": "uint256 ID of the token to be transferred"
        }
      },
      "safeTransferFrom(address,address,uint256,bytes)": {
        "details": "Safely transfers the ownership of a given token ID to another address If the target address is a contract, it must implement `onERC721Received`, which is called upon a safe transfer, and return the magic value `bytes4(keccak256(\"onERC721Received(address,address,uint256,bytes)\"))`; otherwise, the transfer is reverted. Requires the msg.sender to be the owner, approved, or operator",
        "params": {
          "_data": "bytes data to send along with a safe transfer check",
          "from": "current owner of the token",
          "to": "address to receive the ownership of the given token ID",
          "tokenId": "uint256 ID of the token to be transferred"
        }
      },
      "setApprovalForAll(address,bool)": {
        "details": "Sets or unsets the approval of a given operator An operator is allowed to transfer all tokens of the sender on their behalf.",
        "params": {
          "approved": "representing the status of the approval to be set",
          "to": "operator address to set the approval"
        }
      },
      "supportsInterface(bytes4)": {
        "details": "See `IERC165.supportsInterface`.     * Time complexity O(1), guaranteed to always use less than 30 000 gas."
      },
      "symbol()": {
        "details": "Gets the token symbol.",
        "return": "string representing the token symbol"
      },
      "tokenByIndex(uint256)": {
        "details": "Gets the token ID at a given index of all the tokens in this contract Reverts if the index is greater or equal to the total number of tokens.",
        "params": {
          "index": "uint256 representing the index to be accessed of the tokens list"
        },
        "return": "uint256 token ID at the given index of the tokens list"
      },
      "tokenOfOwnerByIndex(address,uint256)": {
        "details": "Gets the token ID at a given index of the tokens list of the requested owner.",
        "params": {
          "index": "uint256 representing the index to be accessed of the requested tokens list",
          "owner": "address owning the tokens list to be accessed"
        },
        "return": "uint256 token ID at the given index of the tokens list owned by the requested address"
      },
      "tokenURI(uint256)": {
        "details": "Returns an URI for a given token ID. Throws if the token ID does not exist. May return an empty string.",
        "params": {
          "tokenId": "uint256 ID of the token to query"
        }
      },
      "totalSupply()": {
        "details": "Gets the total amount of tokens stored by the contract.",
        "return": "uint256 representing the total amount of tokens"
      },
      "transferFrom(address,address,uint256)": {
        "details": "Transfers the ownership of a given token ID to another address. Usage of this method is discouraged, use `safeTransferFrom` whenever possible. Requires the msg.sender to be the owner, approved, or operator.",
        "params": {
          "from": "current owner of the token",
          "to": "address to receive the ownership of the given token ID",
          "tokenId": "uint256 ID of the token to be transferred"
        }
      }
    }
  },
  "userdoc": {
    "methods": {}
  }
}