{
  "contractName": "Pisi",
  "abi": [
    {
      "constant": true,
      "inputs": [
        {
          "name": "interfaceId",
          "type": "bytes4"
        }
      ],
      "name": "supportsInterface",
      "outputs": [
        {
          "name": "",
          "type": "bool"
        }
      ],
      "payable": false,
      "stateMutability": "view",
      "type": "function",
      "signature": "0x01ffc9a7"
    },
    {
      "constant": true,
      "inputs": [],
      "name": "name",
      "outputs": [
        {
          "name": "",
          "type": "string"
        }
      ],
      "payable": false,
      "stateMutability": "view",
      "type": "function",
      "signature": "0x06fdde03"
    },
    {
      "constant": true,
      "inputs": [
        {
          "name": "tokenId",
          "type": "uint256"
        }
      ],
      "name": "getApproved",
      "outputs": [
        {
          "name": "",
          "type": "address"
        }
      ],
      "payable": false,
      "stateMutability": "view",
      "type": "function",
      "signature": "0x081812fc"
    },
    {
      "constant": false,
      "inputs": [
        {
          "name": "to",
          "type": "address"
        },
        {
          "name": "tokenId",
          "type": "uint256"
        }
      ],
      "name": "approve",
      "outputs": [],
      "payable": false,
      "stateMutability": "nonpayable",
      "type": "function",
      "signature": "0x095ea7b3"
    },
    {
      "constant": true,
      "inputs": [],
      "name": "totalSupply",
      "outputs": [
        {
          "name": "",
          "type": "uint256"
        }
      ],
      "payable": false,
      "stateMutability": "view",
      "type": "function",
      "signature": "0x18160ddd"
    },
    {
      "constant": false,
      "inputs": [
        {
          "name": "from",
          "type": "address"
        },
        {
          "name": "to",
          "type": "address"
        },
        {
          "name": "tokenId",
          "type": "uint256"
        }
      ],
      "name": "transferFrom",
      "outputs": [],
      "payable": false,
      "stateMutability": "nonpayable",
      "type": "function",
      "signature": "0x23b872dd"
    },
    {
      "constant": true,
      "inputs": [
        {
          "name": "owner",
          "type": "address"
        },
        {
          "name": "index",
          "type": "uint256"
        }
      ],
      "name": "tokenOfOwnerByIndex",
      "outputs": [
        {
          "name": "",
          "type": "uint256"
        }
      ],
      "payable": false,
      "stateMutability": "view",
      "type": "function",
      "signature": "0x2f745c59"
    },
    {
      "constant": false,
      "inputs": [
        {
          "name": "from",
          "type": "address"
        },
        {
          "name": "to",
          "type": "address"
        },
        {
          "name": "tokenId",
          "type": "uint256"
        }
      ],
      "name": "safeTransferFrom",
      "outputs": [],
      "payable": false,
      "stateMutability": "nonpayable",
      "type": "function",
      "signature": "0x42842e0e"
    },
    {
      "constant": true,
      "inputs": [
        {
          "name": "index",
          "type": "uint256"
        }
      ],
      "name": "tokenByIndex",
      "outputs": [
        {
          "name": "",
          "type": "uint256"
        }
      ],
      "payable": false,
      "stateMutability": "view",
      "type": "function",
      "signature": "0x4f6ccce7"
    },
    {
      "constant": true,
      "inputs": [
        {
          "name": "tokenId",
          "type": "uint256"
        }
      ],
      "name": "ownerOf",
      "outputs": [
        {
          "name": "",
          "type": "address"
        }
      ],
      "payable": false,
      "stateMutability": "view",
      "type": "function",
      "signature": "0x6352211e"
    },
    {
      "constant": true,
      "inputs": [
        {
          "name": "owner",
          "type": "address"
        }
      ],
      "name": "balanceOf",
      "outputs": [
        {
          "name": "",
          "type": "uint256"
        }
      ],
      "payable": false,
      "stateMutability": "view",
      "type": "function",
      "signature": "0x70a08231"
    },
    {
      "constant": true,
      "inputs": [],
      "name": "symbol",
      "outputs": [
        {
          "name": "",
          "type": "string"
        }
      ],
      "payable": false,
      "stateMutability": "view",
      "type": "function",
      "signature": "0x95d89b41"
    },
    {
      "constant": false,
      "inputs": [
        {
          "name": "to",
          "type": "address"
        },
        {
          "name": "approved",
          "type": "bool"
        }
      ],
      "name": "setApprovalForAll",
      "outputs": [],
      "payable": false,
      "stateMutability": "nonpayable",
      "type": "function",
      "signature": "0xa22cb465"
    },
    {
      "constant": false,
      "inputs": [
        {
          "name": "from",
          "type": "address"
        },
        {
          "name": "to",
          "type": "address"
        },
        {
          "name": "tokenId",
          "type": "uint256"
        },
        {
          "name": "_data",
          "type": "bytes"
        }
      ],
      "name": "safeTransferFrom",
      "outputs": [],
      "payable": false,
      "stateMutability": "nonpayable",
      "type": "function",
      "signature": "0xb88d4fde"
    },
    {
      "constant": true,
      "inputs": [
        {
          "name": "",
          "type": "uint256"
        }
      ],
      "name": "colors",
      "outputs": [
        {
          "name": "",
          "type": "string"
        }
      ],
      "payable": false,
      "stateMutability": "view",
      "type": "function",
      "signature": "0xbd11f69d"
    },
    {
      "constant": true,
      "inputs": [
        {
          "name": "tokenId",
          "type": "uint256"
        }
      ],
      "name": "tokenURI",
      "outputs": [
        {
          "name": "",
          "type": "string"
        }
      ],
      "payable": false,
      "stateMutability": "view",
      "type": "function",
      "signature": "0xc87b56dd"
    },
    {
      "constant": true,
      "inputs": [
        {
          "name": "owner",
          "type": "address"
        },
        {
          "name": "operator",
          "type": "address"
        }
      ],
      "name": "isApprovedForAll",
      "outputs": [
        {
          "name": "",
          "type": "bool"
        }
      ],
      "payable": false,
      "stateMutability": "view",
      "type": "function",
      "signature": "0xe985e9c5"
    },
    {
      "inputs": [],
      "payable": false,
      "stateMutability": "nonpayable",
      "type": "constructor",
      "signature": "constructor"
    },
    {
      "anonymous": false,
      "inputs": [
        {
          "indexed": true,
          "name": "from",
          "type": "address"
        },
        {
          "indexed": true,
          "name": "to",
          "type": "address"
        },
        {
          "indexed": true,
          "name": "tokenId",
          "type": "uint256"
        }
      ],
      "name": "Transfer",
      "type": "event",
      "signature": "0xddf252ad1be2c89b69c2b068fc378daa952ba7f163c4a11628f55a4df523b3ef"
    },
    {
      "anonymous": false,
      "inputs": [
        {
          "indexed": true,
          "name": "owner",
          "type": "address"
        },
        {
          "indexed": true,
          "name": "approved",
          "type": "address"
        },
        {
          "indexed": true,
          "name": "tokenId",
          "type": "uint256"
        }
      ],
      "name": "Approval",
      "type": "event",
      "signature": "0x8c5be1e5ebec7d5bd14f71427d1e84f3dd0314c0f7b2291e5b200ac8c7c3b925"
    },
    {
      "anonymous": false,
      "inputs": [
        {
          "indexed": true,
          "name": "owner",
          "type": "address"
        },
        {
          "indexed": true,
          "name": "operator",
          "type": "address"
        },
        {
          "indexed": false,
          "name": "approved",
          "type": "bool"
        }
      ],
      "name": "ApprovalForAll",
      "type": "event",
      "signature": "0x17307eab39ab6107e8899845ad3d59bd9653f200f220920489ca2b5937696c31"
    },
    {
      "constant": false,
      "inputs": [
        {
          "name": "_color",
          "type": "string"
        }
      ],
      "name": "mint",
      "outputs": [],
      "payable": false,
      "stateMutability": "nonpayable",
      "type": "function",
      "signature": "0xd85d3d27"
    },
    {
      "constant": false,
      "inputs": [
        {
          "name": "hashedAttr",
          "type": "string"
        }
      ],
      "name": "decodeAttributes",
      "outputs": [
        {
          "name": "",
          "type": "string"
        }
      ],
      "payable": false,
      "stateMutability": "nonpayable",
      "type": "function",
      "signature": "0xc9994223"
    },
    {
      "constant": false,
      "inputs": [
        {
          "name": "eyeColor",
          "type": "uint24"
        },
        {
          "name": "eyeSize",
          "type": "uint8"
        },
        {
          "name": "headColor",
          "type": "uint24"
        },
        {
          "name": "headSize",
          "type": "uint8"
        },
        {
          "name": "beardSize",
          "type": "uint8"
        },
        {
          "name": "tailColor",
          "type": "uint24"
        },
        {
          "name": "tailAccentColor",
          "type": "uint24"
        },
        {
          "name": "tailSize",
          "type": "uint8"
        },
        {
          "name": "bodyColor",
          "type": "uint24"
        },
        {
          "name": "bodyAccentColor",
          "type": "uint24"
        },
        {
          "name": "stripeType",
          "type": "uint8"
        },
        {
          "name": "hungerness",
          "type": "uint8"
        },
        {
          "name": "fragility",
          "type": "uint8"
        },
        {
          "name": "fertility",
          "type": "uint8"
        },
        {
          "name": "appeal",
          "type": "uint8"
        }
      ],
      "name": "encodeAttributes",
      "outputs": [
        {
          "name": "",
          "type": "uint216"
        }
      ],
      "payable": false,
      "stateMutability": "nonpayable",
      "type": "function",
      "signature": "0x370e5caa"
    },
    {
      "constant": true,
      "inputs": [
        {
          "name": "pisiHash",
          "type": "string"
        }
      ],
      "name": "getEyeColor",
      "outputs": [
        {
          "name": "",
          "type": "string"
        }
      ],
      "payable": false,
      "stateMutability": "view",
      "type": "function",
      "signature": "0x5aee4330"
    },
    {
      "constant": true,
      "inputs": [
        {
          "name": "pisiHash",
          "type": "string"
        }
      ],
      "name": "getEyeSize",
      "outputs": [
        {
          "name": "",
          "type": "string"
        }
      ],
      "payable": false,
      "stateMutability": "view",
      "type": "function",
      "signature": "0xab76c013"
    },
    {
      "constant": true,
      "inputs": [
        {
          "name": "pisiHash",
          "type": "string"
        }
      ],
      "name": "getHeadColor",
      "outputs": [
        {
          "name": "",
          "type": "string"
        }
      ],
      "payable": false,
      "stateMutability": "view",
      "type": "function",
      "signature": "0x2f1c4ba3"
    },
    {
      "constant": true,
      "inputs": [
        {
          "name": "pisiHash",
          "type": "string"
        }
      ],
      "name": "getHeadSize",
      "outputs": [
        {
          "name": "",
          "type": "string"
        }
      ],
      "payable": false,
      "stateMutability": "view",
      "type": "function",
      "signature": "0x72eb3e09"
    },
    {
      "constant": true,
      "inputs": [
        {
          "name": "pisiHash",
          "type": "string"
        }
      ],
      "name": "getBeardSize",
      "outputs": [
        {
          "name": "",
          "type": "string"
        }
      ],
      "payable": false,
      "stateMutability": "view",
      "type": "function",
      "signature": "0x5d30e7e2"
    },
    {
      "constant": true,
      "inputs": [
        {
          "name": "pisiHash",
          "type": "string"
        }
      ],
      "name": "getTailColor",
      "outputs": [
        {
          "name": "",
          "type": "string"
        }
      ],
      "payable": false,
      "stateMutability": "view",
      "type": "function",
      "signature": "0xc5f4496a"
    },
    {
      "constant": true,
      "inputs": [
        {
          "name": "pisiHash",
          "type": "string"
        }
      ],
      "name": "getTailAccentColor",
      "outputs": [
        {
          "name": "",
          "type": "string"
        }
      ],
      "payable": false,
      "stateMutability": "view",
      "type": "function",
      "signature": "0xad267e72"
    },
    {
      "constant": true,
      "inputs": [
        {
          "name": "pisiHash",
          "type": "string"
        }
      ],
      "name": "getTailSize",
      "outputs": [
        {
          "name": "",
          "type": "string"
        }
      ],
      "payable": false,
      "stateMutability": "view",
      "type": "function",
      "signature": "0xe3395e9c"
    },
    {
      "constant": true,
      "inputs": [
        {
          "name": "pisiHash",
          "type": "string"
        }
      ],
      "name": "getBodyColor",
      "outputs": [
        {
          "name": "",
          "type": "string"
        }
      ],
      "payable": false,
      "stateMutability": "view",
      "type": "function",
      "signature": "0xa937f3db"
    },
    {
      "constant": true,
      "inputs": [
        {
          "name": "pisiHash",
          "type": "string"
        }
      ],
      "name": "getBodyAccentColor",
      "outputs": [
        {
          "name": "",
          "type": "string"
        }
      ],
      "payable": false,
      "stateMutability": "view",
      "type": "function",
      "signature": "0x33ccc11a"
    },
    {
      "constant": true,
      "inputs": [
        {
          "name": "pisiHash",
          "type": "string"
        }
      ],
      "name": "getStripeType",
      "outputs": [
        {
          "name": "",
          "type": "string"
        }
      ],
      "payable": false,
      "stateMutability": "view",
      "type": "function",
      "signature": "0x1e9abcac"
    },
    {
      "constant": true,
      "inputs": [
        {
          "name": "pisiHash",
          "type": "string"
        }
      ],
      "name": "getHungerness",
      "outputs": [
        {
          "name": "",
          "type": "string"
        }
      ],
      "payable": false,
      "stateMutability": "view",
      "type": "function",
      "signature": "0xcbc9c4a3"
    },
    {
      "constant": true,
      "inputs": [
        {
          "name": "pisiHash",
          "type": "string"
        }
      ],
      "name": "getFragility",
      "outputs": [
        {
          "name": "",
          "type": "string"
        }
      ],
      "payable": false,
      "stateMutability": "view",
      "type": "function",
      "signature": "0xa1f5fc03"
    },
    {
      "constant": true,
      "inputs": [
        {
          "name": "pisiHash",
          "type": "string"
        }
      ],
      "name": "getFertility",
      "outputs": [
        {
          "name": "",
          "type": "string"
        }
      ],
      "payable": false,
      "stateMutability": "view",
      "type": "function",
      "signature": "0xf7f8c32b"
    },
    {
      "constant": true,
      "inputs": [
        {
          "name": "pisiHash",
          "type": "string"
        }
      ],
      "name": "getAppeal",
      "outputs": [
        {
          "name": "",
          "type": "string"
        }
      ],
      "payable": false,
      "stateMutability": "view",
      "type": "function",
      "signature": "0xd8c6b1da"
    }
  ],
  "bytecode": "0x60806040523480156200001157600080fd5b506040805190810160405280600581526020017f436f6c6f720000000000000000000000000000000000000000000000000000008152506040805190810160405280600581526020017f434f4c4f520000000000000000000000000000000000000000000000000000008152508181620000bd6301ffc9a77c010000000000000000000000000000000000000000000000000000000002620001b0640100000000026401000000009004565b620000fa6380ac58cd7c010000000000000000000000000000000000000000000000000000000002620001b0640100000000026401000000009004565b6200013763780e9d637c010000000000000000000000000000000000000000000000000000000002620001b0640100000000026401000000009004565b81600990805190602001906200014f929190620002d7565b5080600a908051906020019062000168929190620002d7565b50620001a6635b5e139f7c010000000000000000000000000000000000000000000000000000000002620001b0640100000000026401000000009004565b5050505062000386565b63ffffffff7c010000000000000000000000000000000000000000000000000000000002817bffffffffffffffffffffffffffffffffffffffffffffffffffffffff1916141515156200026b576040517f08c379a000000000000000000000000000000000000000000000000000000000815260040180806020018281038252601c8152602001807f4552433136353a20696e76616c696420696e746572666163652069640000000081525060200191505060405180910390fd5b6001600080837bffffffffffffffffffffffffffffffffffffffffffffffffffffffff19167bffffffffffffffffffffffffffffffffffffffffffffffffffffffff1916815260200190815260200160002060006101000a81548160ff02191690831515021790555050565b828054600181600116156101000203166002900490600052602060002090601f016020900481019282601f106200031a57805160ff19168380011785556200034b565b828001600101855582156200034b579182015b828111156200034a5782518255916020019190600101906200032d565b5b5090506200035a91906200035e565b5090565b6200038391905b808211156200037f57600081600090555060010162000365565b5090565b90565b61546780620003966000396000f3fe6080604052600436106101b7576000357c0100000000000000000000000000000000000000000000000000000000900463ffffffff16806301ffc9a7146101bc57806306fdde031461022e578063081812fc146102be578063095ea7b31461033957806318160ddd146103945780631e9abcac146103bf57806323b872dd146105005780632f1c4ba31461057b5780632f745c59146106bc57806333ccc11a1461072b578063370e5caa1461086c57806342842e0e146109bb5780634f6ccce714610a365780635aee433014610a855780635d30e7e214610bc65780636352211e14610d0757806370a0823114610d8257806372eb3e0914610de757806395d89b4114610f28578063a1f5fc0314610fb8578063a22cb465146110f9578063a937f3db14611156578063ab76c01314611297578063ad267e72146113d8578063b88d4fde14611519578063bd11f69d1461162b578063c5f4496a146116df578063c87b56dd14611820578063c9994223146118d4578063cbc9c4a314611a15578063d85d3d2714611b56578063d8c6b1da14611c1e578063e3395e9c14611d5f578063e985e9c514611ea0578063f7f8c32b14611f29575b600080fd5b3480156101c857600080fd5b50610214600480360360208110156101df57600080fd5b8101908080357bffffffffffffffffffffffffffffffffffffffffffffffffffffffff1916906020019092919050505061206a565b604051808215151515815260200191505060405180910390f35b34801561023a57600080fd5b506102436120d1565b6040518080602001828103825283818151815260200191508051906020019080838360005b83811015610283578082015181840152602081019050610268565b50505050905090810190601f1680156102b05780820380516001836020036101000a031916815260200191505b509250505060405180910390f35b3480156102ca57600080fd5b506102f7600480360360208110156102e157600080fd5b8101908080359060200190929190505050612173565b604051808273ffffffffffffffffffffffffffffffffffffffff1673ffffffffffffffffffffffffffffffffffffffff16815260200191505060405180910390f35b34801561034557600080fd5b506103926004803603604081101561035c57600080fd5b81019080803573ffffffffffffffffffffffffffffffffffffffff16906020019092919080359060200190929190505050612253565b005b3480156103a057600080fd5b506103a96124b6565b6040518082815260200191505060405180910390f35b3480156103cb57600080fd5b50610485600480360360208110156103e257600080fd5b81019080803590602001906401000000008111156103ff57600080fd5b82018360208201111561041157600080fd5b8035906020019184600183028401116401000000008311171561043357600080fd5b91908080601f016020809104026020016040519081016040528093929190818152602001838380828437600081840152601f19601f8201169050808301925050505050505091929192905050506124c3565b6040518080602001828103825283818151815260200191508051906020019080838360005b838110156104c55780820151818401526020810190506104aa565b50505050905090810190601f1680156104f25780820380516001836020036101000a031916815260200191505b509250505060405180910390f35b34801561050c57600080fd5b506105796004803603606081101561052357600080fd5b81019080803573ffffffffffffffffffffffffffffffffffffffff169060200190929190803573ffffffffffffffffffffffffffffffffffffffff169060200190929190803590602001909291905050506125d3565b005b34801561058757600080fd5b506106416004803603602081101561059e57600080fd5b81019080803590602001906401000000008111156105bb57600080fd5b8201836020820111156105cd57600080fd5b803590602001918460018302840111640100000000831117156105ef57600080fd5b91908080601f016020809104026020016040519081016040528093929190818152602001838380828437600081840152601f19601f820116905080830192505050505050509192919290505050612687565b6040518080602001828103825283818151815260200191508051906020019080838360005b83811015610681578082015181840152602081019050610666565b50505050905090810190601f1680156106ae5780820380516001836020036101000a031916815260200191505b509250505060405180910390f35b3480156106c857600080fd5b50610715600480360360408110156106df57600080fd5b81019080803573ffffffffffffffffffffffffffffffffffffffff16906020019092919080359060200190929190505050612797565b6040518082815260200191505060405180910390f35b34801561073757600080fd5b506107f16004803603602081101561074e57600080fd5b810190808035906020019064010000000081111561076b57600080fd5b82018360208201111561077d57600080fd5b8035906020019184600183028401116401000000008311171561079f57600080fd5b91908080601f016020809104026020016040519081016040528093929190818152602001838380828437600081840152601f19601f82011690508083019250505050505050919291929050505061289d565b6040518080602001828103825283818151815260200191508051906020019080838360005b83811015610831578082015181840152602081019050610816565b50505050905090810190601f16801561085e5780820380516001836020036101000a031916815260200191505b509250505060405180910390f35b34801561087857600080fd5b5061096b60048036036101e081101561089057600080fd5b81019080803562ffffff169060200190929190803560ff169060200190929190803562ffffff169060200190929190803560ff169060200190929190803560ff169060200190929190803562ffffff169060200190929190803562ffffff169060200190929190803560ff169060200190929190803562ffffff169060200190929190803562ffffff169060200190929190803560ff169060200190929190803560ff169060200190929190803560ff169060200190929190803560ff169060200190929190803560ff1690602001909291905050506129ad565b60405180827affffffffffffffffffffffffffffffffffffffffffffffffffffff167affffffffffffffffffffffffffffffffffffffffffffffffffffff16815260200191505060405180910390f35b3480156109c757600080fd5b50610a34600480360360608110156109de57600080fd5b81019080803573ffffffffffffffffffffffffffffffffffffffff169060200190929190803573ffffffffffffffffffffffffffffffffffffffff169060200190929190803590602001909291905050506129c2565b005b348015610a4257600080fd5b50610a6f60048036036020811015610a5957600080fd5b81019080803590602001909291905050506129e3565b6040518082815260200191505060405180910390f35b348015610a9157600080fd5b50610b4b60048036036020811015610aa857600080fd5b8101908080359060200190640100000000811115610ac557600080fd5b820183602082011115610ad757600080fd5b80359060200191846001830284011164010000000083111715610af957600080fd5b91908080601f016020809104026020016040519081016040528093929190818152602001838380828437600081840152601f19601f820116905080830192505050505050509192919290505050612aaa565b6040518080602001828103825283818151815260200191508051906020019080838360005b83811015610b8b578082015181840152602081019050610b70565b50505050905090810190601f168015610bb85780820380516001836020036101000a031916815260200191505b509250505060405180910390f35b348015610bd257600080fd5b50610c8c60048036036020811015610be957600080fd5b8101908080359060200190640100000000811115610c0657600080fd5b820183602082011115610c1857600080fd5b80359060200191846001830284011164010000000083111715610c3a57600080fd5b91908080601f016020809104026020016040519081016040528093929190818152602001838380828437600081840152601f19601f820116905080830192505050505050509192919290505050612bba565b6040518080602001828103825283818151815260200191508051906020019080838360005b83811015610ccc578082015181840152602081019050610cb1565b50505050905090810190601f168015610cf95780820380516001836020036101000a031916815260200191505b509250505060405180910390f35b348015610d1357600080fd5b50610d4060048036036020811015610d2a57600080fd5b8101908080359060200190929190505050612cca565b604051808273ffffffffffffffffffffffffffffffffffffffff1673ffffffffffffffffffffffffffffffffffffffff16815260200191505060405180910390f35b348015610d8e57600080fd5b50610dd160048036036020811015610da557600080fd5b81019080803573ffffffffffffffffffffffffffffffffffffffff169060200190929190505050612dd7565b6040518082815260200191505060405180910390f35b348015610df357600080fd5b50610ead60048036036020811015610e0a57600080fd5b8101908080359060200190640100000000811115610e2757600080fd5b820183602082011115610e3957600080fd5b80359060200191846001830284011164010000000083111715610e5b57600080fd5b91908080601f016020809104026020016040519081016040528093929190818152602001838380828437600081840152601f19601f820116905080830192505050505050509192919290505050612ef1565b6040518080602001828103825283818151815260200191508051906020019080838360005b83811015610eed578082015181840152602081019050610ed2565b50505050905090810190601f168015610f1a5780820380516001836020036101000a031916815260200191505b509250505060405180910390f35b348015610f3457600080fd5b50610f3d613001565b6040518080602001828103825283818151815260200191508051906020019080838360005b83811015610f7d578082015181840152602081019050610f62565b50505050905090810190601f168015610faa5780820380516001836020036101000a031916815260200191505b509250505060405180910390f35b348015610fc457600080fd5b5061107e60048036036020811015610fdb57600080fd5b8101908080359060200190640100000000811115610ff857600080fd5b82018360208201111561100a57600080fd5b8035906020019184600183028401116401000000008311171561102c57600080fd5b91908080601f016020809104026020016040519081016040528093929190818152602001838380828437600081840152601f19601f8201169050808301925050505050505091929192905050506130a3565b6040518080602001828103825283818151815260200191508051906020019080838360005b838110156110be5780820151818401526020810190506110a3565b50505050905090810190601f1680156110eb5780820380516001836020036101000a031916815260200191505b509250505060405180910390f35b34801561110557600080fd5b506111546004803603604081101561111c57600080fd5b81019080803573ffffffffffffffffffffffffffffffffffffffff1690602001909291908035151590602001909291905050506131b3565b005b34801561116257600080fd5b5061121c6004803603602081101561117957600080fd5b810190808035906020019064010000000081111561119657600080fd5b8201836020820111156111a857600080fd5b803590602001918460018302840111640100000000831117156111ca57600080fd5b91908080601f016020809104026020016040519081016040528093929190818152602001838380828437600081840152601f19601f820116905080830192505050505050509192919290505050613358565b6040518080602001828103825283818151815260200191508051906020019080838360005b8381101561125c578082015181840152602081019050611241565b50505050905090810190601f1680156112895780820380516001836020036101000a031916815260200191505b509250505060405180910390f35b3480156112a357600080fd5b5061135d600480360360208110156112ba57600080fd5b81019080803590602001906401000000008111156112d757600080fd5b8201836020820111156112e957600080fd5b8035906020019184600183028401116401000000008311171561130b57600080fd5b91908080601f016020809104026020016040519081016040528093929190818152602001838380828437600081840152601f19601f820116905080830192505050505050509192919290505050613468565b6040518080602001828103825283818151815260200191508051906020019080838360005b8381101561139d578082015181840152602081019050611382565b50505050905090810190601f1680156113ca5780820380516001836020036101000a031916815260200191505b509250505060405180910390f35b3480156113e457600080fd5b5061149e600480360360208110156113fb57600080fd5b810190808035906020019064010000000081111561141857600080fd5b82018360208201111561142a57600080fd5b8035906020019184600183028401116401000000008311171561144c57600080fd5b91908080601f016020809104026020016040519081016040528093929190818152602001838380828437600081840152601f19601f820116905080830192505050505050509192919290505050613578565b6040518080602001828103825283818151815260200191508051906020019080838360005b838110156114de5780820151818401526020810190506114c3565b50505050905090810190601f16801561150b5780820380516001836020036101000a031916815260200191505b509250505060405180910390f35b34801561152557600080fd5b506116296004803603608081101561153c57600080fd5b81019080803573ffffffffffffffffffffffffffffffffffffffff169060200190929190803573ffffffffffffffffffffffffffffffffffffffff16906020019092919080359060200190929190803590602001906401000000008111156115a357600080fd5b8201836020820111156115b557600080fd5b803590602001918460018302840111640100000000831117156115d757600080fd5b91908080601f016020809104026020016040519081016040528093929190818152602001838380828437600081840152601f19601f820116905080830192505050505050509192919290505050613688565b005b34801561163757600080fd5b506116646004803603602081101561164e57600080fd5b810190808035906020019092919050505061373f565b6040518080602001828103825283818151815260200191508051906020019080838360005b838110156116a4578082015181840152602081019050611689565b50505050905090810190601f1680156116d15780820380516001836020036101000a031916815260200191505b509250505060405180910390f35b3480156116eb57600080fd5b506117a56004803603602081101561170257600080fd5b810190808035906020019064010000000081111561171f57600080fd5b82018360208201111561173157600080fd5b8035906020019184600183028401116401000000008311171561175357600080fd5b91908080601f016020809104026020016040519081016040528093929190818152602001838380828437600081840152601f19601f8201169050808301925050505050505091929192905050506137fa565b6040518080602001828103825283818151815260200191508051906020019080838360005b838110156117e55780820151818401526020810190506117ca565b50505050905090810190601f1680156118125780820380516001836020036101000a031916815260200191505b509250505060405180910390f35b34801561182c57600080fd5b506118596004803603602081101561184357600080fd5b810190808035906020019092919050505061390a565b6040518080602001828103825283818151815260200191508051906020019080838360005b8381101561189957808201518184015260208101905061187e565b50505050905090810190601f1680156118c65780820380516001836020036101000a031916815260200191505b509250505060405180910390f35b3480156118e057600080fd5b5061199a600480360360208110156118f757600080fd5b810190808035906020019064010000000081111561191457600080fd5b82018360208201111561192657600080fd5b8035906020019184600183028401116401000000008311171561194857600080fd5b91908080601f016020809104026020016040519081016040528093929190818152602001838380828437600081840152601f19601f820116905080830192505050505050509192919290505050613a62565b6040518080602001828103825283818151815260200191508051906020019080838360005b838110156119da5780820151818401526020810190506119bf565b50505050905090810190601f168015611a075780820380516001836020036101000a031916815260200191505b509250505060405180910390f35b348015611a2157600080fd5b50611adb60048036036020811015611a3857600080fd5b8101908080359060200190640100000000811115611a5557600080fd5b820183602082011115611a6757600080fd5b80359060200191846001830284011164010000000083111715611a8957600080fd5b91908080601f016020809104026020016040519081016040528093929190818152602001838380828437600081840152601f19601f820116905080830192505050505050509192919290505050613db9565b6040518080602001828103825283818151815260200191508051906020019080838360005b83811015611b1b578082015181840152602081019050611b00565b50505050905090810190601f168015611b485780820380516001836020036101000a031916815260200191505b509250505060405180910390f35b348015611b6257600080fd5b50611c1c60048036036020811015611b7957600080fd5b8101908080359060200190640100000000811115611b9657600080fd5b820183602082011115611ba857600080fd5b80359060200191846001830284011164010000000083111715611bca57600080fd5b91908080601f016020809104026020016040519081016040528093929190818152602001838380828437600081840152601f19601f820116905080830192505050505050509192919290505050613ec9565b005b348015611c2a57600080fd5b50611ce460048036036020811015611c4157600080fd5b8101908080359060200190640100000000811115611c5e57600080fd5b820183602082011115611c7057600080fd5b80359060200191846001830284011164010000000083111715611c9257600080fd5b91908080601f016020809104026020016040519081016040528093929190818152602001838380828437600081840152601f19601f820116905080830192505050505050509192919290505050614022565b6040518080602001828103825283818151815260200191508051906020019080838360005b83811015611d24578082015181840152602081019050611d09565b50505050905090810190601f168015611d515780820380516001836020036101000a031916815260200191505b509250505060405180910390f35b348015611d6b57600080fd5b50611e2560048036036020811015611d8257600080fd5b8101908080359060200190640100000000811115611d9f57600080fd5b820183602082011115611db157600080fd5b80359060200191846001830284011164010000000083111715611dd357600080fd5b91908080601f016020809104026020016040519081016040528093929190818152602001838380828437600081840152601f19601f820116905080830192505050505050509192919290505050614132565b6040518080602001828103825283818151815260200191508051906020019080838360005b83811015611e65578082015181840152602081019050611e4a565b50505050905090810190601f168015611e925780820380516001836020036101000a031916815260200191505b509250505060405180910390f35b348015611eac57600080fd5b50611f0f60048036036040811015611ec357600080fd5b81019080803573ffffffffffffffffffffffffffffffffffffffff169060200190929190803573ffffffffffffffffffffffffffffffffffffffff169060200190929190505050614242565b604051808215151515815260200191505060405180910390f35b348015611f3557600080fd5b50611fef60048036036020811015611f4c57600080fd5b8101908080359060200190640100000000811115611f6957600080fd5b820183602082011115611f7b57600080fd5b80359060200191846001830284011164010000000083111715611f9d57600080fd5b91908080601f016020809104026020016040519081016040528093929190818152602001838380828437600081840152601f19601f8201169050808301925050505050505091929192905050506142d6565b6040518080602001828103825283818151815260200191508051906020019080838360005b8381101561202f578082015181840152602081019050612014565b50505050905090810190601f16801561205c5780820380516001836020036101000a031916815260200191505b509250505060405180910390f35b6000806000837bffffffffffffffffffffffffffffffffffffffffffffffffffffffff19167bffffffffffffffffffffffffffffffffffffffffffffffffffffffff1916815260200190815260200160002060009054906101000a900460ff169050919050565b606060098054600181600116156101000203166002900480601f0160208091040260200160405190810160405280929190818152602001828054600181600116156101000203166002900480156121695780601f1061213e57610100808354040283529160200191612169565b820191906000526020600020905b81548152906001019060200180831161214c57829003601f168201915b5050505050905090565b600061217e826143e6565b1515612218576040517f08c379a000000000000000000000000000000000000000000000000000000000815260040180806020018281038252602c8152602001807f4552433732313a20617070726f76656420717565727920666f72206e6f6e657881526020017f697374656e7420746f6b656e000000000000000000000000000000000000000081525060400191505060405180910390fd5b6002600083815260200190815260200160002060009054906101000a900473ffffffffffffffffffffffffffffffffffffffff169050919050565b600061225e82612cca565b90508073ffffffffffffffffffffffffffffffffffffffff168373ffffffffffffffffffffffffffffffffffffffff161415151561232a576040517f08c379a00000000000000000000000000000000000000000000000000000000081526004018080602001828103825260218152602001807f4552433732313a20617070726f76616c20746f2063757272656e74206f776e6581526020017f720000000000000000000000000000000000000000000000000000000000000081525060400191505060405180910390fd5b8073ffffffffffffffffffffffffffffffffffffffff163373ffffffffffffffffffffffffffffffffffffffff16148061236a57506123698133614242565b5b1515612404576040517f08c379a00000000000000000000000000000000000000000000000000000000081526004018080602001828103825260388152602001807f4552433732313a20617070726f76652063616c6c6572206973206e6f74206f7781526020017f6e6572206e6f7220617070726f76656420666f7220616c6c000000000000000081525060400191505060405180910390fd5b826002600084815260200190815260200160002060006101000a81548173ffffffffffffffffffffffffffffffffffffffff021916908373ffffffffffffffffffffffffffffffffffffffff160217905550818373ffffffffffffffffffffffffffffffffffffffff168273ffffffffffffffffffffffffffffffffffffffff167f8c5be1e5ebec7d5bd14f71427d1e84f3dd0314c0f7b2291e5b200ac8c7c3b92560405160405180910390a4505050565b6000600780549050905090565b6060600e826040518082805190602001908083835b6020831015156124fd57805182526020820191506020810190506020830392506124d8565b6001836020036101000a0380198251168184511680821785525050505050509050019150509081526020016040518091039020600a018054600181600116156101000203166002900480601f0160208091040260200160405190810160405280929190818152602001828054600181600116156101000203166002900480156125c75780601f1061259c576101008083540402835291602001916125c7565b820191906000526020600020905b8154815290600101906020018083116125aa57829003601f168201915b50505050509050919050565b6125dd3382614458565b1515612677576040517f08c379a00000000000000000000000000000000000000000000000000000000081526004018080602001828103825260318152602001807f4552433732313a207472616e736665722063616c6c6572206973206e6f74206f81526020017f776e6572206e6f7220617070726f76656400000000000000000000000000000081525060400191505060405180910390fd5b612682838383614591565b505050565b6060600e826040518082805190602001908083835b6020831015156126c1578051825260208201915060208101905060208303925061269c565b6001836020036101000a03801982511681845116808217855250505050505090500191505090815260200160405180910390206002018054600181600116156101000203166002900480601f01602080910402602001604051908101604052809291908181526020018280546001816001161561010002031660029004801561278b5780601f106127605761010080835404028352916020019161278b565b820191906000526020600020905b81548152906001019060200180831161276e57829003601f168201915b50505050509050919050565b60006127a283612dd7565b8210151561283e576040517f08c379a000000000000000000000000000000000000000000000000000000000815260040180806020018281038252602b8152602001807f455243373231456e756d657261626c653a206f776e657220696e646578206f7581526020017f74206f6620626f756e647300000000000000000000000000000000000000000081525060400191505060405180910390fd5b600560008473ffffffffffffffffffffffffffffffffffffffff1673ffffffffffffffffffffffffffffffffffffffff1681526020019081526020016000208281548110151561288a57fe5b9060005260206000200154905092915050565b6060600e826040518082805190602001908083835b6020831015156128d757805182526020820191506020810190506020830392506128b2565b6001836020036101000a03801982511681845116808217855250505050505090500191505090815260200160405180910390206009018054600181600116156101000203166002900480601f0160208091040260200160405190810160405280929190818152602001828054600181600116156101000203166002900480156129a15780601f10612976576101008083540402835291602001916129a1565b820191906000526020600020905b81548152906001019060200180831161298457829003601f168201915b50505050509050919050565b60009f9e505050505050505050505050505050565b6129de8383836020604051908101604052806000815250613688565b505050565b60006129ed6124b6565b82101515612a89576040517f08c379a000000000000000000000000000000000000000000000000000000000815260040180806020018281038252602c8152602001807f455243373231456e756d657261626c653a20676c6f62616c20696e646578206f81526020017f7574206f6620626f756e6473000000000000000000000000000000000000000081525060400191505060405180910390fd5b600782815481101515612a9857fe5b90600052602060002001549050919050565b6060600e826040518082805190602001908083835b602083101515612ae45780518252602082019150602081019050602083039250612abf565b6001836020036101000a03801982511681845116808217855250505050505090500191505090815260200160405180910390206000018054600181600116156101000203166002900480601f016020809104026020016040519081016040528092919081815260200182805460018160011615610100020316600290048015612bae5780601f10612b8357610100808354040283529160200191612bae565b820191906000526020600020905b815481529060010190602001808311612b9157829003601f168201915b50505050509050919050565b6060600e826040518082805190602001908083835b602083101515612bf45780518252602082019150602081019050602083039250612bcf565b6001836020036101000a03801982511681845116808217855250505050505090500191505090815260200160405180910390206004018054600181600116156101000203166002900480601f016020809104026020016040519081016040528092919081815260200182805460018160011615610100020316600290048015612cbe5780601f10612c9357610100808354040283529160200191612cbe565b820191906000526020600020905b815481529060010190602001808311612ca157829003601f168201915b50505050509050919050565b6000806001600084815260200190815260200160002060009054906101000a900473ffffffffffffffffffffffffffffffffffffffff169050600073ffffffffffffffffffffffffffffffffffffffff168173ffffffffffffffffffffffffffffffffffffffff1614151515612dce576040517f08c379a00000000000000000000000000000000000000000000000000000000081526004018080602001828103825260298152602001807f4552433732313a206f776e657220717565727920666f72206e6f6e657869737481526020017f656e7420746f6b656e000000000000000000000000000000000000000000000081525060400191505060405180910390fd5b80915050919050565b60008073ffffffffffffffffffffffffffffffffffffffff168273ffffffffffffffffffffffffffffffffffffffff1614151515612ea3576040517f08c379a000000000000000000000000000000000000000000000000000000000815260040180806020018281038252602a8152602001807f4552433732313a2062616c616e636520717565727920666f7220746865207a6581526020017f726f20616464726573730000000000000000000000000000000000000000000081525060400191505060405180910390fd5b612eea600360008473ffffffffffffffffffffffffffffffffffffffff1673ffffffffffffffffffffffffffffffffffffffff1681526020019081526020016000206145b5565b9050919050565b6060600e826040518082805190602001908083835b602083101515612f2b5780518252602082019150602081019050602083039250612f06565b6001836020036101000a03801982511681845116808217855250505050505090500191505090815260200160405180910390206003018054600181600116156101000203166002900480601f016020809104026020016040519081016040528092919081815260200182805460018160011615610100020316600290048015612ff55780601f10612fca57610100808354040283529160200191612ff5565b820191906000526020600020905b815481529060010190602001808311612fd857829003601f168201915b50505050509050919050565b6060600a8054600181600116156101000203166002900480601f0160208091040260200160405190810160405280929190818152602001828054600181600116156101000203166002900480156130995780601f1061306e57610100808354040283529160200191613099565b820191906000526020600020905b81548152906001019060200180831161307c57829003601f168201915b5050505050905090565b6060600e826040518082805190602001908083835b6020831015156130dd57805182526020820191506020810190506020830392506130b8565b6001836020036101000a0380198251168184511680821785525050505050509050019150509081526020016040518091039020600c018054600181600116156101000203166002900480601f0160208091040260200160405190810160405280929190818152602001828054600181600116156101000203166002900480156131a75780601f1061317c576101008083540402835291602001916131a7565b820191906000526020600020905b81548152906001019060200180831161318a57829003601f168201915b50505050509050919050565b3373ffffffffffffffffffffffffffffffffffffffff168273ffffffffffffffffffffffffffffffffffffffff1614151515613257576040517f08c379a00000000000000000000000000000000000000000000000000000000081526004018080602001828103825260198152602001807f4552433732313a20617070726f766520746f2063616c6c65720000000000000081525060200191505060405180910390fd5b80600460003373ffffffffffffffffffffffffffffffffffffffff1673ffffffffffffffffffffffffffffffffffffffff16815260200190815260200160002060008473ffffffffffffffffffffffffffffffffffffffff1673ffffffffffffffffffffffffffffffffffffffff16815260200190815260200160002060006101000a81548160ff0219169083151502179055508173ffffffffffffffffffffffffffffffffffffffff163373ffffffffffffffffffffffffffffffffffffffff167f17307eab39ab6107e8899845ad3d59bd9653f200f220920489ca2b5937696c3183604051808215151515815260200191505060405180910390a35050565b6060600e826040518082805190602001908083835b602083101515613392578051825260208201915060208101905060208303925061336d565b6001836020036101000a03801982511681845116808217855250505050505090500191505090815260200160405180910390206008018054600181600116156101000203166002900480601f01602080910402602001604051908101604052809291908181526020018280546001816001161561010002031660029004801561345c5780601f106134315761010080835404028352916020019161345c565b820191906000526020600020905b81548152906001019060200180831161343f57829003601f168201915b50505050509050919050565b6060600e826040518082805190602001908083835b6020831015156134a2578051825260208201915060208101905060208303925061347d565b6001836020036101000a03801982511681845116808217855250505050505090500191505090815260200160405180910390206001018054600181600116156101000203166002900480601f01602080910402602001604051908101604052809291908181526020018280546001816001161561010002031660029004801561356c5780601f106135415761010080835404028352916020019161356c565b820191906000526020600020905b81548152906001019060200180831161354f57829003601f168201915b50505050509050919050565b6060600e826040518082805190602001908083835b6020831015156135b2578051825260208201915060208101905060208303925061358d565b6001836020036101000a03801982511681845116808217855250505050505090500191505090815260200160405180910390206006018054600181600116156101000203166002900480601f01602080910402602001604051908101604052809291908181526020018280546001816001161561010002031660029004801561367c5780601f106136515761010080835404028352916020019161367c565b820191906000526020600020905b81548152906001019060200180831161365f57829003601f168201915b50505050509050919050565b6136938484846125d3565b61369f848484846145c3565b1515613739576040517f08c379a00000000000000000000000000000000000000000000000000000000081526004018080602001828103825260328152602001807f4552433732313a207472616e7366657220746f206e6f6e20455243373231526581526020017f63656976657220696d706c656d656e746572000000000000000000000000000081525060400191505060405180910390fd5b50505050565b600c8181548110151561374e57fe5b906000526020600020016000915090508054600181600116156101000203166002900480601f0160208091040260200160405190810160405280929190818152602001828054600181600116156101000203166002900480156137f25780601f106137c7576101008083540402835291602001916137f2565b820191906000526020600020905b8154815290600101906020018083116137d557829003601f168201915b505050505081565b6060600e826040518082805190602001908083835b602083101515613834578051825260208201915060208101905060208303925061380f565b6001836020036101000a03801982511681845116808217855250505050505090500191505090815260200160405180910390206005018054600181600116156101000203166002900480601f0160208091040260200160405190810160405280929190818152602001828054600181600116156101000203166002900480156138fe5780601f106138d3576101008083540402835291602001916138fe565b820191906000526020600020905b8154815290600101906020018083116138e157829003601f168201915b50505050509050919050565b6060613915826143e6565b15156139af576040517f08c379a000000000000000000000000000000000000000000000000000000000815260040180806020018281038252602f8152602001807f4552433732314d657461646174613a2055524920717565727920666f72206e6f81526020017f6e6578697374656e7420746f6b656e000000000000000000000000000000000081525060400191505060405180910390fd5b600b60008381526020019081526020016000208054600181600116156101000203166002900480601f016020809104026020016040519081016040528092919081815260200182805460018160011615610100020316600290048015613a565780601f10613a2b57610100808354040283529160200191613a56565b820191906000526020600020905b815481529060010190602001808311613a3957829003601f168201915b50505050509050919050565b6060613a6c615273565b6101e060405190810160405280613a8685600060066147e6565b8152602001613a9885600660096147e6565b8152602001613aaa856009600f6147e6565b8152602001613abc85600f60126147e6565b8152602001613ace85601260156147e6565b8152602001613ae0856015601b6147e6565b8152602001613af285601b60216147e6565b8152602001613b0485602160246147e6565b8152602001613b16856024602a6147e6565b8152602001613b2885602a60306147e6565b8152602001613b3a85603060336147e6565b8152602001613b4c85603360366147e6565b8152602001613b5e85603660396147e6565b8152602001613b70856039603c6147e6565b8152602001613b8285603c603f6147e6565b815250905080600e846040518082805190602001908083835b602083101515613bc05780518252602082019150602081019050602083039250613b9b565b6001836020036101000a03801982511681845116808217855250505050505090500191505090815260200160405180910390206000820151816000019080519060200190613c0f9291906152ea565b506020820151816001019080519060200190613c2c9291906152ea565b506040820151816002019080519060200190613c499291906152ea565b506060820151816003019080519060200190613c669291906152ea565b506080820151816004019080519060200190613c839291906152ea565b5060a0820151816005019080519060200190613ca09291906152ea565b5060c0820151816006019080519060200190613cbd9291906152ea565b5060e0820151816007019080519060200190613cda9291906152ea565b50610100820151816008019080519060200190613cf89291906152ea565b50610120820151816009019080519060200190613d169291906152ea565b5061014082015181600a019080519060200190613d349291906152ea565b5061016082015181600b019080519060200190613d529291906152ea565b5061018082015181600c019080519060200190613d709291906152ea565b506101a082015181600d019080519060200190613d8e9291906152ea565b506101c082015181600e019080519060200190613dac9291906152ea565b5090505082915050919050565b6060600e826040518082805190602001908083835b602083101515613df35780518252602082019150602081019050602083039250613dce565b6001836020036101000a0380198251168184511680821785525050505050509050019150509081526020016040518091039020600b018054600181600116156101000203166002900480601f016020809104026020016040519081016040528092919081815260200182805460018160011615610100020316600290048015613ebd5780601f10613e9257610100808354040283529160200191613ebd565b820191906000526020600020905b815481529060010190602001808311613ea057829003601f168201915b50505050509050919050565b600d816040518082805190602001908083835b602083101515613f015780518252602082019150602081019050602083039250613edc565b6001836020036101000a038019825116818451168082178552505050505050905001915050908152602001604051809103902060009054906101000a900460ff16151515613f4e57600080fd5b6000600c829080600181540180825580915050906001820390600052602060002001600090919290919091509080519060200190613f8d92919061536a565b509050613f9a3382614802565b6001600d836040518082805190602001908083835b602083101515613fd45780518252602082019150602081019050602083039250613faf565b6001836020036101000a038019825116818451168082178552505050505050905001915050908152602001604051809103902060006101000a81548160ff0219169083151502179055505050565b6060600e826040518082805190602001908083835b60208310151561405c5780518252602082019150602081019050602083039250614037565b6001836020036101000a0380198251168184511680821785525050505050509050019150509081526020016040518091039020600e018054600181600116156101000203166002900480601f0160208091040260200160405190810160405280929190818152602001828054600181600116156101000203166002900480156141265780601f106140fb57610100808354040283529160200191614126565b820191906000526020600020905b81548152906001019060200180831161410957829003601f168201915b50505050509050919050565b6060600e826040518082805190602001908083835b60208310151561416c5780518252602082019150602081019050602083039250614147565b6001836020036101000a03801982511681845116808217855250505050505090500191505090815260200160405180910390206007018054600181600116156101000203166002900480601f0160208091040260200160405190810160405280929190818152602001828054600181600116156101000203166002900480156142365780601f1061420b57610100808354040283529160200191614236565b820191906000526020600020905b81548152906001019060200180831161421957829003601f168201915b50505050509050919050565b6000600460008473ffffffffffffffffffffffffffffffffffffffff1673ffffffffffffffffffffffffffffffffffffffff16815260200190815260200160002060008373ffffffffffffffffffffffffffffffffffffffff1673ffffffffffffffffffffffffffffffffffffffff16815260200190815260200160002060009054906101000a900460ff16905092915050565b6060600e826040518082805190602001908083835b60208310151561431057805182526020820191506020810190506020830392506142eb565b6001836020036101000a0380198251168184511680821785525050505050509050019150509081526020016040518091039020600d018054600181600116156101000203166002900480601f0160208091040260200160405190810160405280929190818152602001828054600181600116156101000203166002900480156143da5780601f106143af576101008083540402835291602001916143da565b820191906000526020600020905b8154815290600101906020018083116143bd57829003601f168201915b50505050509050919050565b6000806001600084815260200190815260200160002060009054906101000a900473ffffffffffffffffffffffffffffffffffffffff169050600073ffffffffffffffffffffffffffffffffffffffff168173ffffffffffffffffffffffffffffffffffffffff161415915050919050565b6000614463826143e6565b15156144fd576040517f08c379a000000000000000000000000000000000000000000000000000000000815260040180806020018281038252602c8152602001807f4552433732313a206f70657261746f7220717565727920666f72206e6f6e657881526020017f697374656e7420746f6b656e000000000000000000000000000000000000000081525060400191505060405180910390fd5b600061450883612cca565b90508073ffffffffffffffffffffffffffffffffffffffff168473ffffffffffffffffffffffffffffffffffffffff16148061457757508373ffffffffffffffffffffffffffffffffffffffff1661455f84612173565b73ffffffffffffffffffffffffffffffffffffffff16145b8061458857506145878185614242565b5b91505092915050565b61459c838383614823565b6145a68382614b08565b6145b08282614cac565b505050565b600081600001549050919050565b60006145e48473ffffffffffffffffffffffffffffffffffffffff16614d73565b15156145f357600190506147de565b60008473ffffffffffffffffffffffffffffffffffffffff1663150b7a02338887876040518563ffffffff167c0100000000000000000000000000000000000000000000000000000000028152600401808573ffffffffffffffffffffffffffffffffffffffff1673ffffffffffffffffffffffffffffffffffffffff1681526020018473ffffffffffffffffffffffffffffffffffffffff1673ffffffffffffffffffffffffffffffffffffffff16815260200183815260200180602001828103825283818151815260200191508051906020019080838360005b838110156146ea5780820151818401526020810190506146cf565b50505050905090810190601f1680156147175780820380516001836020036101000a031916815260200191505b5095505050505050602060405180830381600087803b15801561473957600080fd5b505af115801561474d573d6000803e3d6000fd5b505050506040513d602081101561476357600080fd5b8101908080519060200190929190505050905063150b7a027c0100000000000000000000000000000000000000000000000000000000027bffffffffffffffffffffffffffffffffffffffffffffffffffffffff1916817bffffffffffffffffffffffffffffffffffffffffffffffffffffffff1916149150505b949350505050565b60606147f9848460ff168460ff16614d86565b90509392505050565b61480c8282614e87565b6148168282614cac565b61481f816150a3565b5050565b8273ffffffffffffffffffffffffffffffffffffffff1661484382612cca565b73ffffffffffffffffffffffffffffffffffffffff161415156148f4576040517f08c379a00000000000000000000000000000000000000000000000000000000081526004018080602001828103825260298152602001807f4552433732313a207472616e73666572206f6620746f6b656e2074686174206981526020017f73206e6f74206f776e000000000000000000000000000000000000000000000081525060400191505060405180910390fd5b600073ffffffffffffffffffffffffffffffffffffffff168273ffffffffffffffffffffffffffffffffffffffff16141515156149bf576040517f08c379a00000000000000000000000000000000000000000000000000000000081526004018080602001828103825260248152602001807f4552433732313a207472616e7366657220746f20746865207a65726f2061646481526020017f726573730000000000000000000000000000000000000000000000000000000081525060400191505060405180910390fd5b6149c8816150ef565b614a0f600360008573ffffffffffffffffffffffffffffffffffffffff1673ffffffffffffffffffffffffffffffffffffffff1681526020019081526020016000206151af565b614a56600360008473ffffffffffffffffffffffffffffffffffffffff1673ffffffffffffffffffffffffffffffffffffffff1681526020019081526020016000206151d2565b816001600083815260200190815260200160002060006101000a81548173ffffffffffffffffffffffffffffffffffffffff021916908373ffffffffffffffffffffffffffffffffffffffff160217905550808273ffffffffffffffffffffffffffffffffffffffff168473ffffffffffffffffffffffffffffffffffffffff167fddf252ad1be2c89b69c2b068fc378daa952ba7f163c4a11628f55a4df523b3ef60405160405180910390a4505050565b6000614b606001600560008673ffffffffffffffffffffffffffffffffffffffff1673ffffffffffffffffffffffffffffffffffffffff168152602001908152602001600020805490506151e890919063ffffffff16565b90506000600660008481526020019081526020016000205490508181141515614c53576000600560008673ffffffffffffffffffffffffffffffffffffffff1673ffffffffffffffffffffffffffffffffffffffff16815260200190815260200160002083815481101515614bd157fe5b9060005260206000200154905080600560008773ffffffffffffffffffffffffffffffffffffffff1673ffffffffffffffffffffffffffffffffffffffff16815260200190815260200160002083815481101515614c2b57fe5b9060005260206000200181905550816006600083815260200190815260200160002081905550505b600560008573ffffffffffffffffffffffffffffffffffffffff1673ffffffffffffffffffffffffffffffffffffffff168152602001908152602001600020805480919060019003614ca591906153ea565b5050505050565b600560008373ffffffffffffffffffffffffffffffffffffffff1673ffffffffffffffffffffffffffffffffffffffff168152602001908152602001600020805490506006600083815260200190815260200160002081905550600560008373ffffffffffffffffffffffffffffffffffffffff1673ffffffffffffffffffffffffffffffffffffffff1681526020019081526020016000208190806001815401808255809150509060018203906000526020600020016000909192909190915055505050565b600080823b905060008111915050919050565b60608084905060608484036040519080825280601f01601f191660200182016040528015614dc35781602001600182028038833980820191505090505b50905060008590505b84811015614e7a578281815181101515614de257fe5b9060200101517f010000000000000000000000000000000000000000000000000000000000000090047f01000000000000000000000000000000000000000000000000000000000000000282878303815181101515614e3d57fe5b9060200101907effffffffffffffffffffffffffffffffffffffffffffffffffffffffffffff1916908160001a9053508080600101915050614dcc565b5080925050509392505050565b600073ffffffffffffffffffffffffffffffffffffffff168273ffffffffffffffffffffffffffffffffffffffff1614151515614f2c576040517f08c379a00000000000000000000000000000000000000000000000000000000081526004018080602001828103825260208152602001807f4552433732313a206d696e7420746f20746865207a65726f206164647265737381525060200191505060405180910390fd5b614f35816143e6565b151515614faa576040517f08c379a000000000000000000000000000000000000000000000000000000000815260040180806020018281038252601c8152602001807f4552433732313a20746f6b656e20616c7265616479206d696e7465640000000081525060200191505060405180910390fd5b816001600083815260200190815260200160002060006101000a81548173ffffffffffffffffffffffffffffffffffffffff021916908373ffffffffffffffffffffffffffffffffffffffff160217905550615043600360008473ffffffffffffffffffffffffffffffffffffffff1673ffffffffffffffffffffffffffffffffffffffff1681526020019081526020016000206151d2565b808273ffffffffffffffffffffffffffffffffffffffff16600073ffffffffffffffffffffffffffffffffffffffff167fddf252ad1be2c89b69c2b068fc378daa952ba7f163c4a11628f55a4df523b3ef60405160405180910390a45050565b6007805490506008600083815260200190815260200160002081905550600781908060018154018082558091505090600182039060005260206000200160009091929091909150555050565b600073ffffffffffffffffffffffffffffffffffffffff166002600083815260200190815260200160002060009054906101000a900473ffffffffffffffffffffffffffffffffffffffff1673ffffffffffffffffffffffffffffffffffffffff161415156151ac5760006002600083815260200190815260200160002060006101000a81548173ffffffffffffffffffffffffffffffffffffffff021916908373ffffffffffffffffffffffffffffffffffffffff1602179055505b50565b6151c7600182600001546151e890919063ffffffff16565b816000018190555050565b6001816000016000828254019250508190555050565b6000828211151515615262576040517f08c379a000000000000000000000000000000000000000000000000000000000815260040180806020018281038252601e8152602001807f536166654d6174683a207375627472616374696f6e206f766572666c6f77000081525060200191505060405180910390fd5b600082840390508091505092915050565b6101e0604051908101604052806060815260200160608152602001606081526020016060815260200160608152602001606081526020016060815260200160608152602001606081526020016060815260200160608152602001606081526020016060815260200160608152602001606081525090565b828054600181600116156101000203166002900490600052602060002090601f016020900481019282601f1061532b57805160ff1916838001178555615359565b82800160010185558215615359579182015b8281111561535857825182559160200191906001019061533d565b5b5090506153669190615416565b5090565b828054600181600116156101000203166002900490600052602060002090601f016020900481019282601f106153ab57805160ff19168380011785556153d9565b828001600101855582156153d9579182015b828111156153d85782518255916020019190600101906153bd565b5b5090506153e69190615416565b5090565b815481835581811115615411578183600052602060002091820191016154109190615416565b5b505050565b61543891905b8082111561543457600081600090555060010161541c565b5090565b9056fea165627a7a723058206d8e5c7f9259dcd9cb5093e191d81bf4d8d080d91e2d06ff52f103b1813fa6880029",
  "source": "pragma solidity ^0.5.0;\n\nimport \"./ERC721Full.sol\";\n\ncontract Pisi is ERC721Full {\n    string[] public colors;\n    mapping(string => bool) _colorExists;\n\n    struct PisiAttributes {\n        string eyeColor;\n        string eyeSize;\n        \n        string headColor;\n        string headSize;\n        \n        string beardSize;\n        \n        string tailColor;\n        string tailAccentColor;\n        string tailSize;\n        \n        string bodyColor;\n        string bodyAccentColor;\n\n        string stripeType;\n        \n        string hungerness;\n        string fragility;\n        string fertility;\n        string appeal;\n    }\n    \n    mapping(string => PisiAttributes) _pisiCollection;\n\n    constructor() ERC721Full(\"Color\", \"COLOR\") public {\n\n    }\n\n    function mint(string memory _color) public {\n        // Require unique color\n        require(!_colorExists[_color]);\n        // Color - add it\n        uint _id = colors.push(_color);\n        // Call the mint function\n        _mint(msg.sender, _id);\n        // Color - track it\n        _colorExists[_color] = true;\n    }\n\n    function decodeAttributes(string memory hashedAttr) public returns (string memory){\n        PisiAttributes memory pa = PisiAttributes(\n            getNumberBetween(hashedAttr, 0, 6), // eyeColor, \n            getNumberBetween(hashedAttr, 6, 9), // eyeSize, \n            \n            getNumberBetween(hashedAttr, 9, 15), // headColor, \n            getNumberBetween(hashedAttr, 15, 18), // headSize, \n            \n            getNumberBetween(hashedAttr, 18, 21), // beardSize, *****\n            \n            getNumberBetween(hashedAttr, 21, 27), // tailColor, \n            getNumberBetween(hashedAttr, 27, 33), // tailAccentColor, *****\n            getNumberBetween(hashedAttr, 33, 36), // tailSize, \n            \n            getNumberBetween(hashedAttr, 36, 42), // bodyColor, \n            getNumberBetween(hashedAttr, 42, 48), // bodyAccentColor, \n    \n            getNumberBetween(hashedAttr, 48, 51), // stripeType, \n\n            getNumberBetween(hashedAttr, 51, 54), // hungerness, \n            getNumberBetween(hashedAttr, 54, 57), // fragility, \n            getNumberBetween(hashedAttr, 57, 60), // fertility, \n            getNumberBetween(hashedAttr, 60, 63) // appeal\n        );\n\n        _pisiCollection[hashedAttr] = pa;\n\n        return hashedAttr;\n    }\n\n    function encodeAttributes(\n        uint24 eyeColor,\n        uint8 eyeSize,\n        uint24 headColor,\n        uint8 headSize,\n        uint8 beardSize,\n        uint24 tailColor,\n        uint24 tailAccentColor,\n        uint8 tailSize,\n        uint24 bodyColor,\n        uint24 bodyAccentColor,\n        uint8 stripeType,\n        uint8 hungerness,\n        uint8 fragility,\n        uint8 fertility,\n        uint8 appeal\n        ) public returns (uint216){\n        \n    }\n\n    // function randomAttributes() public returns (string memory) {\n    //     return decodeAttributes(uint2str(uint256(keccak256(abi.encodePacked(block.timestamp, block.difficulty))) % (2 ** 247)));\n    // }\n\n    function getNumberBetween(string memory fN, uint8 start, uint8 end) internal returns(string memory) {\n        return substring(fN, start, end);\n    }\n\n    function getEyeColor(string memory pisiHash) public view returns(string memory) {\n        return _pisiCollection[pisiHash].eyeColor;\n    }\n\n    function getEyeSize(string memory pisiHash) public view returns(string memory) {\n        return _pisiCollection[pisiHash].eyeSize;\n    }\n\n    function getHeadColor(string memory pisiHash) public view returns(string memory) {\n        return _pisiCollection[pisiHash].headColor;\n    }\n\n    function getHeadSize(string memory pisiHash) public view returns(string memory) {\n        return _pisiCollection[pisiHash].headSize;\n    }\n\n    function getBeardSize(string memory pisiHash) public view returns(string memory) {\n        return _pisiCollection[pisiHash].beardSize;\n    }\n\n    function getTailColor(string memory pisiHash) public view returns(string memory) {\n        return _pisiCollection[pisiHash].tailColor;\n    }\n\n    function getTailAccentColor(string memory pisiHash) public view returns(string memory) {\n        return _pisiCollection[pisiHash].tailAccentColor;\n    }\n\n    function getTailSize(string memory pisiHash) public view returns(string memory) {\n        return _pisiCollection[pisiHash].tailSize;\n    }\n\n    function getBodyColor(string memory pisiHash) public view returns(string memory) {\n        return _pisiCollection[pisiHash].bodyColor;\n    }\n\n    function getBodyAccentColor(string memory pisiHash) public view returns(string memory) {\n        return _pisiCollection[pisiHash].bodyAccentColor;\n    }\n\n    function getStripeType(string memory pisiHash) public view returns(string memory) {\n        return _pisiCollection[pisiHash].stripeType;\n    }\n\n    function getHungerness(string memory pisiHash) public view returns(string memory) {\n        return _pisiCollection[pisiHash].hungerness;\n    }\n\n    function getFragility(string memory pisiHash) public view returns(string memory) {\n        return _pisiCollection[pisiHash].fragility;\n    }\n\n    function getFertility(string memory pisiHash) public view returns(string memory) {\n        return _pisiCollection[pisiHash].fertility;\n    }\n\n    function getAppeal(string memory pisiHash) public view returns(string memory) {\n        return _pisiCollection[pisiHash].appeal;\n    }\n\n    function substring(string memory str, uint startIndex, uint endIndex) pure internal returns (string memory) {\n        bytes memory strBytes = bytes(str);\n        bytes memory result = new bytes(endIndex-startIndex);\n        for(uint i = startIndex; i < endIndex; i++) {\n            result[i-startIndex] = strBytes[i];\n        }\n        return string(result);\n    }\n}",
  "sourcePath": "D:/CryptoPissies/CryptoPissies/src/contracts/Pisi.sol",
  "compiler": {
    "name": "solc",
    "version": "0.5.0+commit.1d4f565a.Emscripten.clang"
  },
  "schemaVersion": "3.0.2",
  "updatedAt": "2021-05-14T22:56:46.380Z",
  "devdoc": {
    "methods": {
      "approve(address,uint256)": {
        "details": "Approves another address to transfer the given token ID The zero address indicates there is no approved address. There can only be one approved address per token at a given time. Can only be called by the token owner or an approved operator.",
        "params": {
          "to": "address to be approved for the given token ID",
          "tokenId": "uint256 ID of the token to be approved"
        }
      },
      "balanceOf(address)": {
        "details": "Gets the balance of the specified address.",
        "params": {
          "owner": "address to query the balance of"
        },
        "return": "uint256 representing the amount owned by the passed address"
      },
      "getApproved(uint256)": {
        "details": "Gets the approved address for a token ID, or zero if no address set Reverts if the token ID does not exist.",
        "params": {
          "tokenId": "uint256 ID of the token to query the approval of"
        },
        "return": "address currently approved for the given token ID"
      },
      "isApprovedForAll(address,address)": {
        "details": "Tells whether an operator is approved by a given owner.",
        "params": {
          "operator": "operator address which you want to query the approval of",
          "owner": "owner address which you want to query the approval of"
        },
        "return": "bool whether the given operator is approved by the given owner"
      },
      "name()": {
        "details": "Gets the token name.",
        "return": "string representing the token name"
      },
      "ownerOf(uint256)": {
        "details": "Gets the owner of the specified token ID.",
        "params": {
          "tokenId": "uint256 ID of the token to query the owner of"
        },
        "return": "address currently marked as the owner of the given token ID"
      },
      "safeTransferFrom(address,address,uint256)": {
        "details": "Safely transfers the ownership of a given token ID to another address If the target address is a contract, it must implement `onERC721Received`, which is called upon a safe transfer, and return the magic value `bytes4(keccak256(\"onERC721Received(address,address,uint256,bytes)\"))`; otherwise, the transfer is reverted. Requires the msg.sender to be the owner, approved, or operator",
        "params": {
          "from": "current owner of the token",
          "to": "address to receive the ownership of the given token ID",
          "tokenId": "uint256 ID of the token to be transferred"
        }
      },
      "safeTransferFrom(address,address,uint256,bytes)": {
        "details": "Safely transfers the ownership of a given token ID to another address If the target address is a contract, it must implement `onERC721Received`, which is called upon a safe transfer, and return the magic value `bytes4(keccak256(\"onERC721Received(address,address,uint256,bytes)\"))`; otherwise, the transfer is reverted. Requires the msg.sender to be the owner, approved, or operator",
        "params": {
          "_data": "bytes data to send along with a safe transfer check",
          "from": "current owner of the token",
          "to": "address to receive the ownership of the given token ID",
          "tokenId": "uint256 ID of the token to be transferred"
        }
      },
      "setApprovalForAll(address,bool)": {
        "details": "Sets or unsets the approval of a given operator An operator is allowed to transfer all tokens of the sender on their behalf.",
        "params": {
          "approved": "representing the status of the approval to be set",
          "to": "operator address to set the approval"
        }
      },
      "supportsInterface(bytes4)": {
        "details": "See `IERC165.supportsInterface`.     * Time complexity O(1), guaranteed to always use less than 30 000 gas."
      },
      "symbol()": {
        "details": "Gets the token symbol.",
        "return": "string representing the token symbol"
      },
      "tokenByIndex(uint256)": {
        "details": "Gets the token ID at a given index of all the tokens in this contract Reverts if the index is greater or equal to the total number of tokens.",
        "params": {
          "index": "uint256 representing the index to be accessed of the tokens list"
        },
        "return": "uint256 token ID at the given index of the tokens list"
      },
      "tokenOfOwnerByIndex(address,uint256)": {
        "details": "Gets the token ID at a given index of the tokens list of the requested owner.",
        "params": {
          "index": "uint256 representing the index to be accessed of the requested tokens list",
          "owner": "address owning the tokens list to be accessed"
        },
        "return": "uint256 token ID at the given index of the tokens list owned by the requested address"
      },
      "tokenURI(uint256)": {
        "details": "Returns an URI for a given token ID. Throws if the token ID does not exist. May return an empty string.",
        "params": {
          "tokenId": "uint256 ID of the token to query"
        }
      },
      "totalSupply()": {
        "details": "Gets the total amount of tokens stored by the contract.",
        "return": "uint256 representing the total amount of tokens"
      },
      "transferFrom(address,address,uint256)": {
        "details": "Transfers the ownership of a given token ID to another address. Usage of this method is discouraged, use `safeTransferFrom` whenever possible. Requires the msg.sender to be the owner, approved, or operator.",
        "params": {
          "from": "current owner of the token",
          "to": "address to receive the ownership of the given token ID",
          "tokenId": "uint256 ID of the token to be transferred"
        }
      }
    }
  },
  "userdoc": {
    "methods": {}
  }
}