{
  "contractName": "Pisi",
  "abi": [
    {
      "constant": true,
      "inputs": [
        {
          "name": "interfaceId",
          "type": "bytes4"
        }
      ],
      "name": "supportsInterface",
      "outputs": [
        {
          "name": "",
          "type": "bool"
        }
      ],
      "payable": false,
      "stateMutability": "view",
      "type": "function",
      "signature": "0x01ffc9a7"
    },
    {
      "constant": true,
      "inputs": [],
      "name": "name",
      "outputs": [
        {
          "name": "",
          "type": "string"
        }
      ],
      "payable": false,
      "stateMutability": "view",
      "type": "function",
      "signature": "0x06fdde03"
    },
    {
      "constant": true,
      "inputs": [
        {
          "name": "tokenId",
          "type": "uint256"
        }
      ],
      "name": "getApproved",
      "outputs": [
        {
          "name": "",
          "type": "address"
        }
      ],
      "payable": false,
      "stateMutability": "view",
      "type": "function",
      "signature": "0x081812fc"
    },
    {
      "constant": false,
      "inputs": [
        {
          "name": "to",
          "type": "address"
        },
        {
          "name": "tokenId",
          "type": "uint256"
        }
      ],
      "name": "approve",
      "outputs": [],
      "payable": false,
      "stateMutability": "nonpayable",
      "type": "function",
      "signature": "0x095ea7b3"
    },
    {
      "constant": true,
      "inputs": [],
      "name": "totalSupply",
      "outputs": [
        {
          "name": "",
          "type": "uint256"
        }
      ],
      "payable": false,
      "stateMutability": "view",
      "type": "function",
      "signature": "0x18160ddd"
    },
    {
      "constant": false,
      "inputs": [
        {
          "name": "from",
          "type": "address"
        },
        {
          "name": "to",
          "type": "address"
        },
        {
          "name": "tokenId",
          "type": "uint256"
        }
      ],
      "name": "transferFrom",
      "outputs": [],
      "payable": false,
      "stateMutability": "nonpayable",
      "type": "function",
      "signature": "0x23b872dd"
    },
    {
      "constant": true,
      "inputs": [
        {
          "name": "owner",
          "type": "address"
        },
        {
          "name": "index",
          "type": "uint256"
        }
      ],
      "name": "tokenOfOwnerByIndex",
      "outputs": [
        {
          "name": "",
          "type": "uint256"
        }
      ],
      "payable": false,
      "stateMutability": "view",
      "type": "function",
      "signature": "0x2f745c59"
    },
    {
      "constant": false,
      "inputs": [
        {
          "name": "from",
          "type": "address"
        },
        {
          "name": "to",
          "type": "address"
        },
        {
          "name": "tokenId",
          "type": "uint256"
        }
      ],
      "name": "safeTransferFrom",
      "outputs": [],
      "payable": false,
      "stateMutability": "nonpayable",
      "type": "function",
      "signature": "0x42842e0e"
    },
    {
      "constant": true,
      "inputs": [
        {
          "name": "index",
          "type": "uint256"
        }
      ],
      "name": "tokenByIndex",
      "outputs": [
        {
          "name": "",
          "type": "uint256"
        }
      ],
      "payable": false,
      "stateMutability": "view",
      "type": "function",
      "signature": "0x4f6ccce7"
    },
    {
      "constant": true,
      "inputs": [
        {
          "name": "tokenId",
          "type": "uint256"
        }
      ],
      "name": "ownerOf",
      "outputs": [
        {
          "name": "",
          "type": "address"
        }
      ],
      "payable": false,
      "stateMutability": "view",
      "type": "function",
      "signature": "0x6352211e"
    },
    {
      "constant": true,
      "inputs": [
        {
          "name": "owner",
          "type": "address"
        }
      ],
      "name": "balanceOf",
      "outputs": [
        {
          "name": "",
          "type": "uint256"
        }
      ],
      "payable": false,
      "stateMutability": "view",
      "type": "function",
      "signature": "0x70a08231"
    },
    {
      "constant": true,
      "inputs": [],
      "name": "symbol",
      "outputs": [
        {
          "name": "",
          "type": "string"
        }
      ],
      "payable": false,
      "stateMutability": "view",
      "type": "function",
      "signature": "0x95d89b41"
    },
    {
      "constant": false,
      "inputs": [
        {
          "name": "to",
          "type": "address"
        },
        {
          "name": "approved",
          "type": "bool"
        }
      ],
      "name": "setApprovalForAll",
      "outputs": [],
      "payable": false,
      "stateMutability": "nonpayable",
      "type": "function",
      "signature": "0xa22cb465"
    },
    {
      "constant": false,
      "inputs": [
        {
          "name": "from",
          "type": "address"
        },
        {
          "name": "to",
          "type": "address"
        },
        {
          "name": "tokenId",
          "type": "uint256"
        },
        {
          "name": "_data",
          "type": "bytes"
        }
      ],
      "name": "safeTransferFrom",
      "outputs": [],
      "payable": false,
      "stateMutability": "nonpayable",
      "type": "function",
      "signature": "0xb88d4fde"
    },
    {
      "constant": true,
      "inputs": [
        {
          "name": "",
          "type": "uint256"
        }
      ],
      "name": "colors",
      "outputs": [
        {
          "name": "",
          "type": "string"
        }
      ],
      "payable": false,
      "stateMutability": "view",
      "type": "function",
      "signature": "0xbd11f69d"
    },
    {
      "constant": true,
      "inputs": [
        {
          "name": "tokenId",
          "type": "uint256"
        }
      ],
      "name": "tokenURI",
      "outputs": [
        {
          "name": "",
          "type": "string"
        }
      ],
      "payable": false,
      "stateMutability": "view",
      "type": "function",
      "signature": "0xc87b56dd"
    },
    {
      "constant": true,
      "inputs": [
        {
          "name": "owner",
          "type": "address"
        },
        {
          "name": "operator",
          "type": "address"
        }
      ],
      "name": "isApprovedForAll",
      "outputs": [
        {
          "name": "",
          "type": "bool"
        }
      ],
      "payable": false,
      "stateMutability": "view",
      "type": "function",
      "signature": "0xe985e9c5"
    },
    {
      "inputs": [],
      "payable": false,
      "stateMutability": "nonpayable",
      "type": "constructor",
      "signature": "constructor"
    },
    {
      "anonymous": false,
      "inputs": [
        {
          "indexed": true,
          "name": "from",
          "type": "address"
        },
        {
          "indexed": true,
          "name": "to",
          "type": "address"
        },
        {
          "indexed": true,
          "name": "tokenId",
          "type": "uint256"
        }
      ],
      "name": "Transfer",
      "type": "event",
      "signature": "0xddf252ad1be2c89b69c2b068fc378daa952ba7f163c4a11628f55a4df523b3ef"
    },
    {
      "anonymous": false,
      "inputs": [
        {
          "indexed": true,
          "name": "owner",
          "type": "address"
        },
        {
          "indexed": true,
          "name": "approved",
          "type": "address"
        },
        {
          "indexed": true,
          "name": "tokenId",
          "type": "uint256"
        }
      ],
      "name": "Approval",
      "type": "event",
      "signature": "0x8c5be1e5ebec7d5bd14f71427d1e84f3dd0314c0f7b2291e5b200ac8c7c3b925"
    },
    {
      "anonymous": false,
      "inputs": [
        {
          "indexed": true,
          "name": "owner",
          "type": "address"
        },
        {
          "indexed": true,
          "name": "operator",
          "type": "address"
        },
        {
          "indexed": false,
          "name": "approved",
          "type": "bool"
        }
      ],
      "name": "ApprovalForAll",
      "type": "event",
      "signature": "0x17307eab39ab6107e8899845ad3d59bd9653f200f220920489ca2b5937696c31"
    },
    {
      "constant": false,
      "inputs": [
        {
          "name": "_color",
          "type": "string"
        }
      ],
      "name": "mint",
      "outputs": [],
      "payable": false,
      "stateMutability": "nonpayable",
      "type": "function",
      "signature": "0xd85d3d27"
    },
    {
      "constant": false,
      "inputs": [
        {
          "name": "hashedAttr",
          "type": "string"
        }
      ],
      "name": "decodeAttributes",
      "outputs": [
        {
          "name": "",
          "type": "string"
        }
      ],
      "payable": false,
      "stateMutability": "nonpayable",
      "type": "function",
      "signature": "0xc9994223"
    },
    {
      "constant": false,
      "inputs": [
        {
          "name": "eyeColor",
          "type": "uint24"
        },
        {
          "name": "eyeSize",
          "type": "uint8"
        },
        {
          "name": "headColor",
          "type": "uint24"
        },
        {
          "name": "headSize",
          "type": "uint8"
        },
        {
          "name": "beardSize",
          "type": "uint8"
        },
        {
          "name": "tailColor",
          "type": "uint24"
        },
        {
          "name": "tailAccentColor",
          "type": "uint24"
        },
        {
          "name": "tailSize",
          "type": "uint8"
        },
        {
          "name": "bodyColor",
          "type": "uint24"
        },
        {
          "name": "bodyAccentColor",
          "type": "uint24"
        },
        {
          "name": "stripeType",
          "type": "uint8"
        },
        {
          "name": "hungerness",
          "type": "uint8"
        },
        {
          "name": "fragility",
          "type": "uint8"
        },
        {
          "name": "fertility",
          "type": "uint8"
        },
        {
          "name": "appeal",
          "type": "uint8"
        }
      ],
      "name": "encodeAttributes",
      "outputs": [
        {
          "name": "",
          "type": "uint216"
        }
      ],
      "payable": false,
      "stateMutability": "nonpayable",
      "type": "function",
      "signature": "0x370e5caa"
    },
    {
      "constant": false,
      "inputs": [],
      "name": "randomAttributes",
      "outputs": [
        {
          "name": "",
          "type": "string"
        }
      ],
      "payable": false,
      "stateMutability": "nonpayable",
      "type": "function",
      "signature": "0x48c0992b"
    },
    {
      "constant": true,
      "inputs": [
        {
          "name": "pisiHash",
          "type": "string"
        }
      ],
      "name": "getEyeColor",
      "outputs": [
        {
          "name": "",
          "type": "string"
        }
      ],
      "payable": false,
      "stateMutability": "view",
      "type": "function",
      "signature": "0x5aee4330"
    },
    {
      "constant": true,
      "inputs": [
        {
          "name": "pisiHash",
          "type": "string"
        }
      ],
      "name": "getEyeSize",
      "outputs": [
        {
          "name": "",
          "type": "string"
        }
      ],
      "payable": false,
      "stateMutability": "view",
      "type": "function",
      "signature": "0xab76c013"
    },
    {
      "constant": true,
      "inputs": [
        {
          "name": "pisiHash",
          "type": "string"
        }
      ],
      "name": "getHeadColor",
      "outputs": [
        {
          "name": "",
          "type": "string"
        }
      ],
      "payable": false,
      "stateMutability": "view",
      "type": "function",
      "signature": "0x2f1c4ba3"
    },
    {
      "constant": true,
      "inputs": [
        {
          "name": "pisiHash",
          "type": "string"
        }
      ],
      "name": "getHeadSize",
      "outputs": [
        {
          "name": "",
          "type": "string"
        }
      ],
      "payable": false,
      "stateMutability": "view",
      "type": "function",
      "signature": "0x72eb3e09"
    },
    {
      "constant": true,
      "inputs": [
        {
          "name": "pisiHash",
          "type": "string"
        }
      ],
      "name": "getBeardSize",
      "outputs": [
        {
          "name": "",
          "type": "string"
        }
      ],
      "payable": false,
      "stateMutability": "view",
      "type": "function",
      "signature": "0x5d30e7e2"
    },
    {
      "constant": true,
      "inputs": [
        {
          "name": "pisiHash",
          "type": "string"
        }
      ],
      "name": "getTailColor",
      "outputs": [
        {
          "name": "",
          "type": "string"
        }
      ],
      "payable": false,
      "stateMutability": "view",
      "type": "function",
      "signature": "0xc5f4496a"
    },
    {
      "constant": true,
      "inputs": [
        {
          "name": "pisiHash",
          "type": "string"
        }
      ],
      "name": "getTailAccentColor",
      "outputs": [
        {
          "name": "",
          "type": "string"
        }
      ],
      "payable": false,
      "stateMutability": "view",
      "type": "function",
      "signature": "0xad267e72"
    },
    {
      "constant": true,
      "inputs": [
        {
          "name": "pisiHash",
          "type": "string"
        }
      ],
      "name": "getTailSize",
      "outputs": [
        {
          "name": "",
          "type": "string"
        }
      ],
      "payable": false,
      "stateMutability": "view",
      "type": "function",
      "signature": "0xe3395e9c"
    },
    {
      "constant": true,
      "inputs": [
        {
          "name": "pisiHash",
          "type": "string"
        }
      ],
      "name": "getBodyColor",
      "outputs": [
        {
          "name": "",
          "type": "string"
        }
      ],
      "payable": false,
      "stateMutability": "view",
      "type": "function",
      "signature": "0xa937f3db"
    },
    {
      "constant": true,
      "inputs": [
        {
          "name": "pisiHash",
          "type": "string"
        }
      ],
      "name": "getBodyAccentColor",
      "outputs": [
        {
          "name": "",
          "type": "string"
        }
      ],
      "payable": false,
      "stateMutability": "view",
      "type": "function",
      "signature": "0x33ccc11a"
    },
    {
      "constant": true,
      "inputs": [
        {
          "name": "pisiHash",
          "type": "string"
        }
      ],
      "name": "getStripeType",
      "outputs": [
        {
          "name": "",
          "type": "string"
        }
      ],
      "payable": false,
      "stateMutability": "view",
      "type": "function",
      "signature": "0x1e9abcac"
    },
    {
      "constant": true,
      "inputs": [
        {
          "name": "pisiHash",
          "type": "string"
        }
      ],
      "name": "getHungerness",
      "outputs": [
        {
          "name": "",
          "type": "string"
        }
      ],
      "payable": false,
      "stateMutability": "view",
      "type": "function",
      "signature": "0xcbc9c4a3"
    },
    {
      "constant": true,
      "inputs": [
        {
          "name": "pisiHash",
          "type": "string"
        }
      ],
      "name": "getFragility",
      "outputs": [
        {
          "name": "",
          "type": "string"
        }
      ],
      "payable": false,
      "stateMutability": "view",
      "type": "function",
      "signature": "0xa1f5fc03"
    },
    {
      "constant": true,
      "inputs": [
        {
          "name": "pisiHash",
          "type": "string"
        }
      ],
      "name": "getFertility",
      "outputs": [
        {
          "name": "",
          "type": "string"
        }
      ],
      "payable": false,
      "stateMutability": "view",
      "type": "function",
      "signature": "0xf7f8c32b"
    },
    {
      "constant": true,
      "inputs": [
        {
          "name": "pisiHash",
          "type": "string"
        }
      ],
      "name": "getAppeal",
      "outputs": [
        {
          "name": "",
          "type": "string"
        }
      ],
      "payable": false,
      "stateMutability": "view",
      "type": "function",
      "signature": "0xd8c6b1da"
    }
  ],
  "bytecode": "0x60806040523480156200001157600080fd5b506040805190810160405280600581526020017f436f6c6f720000000000000000000000000000000000000000000000000000008152506040805190810160405280600581526020017f434f4c4f520000000000000000000000000000000000000000000000000000008152508181620000bd6301ffc9a77c010000000000000000000000000000000000000000000000000000000002620001b0640100000000026401000000009004565b620000fa6380ac58cd7c010000000000000000000000000000000000000000000000000000000002620001b0640100000000026401000000009004565b6200013763780e9d637c010000000000000000000000000000000000000000000000000000000002620001b0640100000000026401000000009004565b81600990805190602001906200014f929190620002d7565b5080600a908051906020019062000168929190620002d7565b50620001a6635b5e139f7c010000000000000000000000000000000000000000000000000000000002620001b0640100000000026401000000009004565b5050505062000386565b63ffffffff7c010000000000000000000000000000000000000000000000000000000002817bffffffffffffffffffffffffffffffffffffffffffffffffffffffff1916141515156200026b576040517f08c379a000000000000000000000000000000000000000000000000000000000815260040180806020018281038252601c8152602001807f4552433136353a20696e76616c696420696e746572666163652069640000000081525060200191505060405180910390fd5b6001600080837bffffffffffffffffffffffffffffffffffffffffffffffffffffffff19167bffffffffffffffffffffffffffffffffffffffffffffffffffffffff1916815260200190815260200160002060006101000a81548160ff02191690831515021790555050565b828054600181600116156101000203166002900490600052602060002090601f016020900481019282601f106200031a57805160ff19168380011785556200034b565b828001600101855582156200034b579182015b828111156200034a5782518255916020019190600101906200032d565b5b5090506200035a91906200035e565b5090565b6200038391905b808211156200037f57600081600090555060010162000365565b5090565b90565b615e6380620003966000396000f3fe6080604052600436106101c2576000357c0100000000000000000000000000000000000000000000000000000000900463ffffffff16806301ffc9a7146101c757806306fdde0314610239578063081812fc146102c9578063095ea7b31461034457806318160ddd1461039f5780631e9abcac146103ca57806323b872dd1461050b5780632f1c4ba3146105865780632f745c59146106c757806333ccc11a14610736578063370e5caa1461087757806342842e0e146109c657806348c0992b14610a415780634f6ccce714610ad15780635aee433014610b205780635d30e7e214610c615780636352211e14610da257806370a0823114610e1d57806372eb3e0914610e8257806395d89b4114610fc3578063a1f5fc0314611053578063a22cb46514611194578063a937f3db146111f1578063ab76c01314611332578063ad267e7214611473578063b88d4fde146115b4578063bd11f69d146116c6578063c5f4496a1461177a578063c87b56dd146118bb578063c99942231461196f578063cbc9c4a314611ab0578063d85d3d2714611bf1578063d8c6b1da14611cb9578063e3395e9c14611dfa578063e985e9c514611f3b578063f7f8c32b14611fc4575b600080fd5b3480156101d357600080fd5b5061021f600480360360208110156101ea57600080fd5b8101908080357bffffffffffffffffffffffffffffffffffffffffffffffffffffffff19169060200190929190505050612105565b604051808215151515815260200191505060405180910390f35b34801561024557600080fd5b5061024e61216c565b6040518080602001828103825283818151815260200191508051906020019080838360005b8381101561028e578082015181840152602081019050610273565b50505050905090810190601f1680156102bb5780820380516001836020036101000a031916815260200191505b509250505060405180910390f35b3480156102d557600080fd5b50610302600480360360208110156102ec57600080fd5b810190808035906020019092919050505061220e565b604051808273ffffffffffffffffffffffffffffffffffffffff1673ffffffffffffffffffffffffffffffffffffffff16815260200191505060405180910390f35b34801561035057600080fd5b5061039d6004803603604081101561036757600080fd5b81019080803573ffffffffffffffffffffffffffffffffffffffff169060200190929190803590602001909291905050506122ee565b005b3480156103ab57600080fd5b506103b4612551565b6040518082815260200191505060405180910390f35b3480156103d657600080fd5b50610490600480360360208110156103ed57600080fd5b810190808035906020019064010000000081111561040a57600080fd5b82018360208201111561041c57600080fd5b8035906020019184600183028401116401000000008311171561043e57600080fd5b91908080601f016020809104026020016040519081016040528093929190818152602001838380828437600081840152601f19601f82011690508083019250505050505050919291929050505061255e565b6040518080602001828103825283818151815260200191508051906020019080838360005b838110156104d05780820151818401526020810190506104b5565b50505050905090810190601f1680156104fd5780820380516001836020036101000a031916815260200191505b509250505060405180910390f35b34801561051757600080fd5b506105846004803603606081101561052e57600080fd5b81019080803573ffffffffffffffffffffffffffffffffffffffff169060200190929190803573ffffffffffffffffffffffffffffffffffffffff1690602001909291908035906020019092919050505061266e565b005b34801561059257600080fd5b5061064c600480360360208110156105a957600080fd5b81019080803590602001906401000000008111156105c657600080fd5b8201836020820111156105d857600080fd5b803590602001918460018302840111640100000000831117156105fa57600080fd5b91908080601f016020809104026020016040519081016040528093929190818152602001838380828437600081840152601f19601f820116905080830192505050505050509192919290505050612722565b6040518080602001828103825283818151815260200191508051906020019080838360005b8381101561068c578082015181840152602081019050610671565b50505050905090810190601f1680156106b95780820380516001836020036101000a031916815260200191505b509250505060405180910390f35b3480156106d357600080fd5b50610720600480360360408110156106ea57600080fd5b81019080803573ffffffffffffffffffffffffffffffffffffffff16906020019092919080359060200190929190505050612832565b6040518082815260200191505060405180910390f35b34801561074257600080fd5b506107fc6004803603602081101561075957600080fd5b810190808035906020019064010000000081111561077657600080fd5b82018360208201111561078857600080fd5b803590602001918460018302840111640100000000831117156107aa57600080fd5b91908080601f016020809104026020016040519081016040528093929190818152602001838380828437600081840152601f19601f820116905080830192505050505050509192919290505050612938565b6040518080602001828103825283818151815260200191508051906020019080838360005b8381101561083c578082015181840152602081019050610821565b50505050905090810190601f1680156108695780820380516001836020036101000a031916815260200191505b509250505060405180910390f35b34801561088357600080fd5b5061097660048036036101e081101561089b57600080fd5b81019080803562ffffff169060200190929190803560ff169060200190929190803562ffffff169060200190929190803560ff169060200190929190803560ff169060200190929190803562ffffff169060200190929190803562ffffff169060200190929190803560ff169060200190929190803562ffffff169060200190929190803562ffffff169060200190929190803560ff169060200190929190803560ff169060200190929190803560ff169060200190929190803560ff169060200190929190803560ff169060200190929190505050612a48565b60405180827affffffffffffffffffffffffffffffffffffffffffffffffffffff167affffffffffffffffffffffffffffffffffffffffffffffffffffff16815260200191505060405180910390f35b3480156109d257600080fd5b50610a3f600480360360608110156109e957600080fd5b81019080803573ffffffffffffffffffffffffffffffffffffffff169060200190929190803573ffffffffffffffffffffffffffffffffffffffff16906020019092919080359060200190929190505050612a5d565b005b348015610a4d57600080fd5b50610a56612a7e565b6040518080602001828103825283818151815260200191508051906020019080838360005b83811015610a96578082015181840152602081019050610a7b565b50505050905090810190601f168015610ac35780820380516001836020036101000a031916815260200191505b509250505060405180910390f35b348015610add57600080fd5b50610b0a60048036036020811015610af457600080fd5b81019080803590602001909291905050506130e8565b6040518082815260200191505060405180910390f35b348015610b2c57600080fd5b50610be660048036036020811015610b4357600080fd5b8101908080359060200190640100000000811115610b6057600080fd5b820183602082011115610b7257600080fd5b80359060200191846001830284011164010000000083111715610b9457600080fd5b91908080601f016020809104026020016040519081016040528093929190818152602001838380828437600081840152601f19601f8201169050808301925050505050505091929192905050506131af565b6040518080602001828103825283818151815260200191508051906020019080838360005b83811015610c26578082015181840152602081019050610c0b565b50505050905090810190601f168015610c535780820380516001836020036101000a031916815260200191505b509250505060405180910390f35b348015610c6d57600080fd5b50610d2760048036036020811015610c8457600080fd5b8101908080359060200190640100000000811115610ca157600080fd5b820183602082011115610cb357600080fd5b80359060200191846001830284011164010000000083111715610cd557600080fd5b91908080601f016020809104026020016040519081016040528093929190818152602001838380828437600081840152601f19601f8201169050808301925050505050505091929192905050506132bf565b6040518080602001828103825283818151815260200191508051906020019080838360005b83811015610d67578082015181840152602081019050610d4c565b50505050905090810190601f168015610d945780820380516001836020036101000a031916815260200191505b509250505060405180910390f35b348015610dae57600080fd5b50610ddb60048036036020811015610dc557600080fd5b81019080803590602001909291905050506133cf565b604051808273ffffffffffffffffffffffffffffffffffffffff1673ffffffffffffffffffffffffffffffffffffffff16815260200191505060405180910390f35b348015610e2957600080fd5b50610e6c60048036036020811015610e4057600080fd5b81019080803573ffffffffffffffffffffffffffffffffffffffff1690602001909291905050506134dc565b6040518082815260200191505060405180910390f35b348015610e8e57600080fd5b50610f4860048036036020811015610ea557600080fd5b8101908080359060200190640100000000811115610ec257600080fd5b820183602082011115610ed457600080fd5b80359060200191846001830284011164010000000083111715610ef657600080fd5b91908080601f016020809104026020016040519081016040528093929190818152602001838380828437600081840152601f19601f8201169050808301925050505050505091929192905050506135f6565b6040518080602001828103825283818151815260200191508051906020019080838360005b83811015610f88578082015181840152602081019050610f6d565b50505050905090810190601f168015610fb55780820380516001836020036101000a031916815260200191505b509250505060405180910390f35b348015610fcf57600080fd5b50610fd8613706565b6040518080602001828103825283818151815260200191508051906020019080838360005b83811015611018578082015181840152602081019050610ffd565b50505050905090810190601f1680156110455780820380516001836020036101000a031916815260200191505b509250505060405180910390f35b34801561105f57600080fd5b506111196004803603602081101561107657600080fd5b810190808035906020019064010000000081111561109357600080fd5b8201836020820111156110a557600080fd5b803590602001918460018302840111640100000000831117156110c757600080fd5b91908080601f016020809104026020016040519081016040528093929190818152602001838380828437600081840152601f19601f8201169050808301925050505050505091929192905050506137a8565b6040518080602001828103825283818151815260200191508051906020019080838360005b8381101561115957808201518184015260208101905061113e565b50505050905090810190601f1680156111865780820380516001836020036101000a031916815260200191505b509250505060405180910390f35b3480156111a057600080fd5b506111ef600480360360408110156111b757600080fd5b81019080803573ffffffffffffffffffffffffffffffffffffffff1690602001909291908035151590602001909291905050506138b8565b005b3480156111fd57600080fd5b506112b76004803603602081101561121457600080fd5b810190808035906020019064010000000081111561123157600080fd5b82018360208201111561124357600080fd5b8035906020019184600183028401116401000000008311171561126557600080fd5b91908080601f016020809104026020016040519081016040528093929190818152602001838380828437600081840152601f19601f820116905080830192505050505050509192919290505050613a5d565b6040518080602001828103825283818151815260200191508051906020019080838360005b838110156112f75780820151818401526020810190506112dc565b50505050905090810190601f1680156113245780820380516001836020036101000a031916815260200191505b509250505060405180910390f35b34801561133e57600080fd5b506113f86004803603602081101561135557600080fd5b810190808035906020019064010000000081111561137257600080fd5b82018360208201111561138457600080fd5b803590602001918460018302840111640100000000831117156113a657600080fd5b91908080601f016020809104026020016040519081016040528093929190818152602001838380828437600081840152601f19601f820116905080830192505050505050509192919290505050613b6d565b6040518080602001828103825283818151815260200191508051906020019080838360005b8381101561143857808201518184015260208101905061141d565b50505050905090810190601f1680156114655780820380516001836020036101000a031916815260200191505b509250505060405180910390f35b34801561147f57600080fd5b506115396004803603602081101561149657600080fd5b81019080803590602001906401000000008111156114b357600080fd5b8201836020820111156114c557600080fd5b803590602001918460018302840111640100000000831117156114e757600080fd5b91908080601f016020809104026020016040519081016040528093929190818152602001838380828437600081840152601f19601f820116905080830192505050505050509192919290505050613c7d565b6040518080602001828103825283818151815260200191508051906020019080838360005b8381101561157957808201518184015260208101905061155e565b50505050905090810190601f1680156115a65780820380516001836020036101000a031916815260200191505b509250505060405180910390f35b3480156115c057600080fd5b506116c4600480360360808110156115d757600080fd5b81019080803573ffffffffffffffffffffffffffffffffffffffff169060200190929190803573ffffffffffffffffffffffffffffffffffffffff169060200190929190803590602001909291908035906020019064010000000081111561163e57600080fd5b82018360208201111561165057600080fd5b8035906020019184600183028401116401000000008311171561167257600080fd5b91908080601f016020809104026020016040519081016040528093929190818152602001838380828437600081840152601f19601f820116905080830192505050505050509192919290505050613d8d565b005b3480156116d257600080fd5b506116ff600480360360208110156116e957600080fd5b8101908080359060200190929190505050613e44565b6040518080602001828103825283818151815260200191508051906020019080838360005b8381101561173f578082015181840152602081019050611724565b50505050905090810190601f16801561176c5780820380516001836020036101000a031916815260200191505b509250505060405180910390f35b34801561178657600080fd5b506118406004803603602081101561179d57600080fd5b81019080803590602001906401000000008111156117ba57600080fd5b8201836020820111156117cc57600080fd5b803590602001918460018302840111640100000000831117156117ee57600080fd5b91908080601f016020809104026020016040519081016040528093929190818152602001838380828437600081840152601f19601f820116905080830192505050505050509192919290505050613eff565b6040518080602001828103825283818151815260200191508051906020019080838360005b83811015611880578082015181840152602081019050611865565b50505050905090810190601f1680156118ad5780820380516001836020036101000a031916815260200191505b509250505060405180910390f35b3480156118c757600080fd5b506118f4600480360360208110156118de57600080fd5b810190808035906020019092919050505061400f565b6040518080602001828103825283818151815260200191508051906020019080838360005b83811015611934578082015181840152602081019050611919565b50505050905090810190601f1680156119615780820380516001836020036101000a031916815260200191505b509250505060405180910390f35b34801561197b57600080fd5b50611a356004803603602081101561199257600080fd5b81019080803590602001906401000000008111156119af57600080fd5b8201836020820111156119c157600080fd5b803590602001918460018302840111640100000000831117156119e357600080fd5b91908080601f016020809104026020016040519081016040528093929190818152602001838380828437600081840152601f19601f820116905080830192505050505050509192919290505050614167565b6040518080602001828103825283818151815260200191508051906020019080838360005b83811015611a75578082015181840152602081019050611a5a565b50505050905090810190601f168015611aa25780820380516001836020036101000a031916815260200191505b509250505060405180910390f35b348015611abc57600080fd5b50611b7660048036036020811015611ad357600080fd5b8101908080359060200190640100000000811115611af057600080fd5b820183602082011115611b0257600080fd5b80359060200191846001830284011164010000000083111715611b2457600080fd5b91908080601f016020809104026020016040519081016040528093929190818152602001838380828437600081840152601f19601f8201169050808301925050505050505091929192905050506144be565b6040518080602001828103825283818151815260200191508051906020019080838360005b83811015611bb6578082015181840152602081019050611b9b565b50505050905090810190601f168015611be35780820380516001836020036101000a031916815260200191505b509250505060405180910390f35b348015611bfd57600080fd5b50611cb760048036036020811015611c1457600080fd5b8101908080359060200190640100000000811115611c3157600080fd5b820183602082011115611c4357600080fd5b80359060200191846001830284011164010000000083111715611c6557600080fd5b91908080601f016020809104026020016040519081016040528093929190818152602001838380828437600081840152601f19601f8201169050808301925050505050505091929192905050506145ce565b005b348015611cc557600080fd5b50611d7f60048036036020811015611cdc57600080fd5b8101908080359060200190640100000000811115611cf957600080fd5b820183602082011115611d0b57600080fd5b80359060200191846001830284011164010000000083111715611d2d57600080fd5b91908080601f016020809104026020016040519081016040528093929190818152602001838380828437600081840152601f19601f820116905080830192505050505050509192919290505050614727565b6040518080602001828103825283818151815260200191508051906020019080838360005b83811015611dbf578082015181840152602081019050611da4565b50505050905090810190601f168015611dec5780820380516001836020036101000a031916815260200191505b509250505060405180910390f35b348015611e0657600080fd5b50611ec060048036036020811015611e1d57600080fd5b8101908080359060200190640100000000811115611e3a57600080fd5b820183602082011115611e4c57600080fd5b80359060200191846001830284011164010000000083111715611e6e57600080fd5b91908080601f016020809104026020016040519081016040528093929190818152602001838380828437600081840152601f19601f820116905080830192505050505050509192919290505050614837565b6040518080602001828103825283818151815260200191508051906020019080838360005b83811015611f00578082015181840152602081019050611ee5565b50505050905090810190601f168015611f2d5780820380516001836020036101000a031916815260200191505b509250505060405180910390f35b348015611f4757600080fd5b50611faa60048036036040811015611f5e57600080fd5b81019080803573ffffffffffffffffffffffffffffffffffffffff169060200190929190803573ffffffffffffffffffffffffffffffffffffffff169060200190929190505050614947565b604051808215151515815260200191505060405180910390f35b348015611fd057600080fd5b5061208a60048036036020811015611fe757600080fd5b810190808035906020019064010000000081111561200457600080fd5b82018360208201111561201657600080fd5b8035906020019184600183028401116401000000008311171561203857600080fd5b91908080601f016020809104026020016040519081016040528093929190818152602001838380828437600081840152601f19601f8201169050808301925050505050505091929192905050506149db565b6040518080602001828103825283818151815260200191508051906020019080838360005b838110156120ca5780820151818401526020810190506120af565b50505050905090810190601f1680156120f75780820380516001836020036101000a031916815260200191505b509250505060405180910390f35b6000806000837bffffffffffffffffffffffffffffffffffffffffffffffffffffffff19167bffffffffffffffffffffffffffffffffffffffffffffffffffffffff1916815260200190815260200160002060009054906101000a900460ff169050919050565b606060098054600181600116156101000203166002900480601f0160208091040260200160405190810160405280929190818152602001828054600181600116156101000203166002900480156122045780601f106121d957610100808354040283529160200191612204565b820191906000526020600020905b8154815290600101906020018083116121e757829003601f168201915b5050505050905090565b600061221982614aeb565b15156122b3576040517f08c379a000000000000000000000000000000000000000000000000000000000815260040180806020018281038252602c8152602001807f4552433732313a20617070726f76656420717565727920666f72206e6f6e657881526020017f697374656e7420746f6b656e000000000000000000000000000000000000000081525060400191505060405180910390fd5b6002600083815260200190815260200160002060009054906101000a900473ffffffffffffffffffffffffffffffffffffffff169050919050565b60006122f9826133cf565b90508073ffffffffffffffffffffffffffffffffffffffff168373ffffffffffffffffffffffffffffffffffffffff16141515156123c5576040517f08c379a00000000000000000000000000000000000000000000000000000000081526004018080602001828103825260218152602001807f4552433732313a20617070726f76616c20746f2063757272656e74206f776e6581526020017f720000000000000000000000000000000000000000000000000000000000000081525060400191505060405180910390fd5b8073ffffffffffffffffffffffffffffffffffffffff163373ffffffffffffffffffffffffffffffffffffffff16148061240557506124048133614947565b5b151561249f576040517f08c379a00000000000000000000000000000000000000000000000000000000081526004018080602001828103825260388152602001807f4552433732313a20617070726f76652063616c6c6572206973206e6f74206f7781526020017f6e6572206e6f7220617070726f76656420666f7220616c6c000000000000000081525060400191505060405180910390fd5b826002600084815260200190815260200160002060006101000a81548173ffffffffffffffffffffffffffffffffffffffff021916908373ffffffffffffffffffffffffffffffffffffffff160217905550818373ffffffffffffffffffffffffffffffffffffffff168273ffffffffffffffffffffffffffffffffffffffff167f8c5be1e5ebec7d5bd14f71427d1e84f3dd0314c0f7b2291e5b200ac8c7c3b92560405160405180910390a4505050565b6000600780549050905090565b6060600e826040518082805190602001908083835b6020831015156125985780518252602082019150602081019050602083039250612573565b6001836020036101000a0380198251168184511680821785525050505050509050019150509081526020016040518091039020600a018054600181600116156101000203166002900480601f0160208091040260200160405190810160405280929190818152602001828054600181600116156101000203166002900480156126625780601f1061263757610100808354040283529160200191612662565b820191906000526020600020905b81548152906001019060200180831161264557829003601f168201915b50505050509050919050565b6126783382614b5d565b1515612712576040517f08c379a00000000000000000000000000000000000000000000000000000000081526004018080602001828103825260318152602001807f4552433732313a207472616e736665722063616c6c6572206973206e6f74206f81526020017f776e6572206e6f7220617070726f76656400000000000000000000000000000081525060400191505060405180910390fd5b61271d838383614c96565b505050565b6060600e826040518082805190602001908083835b60208310151561275c5780518252602082019150602081019050602083039250612737565b6001836020036101000a03801982511681845116808217855250505050505090500191505090815260200160405180910390206002018054600181600116156101000203166002900480601f0160208091040260200160405190810160405280929190818152602001828054600181600116156101000203166002900480156128265780601f106127fb57610100808354040283529160200191612826565b820191906000526020600020905b81548152906001019060200180831161280957829003601f168201915b50505050509050919050565b600061283d836134dc565b821015156128d9576040517f08c379a000000000000000000000000000000000000000000000000000000000815260040180806020018281038252602b8152602001807f455243373231456e756d657261626c653a206f776e657220696e646578206f7581526020017f74206f6620626f756e647300000000000000000000000000000000000000000081525060400191505060405180910390fd5b600560008473ffffffffffffffffffffffffffffffffffffffff1673ffffffffffffffffffffffffffffffffffffffff1681526020019081526020016000208281548110151561292557fe5b9060005260206000200154905092915050565b6060600e826040518082805190602001908083835b602083101515612972578051825260208201915060208101905060208303925061294d565b6001836020036101000a03801982511681845116808217855250505050505090500191505090815260200160405180910390206009018054600181600116156101000203166002900480601f016020809104026020016040519081016040528092919081815260200182805460018160011615610100020316600290048015612a3c5780601f10612a1157610100808354040283529160200191612a3c565b820191906000526020600020905b815481529060010190602001808311612a1f57829003601f168201915b50505050509050919050565b60009f9e505050505050505050505050505050565b612a798383836020604051908101604052806000815250613d8d565b505050565b6060600042446040516020018083815260200182815260200192505050604051602081830303815290604052805190602001206001900490506060612ad1630100000083811515612acb57fe5b06614cba565b90506060612aeb61010084811515612ae557fe5b06614e58565b90506130e082828484858788886040516020018089805190602001908083835b602083101515612b305780518252602082019150602081019050602083039250612b0b565b6001836020036101000a03801982511681845116808217855250505050505090500188805190602001908083835b602083101515612b835780518252602082019150602081019050602083039250612b5e565b6001836020036101000a03801982511681845116808217855250505050505090500187805190602001908083835b602083101515612bd65780518252602082019150602081019050602083039250612bb1565b6001836020036101000a03801982511681845116808217855250505050505090500186805190602001908083835b602083101515612c295780518252602082019150602081019050602083039250612c04565b6001836020036101000a03801982511681845116808217855250505050505090500185805190602001908083835b602083101515612c7c5780518252602082019150602081019050602083039250612c57565b6001836020036101000a03801982511681845116808217855250505050505090500184805190602001908083835b602083101515612ccf5780518252602082019150602081019050602083039250612caa565b6001836020036101000a03801982511681845116808217855250505050505090500183805190602001908083835b602083101515612d225780518252602082019150602081019050602083039250612cfd565b6001836020036101000a03801982511681845116808217855250505050505090500182805190602001908083835b602083101515612d755780518252602082019150602081019050602083039250612d50565b6001836020036101000a03801982511681845116808217855250505050505090500198505050505050505050604051602081830303815290604052838484858687886040516020018088805190602001908083835b602083101515612def5780518252602082019150602081019050602083039250612dca565b6001836020036101000a03801982511681845116808217855250505050505090500187805190602001908083835b602083101515612e425780518252602082019150602081019050602083039250612e1d565b6001836020036101000a03801982511681845116808217855250505050505090500186805190602001908083835b602083101515612e955780518252602082019150602081019050602083039250612e70565b6001836020036101000a03801982511681845116808217855250505050505090500185805190602001908083835b602083101515612ee85780518252602082019150602081019050602083039250612ec3565b6001836020036101000a03801982511681845116808217855250505050505090500184805190602001908083835b602083101515612f3b5780518252602082019150602081019050602083039250612f16565b6001836020036101000a03801982511681845116808217855250505050505090500183805190602001908083835b602083101515612f8e5780518252602082019150602081019050602083039250612f69565b6001836020036101000a03801982511681845116808217855250505050505090500182805190602001908083835b602083101515612fe15780518252602082019150602081019050602083039250612fbc565b6001836020036101000a0380198251168184511680821785525050505050509050019750505050505050506040516020818303038152906040526040516020018083805190602001908083835b602083101515613053578051825260208201915060208101905060208303925061302e565b6001836020036101000a03801982511681845116808217855250505050505090500182805190602001908083835b6020831015156130a65780518252602082019150602081019050602083039250613081565b6001836020036101000a03801982511681845116808217855250505050505090500192505050604051602081830303815290604052614167565b935050505090565b60006130f2612551565b8210151561318e576040517f08c379a000000000000000000000000000000000000000000000000000000000815260040180806020018281038252602c8152602001807f455243373231456e756d657261626c653a20676c6f62616c20696e646578206f81526020017f7574206f6620626f756e6473000000000000000000000000000000000000000081525060400191505060405180910390fd5b60078281548110151561319d57fe5b90600052602060002001549050919050565b6060600e826040518082805190602001908083835b6020831015156131e957805182526020820191506020810190506020830392506131c4565b6001836020036101000a03801982511681845116808217855250505050505090500191505090815260200160405180910390206000018054600181600116156101000203166002900480601f0160208091040260200160405190810160405280929190818152602001828054600181600116156101000203166002900480156132b35780601f10613288576101008083540402835291602001916132b3565b820191906000526020600020905b81548152906001019060200180831161329657829003601f168201915b50505050509050919050565b6060600e826040518082805190602001908083835b6020831015156132f957805182526020820191506020810190506020830392506132d4565b6001836020036101000a03801982511681845116808217855250505050505090500191505090815260200160405180910390206004018054600181600116156101000203166002900480601f0160208091040260200160405190810160405280929190818152602001828054600181600116156101000203166002900480156133c35780601f10613398576101008083540402835291602001916133c3565b820191906000526020600020905b8154815290600101906020018083116133a657829003601f168201915b50505050509050919050565b6000806001600084815260200190815260200160002060009054906101000a900473ffffffffffffffffffffffffffffffffffffffff169050600073ffffffffffffffffffffffffffffffffffffffff168173ffffffffffffffffffffffffffffffffffffffff16141515156134d3576040517f08c379a00000000000000000000000000000000000000000000000000000000081526004018080602001828103825260298152602001807f4552433732313a206f776e657220717565727920666f72206e6f6e657869737481526020017f656e7420746f6b656e000000000000000000000000000000000000000000000081525060400191505060405180910390fd5b80915050919050565b60008073ffffffffffffffffffffffffffffffffffffffff168273ffffffffffffffffffffffffffffffffffffffff16141515156135a8576040517f08c379a000000000000000000000000000000000000000000000000000000000815260040180806020018281038252602a8152602001807f4552433732313a2062616c616e636520717565727920666f7220746865207a6581526020017f726f20616464726573730000000000000000000000000000000000000000000081525060400191505060405180910390fd5b6135ef600360008473ffffffffffffffffffffffffffffffffffffffff1673ffffffffffffffffffffffffffffffffffffffff168152602001908152602001600020614fb1565b9050919050565b6060600e826040518082805190602001908083835b602083101515613630578051825260208201915060208101905060208303925061360b565b6001836020036101000a03801982511681845116808217855250505050505090500191505090815260200160405180910390206003018054600181600116156101000203166002900480601f0160208091040260200160405190810160405280929190818152602001828054600181600116156101000203166002900480156136fa5780601f106136cf576101008083540402835291602001916136fa565b820191906000526020600020905b8154815290600101906020018083116136dd57829003601f168201915b50505050509050919050565b6060600a8054600181600116156101000203166002900480601f01602080910402602001604051908101604052809291908181526020018280546001816001161561010002031660029004801561379e5780601f106137735761010080835404028352916020019161379e565b820191906000526020600020905b81548152906001019060200180831161378157829003601f168201915b5050505050905090565b6060600e826040518082805190602001908083835b6020831015156137e257805182526020820191506020810190506020830392506137bd565b6001836020036101000a0380198251168184511680821785525050505050509050019150509081526020016040518091039020600c018054600181600116156101000203166002900480601f0160208091040260200160405190810160405280929190818152602001828054600181600116156101000203166002900480156138ac5780601f10613881576101008083540402835291602001916138ac565b820191906000526020600020905b81548152906001019060200180831161388f57829003601f168201915b50505050509050919050565b3373ffffffffffffffffffffffffffffffffffffffff168273ffffffffffffffffffffffffffffffffffffffff161415151561395c576040517f08c379a00000000000000000000000000000000000000000000000000000000081526004018080602001828103825260198152602001807f4552433732313a20617070726f766520746f2063616c6c65720000000000000081525060200191505060405180910390fd5b80600460003373ffffffffffffffffffffffffffffffffffffffff1673ffffffffffffffffffffffffffffffffffffffff16815260200190815260200160002060008473ffffffffffffffffffffffffffffffffffffffff1673ffffffffffffffffffffffffffffffffffffffff16815260200190815260200160002060006101000a81548160ff0219169083151502179055508173ffffffffffffffffffffffffffffffffffffffff163373ffffffffffffffffffffffffffffffffffffffff167f17307eab39ab6107e8899845ad3d59bd9653f200f220920489ca2b5937696c3183604051808215151515815260200191505060405180910390a35050565b6060600e826040518082805190602001908083835b602083101515613a975780518252602082019150602081019050602083039250613a72565b6001836020036101000a03801982511681845116808217855250505050505090500191505090815260200160405180910390206008018054600181600116156101000203166002900480601f016020809104026020016040519081016040528092919081815260200182805460018160011615610100020316600290048015613b615780601f10613b3657610100808354040283529160200191613b61565b820191906000526020600020905b815481529060010190602001808311613b4457829003601f168201915b50505050509050919050565b6060600e826040518082805190602001908083835b602083101515613ba75780518252602082019150602081019050602083039250613b82565b6001836020036101000a03801982511681845116808217855250505050505090500191505090815260200160405180910390206001018054600181600116156101000203166002900480601f016020809104026020016040519081016040528092919081815260200182805460018160011615610100020316600290048015613c715780601f10613c4657610100808354040283529160200191613c71565b820191906000526020600020905b815481529060010190602001808311613c5457829003601f168201915b50505050509050919050565b6060600e826040518082805190602001908083835b602083101515613cb75780518252602082019150602081019050602083039250613c92565b6001836020036101000a03801982511681845116808217855250505050505090500191505090815260200160405180910390206006018054600181600116156101000203166002900480601f016020809104026020016040519081016040528092919081815260200182805460018160011615610100020316600290048015613d815780601f10613d5657610100808354040283529160200191613d81565b820191906000526020600020905b815481529060010190602001808311613d6457829003601f168201915b50505050509050919050565b613d9884848461266e565b613da484848484614fbf565b1515613e3e576040517f08c379a00000000000000000000000000000000000000000000000000000000081526004018080602001828103825260328152602001807f4552433732313a207472616e7366657220746f206e6f6e20455243373231526581526020017f63656976657220696d706c656d656e746572000000000000000000000000000081525060400191505060405180910390fd5b50505050565b600c81815481101515613e5357fe5b906000526020600020016000915090508054600181600116156101000203166002900480601f016020809104026020016040519081016040528092919081815260200182805460018160011615610100020316600290048015613ef75780601f10613ecc57610100808354040283529160200191613ef7565b820191906000526020600020905b815481529060010190602001808311613eda57829003601f168201915b505050505081565b6060600e826040518082805190602001908083835b602083101515613f395780518252602082019150602081019050602083039250613f14565b6001836020036101000a03801982511681845116808217855250505050505090500191505090815260200160405180910390206005018054600181600116156101000203166002900480601f0160208091040260200160405190810160405280929190818152602001828054600181600116156101000203166002900480156140035780601f10613fd857610100808354040283529160200191614003565b820191906000526020600020905b815481529060010190602001808311613fe657829003601f168201915b50505050509050919050565b606061401a82614aeb565b15156140b4576040517f08c379a000000000000000000000000000000000000000000000000000000000815260040180806020018281038252602f8152602001807f4552433732314d657461646174613a2055524920717565727920666f72206e6f81526020017f6e6578697374656e7420746f6b656e000000000000000000000000000000000081525060400191505060405180910390fd5b600b60008381526020019081526020016000208054600181600116156101000203166002900480601f01602080910402602001604051908101604052809291908181526020018280546001816001161561010002031660029004801561415b5780601f106141305761010080835404028352916020019161415b565b820191906000526020600020905b81548152906001019060200180831161413e57829003601f168201915b50505050509050919050565b6060614171615c6f565b6101e06040519081016040528061418b85600060066151e2565b815260200161419d85600660096151e2565b81526020016141af856009600f6151e2565b81526020016141c185600f60126151e2565b81526020016141d385601260156151e2565b81526020016141e5856015601b6151e2565b81526020016141f785601b60216151e2565b815260200161420985602160246151e2565b815260200161421b856024602a6151e2565b815260200161422d85602a60306151e2565b815260200161423f85603060336151e2565b815260200161425185603360366151e2565b815260200161426385603660396151e2565b8152602001614275856039603c6151e2565b815260200161428785603c603f6151e2565b815250905080600e846040518082805190602001908083835b6020831015156142c557805182526020820191506020810190506020830392506142a0565b6001836020036101000a03801982511681845116808217855250505050505090500191505090815260200160405180910390206000820151816000019080519060200190614314929190615ce6565b506020820151816001019080519060200190614331929190615ce6565b50604082015181600201908051906020019061434e929190615ce6565b50606082015181600301908051906020019061436b929190615ce6565b506080820151816004019080519060200190614388929190615ce6565b5060a08201518160050190805190602001906143a5929190615ce6565b5060c08201518160060190805190602001906143c2929190615ce6565b5060e08201518160070190805190602001906143df929190615ce6565b506101008201518160080190805190602001906143fd929190615ce6565b5061012082015181600901908051906020019061441b929190615ce6565b5061014082015181600a019080519060200190614439929190615ce6565b5061016082015181600b019080519060200190614457929190615ce6565b5061018082015181600c019080519060200190614475929190615ce6565b506101a082015181600d019080519060200190614493929190615ce6565b506101c082015181600e0190805190602001906144b1929190615ce6565b5090505082915050919050565b6060600e826040518082805190602001908083835b6020831015156144f857805182526020820191506020810190506020830392506144d3565b6001836020036101000a0380198251168184511680821785525050505050509050019150509081526020016040518091039020600b018054600181600116156101000203166002900480601f0160208091040260200160405190810160405280929190818152602001828054600181600116156101000203166002900480156145c25780601f10614597576101008083540402835291602001916145c2565b820191906000526020600020905b8154815290600101906020018083116145a557829003601f168201915b50505050509050919050565b600d816040518082805190602001908083835b60208310151561460657805182526020820191506020810190506020830392506145e1565b6001836020036101000a038019825116818451168082178552505050505050905001915050908152602001604051809103902060009054906101000a900460ff1615151561465357600080fd5b6000600c829080600181540180825580915050906001820390600052602060002001600090919290919091509080519060200190614692929190615d66565b50905061469f33826151fe565b6001600d836040518082805190602001908083835b6020831015156146d957805182526020820191506020810190506020830392506146b4565b6001836020036101000a038019825116818451168082178552505050505050905001915050908152602001604051809103902060006101000a81548160ff0219169083151502179055505050565b6060600e826040518082805190602001908083835b602083101515614761578051825260208201915060208101905060208303925061473c565b6001836020036101000a0380198251168184511680821785525050505050509050019150509081526020016040518091039020600e018054600181600116156101000203166002900480601f01602080910402602001604051908101604052809291908181526020018280546001816001161561010002031660029004801561482b5780601f106148005761010080835404028352916020019161482b565b820191906000526020600020905b81548152906001019060200180831161480e57829003601f168201915b50505050509050919050565b6060600e826040518082805190602001908083835b602083101515614871578051825260208201915060208101905060208303925061484c565b6001836020036101000a03801982511681845116808217855250505050505090500191505090815260200160405180910390206007018054600181600116156101000203166002900480601f01602080910402602001604051908101604052809291908181526020018280546001816001161561010002031660029004801561493b5780601f106149105761010080835404028352916020019161493b565b820191906000526020600020905b81548152906001019060200180831161491e57829003601f168201915b50505050509050919050565b6000600460008473ffffffffffffffffffffffffffffffffffffffff1673ffffffffffffffffffffffffffffffffffffffff16815260200190815260200160002060008373ffffffffffffffffffffffffffffffffffffffff1673ffffffffffffffffffffffffffffffffffffffff16815260200190815260200160002060009054906101000a900460ff16905092915050565b6060600e826040518082805190602001908083835b602083101515614a1557805182526020820191506020810190506020830392506149f0565b6001836020036101000a0380198251168184511680821785525050505050509050019150509081526020016040518091039020600d018054600181600116156101000203166002900480601f016020809104026020016040519081016040528092919081815260200182805460018160011615610100020316600290048015614adf5780601f10614ab457610100808354040283529160200191614adf565b820191906000526020600020905b815481529060010190602001808311614ac257829003601f168201915b50505050509050919050565b6000806001600084815260200190815260200160002060009054906101000a900473ffffffffffffffffffffffffffffffffffffffff169050600073ffffffffffffffffffffffffffffffffffffffff168173ffffffffffffffffffffffffffffffffffffffff161415915050919050565b6000614b6882614aeb565b1515614c02576040517f08c379a000000000000000000000000000000000000000000000000000000000815260040180806020018281038252602c8152602001807f4552433732313a206f70657261746f7220717565727920666f72206e6f6e657881526020017f697374656e7420746f6b656e000000000000000000000000000000000000000081525060400191505060405180910390fd5b6000614c0d836133cf565b90508073ffffffffffffffffffffffffffffffffffffffff168473ffffffffffffffffffffffffffffffffffffffff161480614c7c57508373ffffffffffffffffffffffffffffffffffffffff16614c648461220e565b73ffffffffffffffffffffffffffffffffffffffff16145b80614c8d5750614c8c8185614947565b5b91505092915050565b614ca183838361521f565b614cab8382615504565b614cb582826156a8565b505050565b60606000821415614d02576040805190810160405280600181526020017f30000000000000000000000000000000000000000000000000000000000000008152509050614e53565b600082905060005b600082141515614d30578080600101915050600482908060020a82049150509150614d0a565b6000600f90506060826040519080825280601f01601f191660200182016040528015614d6b5781602001600182028038833980820191505090505b50905060006001840390506000603090506000604190505b600089141515614e48576000858a16905060098111614dc757806030017f010000000000000000000000000000000000000000000000000000000000000002614dee565b806037017f0100000000000000000000000000000000000000000000000000000000000000025b858580600190039650815181101515614e0357fe5b9060200101907effffffffffffffffffffffffffffffffffffffffffffffffffffffffffffff1916908160001a90535060048a908060020a8204915050995050614d83565b839750505050505050505b919050565b60606000821415614ea0576040805190810160405280600181526020017f30000000000000000000000000000000000000000000000000000000000000008152509050614fac565b600082905060005b600082141515614ece578080600101915050600a82811515614ec657fe5b049150614ea8565b6060816040519080825280601f01601f191660200182016040528015614f035781602001600182028038833980820191505090505b50905060006001830390505b600086141515614fa457600a86811515614f2557fe5b066030017f010000000000000000000000000000000000000000000000000000000000000002828280600190039350815181101515614f6057fe5b9060200101907effffffffffffffffffffffffffffffffffffffffffffffffffffffffffffff1916908160001a905350600a86811515614f9c57fe5b049550614f0f565b819450505050505b919050565b600081600001549050919050565b6000614fe08473ffffffffffffffffffffffffffffffffffffffff1661576f565b1515614fef57600190506151da565b60008473ffffffffffffffffffffffffffffffffffffffff1663150b7a02338887876040518563ffffffff167c0100000000000000000000000000000000000000000000000000000000028152600401808573ffffffffffffffffffffffffffffffffffffffff1673ffffffffffffffffffffffffffffffffffffffff1681526020018473ffffffffffffffffffffffffffffffffffffffff1673ffffffffffffffffffffffffffffffffffffffff16815260200183815260200180602001828103825283818151815260200191508051906020019080838360005b838110156150e65780820151818401526020810190506150cb565b50505050905090810190601f1680156151135780820380516001836020036101000a031916815260200191505b5095505050505050602060405180830381600087803b15801561513557600080fd5b505af1158015615149573d6000803e3d6000fd5b505050506040513d602081101561515f57600080fd5b8101908080519060200190929190505050905063150b7a027c0100000000000000000000000000000000000000000000000000000000027bffffffffffffffffffffffffffffffffffffffffffffffffffffffff1916817bffffffffffffffffffffffffffffffffffffffffffffffffffffffff1916149150505b949350505050565b60606151f5848460ff168460ff16615782565b90509392505050565b6152088282615883565b61521282826156a8565b61521b81615a9f565b5050565b8273ffffffffffffffffffffffffffffffffffffffff1661523f826133cf565b73ffffffffffffffffffffffffffffffffffffffff161415156152f0576040517f08c379a00000000000000000000000000000000000000000000000000000000081526004018080602001828103825260298152602001807f4552433732313a207472616e73666572206f6620746f6b656e2074686174206981526020017f73206e6f74206f776e000000000000000000000000000000000000000000000081525060400191505060405180910390fd5b600073ffffffffffffffffffffffffffffffffffffffff168273ffffffffffffffffffffffffffffffffffffffff16141515156153bb576040517f08c379a00000000000000000000000000000000000000000000000000000000081526004018080602001828103825260248152602001807f4552433732313a207472616e7366657220746f20746865207a65726f2061646481526020017f726573730000000000000000000000000000000000000000000000000000000081525060400191505060405180910390fd5b6153c481615aeb565b61540b600360008573ffffffffffffffffffffffffffffffffffffffff1673ffffffffffffffffffffffffffffffffffffffff168152602001908152602001600020615bab565b615452600360008473ffffffffffffffffffffffffffffffffffffffff1673ffffffffffffffffffffffffffffffffffffffff168152602001908152602001600020615bce565b816001600083815260200190815260200160002060006101000a81548173ffffffffffffffffffffffffffffffffffffffff021916908373ffffffffffffffffffffffffffffffffffffffff160217905550808273ffffffffffffffffffffffffffffffffffffffff168473ffffffffffffffffffffffffffffffffffffffff167fddf252ad1be2c89b69c2b068fc378daa952ba7f163c4a11628f55a4df523b3ef60405160405180910390a4505050565b600061555c6001600560008673ffffffffffffffffffffffffffffffffffffffff1673ffffffffffffffffffffffffffffffffffffffff16815260200190815260200160002080549050615be490919063ffffffff16565b9050600060066000848152602001908152602001600020549050818114151561564f576000600560008673ffffffffffffffffffffffffffffffffffffffff1673ffffffffffffffffffffffffffffffffffffffff168152602001908152602001600020838154811015156155cd57fe5b9060005260206000200154905080600560008773ffffffffffffffffffffffffffffffffffffffff1673ffffffffffffffffffffffffffffffffffffffff1681526020019081526020016000208381548110151561562757fe5b9060005260206000200181905550816006600083815260200190815260200160002081905550505b600560008573ffffffffffffffffffffffffffffffffffffffff1673ffffffffffffffffffffffffffffffffffffffff1681526020019081526020016000208054809190600190036156a19190615de6565b5050505050565b600560008373ffffffffffffffffffffffffffffffffffffffff1673ffffffffffffffffffffffffffffffffffffffff168152602001908152602001600020805490506006600083815260200190815260200160002081905550600560008373ffffffffffffffffffffffffffffffffffffffff1673ffffffffffffffffffffffffffffffffffffffff1681526020019081526020016000208190806001815401808255809150509060018203906000526020600020016000909192909190915055505050565b600080823b905060008111915050919050565b60608084905060608484036040519080825280601f01601f1916602001820160405280156157bf5781602001600182028038833980820191505090505b50905060008590505b848110156158765782818151811015156157de57fe5b9060200101517f010000000000000000000000000000000000000000000000000000000000000090047f0100000000000000000000000000000000000000000000000000000000000000028287830381518110151561583957fe5b9060200101907effffffffffffffffffffffffffffffffffffffffffffffffffffffffffffff1916908160001a90535080806001019150506157c8565b5080925050509392505050565b600073ffffffffffffffffffffffffffffffffffffffff168273ffffffffffffffffffffffffffffffffffffffff1614151515615928576040517f08c379a00000000000000000000000000000000000000000000000000000000081526004018080602001828103825260208152602001807f4552433732313a206d696e7420746f20746865207a65726f206164647265737381525060200191505060405180910390fd5b61593181614aeb565b1515156159a6576040517f08c379a000000000000000000000000000000000000000000000000000000000815260040180806020018281038252601c8152602001807f4552433732313a20746f6b656e20616c7265616479206d696e7465640000000081525060200191505060405180910390fd5b816001600083815260200190815260200160002060006101000a81548173ffffffffffffffffffffffffffffffffffffffff021916908373ffffffffffffffffffffffffffffffffffffffff160217905550615a3f600360008473ffffffffffffffffffffffffffffffffffffffff1673ffffffffffffffffffffffffffffffffffffffff168152602001908152602001600020615bce565b808273ffffffffffffffffffffffffffffffffffffffff16600073ffffffffffffffffffffffffffffffffffffffff167fddf252ad1be2c89b69c2b068fc378daa952ba7f163c4a11628f55a4df523b3ef60405160405180910390a45050565b6007805490506008600083815260200190815260200160002081905550600781908060018154018082558091505090600182039060005260206000200160009091929091909150555050565b600073ffffffffffffffffffffffffffffffffffffffff166002600083815260200190815260200160002060009054906101000a900473ffffffffffffffffffffffffffffffffffffffff1673ffffffffffffffffffffffffffffffffffffffff16141515615ba85760006002600083815260200190815260200160002060006101000a81548173ffffffffffffffffffffffffffffffffffffffff021916908373ffffffffffffffffffffffffffffffffffffffff1602179055505b50565b615bc360018260000154615be490919063ffffffff16565b816000018190555050565b6001816000016000828254019250508190555050565b6000828211151515615c5e576040517f08c379a000000000000000000000000000000000000000000000000000000000815260040180806020018281038252601e8152602001807f536166654d6174683a207375627472616374696f6e206f766572666c6f77000081525060200191505060405180910390fd5b600082840390508091505092915050565b6101e0604051908101604052806060815260200160608152602001606081526020016060815260200160608152602001606081526020016060815260200160608152602001606081526020016060815260200160608152602001606081526020016060815260200160608152602001606081525090565b828054600181600116156101000203166002900490600052602060002090601f016020900481019282601f10615d2757805160ff1916838001178555615d55565b82800160010185558215615d55579182015b82811115615d54578251825591602001919060010190615d39565b5b509050615d629190615e12565b5090565b828054600181600116156101000203166002900490600052602060002090601f016020900481019282601f10615da757805160ff1916838001178555615dd5565b82800160010185558215615dd5579182015b82811115615dd4578251825591602001919060010190615db9565b5b509050615de29190615e12565b5090565b815481835581811115615e0d57818360005260206000209182019101615e0c9190615e12565b5b505050565b615e3491905b80821115615e30576000816000905550600101615e18565b5090565b9056fea165627a7a723058202c6ed7a6e8bb2c0ad916c5fcbd9d99392bff13f540053fa8a01079ff4816e46d0029",
  "source": "pragma solidity ^0.5.0;\n\nimport \"./ERC721Full.sol\";\n\ncontract Pisi is ERC721Full {\n    string[] public colors;\n    mapping(string => bool) _colorExists;\n\n    struct PisiAttributes {\n        string eyeColor;\n        string eyeSize;\n        \n        string headColor;\n        string headSize;\n        \n        string beardSize;\n        \n        string tailColor;\n        string tailAccentColor;\n        string tailSize;\n        \n        string bodyColor;\n        string bodyAccentColor;\n\n        string stripeType;\n        \n        string hungerness;\n        string fragility;\n        string fertility;\n        string appeal;\n    }\n    \n    mapping(string => PisiAttributes) _pisiCollection;\n\n    constructor() ERC721Full(\"Color\", \"COLOR\") public {\n\n    }\n\n    function mint(string memory _color) public {\n        // Require unique color\n        require(!_colorExists[_color]);\n        // Color - add it\n        uint _id = colors.push(_color);\n        // Call the mint function\n        _mint(msg.sender, _id);\n        // Color - track it\n        _colorExists[_color] = true;\n    }\n\n    function decodeAttributes(string memory hashedAttr) public returns (string memory){\n        PisiAttributes memory pa = PisiAttributes(\n            getNumberBetween(hashedAttr, 0, 6), // eyeColor, \n            getNumberBetween(hashedAttr, 6, 9), // eyeSize, \n            \n            getNumberBetween(hashedAttr, 9, 15), // headColor, \n            getNumberBetween(hashedAttr, 15, 18), // headSize, \n            \n            getNumberBetween(hashedAttr, 18, 21), // beardSize, *****\n            \n            getNumberBetween(hashedAttr, 21, 27), // tailColor, \n            getNumberBetween(hashedAttr, 27, 33), // tailAccentColor, *****\n            getNumberBetween(hashedAttr, 33, 36), // tailSize, \n            \n            getNumberBetween(hashedAttr, 36, 42), // bodyColor, \n            getNumberBetween(hashedAttr, 42, 48), // bodyAccentColor, \n    \n            getNumberBetween(hashedAttr, 48, 51), // stripeType, \n\n            getNumberBetween(hashedAttr, 51, 54), // hungerness, \n            getNumberBetween(hashedAttr, 54, 57), // fragility, \n            getNumberBetween(hashedAttr, 57, 60), // fertility, \n            getNumberBetween(hashedAttr, 60, 63) // appeal\n        );\n\n        _pisiCollection[hashedAttr] = pa;\n\n        return hashedAttr;\n    }\n\n    function encodeAttributes(\n        uint24 eyeColor,\n        uint8 eyeSize,\n        uint24 headColor,\n        uint8 headSize,\n        uint8 beardSize,\n        uint24 tailColor,\n        uint24 tailAccentColor,\n        uint8 tailSize,\n        uint24 bodyColor,\n        uint24 bodyAccentColor,\n        uint8 stripeType,\n        uint8 hungerness,\n        uint8 fragility,\n        uint8 fertility,\n        uint8 appeal\n        ) public returns (uint216){\n        \n    }\n\n    function randomAttributes() public returns (string memory) {\n        uint256 rand = uint256(keccak256(abi.encodePacked(block.timestamp, block.difficulty)));\n\n        string memory randColor = uint2hexstr(rand % (16 ** 6));\n        string memory randInt = uint2str(rand % (2 ** 8));\n\n        return decodeAttributes(string(abi.encodePacked(\n            abi.encodePacked(\n                randColor, // eyeColor,\n                randInt, // eyeSize,\n\n                randColor, // headColor,\n                randInt, // headSize,\n\n                randInt, // beardSize,\n\n                randColor, // tailColor,\n                randColor, // tailAccentColor,\n                randInt  // tailSize,\n            ), \n            \n            abi.encodePacked(\n                randColor, // bodyColor,\n                randColor, // bodyAccentColor,\n\n                randInt, // stripeType,\n\n                randInt, // hungerness,\n                randInt, // fragility,\n                randInt, // fertility,\n                randInt  // appeal\n            )\n        )));\n    }\n    \n    function uint2str(uint _i) internal pure returns (string memory _uintAsString) {\n        if (_i == 0) {\n            return \"0\";\n        }\n        uint j = _i;\n        uint len;\n        while (j != 0) {\n            len++;\n            j /= 10;\n        }\n        bytes memory bstr = new bytes(len);\n        uint k = len - 1;\n        while (_i != 0) {\n            bstr[k--] = byte(uint8(48 + _i % 10));\n            _i /= 10;\n        }\n        return string(bstr);\n    }\n\n    function uint2hexstr(uint i) internal pure returns (string memory) {\n        if (i == 0) return \"0\";\n        uint j = i;\n        uint length;\n        while (j != 0) {\n            length++;\n            j = j >> 4;\n        }\n        uint mask = 15;\n        bytes memory bstr = new bytes(length);\n        uint k = length - 1;\n        uint numStart = 48;\n        uint letterStarn = 65;\n        while (i != 0){\n            uint curr = (i & mask);\n            bstr[k--] = curr > 9 ? byte(uint8(55 + curr)) : byte(uint8(48 + curr)); // 55 = 65 - 10\n            i = i >> 4;\n        }\n        return string(bstr);\n    }\n\n    function getNumberBetween(string memory fN, uint8 start, uint8 end) internal returns(string memory) {\n        return substring(fN, start, end);\n    }\n\n    function getEyeColor(string memory pisiHash) public view returns(string memory) {\n        return _pisiCollection[pisiHash].eyeColor;\n    }\n\n    function getEyeSize(string memory pisiHash) public view returns(string memory) {\n        return _pisiCollection[pisiHash].eyeSize;\n    }\n\n    function getHeadColor(string memory pisiHash) public view returns(string memory) {\n        return _pisiCollection[pisiHash].headColor;\n    }\n\n    function getHeadSize(string memory pisiHash) public view returns(string memory) {\n        return _pisiCollection[pisiHash].headSize;\n    }\n\n    function getBeardSize(string memory pisiHash) public view returns(string memory) {\n        return _pisiCollection[pisiHash].beardSize;\n    }\n\n    function getTailColor(string memory pisiHash) public view returns(string memory) {\n        return _pisiCollection[pisiHash].tailColor;\n    }\n\n    function getTailAccentColor(string memory pisiHash) public view returns(string memory) {\n        return _pisiCollection[pisiHash].tailAccentColor;\n    }\n\n    function getTailSize(string memory pisiHash) public view returns(string memory) {\n        return _pisiCollection[pisiHash].tailSize;\n    }\n\n    function getBodyColor(string memory pisiHash) public view returns(string memory) {\n        return _pisiCollection[pisiHash].bodyColor;\n    }\n\n    function getBodyAccentColor(string memory pisiHash) public view returns(string memory) {\n        return _pisiCollection[pisiHash].bodyAccentColor;\n    }\n\n    function getStripeType(string memory pisiHash) public view returns(string memory) {\n        return _pisiCollection[pisiHash].stripeType;\n    }\n\n    function getHungerness(string memory pisiHash) public view returns(string memory) {\n        return _pisiCollection[pisiHash].hungerness;\n    }\n\n    function getFragility(string memory pisiHash) public view returns(string memory) {\n        return _pisiCollection[pisiHash].fragility;\n    }\n\n    function getFertility(string memory pisiHash) public view returns(string memory) {\n        return _pisiCollection[pisiHash].fertility;\n    }\n\n    function getAppeal(string memory pisiHash) public view returns(string memory) {\n        return _pisiCollection[pisiHash].appeal;\n    }\n\n    function substring(string memory str, uint startIndex, uint endIndex) pure internal returns (string memory) {\n        bytes memory strBytes = bytes(str);\n        bytes memory result = new bytes(endIndex-startIndex);\n        for(uint i = startIndex; i < endIndex; i++) {\n            result[i-startIndex] = strBytes[i];\n        }\n        return string(result);\n    }\n}",
  "sourcePath": "D:/CryptoPissies/CryptoPissies/src/contracts/Pisi.sol",
  "compiler": {
    "name": "solc",
    "version": "0.5.0+commit.1d4f565a.Emscripten.clang"
  },
  "schemaVersion": "3.0.2",
  "updatedAt": "2021-05-14T23:35:35.956Z",
  "devdoc": {
    "methods": {
      "approve(address,uint256)": {
        "details": "Approves another address to transfer the given token ID The zero address indicates there is no approved address. There can only be one approved address per token at a given time. Can only be called by the token owner or an approved operator.",
        "params": {
          "to": "address to be approved for the given token ID",
          "tokenId": "uint256 ID of the token to be approved"
        }
      },
      "balanceOf(address)": {
        "details": "Gets the balance of the specified address.",
        "params": {
          "owner": "address to query the balance of"
        },
        "return": "uint256 representing the amount owned by the passed address"
      },
      "getApproved(uint256)": {
        "details": "Gets the approved address for a token ID, or zero if no address set Reverts if the token ID does not exist.",
        "params": {
          "tokenId": "uint256 ID of the token to query the approval of"
        },
        "return": "address currently approved for the given token ID"
      },
      "isApprovedForAll(address,address)": {
        "details": "Tells whether an operator is approved by a given owner.",
        "params": {
          "operator": "operator address which you want to query the approval of",
          "owner": "owner address which you want to query the approval of"
        },
        "return": "bool whether the given operator is approved by the given owner"
      },
      "name()": {
        "details": "Gets the token name.",
        "return": "string representing the token name"
      },
      "ownerOf(uint256)": {
        "details": "Gets the owner of the specified token ID.",
        "params": {
          "tokenId": "uint256 ID of the token to query the owner of"
        },
        "return": "address currently marked as the owner of the given token ID"
      },
      "safeTransferFrom(address,address,uint256)": {
        "details": "Safely transfers the ownership of a given token ID to another address If the target address is a contract, it must implement `onERC721Received`, which is called upon a safe transfer, and return the magic value `bytes4(keccak256(\"onERC721Received(address,address,uint256,bytes)\"))`; otherwise, the transfer is reverted. Requires the msg.sender to be the owner, approved, or operator",
        "params": {
          "from": "current owner of the token",
          "to": "address to receive the ownership of the given token ID",
          "tokenId": "uint256 ID of the token to be transferred"
        }
      },
      "safeTransferFrom(address,address,uint256,bytes)": {
        "details": "Safely transfers the ownership of a given token ID to another address If the target address is a contract, it must implement `onERC721Received`, which is called upon a safe transfer, and return the magic value `bytes4(keccak256(\"onERC721Received(address,address,uint256,bytes)\"))`; otherwise, the transfer is reverted. Requires the msg.sender to be the owner, approved, or operator",
        "params": {
          "_data": "bytes data to send along with a safe transfer check",
          "from": "current owner of the token",
          "to": "address to receive the ownership of the given token ID",
          "tokenId": "uint256 ID of the token to be transferred"
        }
      },
      "setApprovalForAll(address,bool)": {
        "details": "Sets or unsets the approval of a given operator An operator is allowed to transfer all tokens of the sender on their behalf.",
        "params": {
          "approved": "representing the status of the approval to be set",
          "to": "operator address to set the approval"
        }
      },
      "supportsInterface(bytes4)": {
        "details": "See `IERC165.supportsInterface`.     * Time complexity O(1), guaranteed to always use less than 30 000 gas."
      },
      "symbol()": {
        "details": "Gets the token symbol.",
        "return": "string representing the token symbol"
      },
      "tokenByIndex(uint256)": {
        "details": "Gets the token ID at a given index of all the tokens in this contract Reverts if the index is greater or equal to the total number of tokens.",
        "params": {
          "index": "uint256 representing the index to be accessed of the tokens list"
        },
        "return": "uint256 token ID at the given index of the tokens list"
      },
      "tokenOfOwnerByIndex(address,uint256)": {
        "details": "Gets the token ID at a given index of the tokens list of the requested owner.",
        "params": {
          "index": "uint256 representing the index to be accessed of the requested tokens list",
          "owner": "address owning the tokens list to be accessed"
        },
        "return": "uint256 token ID at the given index of the tokens list owned by the requested address"
      },
      "tokenURI(uint256)": {
        "details": "Returns an URI for a given token ID. Throws if the token ID does not exist. May return an empty string.",
        "params": {
          "tokenId": "uint256 ID of the token to query"
        }
      },
      "totalSupply()": {
        "details": "Gets the total amount of tokens stored by the contract.",
        "return": "uint256 representing the total amount of tokens"
      },
      "transferFrom(address,address,uint256)": {
        "details": "Transfers the ownership of a given token ID to another address. Usage of this method is discouraged, use `safeTransferFrom` whenever possible. Requires the msg.sender to be the owner, approved, or operator.",
        "params": {
          "from": "current owner of the token",
          "to": "address to receive the ownership of the given token ID",
          "tokenId": "uint256 ID of the token to be transferred"
        }
      }
    }
  },
  "userdoc": {
    "methods": {}
  }
}