{
  "contractName": "Pisi",
  "abi": [
    {
      "constant": true,
      "inputs": [
        {
          "name": "interfaceId",
          "type": "bytes4"
        }
      ],
      "name": "supportsInterface",
      "outputs": [
        {
          "name": "",
          "type": "bool"
        }
      ],
      "payable": false,
      "stateMutability": "view",
      "type": "function"
    },
    {
      "constant": true,
      "inputs": [],
      "name": "name",
      "outputs": [
        {
          "name": "",
          "type": "string"
        }
      ],
      "payable": false,
      "stateMutability": "view",
      "type": "function"
    },
    {
      "constant": true,
      "inputs": [
        {
          "name": "tokenId",
          "type": "uint256"
        }
      ],
      "name": "getApproved",
      "outputs": [
        {
          "name": "",
          "type": "address"
        }
      ],
      "payable": false,
      "stateMutability": "view",
      "type": "function"
    },
    {
      "constant": false,
      "inputs": [
        {
          "name": "to",
          "type": "address"
        },
        {
          "name": "tokenId",
          "type": "uint256"
        }
      ],
      "name": "approve",
      "outputs": [],
      "payable": false,
      "stateMutability": "nonpayable",
      "type": "function"
    },
    {
      "constant": true,
      "inputs": [],
      "name": "totalSupply",
      "outputs": [
        {
          "name": "",
          "type": "uint256"
        }
      ],
      "payable": false,
      "stateMutability": "view",
      "type": "function"
    },
    {
      "constant": false,
      "inputs": [
        {
          "name": "from",
          "type": "address"
        },
        {
          "name": "to",
          "type": "address"
        },
        {
          "name": "tokenId",
          "type": "uint256"
        }
      ],
      "name": "transferFrom",
      "outputs": [],
      "payable": false,
      "stateMutability": "nonpayable",
      "type": "function"
    },
    {
      "constant": true,
      "inputs": [
        {
          "name": "owner",
          "type": "address"
        },
        {
          "name": "index",
          "type": "uint256"
        }
      ],
      "name": "tokenOfOwnerByIndex",
      "outputs": [
        {
          "name": "",
          "type": "uint256"
        }
      ],
      "payable": false,
      "stateMutability": "view",
      "type": "function"
    },
    {
      "constant": true,
      "inputs": [],
      "name": "onSaleCount",
      "outputs": [
        {
          "name": "",
          "type": "uint256"
        }
      ],
      "payable": false,
      "stateMutability": "view",
      "type": "function"
    },
    {
      "constant": false,
      "inputs": [
        {
          "name": "from",
          "type": "address"
        },
        {
          "name": "to",
          "type": "address"
        },
        {
          "name": "tokenId",
          "type": "uint256"
        }
      ],
      "name": "safeTransferFrom",
      "outputs": [],
      "payable": false,
      "stateMutability": "nonpayable",
      "type": "function"
    },
    {
      "constant": true,
      "inputs": [
        {
          "name": "index",
          "type": "uint256"
        }
      ],
      "name": "tokenByIndex",
      "outputs": [
        {
          "name": "",
          "type": "uint256"
        }
      ],
      "payable": false,
      "stateMutability": "view",
      "type": "function"
    },
    {
      "constant": true,
      "inputs": [
        {
          "name": "tokenId",
          "type": "uint256"
        }
      ],
      "name": "ownerOf",
      "outputs": [
        {
          "name": "",
          "type": "address"
        }
      ],
      "payable": false,
      "stateMutability": "view",
      "type": "function"
    },
    {
      "constant": true,
      "inputs": [
        {
          "name": "owner",
          "type": "address"
        }
      ],
      "name": "balanceOf",
      "outputs": [
        {
          "name": "",
          "type": "uint256"
        }
      ],
      "payable": false,
      "stateMutability": "view",
      "type": "function"
    },
    {
      "constant": true,
      "inputs": [],
      "name": "symbol",
      "outputs": [
        {
          "name": "",
          "type": "string"
        }
      ],
      "payable": false,
      "stateMutability": "view",
      "type": "function"
    },
    {
      "constant": false,
      "inputs": [
        {
          "name": "to",
          "type": "address"
        },
        {
          "name": "approved",
          "type": "bool"
        }
      ],
      "name": "setApprovalForAll",
      "outputs": [],
      "payable": false,
      "stateMutability": "nonpayable",
      "type": "function"
    },
    {
      "constant": true,
      "inputs": [
        {
          "name": "",
          "type": "uint256"
        }
      ],
      "name": "_pisiHashesToSell",
      "outputs": [
        {
          "name": "",
          "type": "string"
        }
      ],
      "payable": false,
      "stateMutability": "view",
      "type": "function"
    },
    {
      "constant": false,
      "inputs": [
        {
          "name": "from",
          "type": "address"
        },
        {
          "name": "to",
          "type": "address"
        },
        {
          "name": "tokenId",
          "type": "uint256"
        },
        {
          "name": "_data",
          "type": "bytes"
        }
      ],
      "name": "safeTransferFrom",
      "outputs": [],
      "payable": false,
      "stateMutability": "nonpayable",
      "type": "function"
    },
    {
      "constant": true,
      "inputs": [
        {
          "name": "tokenId",
          "type": "uint256"
        }
      ],
      "name": "tokenURI",
      "outputs": [
        {
          "name": "",
          "type": "string"
        }
      ],
      "payable": false,
      "stateMutability": "view",
      "type": "function"
    },
    {
      "constant": true,
      "inputs": [
        {
          "name": "owner",
          "type": "address"
        },
        {
          "name": "operator",
          "type": "address"
        }
      ],
      "name": "isApprovedForAll",
      "outputs": [
        {
          "name": "",
          "type": "bool"
        }
      ],
      "payable": false,
      "stateMutability": "view",
      "type": "function"
    },
    {
      "inputs": [],
      "payable": false,
      "stateMutability": "nonpayable",
      "type": "constructor"
    },
    {
      "anonymous": false,
      "inputs": [
        {
          "indexed": true,
          "name": "from",
          "type": "address"
        },
        {
          "indexed": true,
          "name": "to",
          "type": "address"
        },
        {
          "indexed": true,
          "name": "tokenId",
          "type": "uint256"
        }
      ],
      "name": "Transfer",
      "type": "event"
    },
    {
      "anonymous": false,
      "inputs": [
        {
          "indexed": true,
          "name": "owner",
          "type": "address"
        },
        {
          "indexed": true,
          "name": "approved",
          "type": "address"
        },
        {
          "indexed": true,
          "name": "tokenId",
          "type": "uint256"
        }
      ],
      "name": "Approval",
      "type": "event"
    },
    {
      "anonymous": false,
      "inputs": [
        {
          "indexed": true,
          "name": "owner",
          "type": "address"
        },
        {
          "indexed": true,
          "name": "operator",
          "type": "address"
        },
        {
          "indexed": false,
          "name": "approved",
          "type": "bool"
        }
      ],
      "name": "ApprovalForAll",
      "type": "event"
    },
    {
      "constant": false,
      "inputs": [],
      "name": "mint",
      "outputs": [
        {
          "name": "",
          "type": "string"
        }
      ],
      "payable": false,
      "stateMutability": "nonpayable",
      "type": "function"
    },
    {
      "constant": false,
      "inputs": [
        {
          "name": "hashedAttr",
          "type": "string"
        }
      ],
      "name": "testAttributes",
      "outputs": [
        {
          "name": "",
          "type": "string"
        }
      ],
      "payable": false,
      "stateMutability": "nonpayable",
      "type": "function"
    },
    {
      "constant": false,
      "inputs": [
        {
          "name": "pisiHash",
          "type": "string"
        },
        {
          "name": "price",
          "type": "uint256"
        }
      ],
      "name": "putToSale",
      "outputs": [],
      "payable": false,
      "stateMutability": "nonpayable",
      "type": "function"
    },
    {
      "constant": false,
      "inputs": [
        {
          "name": "pisiHash",
          "type": "string"
        }
      ],
      "name": "putDownFromSale",
      "outputs": [],
      "payable": false,
      "stateMutability": "nonpayable",
      "type": "function"
    },
    {
      "constant": false,
      "inputs": [
        {
          "name": "pisiHash",
          "type": "string"
        }
      ],
      "name": "transferPisi",
      "outputs": [],
      "payable": true,
      "stateMutability": "payable",
      "type": "function"
    },
    {
      "constant": false,
      "inputs": [
        {
          "name": "pisiHash1",
          "type": "string"
        },
        {
          "name": "pisiHash2",
          "type": "string"
        }
      ],
      "name": "breed",
      "outputs": [
        {
          "name": "",
          "type": "string"
        }
      ],
      "payable": false,
      "stateMutability": "nonpayable",
      "type": "function"
    },
    {
      "constant": true,
      "inputs": [],
      "name": "gatherPersonalPisis",
      "outputs": [
        {
          "name": "",
          "type": "string[]"
        },
        {
          "name": "",
          "type": "uint8"
        }
      ],
      "payable": false,
      "stateMutability": "view",
      "type": "function"
    },
    {
      "constant": false,
      "inputs": [
        {
          "name": "pisiHash",
          "type": "string"
        }
      ],
      "name": "feed",
      "outputs": [],
      "payable": true,
      "stateMutability": "payable",
      "type": "function"
    },
    {
      "constant": true,
      "inputs": [
        {
          "name": "pisiHash",
          "type": "string"
        }
      ],
      "name": "getEyeColor",
      "outputs": [
        {
          "name": "",
          "type": "string"
        }
      ],
      "payable": false,
      "stateMutability": "view",
      "type": "function"
    },
    {
      "constant": true,
      "inputs": [
        {
          "name": "pisiHash",
          "type": "string"
        }
      ],
      "name": "getEyeSize",
      "outputs": [
        {
          "name": "",
          "type": "string"
        }
      ],
      "payable": false,
      "stateMutability": "view",
      "type": "function"
    },
    {
      "constant": true,
      "inputs": [
        {
          "name": "pisiHash",
          "type": "string"
        }
      ],
      "name": "getHeadColor",
      "outputs": [
        {
          "name": "",
          "type": "string"
        }
      ],
      "payable": false,
      "stateMutability": "view",
      "type": "function"
    },
    {
      "constant": true,
      "inputs": [
        {
          "name": "pisiHash",
          "type": "string"
        }
      ],
      "name": "getHeadSize",
      "outputs": [
        {
          "name": "",
          "type": "string"
        }
      ],
      "payable": false,
      "stateMutability": "view",
      "type": "function"
    },
    {
      "constant": true,
      "inputs": [
        {
          "name": "pisiHash",
          "type": "string"
        }
      ],
      "name": "getBeardSize",
      "outputs": [
        {
          "name": "",
          "type": "string"
        }
      ],
      "payable": false,
      "stateMutability": "view",
      "type": "function"
    },
    {
      "constant": true,
      "inputs": [
        {
          "name": "pisiHash",
          "type": "string"
        }
      ],
      "name": "getTailColor",
      "outputs": [
        {
          "name": "",
          "type": "string"
        }
      ],
      "payable": false,
      "stateMutability": "view",
      "type": "function"
    },
    {
      "constant": true,
      "inputs": [
        {
          "name": "pisiHash",
          "type": "string"
        }
      ],
      "name": "getTailAccentColor",
      "outputs": [
        {
          "name": "",
          "type": "string"
        }
      ],
      "payable": false,
      "stateMutability": "view",
      "type": "function"
    },
    {
      "constant": true,
      "inputs": [
        {
          "name": "pisiHash",
          "type": "string"
        }
      ],
      "name": "getTailSize",
      "outputs": [
        {
          "name": "",
          "type": "string"
        }
      ],
      "payable": false,
      "stateMutability": "view",
      "type": "function"
    },
    {
      "constant": true,
      "inputs": [
        {
          "name": "pisiHash",
          "type": "string"
        }
      ],
      "name": "getBodyColor",
      "outputs": [
        {
          "name": "",
          "type": "string"
        }
      ],
      "payable": false,
      "stateMutability": "view",
      "type": "function"
    },
    {
      "constant": true,
      "inputs": [
        {
          "name": "pisiHash",
          "type": "string"
        }
      ],
      "name": "getBodyAccentColor",
      "outputs": [
        {
          "name": "",
          "type": "string"
        }
      ],
      "payable": false,
      "stateMutability": "view",
      "type": "function"
    },
    {
      "constant": true,
      "inputs": [
        {
          "name": "pisiHash",
          "type": "string"
        }
      ],
      "name": "getStripeType",
      "outputs": [
        {
          "name": "",
          "type": "string"
        }
      ],
      "payable": false,
      "stateMutability": "view",
      "type": "function"
    },
    {
      "constant": true,
      "inputs": [
        {
          "name": "pisiHash",
          "type": "string"
        }
      ],
      "name": "getHungerness",
      "outputs": [
        {
          "name": "",
          "type": "uint8"
        }
      ],
      "payable": false,
      "stateMutability": "view",
      "type": "function"
    },
    {
      "constant": true,
      "inputs": [
        {
          "name": "pisiHash",
          "type": "string"
        }
      ],
      "name": "getFragility",
      "outputs": [
        {
          "name": "",
          "type": "uint8"
        }
      ],
      "payable": false,
      "stateMutability": "view",
      "type": "function"
    },
    {
      "constant": false,
      "inputs": [
        {
          "name": "pisiHash",
          "type": "string"
        }
      ],
      "name": "getFertility",
      "outputs": [
        {
          "name": "",
          "type": "uint8"
        }
      ],
      "payable": false,
      "stateMutability": "nonpayable",
      "type": "function"
    },
    {
      "constant": false,
      "inputs": [
        {
          "name": "pisiHash",
          "type": "string"
        }
      ],
      "name": "getAppeal",
      "outputs": [
        {
          "name": "",
          "type": "uint8"
        }
      ],
      "payable": false,
      "stateMutability": "nonpayable",
      "type": "function"
    },
    {
      "constant": true,
      "inputs": [
        {
          "name": "pisiHash",
          "type": "string"
        }
      ],
      "name": "getOwner",
      "outputs": [
        {
          "name": "",
          "type": "address"
        }
      ],
      "payable": false,
      "stateMutability": "view",
      "type": "function"
    },
    {
      "constant": true,
      "inputs": [
        {
          "name": "pisiHash",
          "type": "string"
        }
      ],
      "name": "getSale",
      "outputs": [
        {
          "name": "",
          "type": "bool"
        }
      ],
      "payable": false,
      "stateMutability": "view",
      "type": "function"
    },
    {
      "constant": true,
      "inputs": [
        {
          "name": "pisiHash",
          "type": "string"
        }
      ],
      "name": "getPrice",
      "outputs": [
        {
          "name": "",
          "type": "uint256"
        }
      ],
      "payable": false,
      "stateMutability": "view",
      "type": "function"
    }
  ],
  "bytecode": "0x60806040523480156200001157600080fd5b506040805190810160405280600481526020017f50697369000000000000000000000000000000000000000000000000000000008152506040805190810160405280600481526020017f50495349000000000000000000000000000000000000000000000000000000008152508181620000bd6301ffc9a77c010000000000000000000000000000000000000000000000000000000002620001b0640100000000026401000000009004565b620000fa6380ac58cd7c010000000000000000000000000000000000000000000000000000000002620001b0640100000000026401000000009004565b6200013763780e9d637c010000000000000000000000000000000000000000000000000000000002620001b0640100000000026401000000009004565b81600990805190602001906200014f929190620002a6565b5080600a908051906020019062000168929190620002a6565b50620001a6635b5e139f7c010000000000000000000000000000000000000000000000000000000002620001b0640100000000026401000000009004565b50505050620003ae565b63ffffffff7c010000000000000000000000000000000000000000000000000000000002817bffffffffffffffffffffffffffffffffffffffffffffffffffffffff1916141515156200023a576040517f08c379a000000000000000000000000000000000000000000000000000000000815260040162000231906200038c565b60405180910390fd5b6001600080837bffffffffffffffffffffffffffffffffffffffffffffffffffffffff19167bffffffffffffffffffffffffffffffffffffffffffffffffffffffff1916815260200190815260200160002060006101000a81548160ff02191690831515021790555050565b828054600181600116156101000203166002900490600052602060002090601f016020900481019282601f10620002e957805160ff19168380011785556200031a565b828001600101855582156200031a579182015b8281111562000319578251825591602001919060010190620002fc565b5b5090506200032991906200032d565b5090565b6200035291905b808211156200034e57600081600090555060010162000334565b5090565b90565b6000601c82527f4552433136353a20696e76616c696420696e74657266616365206964000000006020830152604082019050919050565b60006020820190508181036000830152620003a78162000355565b9050919050565b6187af80620003be6000396000f3fe60806040526004361061021a576000357c0100000000000000000000000000000000000000000000000000000000900463ffffffff16806301ffc9a71461021f57806306fdde031461025c578063081812fc14610287578063095ea7b3146102c457806309c39896146102ed5780631249c58b1461030957806318160ddd146103345780631e9abcac1461035f57806323b872dd1461039c5780632de04e03146103c55780632e6fb8e2146104025780632f1c4ba31461043f5780632f745c591461047c57806333ccc11a146104b9578063356e7863146104f657806342842e0e146105215780634aaf4a121461054a5780634f6ccce714610587578063524f3889146105c457806352b56df6146106015780635aee43301461062d5780635d30e7e21461066a5780636352211e146106a757806370a08231146106e457806372eb3e091461072157806395d89b411461075e5780639ace6dc1146107895780639f66af62146107c6578063a1f5fc03146107ef578063a22cb4651461082c578063a937f3db14610855578063ab76c01314610892578063ad267e72146108cf578063afc8136c1461090c578063b88d4fde14610949578063c5f4496a14610972578063c87b56dd146109af578063cbc9c4a3146109ec578063d8c6b1da14610a29578063e3395e9c14610a66578063e73ade8e14610aa3578063e985e9c514610abf578063f34ee28a14610afc578063f7f8c32b14610b25575b600080fd5b34801561022b57600080fd5b5061024660048036036102419190810190617a1d565b610b62565b60405161025391906182c1565b60405180910390f35b34801561026857600080fd5b50610271610bc9565b60405161027e91906182fe565b60405180910390f35b34801561029357600080fd5b506102ae60048036036102a99190810190617b70565b610c6b565b6040516102bb919061822a565b60405180910390f35b3480156102d057600080fd5b506102eb60048036036102e691908101906179e1565b610cf2565b005b61030760048036036103029190810190617a6f565b610ea3565b005b34801561031557600080fd5b5061031e6116cc565b60405161032b91906182fe565b60405180910390f35b34801561034057600080fd5b50610349611760565b6040516103569190618530565b60405180910390f35b34801561036b57600080fd5b5061038660048036036103819190810190617a6f565b61176d565b60405161039391906182fe565b60405180910390f35b3480156103a857600080fd5b506103c360048036036103be91908101906178db565b61187d565b005b3480156103d157600080fd5b506103ec60048036036103e79190810190617a6f565b6118d8565b6040516103f991906182c1565b60405180910390f35b34801561040e57600080fd5b5061042960048036036104249190810190617ab0565b61195d565b60405161043691906182fe565b60405180910390f35b34801561044b57600080fd5b5061046660048036036104619190810190617a6f565b612e16565b60405161047391906182fe565b60405180910390f35b34801561048857600080fd5b506104a3600480360361049e91908101906179e1565b612f26565b6040516104b09190618530565b60405180910390f35b3480156104c557600080fd5b506104e060048036036104db9190810190617a6f565b612fd3565b6040516104ed91906182fe565b60405180910390f35b34801561050257600080fd5b5061050b6130e3565b6040516105189190618530565b60405180910390f35b34801561052d57600080fd5b50610548600480360361054391908101906178db565b6130e9565b005b34801561055657600080fd5b50610571600480360361056c9190810190617a6f565b61310a565b60405161057e919061822a565b60405180910390f35b34801561059357600080fd5b506105ae60048036036105a99190810190617b70565b6131a2565b6040516105bb9190618530565b60405180910390f35b3480156105d057600080fd5b506105eb60048036036105e69190810190617a6f565b613210565b6040516105f89190618530565b60405180910390f35b34801561060d57600080fd5b50610616613288565b604051610624929190618291565b60405180910390f35b34801561063957600080fd5b50610654600480360361064f9190810190617a6f565b613403565b60405161066191906182fe565b60405180910390f35b34801561067657600080fd5b50610691600480360361068c9190810190617a6f565b613513565b60405161069e91906182fe565b60405180910390f35b3480156106b357600080fd5b506106ce60048036036106c99190810190617b70565b613623565b6040516106db919061822a565b60405180910390f35b3480156106f057600080fd5b5061070b60048036036107069190810190617876565b6136d7565b6040516107189190618530565b60405180910390f35b34801561072d57600080fd5b5061074860048036036107439190810190617a6f565b613798565b60405161075591906182fe565b60405180910390f35b34801561076a57600080fd5b506107736138a8565b60405161078091906182fe565b60405180910390f35b34801561079557600080fd5b506107b060048036036107ab9190810190617a6f565b61394a565b6040516107bd91906182fe565b60405180910390f35b3480156107d257600080fd5b506107ed60048036036107e89190810190617b1c565b613aa1565b005b3480156107fb57600080fd5b5061081660048036036108119190810190617a6f565b61405c565b604051610823919061854b565b60405180910390f35b34801561083857600080fd5b50610853600480360361084e91908101906179a5565b6141a9565b005b34801561086157600080fd5b5061087c60048036036108779190810190617a6f565b614317565b60405161088991906182fe565b60405180910390f35b34801561089e57600080fd5b506108b960048036036108b49190810190617a6f565b614427565b6040516108c691906182fe565b60405180910390f35b3480156108db57600080fd5b506108f660048036036108f19190810190617a6f565b614537565b60405161090391906182fe565b60405180910390f35b34801561091857600080fd5b50610933600480360361092e9190810190617b70565b614647565b60405161094091906182dc565b60405180910390f35b34801561095557600080fd5b50610970600480360361096b919081019061792a565b614702565b005b34801561097e57600080fd5b5061099960048036036109949190810190617a6f565b614760565b6040516109a691906182fe565b60405180910390f35b3480156109bb57600080fd5b506109d660048036036109d19190810190617b70565b614870565b6040516109e391906182fe565b60405180910390f35b3480156109f857600080fd5b50610a136004803603610a0e9190810190617a6f565b61496f565b604051610a20919061854b565b60405180910390f35b348015610a3557600080fd5b50610a506004803603610a4b9190810190617a6f565b614abc565b604051610a5d919061854b565b60405180910390f35b348015610a7257600080fd5b50610a8d6004803603610a889190810190617a6f565b614fae565b604051610a9a91906182fe565b60405180910390f35b610abd6004803603610ab89190810190617a6f565b6150be565b005b348015610acb57600080fd5b50610ae66004803603610ae1919081019061789f565b615260565b604051610af391906182c1565b60405180910390f35b348015610b0857600080fd5b50610b236004803603610b1e9190810190617a6f565b6152f4565b005b348015610b3157600080fd5b50610b4c6004803603610b479190810190617a6f565b61576e565b604051610b59919061854b565b60405180910390f35b6000806000837bffffffffffffffffffffffffffffffffffffffffffffffffffffffff19167bffffffffffffffffffffffffffffffffffffffffffffffffffffffff1916815260200190815260200160002060009054906101000a900460ff169050919050565b606060098054600181600116156101000203166002900480601f016020809104026020016040519081016040528092919081815260200182805460018160011615610100020316600290048015610c615780601f10610c3657610100808354040283529160200191610c61565b820191906000526020600020905b815481529060010190602001808311610c4457829003601f168201915b5050505050905090565b6000610c7682615c60565b1515610cb7576040517f08c379a0000000000000000000000000000000000000000000000000000000008152600401610cae90618470565b60405180910390fd5b6002600083815260200190815260200160002060009054906101000a900473ffffffffffffffffffffffffffffffffffffffff169050919050565b6000610cfd82613623565b90508073ffffffffffffffffffffffffffffffffffffffff168373ffffffffffffffffffffffffffffffffffffffff1614151515610d70576040517f08c379a0000000000000000000000000000000000000000000000000000000008152600401610d67906184d0565b60405180910390fd5b8073ffffffffffffffffffffffffffffffffffffffff163373ffffffffffffffffffffffffffffffffffffffff161480610db05750610daf8133615260565b5b1515610df1576040517f08c379a0000000000000000000000000000000000000000000000000000000008152600401610de890618410565b60405180910390fd5b826002600084815260200190815260200160002060006101000a81548173ffffffffffffffffffffffffffffffffffffffff021916908373ffffffffffffffffffffffffffffffffffffffff160217905550818373ffffffffffffffffffffffffffffffffffffffff168273ffffffffffffffffffffffffffffffffffffffff167f8c5be1e5ebec7d5bd14f71427d1e84f3dd0314c0f7b2291e5b200ac8c7c3b92560405160405180910390a4505050565b806000600c826040518082805190602001908083835b602083101515610ede5780518252602082019150602081019050602083039250610eb9565b6001836020036101000a0380198251168184511680821785525050505050509050019150509081526020016040518091039020600b0160029054906101000a900460ff1660ff161115611136576040600c826040518082805190602001908083835b602083101515610f655780518252602082019150602081019050602083039250610f40565b6001836020036101000a0380198251168184511680821785525050505050509050019150509081526020016040518091039020600b0160009054906101000a900460ff1660ff16811515610fb557fe5b04610e10600c836040518082805190602001908083835b602083101515610ff15780518252602082019150602081019050602083039250610fcc565b6001836020036101000a0380198251168184511680821785525050505050509050019150509081526020016040518091039020600e0154420381151561103357fe5b040260ff03600c826040518082805190602001908083835b602083101515611070578051825260208201915060208101905060208303925061104b565b6001836020036101000a0380198251168184511680821785525050505050509050019150509081526020016040518091039020600b0160026101000a81548160ff021916908360ff16021790555042600c826040518082805190602001908083835b6020831015156110f757805182526020820191506020810190506020830392506110d2565b6001836020036101000a0380198251168184511680821785525050505050509050019150509081526020016040518091039020600e0181905550611247565b6000600c826040518082805190602001908083835b602083101515611170578051825260208201915060208101905060208303925061114b565b6001836020036101000a0380198251168184511680821785525050505050509050019150509081526020016040518091039020600b0160026101000a81548160ff021916908360ff1602179055506000600c826040518082805190602001908083835b6020831015156111f857805182526020820191506020810190506020830392506111d3565b6001836020036101000a0380198251168184511680821785525050505050509050019150509081526020016040518091039020600b0160036101000a81548160ff021916908360ff1602179055505b600c826040518082805190602001908083835b60208310151561127f578051825260208201915060208101905060208303925061125a565b6001836020036101000a0380198251168184511680821785525050505050509050019150509081526020016040518091039020600b0160049054906101000a900473ffffffffffffffffffffffffffffffffffffffff1673ffffffffffffffffffffffffffffffffffffffff166108fc600c846040518082805190602001908083835b6020831015156113275780518252602082019150602081019050602083039250611302565b6001836020036101000a0380198251168184511680821785525050505050509050019150509081526020016040518091039020600c01549081150290604051600060405180830381858888f19350505050158015611389573d6000803e3d6000fd5b506000600c836040518082805190602001908083835b6020831015156113c4578051825260208201915060208101905060208303925061139f565b6001836020036101000a0380198251168184511680821785525050505050509050019150509081526020016040518091039020600b0160049054906101000a900473ffffffffffffffffffffffffffffffffffffffff16905033600c846040518082805190602001908083835b6020831015156114565780518252602082019150602081019050602083039250611431565b6001836020036101000a0380198251168184511680821785525050505050509050019150509081526020016040518091039020600b0160046101000a81548173ffffffffffffffffffffffffffffffffffffffff021916908373ffffffffffffffffffffffffffffffffffffffff1602179055506114d48333615cd2565b61156c83600d60008473ffffffffffffffffffffffffffffffffffffffff1673ffffffffffffffffffffffffffffffffffffffff168152602001908152602001600020600e60008573ffffffffffffffffffffffffffffffffffffffff1673ffffffffffffffffffffffffffffffffffffffff16815260200190815260200160002060009054906101000a900460ff1660ff16615f50565b600e60008273ffffffffffffffffffffffffffffffffffffffff1673ffffffffffffffffffffffffffffffffffffffff168152602001908152602001600020600081819054906101000a900460ff16809291906001900391906101000a81548160ff021916908360ff16021790555050600d60003373ffffffffffffffffffffffffffffffffffffffff1673ffffffffffffffffffffffffffffffffffffffff16815260200190815260200160002083908060018154018082558091505090600182039060005260206000200160009091929091909150908051906020019061165692919061748f565b5050600e60003373ffffffffffffffffffffffffffffffffffffffff1673ffffffffffffffffffffffffffffffffffffffff168152602001908152602001600020600081819054906101000a900460ff168092919060010191906101000a81548160ff021916908360ff16021790555050505050565b60606000424433604051602001808481526020018381526020018273ffffffffffffffffffffffffffffffffffffffff1673ffffffffffffffffffffffffffffffffffffffff166c0100000000000000000000000002815260140193505050506040516020818303038152906040528051906020012060019004905061175a611754826160a0565b336161f9565b91505090565b6000600780549050905090565b6060600c826040518082805190602001908083835b6020831015156117a75780518252602082019150602081019050602083039250611782565b6001836020036101000a0380198251168184511680821785525050505050509050019150509081526020016040518091039020600a018054600181600116156101000203166002900480601f0160208091040260200160405190810160405280929190818152602001828054600181600116156101000203166002900480156118715780601f1061184657610100808354040283529160200191611871565b820191906000526020600020905b81548152906001019060200180831161185457829003601f168201915b50505050509050919050565b6118873382616779565b15156118c8576040517f08c379a00000000000000000000000000000000000000000000000000000000081526004016118bf906184f0565b60405180910390fd5b6118d3838383616859565b505050565b6000600c826040518082805190602001908083835b60208310151561191257805182526020820191506020810190506020830392506118ed565b6001836020036101000a0380198251168184511680821785525050505050509050019150509081526020016040518091039020600d0160009054906101000a900460ff169050919050565b6060826000600c826040518082805190602001908083835b60208310151561199a5780518252602082019150602081019050602083039250611975565b6001836020036101000a0380198251168184511680821785525050505050509050019150509081526020016040518091039020600b0160029054906101000a900460ff1660ff161115611bf2576040600c826040518082805190602001908083835b602083101515611a2157805182526020820191506020810190506020830392506119fc565b6001836020036101000a0380198251168184511680821785525050505050509050019150509081526020016040518091039020600b0160009054906101000a900460ff1660ff16811515611a7157fe5b04610e10600c836040518082805190602001908083835b602083101515611aad5780518252602082019150602081019050602083039250611a88565b6001836020036101000a0380198251168184511680821785525050505050509050019150509081526020016040518091039020600e01544203811515611aef57fe5b040260ff03600c826040518082805190602001908083835b602083101515611b2c5780518252602082019150602081019050602083039250611b07565b6001836020036101000a0380198251168184511680821785525050505050509050019150509081526020016040518091039020600b0160026101000a81548160ff021916908360ff16021790555042600c826040518082805190602001908083835b602083101515611bb35780518252602082019150602081019050602083039250611b8e565b6001836020036101000a0380198251168184511680821785525050505050509050019150509081526020016040518091039020600e0181905550611d03565b6000600c826040518082805190602001908083835b602083101515611c2c5780518252602082019150602081019050602083039250611c07565b6001836020036101000a0380198251168184511680821785525050505050509050019150509081526020016040518091039020600b0160026101000a81548160ff021916908360ff1602179055506000600c826040518082805190602001908083835b602083101515611cb45780518252602082019150602081019050602083039250611c8f565b6001836020036101000a0380198251168184511680821785525050505050509050019150509081526020016040518091039020600b0160036101000a81548160ff021916908360ff1602179055505b826000600c826040518082805190602001908083835b602083101515611d3e5780518252602082019150602081019050602083039250611d19565b6001836020036101000a0380198251168184511680821785525050505050509050019150509081526020016040518091039020600b0160029054906101000a900460ff1660ff161115611f96576040600c826040518082805190602001908083835b602083101515611dc55780518252602082019150602081019050602083039250611da0565b6001836020036101000a0380198251168184511680821785525050505050509050019150509081526020016040518091039020600b0160009054906101000a900460ff1660ff16811515611e1557fe5b04610e10600c836040518082805190602001908083835b602083101515611e515780518252602082019150602081019050602083039250611e2c565b6001836020036101000a0380198251168184511680821785525050505050509050019150509081526020016040518091039020600e01544203811515611e9357fe5b040260ff03600c826040518082805190602001908083835b602083101515611ed05780518252602082019150602081019050602083039250611eab565b6001836020036101000a0380198251168184511680821785525050505050509050019150509081526020016040518091039020600b0160026101000a81548160ff021916908360ff16021790555042600c826040518082805190602001908083835b602083101515611f575780518252602082019150602081019050602083039250611f32565b6001836020036101000a0380198251168184511680821785525050505050509050019150509081526020016040518091039020600e01819055506120a7565b6000600c826040518082805190602001908083835b602083101515611fd05780518252602082019150602081019050602083039250611fab565b6001836020036101000a0380198251168184511680821785525050505050509050019150509081526020016040518091039020600b0160026101000a81548160ff021916908360ff1602179055506000600c826040518082805190602001908083835b6020831015156120585780518252602082019150602081019050602083039250612033565b6001836020036101000a0380198251168184511680821785525050505050509050019150509081526020016040518091039020600b0160036101000a81548160ff021916908360ff1602179055505b3373ffffffffffffffffffffffffffffffffffffffff16600c866040518082805190602001908083835b6020831015156120f657805182526020820191506020810190506020830392506120d1565b6001836020036101000a0380198251168184511680821785525050505050509050019150509081526020016040518091039020600b0160049054906101000a900473ffffffffffffffffffffffffffffffffffffffff1673ffffffffffffffffffffffffffffffffffffffff1614151561216f57600080fd5b3373ffffffffffffffffffffffffffffffffffffffff16600c856040518082805190602001908083835b6020831015156121be5780518252602082019150602081019050602083039250612199565b6001836020036101000a0380198251168184511680821785525050505050509050019150509081526020016040518091039020600b0160049054906101000a900473ffffffffffffffffffffffffffffffffffffffff1673ffffffffffffffffffffffffffffffffffffffff1614151561223757600080fd5b6000600c866040518082805190602001908083835b602083101515612271578051825260208201915060208101905060208303925061224c565b6001836020036101000a0380198251168184511680821785525050505050509050019150509081526020016040518091039020600b0160039054906101000a900460ff1660ff1611801561234357506000600c856040518082805190602001908083835b6020831015156122fa57805182526020820191506020810190506020830392506122d5565b6001836020036101000a0380198251168184511680821785525050505050509050019150509081526020016040518091039020600b0160039054906101000a900460ff1660ff16115b151561234e57600080fd5b600061010042600c886040518082805190602001908083835b60208310151561238c5780518252602082019150602081019050602083039250612367565b6001836020036101000a0380198251168184511680821785525050505050509050019150509081526020016040518091039020600b0160029054906101000a900460ff16600c886040518082805190602001908083835b60208310151561240857805182526020820191506020810190506020830392506123e3565b6001836020036101000a0380198251168184511680821785525050505050509050019150509081526020016040518091039020600b0160029054906101000a900460ff16604051602001808481526020018360ff1660ff167f01000000000000000000000000000000000000000000000000000000000000000281526001018260ff1660ff167f0100000000000000000000000000000000000000000000000000000000000000028152600101935050505060405160208183030381529060405280519060200120600190048115156124dd57fe5b069050600c856040518082805190602001908083835b60208310151561251857805182526020820191506020810190506020830392506124f3565b6001836020036101000a0380198251168184511680821785525050505050509050019150509081526020016040518091039020600b0160039054906101000a900460ff1660ff16600c876040518082805190602001908083835b6020831015156125975780518252602082019150602081019050602083039250612572565b6001836020036101000a0380198251168184511680821785525050505050509050019150509081526020016040518091039020600b0160039054906101000a900460ff1660ff160161ffff168160ff1661ffff161015156125f757600080fd5b600c856040518082805190602001908083835b60208310151561262f578051825260208201915060208101905060208303925061260a565b6001836020036101000a0380198251168184511680821785525050505050509050019150509081526020016040518091039020600b0160029054906101000a900460ff1660ff16600c876040518082805190602001908083835b6020831015156126ae5780518252602082019150602081019050602083039250612689565b6001836020036101000a0380198251168184511680821785525050505050509050019150509081526020016040518091039020600b0160029054906101000a900460ff1660ff161180156127fd5750600c856040518082805190602001908083835b6020831015156127355780518252602082019150602081019050602083039250612710565b6001836020036101000a0380198251168184511680821785525050505050509050019150509081526020016040518091039020600b0160039054906101000a900460ff1660ff16600c876040518082805190602001908083835b6020831015156127b4578051825260208201915060208101905060208303925061278f565b6001836020036101000a0380198251168184511680821785525050505050509050019150509081526020016040518091039020600b0160039054906101000a900460ff1660ff16115b156128145761280c86336161f9565b935050612e0e565b600c856040518082805190602001908083835b60208310151561284c5780518252602082019150602081019050602083039250612827565b6001836020036101000a0380198251168184511680821785525050505050509050019150509081526020016040518091039020600b0160029054906101000a900460ff1660ff16600c876040518082805190602001908083835b6020831015156128cb57805182526020820191506020810190506020830392506128a6565b6001836020036101000a0380198251168184511680821785525050505050509050019150509081526020016040518091039020600b0160029054906101000a900460ff1660ff16118015612a1a5750600c856040518082805190602001908083835b602083101515612952578051825260208201915060208101905060208303925061292d565b6001836020036101000a0380198251168184511680821785525050505050509050019150509081526020016040518091039020600b0160039054906101000a900460ff1660ff16600c876040518082805190602001908083835b6020831015156129d157805182526020820191506020810190506020830392506129ac565b6001836020036101000a0380198251168184511680821785525050505050509050019150509081526020016040518091039020600b0160039054906101000a900460ff1660ff16105b15612b0a57612b02612a2f876000601e61687d565b612a3c87601e603f61687d565b6040516020018083805190602001908083835b602083101515612a745780518252602082019150602081019050602083039250612a4f565b6001836020036101000a03801982511681845116808217855250505050505090500182805190602001908083835b602083101515612ac75780518252602082019150602081019050602083039250612aa2565b6001836020036101000a03801982511681845116808217855250505050505090500192505050604051602081830303815290604052336161f9565b935050612e0e565b600c856040518082805190602001908083835b602083101515612b425780518252602082019150602081019050602083039250612b1d565b6001836020036101000a0380198251168184511680821785525050505050509050019150509081526020016040518091039020600b0160029054906101000a900460ff1660ff16600c876040518082805190602001908083835b602083101515612bc15780518252602082019150602081019050602083039250612b9c565b6001836020036101000a0380198251168184511680821785525050505050509050019150509081526020016040518091039020600b0160029054906101000a900460ff1660ff16108015612d105750600c856040518082805190602001908083835b602083101515612c485780518252602082019150602081019050602083039250612c23565b6001836020036101000a0380198251168184511680821785525050505050509050019150509081526020016040518091039020600b0160039054906101000a900460ff1660ff16600c876040518082805190602001908083835b602083101515612cc75780518252602082019150602081019050602083039250612ca2565b6001836020036101000a0380198251168184511680821785525050505050509050019150509081526020016040518091039020600b0160039054906101000a900460ff1660ff16115b15612e0057612df8612d2587601e603f61687d565b612d32876000601e61687d565b6040516020018083805190602001908083835b602083101515612d6a5780518252602082019150602081019050602083039250612d45565b6001836020036101000a03801982511681845116808217855250505050505090500182805190602001908083835b602083101515612dbd5780518252602082019150602081019050602083039250612d98565b6001836020036101000a03801982511681845116808217855250505050505090500192505050604051602081830303815290604052336161f9565b935050612e0e565b612e0a85336161f9565b9350505b505092915050565b6060600c826040518082805190602001908083835b602083101515612e505780518252602082019150602081019050602083039250612e2b565b6001836020036101000a03801982511681845116808217855250505050505090500191505090815260200160405180910390206002018054600181600116156101000203166002900480601f016020809104026020016040519081016040528092919081815260200182805460018160011615610100020316600290048015612f1a5780601f10612eef57610100808354040283529160200191612f1a565b820191906000526020600020905b815481529060010190602001808311612efd57829003601f168201915b50505050509050919050565b6000612f31836136d7565b82101515612f74576040517f08c379a0000000000000000000000000000000000000000000000000000000008152600401612f6b90618350565b60405180910390fd5b600560008473ffffffffffffffffffffffffffffffffffffffff1673ffffffffffffffffffffffffffffffffffffffff16815260200190815260200160002082815481101515612fc057fe5b9060005260206000200154905092915050565b6060600c826040518082805190602001908083835b60208310151561300d5780518252602082019150602081019050602083039250612fe8565b6001836020036101000a03801982511681845116808217855250505050505090500191505090815260200160405180910390206009018054600181600116156101000203166002900480601f0160208091040260200160405190810160405280929190818152602001828054600181600116156101000203166002900480156130d75780601f106130ac576101008083540402835291602001916130d7565b820191906000526020600020905b8154815290600101906020018083116130ba57829003601f168201915b50505050509050919050565b60105481565b6131058383836020604051908101604052806000815250614702565b505050565b6000600c826040518082805190602001908083835b602083101515613144578051825260208201915060208101905060208303925061311f565b6001836020036101000a0380198251168184511680821785525050505050509050019150509081526020016040518091039020600b0160049054906101000a900473ffffffffffffffffffffffffffffffffffffffff169050919050565b60006131ac611760565b821015156131ef576040517f08c379a00000000000000000000000000000000000000000000000000000000081526004016131e690618510565b60405180910390fd5b6007828154811015156131fe57fe5b90600052602060002001549050919050565b6000600c826040518082805190602001908083835b60208310151561324a5780518252602082019150602081019050602083039250613225565b6001836020036101000a0380198251168184511680821785525050505050509050019150509081526020016040518091039020600c01549050919050565b60606000600d60003373ffffffffffffffffffffffffffffffffffffffff1673ffffffffffffffffffffffffffffffffffffffff168152602001908152602001600020600e60003373ffffffffffffffffffffffffffffffffffffffff1673ffffffffffffffffffffffffffffffffffffffff16815260200190815260200160002060009054906101000a900460ff1681805480602002602001604051908101604052809291908181526020016000905b828210156133f5578382906000526020600020018054600181600116156101000203166002900480601f0160208091040260200160405190810160405280929190818152602001828054600181600116156101000203166002900480156133e15780601f106133b6576101008083540402835291602001916133e1565b820191906000526020600020905b8154815290600101906020018083116133c457829003601f168201915b505050505081526020019060010190613339565b505050509150915091509091565b6060600c826040518082805190602001908083835b60208310151561343d5780518252602082019150602081019050602083039250613418565b6001836020036101000a03801982511681845116808217855250505050505090500191505090815260200160405180910390206000018054600181600116156101000203166002900480601f0160208091040260200160405190810160405280929190818152602001828054600181600116156101000203166002900480156135075780601f106134dc57610100808354040283529160200191613507565b820191906000526020600020905b8154815290600101906020018083116134ea57829003601f168201915b50505050509050919050565b6060600c826040518082805190602001908083835b60208310151561354d5780518252602082019150602081019050602083039250613528565b6001836020036101000a03801982511681845116808217855250505050505090500191505090815260200160405180910390206004018054600181600116156101000203166002900480601f0160208091040260200160405190810160405280929190818152602001828054600181600116156101000203166002900480156136175780601f106135ec57610100808354040283529160200191613617565b820191906000526020600020905b8154815290600101906020018083116135fa57829003601f168201915b50505050509050919050565b6000806001600084815260200190815260200160002060009054906101000a900473ffffffffffffffffffffffffffffffffffffffff169050600073ffffffffffffffffffffffffffffffffffffffff168173ffffffffffffffffffffffffffffffffffffffff16141515156136ce576040517f08c379a00000000000000000000000000000000000000000000000000000000081526004016136c590618450565b60405180910390fd5b80915050919050565b60008073ffffffffffffffffffffffffffffffffffffffff168273ffffffffffffffffffffffffffffffffffffffff161415151561374a576040517f08c379a000000000000000000000000000000000000000000000000000000000815260040161374190618430565b60405180910390fd5b613791600360008473ffffffffffffffffffffffffffffffffffffffff1673ffffffffffffffffffffffffffffffffffffffff16815260200190815260200160002061697e565b9050919050565b6060600c826040518082805190602001908083835b6020831015156137d257805182526020820191506020810190506020830392506137ad565b6001836020036101000a03801982511681845116808217855250505050505090500191505090815260200160405180910390206003018054600181600116156101000203166002900480601f01602080910402602001604051908101604052809291908181526020018280546001816001161561010002031660029004801561389c5780601f106138715761010080835404028352916020019161389c565b820191906000526020600020905b81548152906001019060200180831161387f57829003601f168201915b50505050509050919050565b6060600a8054600181600116156101000203166002900480601f0160208091040260200160405190810160405280929190818152602001828054600181600116156101000203166002900480156139405780601f1061391557610100808354040283529160200191613940565b820191906000526020600020905b81548152906001019060200180831161392357829003601f168201915b5050505050905090565b60603073ffffffffffffffffffffffffffffffffffffffff168233604051602401613976929190618320565b6040516020818303038152906040527f895ad739000000000000000000000000000000000000000000000000000000007bffffffffffffffffffffffffffffffffffffffffffffffffffffffff19166020820180517bffffffffffffffffffffffffffffffffffffffffffffffffffffffff83818316178352505050506040518082805190602001908083835b602083101515613a285780518252602082019150602081019050602083039250613a03565b6001836020036101000a038019825116818451168082178552505050505050905001915050600060405180830381855af49150503d8060008114613a88576040519150601f19603f3d011682016040523d82523d6000602084013e613a8d565b606091505b505050613a9a82336161f9565b9050919050565b816000600c826040518082805190602001908083835b602083101515613adc5780518252602082019150602081019050602083039250613ab7565b6001836020036101000a0380198251168184511680821785525050505050509050019150509081526020016040518091039020600b0160029054906101000a900460ff1660ff161115613d34576040600c826040518082805190602001908083835b602083101515613b635780518252602082019150602081019050602083039250613b3e565b6001836020036101000a0380198251168184511680821785525050505050509050019150509081526020016040518091039020600b0160009054906101000a900460ff1660ff16811515613bb357fe5b04610e10600c836040518082805190602001908083835b602083101515613bef5780518252602082019150602081019050602083039250613bca565b6001836020036101000a0380198251168184511680821785525050505050509050019150509081526020016040518091039020600e01544203811515613c3157fe5b040260ff03600c826040518082805190602001908083835b602083101515613c6e5780518252602082019150602081019050602083039250613c49565b6001836020036101000a0380198251168184511680821785525050505050509050019150509081526020016040518091039020600b0160026101000a81548160ff021916908360ff16021790555042600c826040518082805190602001908083835b602083101515613cf55780518252602082019150602081019050602083039250613cd0565b6001836020036101000a0380198251168184511680821785525050505050509050019150509081526020016040518091039020600e0181905550613e45565b6000600c826040518082805190602001908083835b602083101515613d6e5780518252602082019150602081019050602083039250613d49565b6001836020036101000a0380198251168184511680821785525050505050509050019150509081526020016040518091039020600b0160026101000a81548160ff021916908360ff1602179055506000600c826040518082805190602001908083835b602083101515613df65780518252602082019150602081019050602083039250613dd1565b6001836020036101000a0380198251168184511680821785525050505050509050019150509081526020016040518091039020600b0160036101000a81548160ff021916908360ff1602179055505b3373ffffffffffffffffffffffffffffffffffffffff16600c846040518082805190602001908083835b602083101515613e945780518252602082019150602081019050602083039250613e6f565b6001836020036101000a0380198251168184511680821785525050505050509050019150509081526020016040518091039020600b0160049054906101000a900473ffffffffffffffffffffffffffffffffffffffff1673ffffffffffffffffffffffffffffffffffffffff16141515613f0d57600080fd5b81600c846040518082805190602001908083835b602083101515613f465780518252602082019150602081019050602083039250613f21565b6001836020036101000a0380198251168184511680821785525050505050509050019150509081526020016040518091039020600c01819055506001600c846040518082805190602001908083835b602083101515613fba5780518252602082019150602081019050602083039250613f95565b6001836020036101000a0380198251168184511680821785525050505050509050019150509081526020016040518091039020600d0160006101000a81548160ff0219169083151502179055506001601060008282540192505081905550600f83908060018154018082558091505090600182039060005260206000200160009091929091909150908051906020019061405592919061748f565b5050505050565b60003373ffffffffffffffffffffffffffffffffffffffff16600c836040518082805190602001908083835b6020831015156140ad5780518252602082019150602081019050602083039250614088565b6001836020036101000a0380198251168184511680821785525050505050509050019150509081526020016040518091039020600b0160049054906101000a900473ffffffffffffffffffffffffffffffffffffffff1673ffffffffffffffffffffffffffffffffffffffff1614151561412657600080fd5b600c826040518082805190602001908083835b60208310151561415e5780518252602082019150602081019050602083039250614139565b6001836020036101000a0380198251168184511680821785525050505050509050019150509081526020016040518091039020600b0160019054906101000a900460ff169050919050565b3373ffffffffffffffffffffffffffffffffffffffff168273ffffffffffffffffffffffffffffffffffffffff161415151561421a576040517f08c379a0000000000000000000000000000000000000000000000000000000008152600401614211906183b0565b60405180910390fd5b80600460003373ffffffffffffffffffffffffffffffffffffffff1673ffffffffffffffffffffffffffffffffffffffff16815260200190815260200160002060008473ffffffffffffffffffffffffffffffffffffffff1673ffffffffffffffffffffffffffffffffffffffff16815260200190815260200160002060006101000a81548160ff0219169083151502179055508173ffffffffffffffffffffffffffffffffffffffff163373ffffffffffffffffffffffffffffffffffffffff167f17307eab39ab6107e8899845ad3d59bd9653f200f220920489ca2b5937696c318360405161430b91906182c1565b60405180910390a35050565b6060600c826040518082805190602001908083835b602083101515614351578051825260208201915060208101905060208303925061432c565b6001836020036101000a03801982511681845116808217855250505050505090500191505090815260200160405180910390206008018054600181600116156101000203166002900480601f01602080910402602001604051908101604052809291908181526020018280546001816001161561010002031660029004801561441b5780601f106143f05761010080835404028352916020019161441b565b820191906000526020600020905b8154815290600101906020018083116143fe57829003601f168201915b50505050509050919050565b6060600c826040518082805190602001908083835b602083101515614461578051825260208201915060208101905060208303925061443c565b6001836020036101000a03801982511681845116808217855250505050505090500191505090815260200160405180910390206001018054600181600116156101000203166002900480601f01602080910402602001604051908101604052809291908181526020018280546001816001161561010002031660029004801561452b5780601f106145005761010080835404028352916020019161452b565b820191906000526020600020905b81548152906001019060200180831161450e57829003601f168201915b50505050509050919050565b6060600c826040518082805190602001908083835b602083101515614571578051825260208201915060208101905060208303925061454c565b6001836020036101000a03801982511681845116808217855250505050505090500191505090815260200160405180910390206006018054600181600116156101000203166002900480601f01602080910402602001604051908101604052809291908181526020018280546001816001161561010002031660029004801561463b5780601f106146105761010080835404028352916020019161463b565b820191906000526020600020905b81548152906001019060200180831161461e57829003601f168201915b50505050509050919050565b600f8181548110151561465657fe5b906000526020600020016000915090508054600181600116156101000203166002900480601f0160208091040260200160405190810160405280929190818152602001828054600181600116156101000203166002900480156146fa5780601f106146cf576101008083540402835291602001916146fa565b820191906000526020600020905b8154815290600101906020018083116146dd57829003601f168201915b505050505081565b61470d84848461187d565b6147198484848461698c565b151561475a576040517f08c379a000000000000000000000000000000000000000000000000000000000815260040161475190618370565b60405180910390fd5b50505050565b6060600c826040518082805190602001908083835b60208310151561479a5780518252602082019150602081019050602083039250614775565b6001836020036101000a03801982511681845116808217855250505050505090500191505090815260200160405180910390206005018054600181600116156101000203166002900480601f0160208091040260200160405190810160405280929190818152602001828054600181600116156101000203166002900480156148645780601f1061483957610100808354040283529160200191614864565b820191906000526020600020905b81548152906001019060200180831161484757829003601f168201915b50505050509050919050565b606061487b82615c60565b15156148bc576040517f08c379a00000000000000000000000000000000000000000000000000000000081526004016148b3906184b0565b60405180910390fd5b600b60008381526020019081526020016000208054600181600116156101000203166002900480601f0160208091040260200160405190810160405280929190818152602001828054600181600116156101000203166002900480156149635780601f1061493857610100808354040283529160200191614963565b820191906000526020600020905b81548152906001019060200180831161494657829003601f168201915b50505050509050919050565b60003373ffffffffffffffffffffffffffffffffffffffff16600c836040518082805190602001908083835b6020831015156149c0578051825260208201915060208101905060208303925061499b565b6001836020036101000a0380198251168184511680821785525050505050509050019150509081526020016040518091039020600b0160049054906101000a900473ffffffffffffffffffffffffffffffffffffffff1673ffffffffffffffffffffffffffffffffffffffff16141515614a3957600080fd5b600c826040518082805190602001908083835b602083101515614a715780518252602082019150602081019050602083039250614a4c565b6001836020036101000a0380198251168184511680821785525050505050509050019150509081526020016040518091039020600b0160009054906101000a900460ff169050919050565b6000816000600c826040518082805190602001908083835b602083101515614af95780518252602082019150602081019050602083039250614ad4565b6001836020036101000a0380198251168184511680821785525050505050509050019150509081526020016040518091039020600b0160029054906101000a900460ff1660ff161115614d51576040600c826040518082805190602001908083835b602083101515614b805780518252602082019150602081019050602083039250614b5b565b6001836020036101000a0380198251168184511680821785525050505050509050019150509081526020016040518091039020600b0160009054906101000a900460ff1660ff16811515614bd057fe5b04610e10600c836040518082805190602001908083835b602083101515614c0c5780518252602082019150602081019050602083039250614be7565b6001836020036101000a0380198251168184511680821785525050505050509050019150509081526020016040518091039020600e01544203811515614c4e57fe5b040260ff03600c826040518082805190602001908083835b602083101515614c8b5780518252602082019150602081019050602083039250614c66565b6001836020036101000a0380198251168184511680821785525050505050509050019150509081526020016040518091039020600b0160026101000a81548160ff021916908360ff16021790555042600c826040518082805190602001908083835b602083101515614d125780518252602082019150602081019050602083039250614ced565b6001836020036101000a0380198251168184511680821785525050505050509050019150509081526020016040518091039020600e0181905550614e62565b6000600c826040518082805190602001908083835b602083101515614d8b5780518252602082019150602081019050602083039250614d66565b6001836020036101000a0380198251168184511680821785525050505050509050019150509081526020016040518091039020600b0160026101000a81548160ff021916908360ff1602179055506000600c826040518082805190602001908083835b602083101515614e135780518252602082019150602081019050602083039250614dee565b6001836020036101000a0380198251168184511680821785525050505050509050019150509081526020016040518091039020600b0160036101000a81548160ff021916908360ff1602179055505b3373ffffffffffffffffffffffffffffffffffffffff16600c846040518082805190602001908083835b602083101515614eb15780518252602082019150602081019050602083039250614e8c565b6001836020036101000a0380198251168184511680821785525050505050509050019150509081526020016040518091039020600b0160049054906101000a900473ffffffffffffffffffffffffffffffffffffffff1673ffffffffffffffffffffffffffffffffffffffff16141515614f2a57600080fd5b600c836040518082805190602001908083835b602083101515614f625780518252602082019150602081019050602083039250614f3d565b6001836020036101000a0380198251168184511680821785525050505050509050019150509081526020016040518091039020600b0160039054906101000a900460ff16915050919050565b6060600c826040518082805190602001908083835b602083101515614fe85780518252602082019150602081019050602083039250614fc3565b6001836020036101000a03801982511681845116808217855250505050505090500191505090815260200160405180910390206007018054600181600116156101000203166002900480601f0160208091040260200160405190810160405280929190818152602001828054600181600116156101000203166002900480156150b25780601f10615087576101008083540402835291602001916150b2565b820191906000526020600020905b81548152906001019060200180831161509557829003601f168201915b50505050509050919050565b3373ffffffffffffffffffffffffffffffffffffffff16600c826040518082805190602001908083835b60208310151561510d57805182526020820191506020810190506020830392506150e8565b6001836020036101000a0380198251168184511680821785525050505050509050019150509081526020016040518091039020600b0160049054906101000a900473ffffffffffffffffffffffffffffffffffffffff1673ffffffffffffffffffffffffffffffffffffffff1614151561518657600080fd5b600066071afd498d000090508034101515156151a157600080fd5b60003090508073ffffffffffffffffffffffffffffffffffffffff166108fc839081150290604051600060405180830381858888f193505050501580156151ec573d6000803e3d6000fd5b5042600c846040518082805190602001908083835b6020831015156152265780518252602082019150602081019050602083039250615201565b6001836020036101000a03801982511681845116808217855250505050505090500191505090815260200160405180910390205050505050565b6000600460008473ffffffffffffffffffffffffffffffffffffffff1673ffffffffffffffffffffffffffffffffffffffff16815260200190815260200160002060008373ffffffffffffffffffffffffffffffffffffffff1673ffffffffffffffffffffffffffffffffffffffff16815260200190815260200160002060009054906101000a900460ff16905092915050565b806000600c826040518082805190602001908083835b60208310151561532f578051825260208201915060208101905060208303925061530a565b6001836020036101000a0380198251168184511680821785525050505050509050019150509081526020016040518091039020600b0160029054906101000a900460ff1660ff161115615587576040600c826040518082805190602001908083835b6020831015156153b65780518252602082019150602081019050602083039250615391565b6001836020036101000a0380198251168184511680821785525050505050509050019150509081526020016040518091039020600b0160009054906101000a900460ff1660ff1681151561540657fe5b04610e10600c836040518082805190602001908083835b602083101515615442578051825260208201915060208101905060208303925061541d565b6001836020036101000a0380198251168184511680821785525050505050509050019150509081526020016040518091039020600e0154420381151561548457fe5b040260ff03600c826040518082805190602001908083835b6020831015156154c1578051825260208201915060208101905060208303925061549c565b6001836020036101000a0380198251168184511680821785525050505050509050019150509081526020016040518091039020600b0160026101000a81548160ff021916908360ff16021790555042600c826040518082805190602001908083835b6020831015156155485780518252602082019150602081019050602083039250615523565b6001836020036101000a0380198251168184511680821785525050505050509050019150509081526020016040518091039020600e0181905550615698565b6000600c826040518082805190602001908083835b6020831015156155c1578051825260208201915060208101905060208303925061559c565b6001836020036101000a0380198251168184511680821785525050505050509050019150509081526020016040518091039020600b0160026101000a81548160ff021916908360ff1602179055506000600c826040518082805190602001908083835b6020831015156156495780518252602082019150602081019050602083039250615624565b6001836020036101000a0380198251168184511680821785525050505050509050019150509081526020016040518091039020600b0160036101000a81548160ff021916908360ff1602179055505b3373ffffffffffffffffffffffffffffffffffffffff16600c836040518082805190602001908083835b6020831015156156e757805182526020820191506020810190506020830392506156c2565b6001836020036101000a0380198251168184511680821785525050505050509050019150509081526020016040518091039020600b0160049054906101000a900473ffffffffffffffffffffffffffffffffffffffff1673ffffffffffffffffffffffffffffffffffffffff1614151561576057600080fd5b61576a8233615cd2565b5050565b6000816000600c826040518082805190602001908083835b6020831015156157ab5780518252602082019150602081019050602083039250615786565b6001836020036101000a0380198251168184511680821785525050505050509050019150509081526020016040518091039020600b0160029054906101000a900460ff1660ff161115615a03576040600c826040518082805190602001908083835b602083101515615832578051825260208201915060208101905060208303925061580d565b6001836020036101000a0380198251168184511680821785525050505050509050019150509081526020016040518091039020600b0160009054906101000a900460ff1660ff1681151561588257fe5b04610e10600c836040518082805190602001908083835b6020831015156158be5780518252602082019150602081019050602083039250615899565b6001836020036101000a0380198251168184511680821785525050505050509050019150509081526020016040518091039020600e0154420381151561590057fe5b040260ff03600c826040518082805190602001908083835b60208310151561593d5780518252602082019150602081019050602083039250615918565b6001836020036101000a0380198251168184511680821785525050505050509050019150509081526020016040518091039020600b0160026101000a81548160ff021916908360ff16021790555042600c826040518082805190602001908083835b6020831015156159c4578051825260208201915060208101905060208303925061599f565b6001836020036101000a0380198251168184511680821785525050505050509050019150509081526020016040518091039020600e0181905550615b14565b6000600c826040518082805190602001908083835b602083101515615a3d5780518252602082019150602081019050602083039250615a18565b6001836020036101000a0380198251168184511680821785525050505050509050019150509081526020016040518091039020600b0160026101000a81548160ff021916908360ff1602179055506000600c826040518082805190602001908083835b602083101515615ac55780518252602082019150602081019050602083039250615aa0565b6001836020036101000a0380198251168184511680821785525050505050509050019150509081526020016040518091039020600b0160036101000a81548160ff021916908360ff1602179055505b3373ffffffffffffffffffffffffffffffffffffffff16600c846040518082805190602001908083835b602083101515615b635780518252602082019150602081019050602083039250615b3e565b6001836020036101000a0380198251168184511680821785525050505050509050019150509081526020016040518091039020600b0160049054906101000a900473ffffffffffffffffffffffffffffffffffffffff1673ffffffffffffffffffffffffffffffffffffffff16141515615bdc57600080fd5b600c836040518082805190602001908083835b602083101515615c145780518252602082019150602081019050602083039250615bef565b6001836020036101000a0380198251168184511680821785525050505050509050019150509081526020016040518091039020600b0160029054906101000a900460ff16915050919050565b6000806001600084815260200190815260200160002060009054906101000a900473ffffffffffffffffffffffffffffffffffffffff169050600073ffffffffffffffffffffffffffffffffffffffff168173ffffffffffffffffffffffffffffffffffffffff161415915050919050565b8073ffffffffffffffffffffffffffffffffffffffff16600c836040518082805190602001908083835b602083101515615d215780518252602082019150602081019050602083039250615cfc565b6001836020036101000a0380198251168184511680821785525050505050509050019150509081526020016040518091039020600b0160049054906101000a900473ffffffffffffffffffffffffffffffffffffffff1673ffffffffffffffffffffffffffffffffffffffff16141515615d9a57600080fd5b600c826040518082805190602001908083835b602083101515615dd25780518252602082019150602081019050602083039250615dad565b6001836020036101000a0380198251168184511680821785525050505050509050019150509081526020016040518091039020600d0160009054906101000a900460ff161515615e2157600080fd5b6000601054111515615e3257600080fd5b6000600c836040518082805190602001908083835b602083101515615e6c5780518252602082019150602081019050602083039250615e47565b6001836020036101000a0380198251168184511680821785525050505050509050019150509081526020016040518091039020600c01819055506000600c836040518082805190602001908083835b602083101515615ee05780518252602082019150602081019050602083039250615ebb565b6001836020036101000a0380198251168184511680821785525050505050509050019150509081526020016040518091039020600d0160006101000a81548160ff021916908315150217905550615f3b82600f601054615f50565b60016010600082825403925050819055505050565b60008090506001821415615f8d57828054801515615f6a57fe5b600190038181906000526020600020016000615f86919061750f565b905561609a565b60008090505b600183038110156160985784805190602001208482815481101515615fb457fe5b9060005260206000200160405180828054600181600116156101000203166002900480156160195780601f10615ff7576101008083540402835291820191616019565b820191906000526020600020905b815481529060010190602001808311616005575b50509150506040518091039020141561603157600191505b811561608b57836001820181548110151561604857fe5b90600052602060002001848281548110151561606057fe5b906000526020600020019080546001816001161561010002031660029004616089929190617557565b505b8080600101915050615f93565b505b50505050565b606060008214156160e8576040805190810160405280600181526020017f300000000000000000000000000000000000000000000000000000000000000081525090506161f4565b600082905060005b600082141515616116578080600101915050600a8281151561610e57fe5b0491506160f0565b6060816040519080825280601f01601f19166020018201604052801561614b5781602001600182028038833980820191505090505b50905060006001830390505b6000861415156161ec57600a8681151561616d57fe5b066030017f0100000000000000000000000000000000000000000000000000000000000000028282806001900393508151811015156161a857fe5b9060200101907effffffffffffffffffffffffffffffffffffffffffffffffffffffffffffff1916908160001a905350600a868115156161e457fe5b049550616157565b819450505050505b919050565b60606162036175de565b6102606040519081016040528061621d866000600661687d565b815260200161622f866006600861687d565b8152602001616241866008600e61687d565b815260200161625386600e601061687d565b8152602001616265866010601261687d565b8152602001616277866012601861687d565b8152602001616289866018601e61687d565b815260200161629b86601e602061687d565b81526020016162ad866020602661687d565b81526020016162bf866026602c61687d565b81526020016162d186602c602e61687d565b81526020016162eb6162e687602e603061687d565b616add565b60ff168152602001616308616303876030603261687d565b616add565b60ff168152602001616325616320876032603461687d565b616add565b60ff16815260200161634261633d876034603661687d565b616add565b60ff1681526020018473ffffffffffffffffffffffffffffffffffffffff168152602001600a815260200160011515815260200142815250905080600c856040518082805190602001908083835b6020831015156163b55780518252602082019150602081019050602083039250616390565b6001836020036101000a03801982511681845116808217855250505050505090500191505090815260200160405180910390206000820151816000019080519060200190616404929190617695565b506020820151816001019080519060200190616421929190617695565b50604082015181600201908051906020019061643e929190617695565b50606082015181600301908051906020019061645b929190617695565b506080820151816004019080519060200190616478929190617695565b5060a0820151816005019080519060200190616495929190617695565b5060c08201518160060190805190602001906164b2929190617695565b5060e08201518160070190805190602001906164cf929190617695565b506101008201518160080190805190602001906164ed929190617695565b5061012082015181600901908051906020019061650b929190617695565b5061014082015181600a019080519060200190616529929190617695565b5061016082015181600b0160006101000a81548160ff021916908360ff16021790555061018082015181600b0160016101000a81548160ff021916908360ff1602179055506101a082015181600b0160026101000a81548160ff021916908360ff1602179055506101c082015181600b0160036101000a81548160ff021916908360ff1602179055506101e082015181600b0160046101000a81548173ffffffffffffffffffffffffffffffffffffffff021916908373ffffffffffffffffffffffffffffffffffffffff16021790555061020082015181600c015561022082015181600d0160006101000a81548160ff02191690831515021790555061024082015181600e0155905050600d60008473ffffffffffffffffffffffffffffffffffffffff1673ffffffffffffffffffffffffffffffffffffffff1681526020019081526020016000208490806001815401808255809150509060018203906000526020600020016000909192909190915090805190602001906166ae92919061748f565b5050600e60008473ffffffffffffffffffffffffffffffffffffffff1673ffffffffffffffffffffffffffffffffffffffff168152602001908152602001600020600081819054906101000a900460ff168092919060010191906101000a81548160ff021916908360ff160217905550506001601060008282540192505081905550600f84908060018154018082558091505090600182039060005260206000200160009091929091909150908051906020019061676d92919061748f565b50508391505092915050565b600061678482615c60565b15156167c5576040517f08c379a00000000000000000000000000000000000000000000000000000000081526004016167bc906183f0565b60405180910390fd5b60006167d083613623565b90508073ffffffffffffffffffffffffffffffffffffffff168473ffffffffffffffffffffffffffffffffffffffff16148061683f57508373ffffffffffffffffffffffffffffffffffffffff1661682784610c6b565b73ffffffffffffffffffffffffffffffffffffffff16145b80616850575061684f8185615260565b5b91505092915050565b616864838383616e8d565b61686e83826170c0565b6168788282617264565b505050565b60608084905060608484036040519080825280601f01601f1916602001820160405280156168ba5781602001600182028038833980820191505090505b50905060008590505b848110156169715782818151811015156168d957fe5b9060200101517f010000000000000000000000000000000000000000000000000000000000000090047f0100000000000000000000000000000000000000000000000000000000000000028287830381518110151561693457fe5b9060200101907effffffffffffffffffffffffffffffffffffffffffffffffffffffffffffff1916908160001a90535080806001019150506168c3565b5080925050509392505050565b600081600001549050919050565b60006169ad8473ffffffffffffffffffffffffffffffffffffffff1661732b565b15156169bc5760019050616ad5565b60008473ffffffffffffffffffffffffffffffffffffffff1663150b7a02338887876040518563ffffffff167c0100000000000000000000000000000000000000000000000000000000028152600401616a199493929190618245565b602060405180830381600087803b158015616a3357600080fd5b505af1158015616a47573d6000803e3d6000fd5b505050506040513d601f19601f82011682018060405250616a6b9190810190617a46565b905063150b7a027c0100000000000000000000000000000000000000000000000000000000027bffffffffffffffffffffffffffffffffffffffffffffffffffffffff1916817bffffffffffffffffffffffffffffffffffffffffffffffffffffffff1916149150505b949350505050565b600060206040519081016040528060008152508051906020012082805190602001201415616b0e5760009050616e88565b600080905060397f010000000000000000000000000000000000000000000000000000000000000002836000815181101515616b4657fe5b9060200101517f010000000000000000000000000000000000000000000000000000000000000090047f0100000000000000000000000000000000000000000000000000000000000000027effffffffffffffffffffffffffffffffffffffffffffffffffffffffffffff1916111515616c465760106030846000815181101515616bcd57fe5b9060200101517f010000000000000000000000000000000000000000000000000000000000000090047f0100000000000000000000000000000000000000000000000000000000000000027f01000000000000000000000000000000000000000000000000000000000000009004030281019050616cce565b60106031846000815181101515616c5957fe5b9060200101517f010000000000000000000000000000000000000000000000000000000000000090047f0100000000000000000000000000000000000000000000000000000000000000027f010000000000000000000000000000000000000000000000000000000000000090040302810190505b60397f010000000000000000000000000000000000000000000000000000000000000002836000815181101515616d0157fe5b9060200101517f010000000000000000000000000000000000000000000000000000000000000090047f0100000000000000000000000000000000000000000000000000000000000000027effffffffffffffffffffffffffffffffffffffffffffffffffffffffffffff1916111515616dfe576030836001815181101515616d8657fe5b9060200101517f010000000000000000000000000000000000000000000000000000000000000090047f0100000000000000000000000000000000000000000000000000000000000000027f010000000000000000000000000000000000000000000000000000000000000090040381019050616e83565b6031836001815181101515616e0f57fe5b9060200101517f010000000000000000000000000000000000000000000000000000000000000090047f0100000000000000000000000000000000000000000000000000000000000000027f0100000000000000000000000000000000000000000000000000000000000000900403810190505b809150505b919050565b8273ffffffffffffffffffffffffffffffffffffffff16616ead82613623565b73ffffffffffffffffffffffffffffffffffffffff16141515616f05576040517f08c379a0000000000000000000000000000000000000000000000000000000008152600401616efc90618490565b60405180910390fd5b600073ffffffffffffffffffffffffffffffffffffffff168273ffffffffffffffffffffffffffffffffffffffff1614151515616f77576040517f08c379a0000000000000000000000000000000000000000000000000000000008152600401616f6e90618390565b60405180910390fd5b616f808161733e565b616fc7600360008573ffffffffffffffffffffffffffffffffffffffff1673ffffffffffffffffffffffffffffffffffffffff1681526020019081526020016000206173fe565b61700e600360008473ffffffffffffffffffffffffffffffffffffffff1673ffffffffffffffffffffffffffffffffffffffff168152602001908152602001600020617421565b816001600083815260200190815260200160002060006101000a81548173ffffffffffffffffffffffffffffffffffffffff021916908373ffffffffffffffffffffffffffffffffffffffff160217905550808273ffffffffffffffffffffffffffffffffffffffff168473ffffffffffffffffffffffffffffffffffffffff167fddf252ad1be2c89b69c2b068fc378daa952ba7f163c4a11628f55a4df523b3ef60405160405180910390a4505050565b60006171186001600560008673ffffffffffffffffffffffffffffffffffffffff1673ffffffffffffffffffffffffffffffffffffffff1681526020019081526020016000208054905061743790919063ffffffff16565b9050600060066000848152602001908152602001600020549050818114151561720b576000600560008673ffffffffffffffffffffffffffffffffffffffff1673ffffffffffffffffffffffffffffffffffffffff1681526020019081526020016000208381548110151561718957fe5b9060005260206000200154905080600560008773ffffffffffffffffffffffffffffffffffffffff1673ffffffffffffffffffffffffffffffffffffffff168152602001908152602001600020838154811015156171e357fe5b9060005260206000200181905550816006600083815260200190815260200160002081905550505b600560008573ffffffffffffffffffffffffffffffffffffffff1673ffffffffffffffffffffffffffffffffffffffff16815260200190815260200160002080548091906001900361725d9190617715565b5050505050565b600560008373ffffffffffffffffffffffffffffffffffffffff1673ffffffffffffffffffffffffffffffffffffffff168152602001908152602001600020805490506006600083815260200190815260200160002081905550600560008373ffffffffffffffffffffffffffffffffffffffff1673ffffffffffffffffffffffffffffffffffffffff1681526020019081526020016000208190806001815401808255809150509060018203906000526020600020016000909192909190915055505050565b600080823b905060008111915050919050565b600073ffffffffffffffffffffffffffffffffffffffff166002600083815260200190815260200160002060009054906101000a900473ffffffffffffffffffffffffffffffffffffffff1673ffffffffffffffffffffffffffffffffffffffff161415156173fb5760006002600083815260200190815260200160002060006101000a81548173ffffffffffffffffffffffffffffffffffffffff021916908373ffffffffffffffffffffffffffffffffffffffff1602179055505b50565b6174166001826000015461743790919063ffffffff16565b816000018190555050565b6001816000016000828254019250508190555050565b600082821115151561747e576040517f08c379a0000000000000000000000000000000000000000000000000000000008152600401617475906183d0565b60405180910390fd5b600082840390508091505092915050565b828054600181600116156101000203166002900490600052602060002090601f016020900481019282601f106174d057805160ff19168380011785556174fe565b828001600101855582156174fe579182015b828111156174fd5782518255916020019190600101906174e2565b5b50905061750b9190617741565b5090565b50805460018160011615610100020316600290046000825580601f106175355750617554565b601f0160209004906000526020600020908101906175539190617741565b5b50565b828054600181600116156101000203166002900490600052602060002090601f016020900481019282601f1061759057805485556175cd565b828001600101855582156175cd57600052602060002091601f016020900482015b828111156175cc5782548255916001019190600101906175b1565b5b5090506175da9190617741565b5090565b610260604051908101604052806060815260200160608152602001606081526020016060815260200160608152602001606081526020016060815260200160608152602001606081526020016060815260200160608152602001600060ff168152602001600060ff168152602001600060ff168152602001600060ff168152602001600073ffffffffffffffffffffffffffffffffffffffff16815260200160008152602001600015158152602001600081525090565b828054600181600116156101000203166002900490600052602060002090601f016020900481019282601f106176d657805160ff1916838001178555617704565b82800160010185558215617704579182015b828111156177035782518255916020019190600101906176e8565b5b5090506177119190617741565b5090565b81548183558181111561773c5781836000526020600020918201910161773b9190617741565b5b505050565b61776391905b8082111561775f576000816000905550600101617747565b5090565b90565b60006177728235618698565b905092915050565b600061778682356186aa565b905092915050565b600061779a82356186b6565b905092915050565b60006177ae82516186b6565b905092915050565b600082601f83011215156177c957600080fd5b81356177dc6177d782618593565b618566565b915080825260208301602083018583830111156177f857600080fd5b617803838284618722565b50505092915050565b600082601f830112151561781f57600080fd5b813561783261782d826185bf565b618566565b9150808252602083016020830185838301111561784e57600080fd5b617859838284618722565b50505092915050565b600061786e82356186e2565b905092915050565b60006020828403121561788857600080fd5b600061789684828501617766565b91505092915050565b600080604083850312156178b257600080fd5b60006178c085828601617766565b92505060206178d185828601617766565b9150509250929050565b6000806000606084860312156178f057600080fd5b60006178fe86828701617766565b935050602061790f86828701617766565b925050604061792086828701617862565b9150509250925092565b6000806000806080858703121561794057600080fd5b600061794e87828801617766565b945050602061795f87828801617766565b935050604061797087828801617862565b925050606085013567ffffffffffffffff81111561798d57600080fd5b617999878288016177b6565b91505092959194509250565b600080604083850312156179b857600080fd5b60006179c685828601617766565b92505060206179d78582860161777a565b9150509250929050565b600080604083850312156179f457600080fd5b6000617a0285828601617766565b9250506020617a1385828601617862565b9150509250929050565b600060208284031215617a2f57600080fd5b6000617a3d8482850161778e565b91505092915050565b600060208284031215617a5857600080fd5b6000617a66848285016177a2565b91505092915050565b600060208284031215617a8157600080fd5b600082013567ffffffffffffffff811115617a9b57600080fd5b617aa78482850161780c565b91505092915050565b60008060408385031215617ac357600080fd5b600083013567ffffffffffffffff811115617add57600080fd5b617ae98582860161780c565b925050602083013567ffffffffffffffff811115617b0657600080fd5b617b128582860161780c565b9150509250929050565b60008060408385031215617b2f57600080fd5b600083013567ffffffffffffffff811115617b4957600080fd5b617b558582860161780c565b9250506020617b6685828601617862565b9150509250929050565b600060208284031215617b8257600080fd5b6000617b9084828501617862565b91505092915050565b617ba2816186ec565b82525050565b617bb181618643565b82525050565b617bc081618631565b82525050565b6000617bd1826185f8565b80845260208401935083602082028501617bea856185eb565b60005b84811015617c23578383038852617c05838351617caf565b9250617c1082618624565b9150602088019750600181019050617bed565b508196508694505050505092915050565b617c3d81618655565b82525050565b6000617c4e82618603565b808452617c62816020860160208601618731565b617c6b81618764565b602085010191505092915050565b6000617c8482618619565b808452617c98816020860160208601618731565b617ca181618764565b602085010191505092915050565b6000617cba8261860e565b808452617cce816020860160208601618731565b617cd781618764565b602085010191505092915050565b6000602b82527f455243373231456e756d657261626c653a206f776e657220696e646578206f7560208301527f74206f6620626f756e64730000000000000000000000000000000000000000006040830152606082019050919050565b6000603282527f4552433732313a207472616e7366657220746f206e6f6e20455243373231526560208301527f63656976657220696d706c656d656e74657200000000000000000000000000006040830152606082019050919050565b6000602482527f4552433732313a207472616e7366657220746f20746865207a65726f2061646460208301527f72657373000000000000000000000000000000000000000000000000000000006040830152606082019050919050565b6000601982527f4552433732313a20617070726f766520746f2063616c6c6572000000000000006020830152604082019050919050565b6000601e82527f536166654d6174683a207375627472616374696f6e206f766572666c6f7700006020830152604082019050919050565b6000602c82527f4552433732313a206f70657261746f7220717565727920666f72206e6f6e657860208301527f697374656e7420746f6b656e00000000000000000000000000000000000000006040830152606082019050919050565b6000603882527f4552433732313a20617070726f76652063616c6c6572206973206e6f74206f7760208301527f6e6572206e6f7220617070726f76656420666f7220616c6c00000000000000006040830152606082019050919050565b6000602a82527f4552433732313a2062616c616e636520717565727920666f7220746865207a6560208301527f726f2061646472657373000000000000000000000000000000000000000000006040830152606082019050919050565b6000602982527f4552433732313a206f776e657220717565727920666f72206e6f6e657869737460208301527f656e7420746f6b656e00000000000000000000000000000000000000000000006040830152606082019050919050565b6000602c82527f4552433732313a20617070726f76656420717565727920666f72206e6f6e657860208301527f697374656e7420746f6b656e00000000000000000000000000000000000000006040830152606082019050919050565b6000602982527f4552433732313a207472616e73666572206f6620746f6b656e2074686174206960208301527f73206e6f74206f776e00000000000000000000000000000000000000000000006040830152606082019050919050565b6000602f82527f4552433732314d657461646174613a2055524920717565727920666f72206e6f60208301527f6e6578697374656e7420746f6b656e00000000000000000000000000000000006040830152606082019050919050565b6000602182527f4552433732313a20617070726f76616c20746f2063757272656e74206f776e6560208301527f72000000000000000000000000000000000000000000000000000000000000006040830152606082019050919050565b6000603182527f4552433732313a207472616e736665722063616c6c6572206973206e6f74206f60208301527f776e6572206e6f7220617070726f7665640000000000000000000000000000006040830152606082019050919050565b6000602c82527f455243373231456e756d657261626c653a20676c6f62616c20696e646578206f60208301527f7574206f6620626f756e647300000000000000000000000000000000000000006040830152606082019050919050565b61821581618681565b82525050565b6182248161868b565b82525050565b600060208201905061823f6000830184617bb7565b92915050565b600060808201905061825a6000830187617b99565b6182676020830186617bb7565b618274604083018561820c565b81810360608301526182868184617c43565b905095945050505050565b600060408201905081810360008301526182ab8185617bc6565b90506182ba602083018461821b565b9392505050565b60006020820190506182d66000830184617c34565b92915050565b600060208201905081810360008301526182f68184617caf565b905092915050565b600060208201905081810360008301526183188184617c79565b905092915050565b6000604082019050818103600083015261833a8185617c79565b90506183496020830184617ba8565b9392505050565b6000602082019050818103600083015261836981617ce5565b9050919050565b6000602082019050818103600083015261838981617d42565b9050919050565b600060208201905081810360008301526183a981617d9f565b9050919050565b600060208201905081810360008301526183c981617dfc565b9050919050565b600060208201905081810360008301526183e981617e33565b9050919050565b6000602082019050818103600083015261840981617e6a565b9050919050565b6000602082019050818103600083015261842981617ec7565b9050919050565b6000602082019050818103600083015261844981617f24565b9050919050565b6000602082019050818103600083015261846981617f81565b9050919050565b6000602082019050818103600083015261848981617fde565b9050919050565b600060208201905081810360008301526184a98161803b565b9050919050565b600060208201905081810360008301526184c981618098565b9050919050565b600060208201905081810360008301526184e9816180f5565b9050919050565b6000602082019050818103600083015261850981618152565b9050919050565b60006020820190508181036000830152618529816181af565b9050919050565b6000602082019050618545600083018461820c565b92915050565b6000602082019050618560600083018461821b565b92915050565b6000604051905081810181811067ffffffffffffffff8211171561858957600080fd5b8060405250919050565b600067ffffffffffffffff8211156185aa57600080fd5b601f19601f8301169050602081019050919050565b600067ffffffffffffffff8211156185d657600080fd5b601f19601f8301169050602081019050919050565b6000602082019050919050565b600081519050919050565b600081519050919050565b600081519050919050565b600081519050919050565b6000602082019050919050565b600061863c82618661565b9050919050565b600061864e82618661565b9050919050565b60008115159050919050565b600073ffffffffffffffffffffffffffffffffffffffff82169050919050565b6000819050919050565b600060ff82169050919050565b60006186a382618661565b9050919050565b60008115159050919050565b60007fffffffff0000000000000000000000000000000000000000000000000000000082169050919050565b6000819050919050565b60006186f7826186fe565b9050919050565b600061870982618710565b9050919050565b600061871b82618661565b9050919050565b82818337600083830152505050565b60005b8381101561874f578082015181840152602081019050618734565b8381111561875e576000848401525b50505050565b6000601f19601f830116905091905056fea265627a7a7230582063b53b39ba5dc313996e7baef413343aa37fac817d0378cdf6b186bd90bc55916c6578706572696d656e74616cf50037",
  "source": "pragma solidity ^0.5.0;\npragma experimental ABIEncoderV2;\n\nimport \"./ERC721Full.sol\";\n\ncontract Pisi is ERC721Full {\n    // string[] public colors;\n    // mapping(string => bool) _colorExists;\n\n    struct PisiAttributes {\n        string eyeColor;\n        string eyeSize;\n        \n        string headColor;\n        string headSize;\n        \n        string beardSize;\n        \n        string tailColor;\n        string tailAccentColor;\n        string tailSize;\n        \n        string bodyColor;\n        string bodyAccentColor;\n\n        string stripeType;\n        \n        uint8 hungerness;\n        uint8 fragility;\n        uint8 fertility;\n        uint8 appeal;\n\n        address payable owner;\n        uint256 price;\n        bool onSale;\n        uint lastFeedingTime;\n    }\n    \n    mapping(string => PisiAttributes) _pisiCollection;\n    mapping(address => string[]) _personalCollection;\n    mapping(address => uint8) _personalCollectionSize;\n\n    string[] public _pisiHashesToSell;\n    uint256 public onSaleCount;\n\n    constructor() ERC721Full(\"Pisi\", \"PISI\") public {\n\n    }\n\n    function mint() public returns (string memory) {\n        uint256 rand = uint256(keccak256(abi.encodePacked(block.timestamp, block.difficulty, msg.sender)));\n\n        return decodeAttributes(uint2str(rand), msg.sender);\n    }\n\n    function decodeAttributes(string memory hashedAttr, address payable owner) internal returns (string memory){\n        PisiAttributes memory pa = PisiAttributes(\n            getNumberBetween(hashedAttr, 0, 6), // eyeColor, \n            getNumberBetween(hashedAttr, 6, 8), // eyeSize, \n            \n            getNumberBetween(hashedAttr, 8, 14), // headColor, \n            getNumberBetween(hashedAttr, 14, 16), // headSize, \n            \n            getNumberBetween(hashedAttr, 16, 18), // beardSize, *****\n            \n            getNumberBetween(hashedAttr, 18, 24), // tailColor, \n            getNumberBetween(hashedAttr, 24, 30), // tailAccentColor, *****\n            getNumberBetween(hashedAttr, 30, 32), // tailSize, \n            \n            getNumberBetween(hashedAttr, 32, 38), // bodyColor, \n            getNumberBetween(hashedAttr, 38, 44), // bodyAccentColor, \n    \n            getNumberBetween(hashedAttr, 44, 46), // stripeType, \n\n            str2Hexuint(getNumberBetween(hashedAttr, 46, 48)), // hungerness, \n            str2Hexuint(getNumberBetween(hashedAttr, 48, 50)), // fragility, \n            str2Hexuint(getNumberBetween(hashedAttr, 50, 52)), // fertility, \n            str2Hexuint(getNumberBetween(hashedAttr, 52, 54)), // appeal\n\n            owner,\n            10,\n            true,\n            block.timestamp\n        );\n\n        _pisiCollection[hashedAttr] = pa;\n        _personalCollection[owner].push(hashedAttr);\n        _personalCollectionSize[owner]++;\n        \n        onSaleCount += 1;\n\n        _pisiHashesToSell.push(hashedAttr);\n        return hashedAttr;\n    }\n\n    function testAttributes(string memory hashedAttr) public returns (string memory) {\n        address(this).delegatecall(abi.encodeWithSignature(\"decodeAttributes(string, address payable)\", hashedAttr, msg.sender));\n\n        return decodeAttributes(hashedAttr, msg.sender);\n    }\n\n    function putToSale(string memory pisiHash, uint256 price) public decreaseAppeal(pisiHash) {\n        require(_pisiCollection[pisiHash].owner == msg.sender);\n\n        _pisiCollection[pisiHash].price = price;\n        _pisiCollection[pisiHash].onSale = true;\n        onSaleCount += 1;\n        \n        _pisiHashesToSell.push(pisiHash);\n    }\n\n    function putDownFromSale(string memory pisiHash) public decreaseAppeal(pisiHash) {\n        require(_pisiCollection[pisiHash].owner == msg.sender);\n\n        removeElement(pisiHash, msg.sender);\n    }\n\n    function transferPisi(string memory pisiHash) public payable decreaseAppeal(pisiHash) {\n        //require(_pisiCollection[pisiHash].price <= msg.value);\n        //require(_pisiCollection[pisiHash].onSale == true);\n\n        _pisiCollection[pisiHash].owner.transfer(_pisiCollection[pisiHash].price);\n\n        address oldOwner = _pisiCollection[pisiHash].owner;\n\n        _pisiCollection[pisiHash].owner = msg.sender;\n\n        removeElement(pisiHash, msg.sender);\n\n        removeElementFromArray(pisiHash, _personalCollection[oldOwner], _personalCollectionSize[oldOwner]);\n        _personalCollectionSize[oldOwner]--;\n\n        _personalCollection[msg.sender].push(pisiHash);\n        _personalCollectionSize[msg.sender]++;\n    }\n\n    function breed(string memory pisiHash1, string memory pisiHash2) public decreaseAppeal(pisiHash1) decreaseAppeal(pisiHash2) returns (string memory) {\n        require(_pisiCollection[pisiHash1].owner == msg.sender);\n        require(_pisiCollection[pisiHash2].owner == msg.sender);\n        require(_pisiCollection[pisiHash1].appeal > 0 && _pisiCollection[pisiHash2].appeal > 0);\n\n        uint8 rand = uint8(uint256(keccak256(abi.encodePacked(block.timestamp, _pisiCollection[pisiHash1].fertility, _pisiCollection[pisiHash2].fertility))) % 256);\n\n        require(uint16(rand) < uint16(_pisiCollection[pisiHash1].appeal) + uint16(_pisiCollection[pisiHash2].appeal));\n\n        if (_pisiCollection[pisiHash1].fertility > _pisiCollection[pisiHash2].fertility && _pisiCollection[pisiHash1].appeal > _pisiCollection[pisiHash2].appeal) {\n            return decodeAttributes(pisiHash1, msg.sender);\n        }else if(_pisiCollection[pisiHash1].fertility > _pisiCollection[pisiHash2].fertility && _pisiCollection[pisiHash1].appeal < _pisiCollection[pisiHash2].appeal) {\n            return decodeAttributes(string(abi.encodePacked(getNumberBetween(pisiHash1, 0, 30), getNumberBetween(pisiHash2, 30, 63))), msg.sender);\n        } else if(_pisiCollection[pisiHash1].fertility < _pisiCollection[pisiHash2].fertility && _pisiCollection[pisiHash1].appeal > _pisiCollection[pisiHash2].appeal) {\n            return decodeAttributes(string(abi.encodePacked(getNumberBetween(pisiHash1, 30, 63), getNumberBetween(pisiHash2, 0, 30))), msg.sender);\n        } else {\n            return decodeAttributes(pisiHash2, msg.sender);\n        }\n    }\n\n    function gatherPersonalPisis() public view returns (string[] memory, uint8) {\n        return (_personalCollection[msg.sender], _personalCollectionSize[msg.sender]);\n    }\n\n    function feed(string memory pisiHash) public payable {\n        require(_pisiCollection[pisiHash].owner == msg.sender);\n\n        uint costOfFeeding = 0.002 ether;\n\n        require(msg.value >= costOfFeeding);\n\n        address payable thisAddr = address(uint160(address(this)));\n\n        thisAddr.transfer(costOfFeeding);\n\n        _pisiCollection[pisiHash].lastFeedingTime == block.timestamp;\n    }\n\n    modifier decreaseAppeal(string memory pisiHash) {\n        if(_pisiCollection[pisiHash].fertility > 0){\n            _pisiCollection[pisiHash].fertility = 255 - uint8((block.timestamp - _pisiCollection[pisiHash].lastFeedingTime) / 1 hours) * (_pisiCollection[pisiHash].hungerness / 64);\n            _pisiCollection[pisiHash].lastFeedingTime = block.timestamp;\n        } else{\n            _pisiCollection[pisiHash].fertility = 0;\n            _pisiCollection[pisiHash].appeal = 0;\n        }\n\n        _;\n    }\n\n    // HELPER FUNCTIONS\n\n    function removeElement(string memory pisiHashToRemove, address payable _owner) internal {\n        require(_pisiCollection[pisiHashToRemove].owner == _owner);\n        require(_pisiCollection[pisiHashToRemove].onSale);\n        require(onSaleCount > 0);\n        \n        _pisiCollection[pisiHashToRemove].price = 0;\n        _pisiCollection[pisiHashToRemove].onSale = false;\n\n        removeElementFromArray(pisiHashToRemove, _pisiHashesToSell, onSaleCount);\n\n        onSaleCount -= 1;\n    }\n\n    function removeElementFromArray(string memory toRemove, string[] storage removeFrom, uint count) internal {\n        bool move = false;\n\n        if(count == 1){\n            removeFrom.pop();\n        } else{\n            for (uint i = 0; i < count - 1; i++){\n                if(keccak256(bytes(removeFrom[i])) == keccak256(bytes(toRemove))){\n                    move = true;\n                }\n\n                if(move){\n                    removeFrom[i] = removeFrom[i + 1];\n                }\n            }\n        }\n    }\n    \n    function uint2str(uint _i) internal pure returns (string memory _uintAsString) {\n        if (_i == 0) {\n            return \"0\";\n        }\n        uint j = _i;\n        uint len;\n        while (j != 0) {\n            len++;\n            j /= 10;\n        }\n        bytes memory bstr = new bytes(len);\n        uint k = len - 1;\n        while (_i != 0) {\n            bstr[k--] = byte(uint8(48 + _i % 10));\n            _i /= 10;\n        }\n        return string(bstr);\n    }\n\n    function str2Hexuint(string memory _input) internal pure returns (uint8) {\n        if(keccak256(bytes(_input)) == keccak256(bytes(\"\"))) {\n            return 0;\n        }\n\n        uint8 res = 0;\n\n        if(bytes(_input)[0] <= 0x39){\n            res += (uint8(bytes(_input)[0]) - 0x30) * 16;\n        }else {\n            res += (uint8(bytes(_input)[0]) - 0x31) * 16;\n        }\n\n        if(bytes(_input)[0] <= 0x39){\n            res += (uint8(bytes(_input)[1]) - 0x30);\n        }else {\n            res += (uint8(bytes(_input)[1]) - 0x31);\n        }\n\n        return res;\n    }\n\n    // function getBodyAttr(string memory pisiHash, uint8 attCode) public view returns(string memory){\n    //     require(attCode < 7);\n\n    //     if(attCode == 0){ // eyeColor;\n    //         return _pisiCollection[pisiHash].eyeColor;\n    //     } else if(attCode == 1){ // eyeSize\n    //         return _pisiCollection[pisiHash].eyeSize;\n    //     } else if(attCode == 2){ // headColor\n    //         return _pisiCollection[pisiHash].headColor;\n    //     } else if(attCode == 3){ // headSize\n    //         return _pisiCollection[pisiHash].headSize;\n    //     } else if(attCode == 4){ // beardSize\n    //         return _pisiCollection[pisiHash].beardSize;\n    //     } else if(attCode == 5){ // tailColor\n    //         return _pisiCollection[pisiHash].tailColor;\n    //     } else if(attCode == 6){ // tailAccentColor\n    //         return _pisiCollection[pisiHash].tailAccentColor;\n    //     } else if(attCode == 6){ // tailSize\n    //         return _pisiCollection[pisiHash].tailSize;\n    //     } else if(attCode == 6){ // bodyColor\n    //         return _pisiCollection[pisiHash].bodyColor;\n    //     } else if(attCode == 6){ // bodyAccentColor\n    //         return _pisiCollection[pisiHash].bodyAccentColor;\n    //     } else if(attCode == 6){ // stripeType\n    //         return _pisiCollection[pisiHash].stripeType;\n    //     }else {\n    //         return \"\";\n    //     }\n    // }\n\n    // function getCharAttr(string memory pisiHash, uint8 attCode) public view returns(uint8){\n    //     require(_pisiCollection[pisiHash].owner <= msg.sender);\n    //     require(attCode < 4);\n\n    //     if(attCode == 0){ // hungerness;\n    //         return _pisiCollection[pisiHash].hungerness;\n    //     } else if(attCode == 1){ // fragility\n    //         return _pisiCollection[pisiHash].fragility;\n    //     } else if(attCode == 2){ // fertility\n    //         return _pisiCollection[pisiHash].fertility;\n    //     } else if(attCode == 3){ // appeal\n    //         return _pisiCollection[pisiHash].appeal;\n    //     } else {\n    //         return 0;\n    //     }\n    // }\n\n    function getEyeColor(string memory pisiHash) public view returns(string memory) {\n        return _pisiCollection[pisiHash].eyeColor;\n    }\n\n    function getEyeSize(string memory pisiHash) public view returns(string memory) {\n        return _pisiCollection[pisiHash].eyeSize;\n    }\n\n    function getHeadColor(string memory pisiHash) public view returns(string memory) {\n        return _pisiCollection[pisiHash].headColor;\n    }\n\n    function getHeadSize(string memory pisiHash) public view returns(string memory) {\n        return _pisiCollection[pisiHash].headSize;\n    }\n\n    function getBeardSize(string memory pisiHash) public view returns(string memory) {\n        return _pisiCollection[pisiHash].beardSize;\n    }\n\n    function getTailColor(string memory pisiHash) public view returns(string memory) {\n        return _pisiCollection[pisiHash].tailColor;\n    }\n\n    function getTailAccentColor(string memory pisiHash) public view returns(string memory) {\n        return _pisiCollection[pisiHash].tailAccentColor;\n    }\n\n    function getTailSize(string memory pisiHash) public view returns(string memory) {\n        return _pisiCollection[pisiHash].tailSize;\n    }\n\n    function getBodyColor(string memory pisiHash) public view returns(string memory) {\n        return _pisiCollection[pisiHash].bodyColor;\n    }\n\n    function getBodyAccentColor(string memory pisiHash) public view returns(string memory) {\n        return _pisiCollection[pisiHash].bodyAccentColor;\n    }\n\n    function getStripeType(string memory pisiHash) public view returns(string memory) {\n        return _pisiCollection[pisiHash].stripeType;\n    }\n\n    function getHungerness(string memory pisiHash) public view returns(uint8) {\n        require(_pisiCollection[pisiHash].owner == msg.sender);\n        return _pisiCollection[pisiHash].hungerness;\n    }\n\n    function getFragility(string memory pisiHash) public view returns(uint8) {\n        require(_pisiCollection[pisiHash].owner == msg.sender);\n\n        return _pisiCollection[pisiHash].fragility;\n    }\n\n    function getFertility(string memory pisiHash) public decreaseAppeal(pisiHash) returns(uint8) {\n        require(_pisiCollection[pisiHash].owner == msg.sender);\n\n        return _pisiCollection[pisiHash].fertility;\n    }\n\n    function getAppeal(string memory pisiHash) public decreaseAppeal(pisiHash) returns(uint8) {\n        require(_pisiCollection[pisiHash].owner == msg.sender);\n\n        return _pisiCollection[pisiHash].appeal;\n    }\n\n    function getOwner(string memory pisiHash) public view returns(address) {\n        return _pisiCollection[pisiHash].owner;\n    }\n    function getSale(string memory pisiHash) public view returns(bool) {\n        return _pisiCollection[pisiHash].onSale;\n    }\n function getPrice(string memory pisiHash) public view returns(uint256) {\n        return _pisiCollection[pisiHash].price;\n    }\n\n    function getNumberBetween(string memory str, uint startIndex, uint endIndex) pure internal returns (string memory) {\n        bytes memory strBytes = bytes(str);\n        bytes memory result = new bytes(endIndex-startIndex);\n        for(uint i = startIndex; i < endIndex; i++) {\n            result[i-startIndex] = strBytes[i];\n        }\n        return string(result);\n    }\n}",
  "sourcePath": "/Users/nidanurgunay/Desktop/CryptoPissies/src/contracts/Pisi.sol",
  "compiler": {
    "name": "solc",
    "version": "0.5.0+commit.1d4f565a.Emscripten.clang"
  },
  "schemaVersion": "3.0.2",
  "updatedAt": "2021-05-28T14:11:44.687Z",
  "devdoc": {
    "methods": {
      "approve(address,uint256)": {
        "details": "Approves another address to transfer the given token ID The zero address indicates there is no approved address. There can only be one approved address per token at a given time. Can only be called by the token owner or an approved operator.",
        "params": {
          "to": "address to be approved for the given token ID",
          "tokenId": "uint256 ID of the token to be approved"
        }
      },
      "balanceOf(address)": {
        "details": "Gets the balance of the specified address.",
        "params": {
          "owner": "address to query the balance of"
        },
        "return": "uint256 representing the amount owned by the passed address"
      },
      "getApproved(uint256)": {
        "details": "Gets the approved address for a token ID, or zero if no address set Reverts if the token ID does not exist.",
        "params": {
          "tokenId": "uint256 ID of the token to query the approval of"
        },
        "return": "address currently approved for the given token ID"
      },
      "isApprovedForAll(address,address)": {
        "details": "Tells whether an operator is approved by a given owner.",
        "params": {
          "operator": "operator address which you want to query the approval of",
          "owner": "owner address which you want to query the approval of"
        },
        "return": "bool whether the given operator is approved by the given owner"
      },
      "name()": {
        "details": "Gets the token name.",
        "return": "string representing the token name"
      },
      "ownerOf(uint256)": {
        "details": "Gets the owner of the specified token ID.",
        "params": {
          "tokenId": "uint256 ID of the token to query the owner of"
        },
        "return": "address currently marked as the owner of the given token ID"
      },
      "safeTransferFrom(address,address,uint256)": {
        "details": "Safely transfers the ownership of a given token ID to another address If the target address is a contract, it must implement `onERC721Received`, which is called upon a safe transfer, and return the magic value `bytes4(keccak256(\"onERC721Received(address,address,uint256,bytes)\"))`; otherwise, the transfer is reverted. Requires the msg.sender to be the owner, approved, or operator",
        "params": {
          "from": "current owner of the token",
          "to": "address to receive the ownership of the given token ID",
          "tokenId": "uint256 ID of the token to be transferred"
        }
      },
      "safeTransferFrom(address,address,uint256,bytes)": {
        "details": "Safely transfers the ownership of a given token ID to another address If the target address is a contract, it must implement `onERC721Received`, which is called upon a safe transfer, and return the magic value `bytes4(keccak256(\"onERC721Received(address,address,uint256,bytes)\"))`; otherwise, the transfer is reverted. Requires the msg.sender to be the owner, approved, or operator",
        "params": {
          "_data": "bytes data to send along with a safe transfer check",
          "from": "current owner of the token",
          "to": "address to receive the ownership of the given token ID",
          "tokenId": "uint256 ID of the token to be transferred"
        }
      },
      "setApprovalForAll(address,bool)": {
        "details": "Sets or unsets the approval of a given operator An operator is allowed to transfer all tokens of the sender on their behalf.",
        "params": {
          "approved": "representing the status of the approval to be set",
          "to": "operator address to set the approval"
        }
      },
      "supportsInterface(bytes4)": {
        "details": "See `IERC165.supportsInterface`.     * Time complexity O(1), guaranteed to always use less than 30 000 gas."
      },
      "symbol()": {
        "details": "Gets the token symbol.",
        "return": "string representing the token symbol"
      },
      "tokenByIndex(uint256)": {
        "details": "Gets the token ID at a given index of all the tokens in this contract Reverts if the index is greater or equal to the total number of tokens.",
        "params": {
          "index": "uint256 representing the index to be accessed of the tokens list"
        },
        "return": "uint256 token ID at the given index of the tokens list"
      },
      "tokenOfOwnerByIndex(address,uint256)": {
        "details": "Gets the token ID at a given index of the tokens list of the requested owner.",
        "params": {
          "index": "uint256 representing the index to be accessed of the requested tokens list",
          "owner": "address owning the tokens list to be accessed"
        },
        "return": "uint256 token ID at the given index of the tokens list owned by the requested address"
      },
      "tokenURI(uint256)": {
        "details": "Returns an URI for a given token ID. Throws if the token ID does not exist. May return an empty string.",
        "params": {
          "tokenId": "uint256 ID of the token to query"
        }
      },
      "totalSupply()": {
        "details": "Gets the total amount of tokens stored by the contract.",
        "return": "uint256 representing the total amount of tokens"
      },
      "transferFrom(address,address,uint256)": {
        "details": "Transfers the ownership of a given token ID to another address. Usage of this method is discouraged, use `safeTransferFrom` whenever possible. Requires the msg.sender to be the owner, approved, or operator.",
        "params": {
          "from": "current owner of the token",
          "to": "address to receive the ownership of the given token ID",
          "tokenId": "uint256 ID of the token to be transferred"
        }
      }
    }
  },
  "userdoc": {
    "methods": {}
  }
}