{
  "contractName": "Pisi",
  "abi": [
    {
      "constant": true,
      "inputs": [
        {
          "name": "interfaceId",
          "type": "bytes4"
        }
      ],
      "name": "supportsInterface",
      "outputs": [
        {
          "name": "",
          "type": "bool"
        }
      ],
      "payable": false,
      "stateMutability": "view",
      "type": "function",
      "signature": "0x01ffc9a7"
    },
    {
      "constant": true,
      "inputs": [],
      "name": "name",
      "outputs": [
        {
          "name": "",
          "type": "string"
        }
      ],
      "payable": false,
      "stateMutability": "view",
      "type": "function",
      "signature": "0x06fdde03"
    },
    {
      "constant": true,
      "inputs": [
        {
          "name": "tokenId",
          "type": "uint256"
        }
      ],
      "name": "getApproved",
      "outputs": [
        {
          "name": "",
          "type": "address"
        }
      ],
      "payable": false,
      "stateMutability": "view",
      "type": "function",
      "signature": "0x081812fc"
    },
    {
      "constant": false,
      "inputs": [
        {
          "name": "to",
          "type": "address"
        },
        {
          "name": "tokenId",
          "type": "uint256"
        }
      ],
      "name": "approve",
      "outputs": [],
      "payable": false,
      "stateMutability": "nonpayable",
      "type": "function",
      "signature": "0x095ea7b3"
    },
    {
      "constant": true,
      "inputs": [],
      "name": "totalSupply",
      "outputs": [
        {
          "name": "",
          "type": "uint256"
        }
      ],
      "payable": false,
      "stateMutability": "view",
      "type": "function",
      "signature": "0x18160ddd"
    },
    {
      "constant": false,
      "inputs": [
        {
          "name": "from",
          "type": "address"
        },
        {
          "name": "to",
          "type": "address"
        },
        {
          "name": "tokenId",
          "type": "uint256"
        }
      ],
      "name": "transferFrom",
      "outputs": [],
      "payable": false,
      "stateMutability": "nonpayable",
      "type": "function",
      "signature": "0x23b872dd"
    },
    {
      "constant": true,
      "inputs": [
        {
          "name": "owner",
          "type": "address"
        },
        {
          "name": "index",
          "type": "uint256"
        }
      ],
      "name": "tokenOfOwnerByIndex",
      "outputs": [
        {
          "name": "",
          "type": "uint256"
        }
      ],
      "payable": false,
      "stateMutability": "view",
      "type": "function",
      "signature": "0x2f745c59"
    },
    {
      "constant": true,
      "inputs": [],
      "name": "onSaleCount",
      "outputs": [
        {
          "name": "",
          "type": "uint256"
        }
      ],
      "payable": false,
      "stateMutability": "view",
      "type": "function",
      "signature": "0x356e7863"
    },
    {
      "constant": false,
      "inputs": [
        {
          "name": "from",
          "type": "address"
        },
        {
          "name": "to",
          "type": "address"
        },
        {
          "name": "tokenId",
          "type": "uint256"
        }
      ],
      "name": "safeTransferFrom",
      "outputs": [],
      "payable": false,
      "stateMutability": "nonpayable",
      "type": "function",
      "signature": "0x42842e0e"
    },
    {
      "constant": true,
      "inputs": [
        {
          "name": "index",
          "type": "uint256"
        }
      ],
      "name": "tokenByIndex",
      "outputs": [
        {
          "name": "",
          "type": "uint256"
        }
      ],
      "payable": false,
      "stateMutability": "view",
      "type": "function",
      "signature": "0x4f6ccce7"
    },
    {
      "constant": true,
      "inputs": [
        {
          "name": "tokenId",
          "type": "uint256"
        }
      ],
      "name": "ownerOf",
      "outputs": [
        {
          "name": "",
          "type": "address"
        }
      ],
      "payable": false,
      "stateMutability": "view",
      "type": "function",
      "signature": "0x6352211e"
    },
    {
      "constant": true,
      "inputs": [
        {
          "name": "owner",
          "type": "address"
        }
      ],
      "name": "balanceOf",
      "outputs": [
        {
          "name": "",
          "type": "uint256"
        }
      ],
      "payable": false,
      "stateMutability": "view",
      "type": "function",
      "signature": "0x70a08231"
    },
    {
      "constant": true,
      "inputs": [],
      "name": "symbol",
      "outputs": [
        {
          "name": "",
          "type": "string"
        }
      ],
      "payable": false,
      "stateMutability": "view",
      "type": "function",
      "signature": "0x95d89b41"
    },
    {
      "constant": false,
      "inputs": [
        {
          "name": "to",
          "type": "address"
        },
        {
          "name": "approved",
          "type": "bool"
        }
      ],
      "name": "setApprovalForAll",
      "outputs": [],
      "payable": false,
      "stateMutability": "nonpayable",
      "type": "function",
      "signature": "0xa22cb465"
    },
    {
      "constant": true,
      "inputs": [
        {
          "name": "",
          "type": "uint256"
        }
      ],
      "name": "_pisiHashesToSell",
      "outputs": [
        {
          "name": "",
          "type": "string"
        }
      ],
      "payable": false,
      "stateMutability": "view",
      "type": "function",
      "signature": "0xafc8136c"
    },
    {
      "constant": false,
      "inputs": [
        {
          "name": "from",
          "type": "address"
        },
        {
          "name": "to",
          "type": "address"
        },
        {
          "name": "tokenId",
          "type": "uint256"
        },
        {
          "name": "_data",
          "type": "bytes"
        }
      ],
      "name": "safeTransferFrom",
      "outputs": [],
      "payable": false,
      "stateMutability": "nonpayable",
      "type": "function",
      "signature": "0xb88d4fde"
    },
    {
      "constant": true,
      "inputs": [
        {
          "name": "tokenId",
          "type": "uint256"
        }
      ],
      "name": "tokenURI",
      "outputs": [
        {
          "name": "",
          "type": "string"
        }
      ],
      "payable": false,
      "stateMutability": "view",
      "type": "function",
      "signature": "0xc87b56dd"
    },
    {
      "constant": true,
      "inputs": [
        {
          "name": "owner",
          "type": "address"
        },
        {
          "name": "operator",
          "type": "address"
        }
      ],
      "name": "isApprovedForAll",
      "outputs": [
        {
          "name": "",
          "type": "bool"
        }
      ],
      "payable": false,
      "stateMutability": "view",
      "type": "function",
      "signature": "0xe985e9c5"
    },
    {
      "inputs": [],
      "payable": false,
      "stateMutability": "nonpayable",
      "type": "constructor",
      "signature": "constructor"
    },
    {
      "anonymous": false,
      "inputs": [
        {
          "indexed": true,
          "name": "from",
          "type": "address"
        },
        {
          "indexed": true,
          "name": "to",
          "type": "address"
        },
        {
          "indexed": true,
          "name": "tokenId",
          "type": "uint256"
        }
      ],
      "name": "Transfer",
      "type": "event",
      "signature": "0xddf252ad1be2c89b69c2b068fc378daa952ba7f163c4a11628f55a4df523b3ef"
    },
    {
      "anonymous": false,
      "inputs": [
        {
          "indexed": true,
          "name": "owner",
          "type": "address"
        },
        {
          "indexed": true,
          "name": "approved",
          "type": "address"
        },
        {
          "indexed": true,
          "name": "tokenId",
          "type": "uint256"
        }
      ],
      "name": "Approval",
      "type": "event",
      "signature": "0x8c5be1e5ebec7d5bd14f71427d1e84f3dd0314c0f7b2291e5b200ac8c7c3b925"
    },
    {
      "anonymous": false,
      "inputs": [
        {
          "indexed": true,
          "name": "owner",
          "type": "address"
        },
        {
          "indexed": true,
          "name": "operator",
          "type": "address"
        },
        {
          "indexed": false,
          "name": "approved",
          "type": "bool"
        }
      ],
      "name": "ApprovalForAll",
      "type": "event",
      "signature": "0x17307eab39ab6107e8899845ad3d59bd9653f200f220920489ca2b5937696c31"
    },
    {
      "constant": false,
      "inputs": [
        {
          "name": "_color",
          "type": "string"
        }
      ],
      "name": "mint",
      "outputs": [],
      "payable": false,
      "stateMutability": "nonpayable",
      "type": "function",
      "signature": "0xd85d3d27"
    },
    {
      "constant": false,
      "inputs": [
        {
          "name": "hashedAttr",
          "type": "string"
        }
      ],
      "name": "decodeAttributes",
      "outputs": [
        {
          "name": "",
          "type": "string"
        }
      ],
      "payable": false,
      "stateMutability": "nonpayable",
      "type": "function",
      "signature": "0xc9994223"
    },
    {
      "constant": false,
      "inputs": [
        {
          "name": "eyeColor",
          "type": "uint24"
        },
        {
          "name": "eyeSize",
          "type": "uint8"
        },
        {
          "name": "headColor",
          "type": "uint24"
        },
        {
          "name": "headSize",
          "type": "uint8"
        },
        {
          "name": "beardSize",
          "type": "uint8"
        },
        {
          "name": "tailColor",
          "type": "uint24"
        },
        {
          "name": "tailAccentColor",
          "type": "uint24"
        },
        {
          "name": "tailSize",
          "type": "uint8"
        },
        {
          "name": "bodyColor",
          "type": "uint24"
        },
        {
          "name": "bodyAccentColor",
          "type": "uint24"
        },
        {
          "name": "stripeType",
          "type": "uint8"
        },
        {
          "name": "hungerness",
          "type": "uint8"
        },
        {
          "name": "fragility",
          "type": "uint8"
        },
        {
          "name": "fertility",
          "type": "uint8"
        },
        {
          "name": "appeal",
          "type": "uint8"
        }
      ],
      "name": "encodeAttributes",
      "outputs": [
        {
          "name": "",
          "type": "uint216"
        }
      ],
      "payable": false,
      "stateMutability": "nonpayable",
      "type": "function",
      "signature": "0x370e5caa"
    },
    {
      "constant": false,
      "inputs": [],
      "name": "randomAttributes",
      "outputs": [
        {
          "name": "",
          "type": "string"
        }
      ],
      "payable": false,
      "stateMutability": "nonpayable",
      "type": "function",
      "signature": "0x48c0992b"
    },
    {
      "constant": false,
      "inputs": [
        {
          "name": "pisiHash",
          "type": "string"
        },
        {
          "name": "price",
          "type": "uint256"
        }
      ],
      "name": "putToSale",
      "outputs": [],
      "payable": false,
      "stateMutability": "nonpayable",
      "type": "function",
      "signature": "0x9f66af62"
    },
    {
      "constant": false,
      "inputs": [
        {
          "name": "pisiHash",
          "type": "string"
        }
      ],
      "name": "putDownFromSale",
      "outputs": [],
      "payable": false,
      "stateMutability": "nonpayable",
      "type": "function",
      "signature": "0xf34ee28a"
    },
    {
      "constant": true,
      "inputs": [
        {
          "name": "fN",
          "type": "string"
        },
        {
          "name": "start",
          "type": "uint8"
        },
        {
          "name": "end",
          "type": "uint8"
        }
      ],
      "name": "getNumberBetween",
      "outputs": [
        {
          "name": "",
          "type": "string"
        }
      ],
      "payable": false,
      "stateMutability": "pure",
      "type": "function",
      "signature": "0xe709ce60"
    },
    {
      "constant": true,
      "inputs": [
        {
          "name": "pisiHash",
          "type": "string"
        }
      ],
      "name": "getEyeColor",
      "outputs": [
        {
          "name": "",
          "type": "string"
        }
      ],
      "payable": false,
      "stateMutability": "view",
      "type": "function",
      "signature": "0x5aee4330"
    },
    {
      "constant": true,
      "inputs": [
        {
          "name": "pisiHash",
          "type": "string"
        }
      ],
      "name": "getEyeSize",
      "outputs": [
        {
          "name": "",
          "type": "string"
        }
      ],
      "payable": false,
      "stateMutability": "view",
      "type": "function",
      "signature": "0xab76c013"
    },
    {
      "constant": true,
      "inputs": [
        {
          "name": "pisiHash",
          "type": "string"
        }
      ],
      "name": "getHeadColor",
      "outputs": [
        {
          "name": "",
          "type": "string"
        }
      ],
      "payable": false,
      "stateMutability": "view",
      "type": "function",
      "signature": "0x2f1c4ba3"
    },
    {
      "constant": true,
      "inputs": [
        {
          "name": "pisiHash",
          "type": "string"
        }
      ],
      "name": "getHeadSize",
      "outputs": [
        {
          "name": "",
          "type": "string"
        }
      ],
      "payable": false,
      "stateMutability": "view",
      "type": "function",
      "signature": "0x72eb3e09"
    },
    {
      "constant": true,
      "inputs": [
        {
          "name": "pisiHash",
          "type": "string"
        }
      ],
      "name": "getBeardSize",
      "outputs": [
        {
          "name": "",
          "type": "string"
        }
      ],
      "payable": false,
      "stateMutability": "view",
      "type": "function",
      "signature": "0x5d30e7e2"
    },
    {
      "constant": true,
      "inputs": [
        {
          "name": "pisiHash",
          "type": "string"
        }
      ],
      "name": "getTailColor",
      "outputs": [
        {
          "name": "",
          "type": "string"
        }
      ],
      "payable": false,
      "stateMutability": "view",
      "type": "function",
      "signature": "0xc5f4496a"
    },
    {
      "constant": true,
      "inputs": [
        {
          "name": "pisiHash",
          "type": "string"
        }
      ],
      "name": "getTailAccentColor",
      "outputs": [
        {
          "name": "",
          "type": "string"
        }
      ],
      "payable": false,
      "stateMutability": "view",
      "type": "function",
      "signature": "0xad267e72"
    },
    {
      "constant": true,
      "inputs": [
        {
          "name": "pisiHash",
          "type": "string"
        }
      ],
      "name": "getTailSize",
      "outputs": [
        {
          "name": "",
          "type": "string"
        }
      ],
      "payable": false,
      "stateMutability": "view",
      "type": "function",
      "signature": "0xe3395e9c"
    },
    {
      "constant": true,
      "inputs": [
        {
          "name": "pisiHash",
          "type": "string"
        }
      ],
      "name": "getBodyColor",
      "outputs": [
        {
          "name": "",
          "type": "string"
        }
      ],
      "payable": false,
      "stateMutability": "view",
      "type": "function",
      "signature": "0xa937f3db"
    },
    {
      "constant": true,
      "inputs": [
        {
          "name": "pisiHash",
          "type": "string"
        }
      ],
      "name": "getBodyAccentColor",
      "outputs": [
        {
          "name": "",
          "type": "string"
        }
      ],
      "payable": false,
      "stateMutability": "view",
      "type": "function",
      "signature": "0x33ccc11a"
    },
    {
      "constant": true,
      "inputs": [
        {
          "name": "pisiHash",
          "type": "string"
        }
      ],
      "name": "getStripeType",
      "outputs": [
        {
          "name": "",
          "type": "string"
        }
      ],
      "payable": false,
      "stateMutability": "view",
      "type": "function",
      "signature": "0x1e9abcac"
    },
    {
      "constant": true,
      "inputs": [
        {
          "name": "pisiHash",
          "type": "string"
        }
      ],
      "name": "getHungerness",
      "outputs": [
        {
          "name": "",
          "type": "string"
        }
      ],
      "payable": false,
      "stateMutability": "view",
      "type": "function",
      "signature": "0xcbc9c4a3"
    },
    {
      "constant": true,
      "inputs": [
        {
          "name": "pisiHash",
          "type": "string"
        }
      ],
      "name": "getFragility",
      "outputs": [
        {
          "name": "",
          "type": "string"
        }
      ],
      "payable": false,
      "stateMutability": "view",
      "type": "function",
      "signature": "0xa1f5fc03"
    },
    {
      "constant": true,
      "inputs": [
        {
          "name": "pisiHash",
          "type": "string"
        }
      ],
      "name": "getFertility",
      "outputs": [
        {
          "name": "",
          "type": "string"
        }
      ],
      "payable": false,
      "stateMutability": "view",
      "type": "function",
      "signature": "0xf7f8c32b"
    },
    {
      "constant": true,
      "inputs": [
        {
          "name": "pisiHash",
          "type": "string"
        }
      ],
      "name": "getAppeal",
      "outputs": [
        {
          "name": "",
          "type": "string"
        }
      ],
      "payable": false,
      "stateMutability": "view",
      "type": "function",
      "signature": "0xd8c6b1da"
    },
    {
      "constant": true,
      "inputs": [
        {
          "name": "pisiHash",
          "type": "string"
        }
      ],
      "name": "getOwner",
      "outputs": [
        {
          "name": "",
          "type": "address"
        }
      ],
      "payable": false,
      "stateMutability": "view",
      "type": "function",
      "signature": "0x4aaf4a12"
    }
  ],
  "bytecode": "0x60806040523480156200001157600080fd5b506040805190810160405280600481526020017f50697369000000000000000000000000000000000000000000000000000000008152506040805190810160405280600481526020017f50495349000000000000000000000000000000000000000000000000000000008152508181620000bd6301ffc9a77c010000000000000000000000000000000000000000000000000000000002620001b0640100000000026401000000009004565b620000fa6380ac58cd7c010000000000000000000000000000000000000000000000000000000002620001b0640100000000026401000000009004565b6200013763780e9d637c010000000000000000000000000000000000000000000000000000000002620001b0640100000000026401000000009004565b81600990805190602001906200014f929190620002d7565b5080600a908051906020019062000168929190620002d7565b50620001a6635b5e139f7c010000000000000000000000000000000000000000000000000000000002620001b0640100000000026401000000009004565b5050505062000386565b63ffffffff7c010000000000000000000000000000000000000000000000000000000002817bffffffffffffffffffffffffffffffffffffffffffffffffffffffff1916141515156200026b576040517f08c379a000000000000000000000000000000000000000000000000000000000815260040180806020018281038252601c8152602001807f4552433136353a20696e76616c696420696e746572666163652069640000000081525060200191505060405180910390fd5b6001600080837bffffffffffffffffffffffffffffffffffffffffffffffffffffffff19167bffffffffffffffffffffffffffffffffffffffffffffffffffffffff1916815260200190815260200160002060006101000a81548160ff02191690831515021790555050565b828054600181600116156101000203166002900490600052602060002090601f016020900481019282601f106200031a57805160ff19168380011785556200034b565b828001600101855582156200034b579182015b828111156200034a5782518255916020019190600101906200032d565b5b5090506200035a91906200035e565b5090565b6200038391905b808211156200037f57600081600090555060010162000365565b5090565b90565b615dfc80620003966000396000f3fe6080604052600436106101f9576000357c0100000000000000000000000000000000000000000000000000000000900463ffffffff16806301ffc9a7146101fe57806306fdde0314610270578063081812fc14610300578063095ea7b31461037b57806318160ddd146103d65780631e9abcac1461040157806323b872dd146105425780632f1c4ba3146105bd5780632f745c59146106fe57806333ccc11a1461076d578063356e7863146108ae578063370e5caa146108d957806342842e0e14610a2857806348c0992b14610aa35780634aaf4a1214610b335780634f6ccce714610c3b5780635aee433014610c8a5780635d30e7e214610dcb5780636352211e14610f0c57806370a0823114610f8757806372eb3e0914610fec57806395d89b411461112d5780639f66af62146111bd578063a1f5fc031461128f578063a22cb465146113d0578063a937f3db1461142d578063ab76c0131461156e578063ad267e72146116af578063afc8136c146117f0578063b88d4fde146118a4578063c5f4496a146119b6578063c87b56dd14611af7578063c999422314611bab578063cbc9c4a314611cec578063d85d3d2714611e2d578063d8c6b1da14611ef5578063e3395e9c14612036578063e709ce6014612177578063e985e9c5146122d2578063f34ee28a1461235b578063f7f8c32b14612423575b600080fd5b34801561020a57600080fd5b506102566004803603602081101561022157600080fd5b8101908080357bffffffffffffffffffffffffffffffffffffffffffffffffffffffff19169060200190929190505050612564565b604051808215151515815260200191505060405180910390f35b34801561027c57600080fd5b506102856125cb565b6040518080602001828103825283818151815260200191508051906020019080838360005b838110156102c55780820151818401526020810190506102aa565b50505050905090810190601f1680156102f25780820380516001836020036101000a031916815260200191505b509250505060405180910390f35b34801561030c57600080fd5b506103396004803603602081101561032357600080fd5b810190808035906020019092919050505061266d565b604051808273ffffffffffffffffffffffffffffffffffffffff1673ffffffffffffffffffffffffffffffffffffffff16815260200191505060405180910390f35b34801561038757600080fd5b506103d46004803603604081101561039e57600080fd5b81019080803573ffffffffffffffffffffffffffffffffffffffff1690602001909291908035906020019092919050505061274d565b005b3480156103e257600080fd5b506103eb6129b0565b6040518082815260200191505060405180910390f35b34801561040d57600080fd5b506104c76004803603602081101561042457600080fd5b810190808035906020019064010000000081111561044157600080fd5b82018360208201111561045357600080fd5b8035906020019184600183028401116401000000008311171561047557600080fd5b91908080601f016020809104026020016040519081016040528093929190818152602001838380828437600081840152601f19601f8201169050808301925050505050505091929192905050506129bd565b6040518080602001828103825283818151815260200191508051906020019080838360005b838110156105075780820151818401526020810190506104ec565b50505050905090810190601f1680156105345780820380516001836020036101000a031916815260200191505b509250505060405180910390f35b34801561054e57600080fd5b506105bb6004803603606081101561056557600080fd5b81019080803573ffffffffffffffffffffffffffffffffffffffff169060200190929190803573ffffffffffffffffffffffffffffffffffffffff16906020019092919080359060200190929190505050612acd565b005b3480156105c957600080fd5b50610683600480360360208110156105e057600080fd5b81019080803590602001906401000000008111156105fd57600080fd5b82018360208201111561060f57600080fd5b8035906020019184600183028401116401000000008311171561063157600080fd5b91908080601f016020809104026020016040519081016040528093929190818152602001838380828437600081840152601f19601f820116905080830192505050505050509192919290505050612b81565b6040518080602001828103825283818151815260200191508051906020019080838360005b838110156106c35780820151818401526020810190506106a8565b50505050905090810190601f1680156106f05780820380516001836020036101000a031916815260200191505b509250505060405180910390f35b34801561070a57600080fd5b506107576004803603604081101561072157600080fd5b81019080803573ffffffffffffffffffffffffffffffffffffffff16906020019092919080359060200190929190505050612c91565b6040518082815260200191505060405180910390f35b34801561077957600080fd5b506108336004803603602081101561079057600080fd5b81019080803590602001906401000000008111156107ad57600080fd5b8201836020820111156107bf57600080fd5b803590602001918460018302840111640100000000831117156107e157600080fd5b91908080601f016020809104026020016040519081016040528093929190818152602001838380828437600081840152601f19601f820116905080830192505050505050509192919290505050612d97565b6040518080602001828103825283818151815260200191508051906020019080838360005b83811015610873578082015181840152602081019050610858565b50505050905090810190601f1680156108a05780820380516001836020036101000a031916815260200191505b509250505060405180910390f35b3480156108ba57600080fd5b506108c3612ea7565b6040518082815260200191505060405180910390f35b3480156108e557600080fd5b506109d860048036036101e08110156108fd57600080fd5b81019080803562ffffff169060200190929190803560ff169060200190929190803562ffffff169060200190929190803560ff169060200190929190803560ff169060200190929190803562ffffff169060200190929190803562ffffff169060200190929190803560ff169060200190929190803562ffffff169060200190929190803562ffffff169060200190929190803560ff169060200190929190803560ff169060200190929190803560ff169060200190929190803560ff169060200190929190803560ff169060200190929190505050612ead565b60405180827affffffffffffffffffffffffffffffffffffffffffffffffffffff167affffffffffffffffffffffffffffffffffffffffffffffffffffff16815260200191505060405180910390f35b348015610a3457600080fd5b50610aa160048036036060811015610a4b57600080fd5b81019080803573ffffffffffffffffffffffffffffffffffffffff169060200190929190803573ffffffffffffffffffffffffffffffffffffffff16906020019092919080359060200190929190505050612ec2565b005b348015610aaf57600080fd5b50610ab8612ee3565b6040518080602001828103825283818151815260200191508051906020019080838360005b83811015610af8578082015181840152602081019050610add565b50505050905090810190601f168015610b255780820380516001836020036101000a031916815260200191505b509250505060405180910390f35b348015610b3f57600080fd5b50610bf960048036036020811015610b5657600080fd5b8101908080359060200190640100000000811115610b7357600080fd5b820183602082011115610b8557600080fd5b80359060200191846001830284011164010000000083111715610ba757600080fd5b91908080601f016020809104026020016040519081016040528093929190818152602001838380828437600081840152601f19601f820116905080830192505050505050509192919290505050612f76565b604051808273ffffffffffffffffffffffffffffffffffffffff1673ffffffffffffffffffffffffffffffffffffffff16815260200191505060405180910390f35b348015610c4757600080fd5b50610c7460048036036020811015610c5e57600080fd5b810190808035906020019092919050505061300e565b6040518082815260200191505060405180910390f35b348015610c9657600080fd5b50610d5060048036036020811015610cad57600080fd5b8101908080359060200190640100000000811115610cca57600080fd5b820183602082011115610cdc57600080fd5b80359060200191846001830284011164010000000083111715610cfe57600080fd5b91908080601f016020809104026020016040519081016040528093929190818152602001838380828437600081840152601f19601f8201169050808301925050505050505091929192905050506130d5565b6040518080602001828103825283818151815260200191508051906020019080838360005b83811015610d90578082015181840152602081019050610d75565b50505050905090810190601f168015610dbd5780820380516001836020036101000a031916815260200191505b509250505060405180910390f35b348015610dd757600080fd5b50610e9160048036036020811015610dee57600080fd5b8101908080359060200190640100000000811115610e0b57600080fd5b820183602082011115610e1d57600080fd5b80359060200191846001830284011164010000000083111715610e3f57600080fd5b91908080601f016020809104026020016040519081016040528093929190818152602001838380828437600081840152601f19601f8201169050808301925050505050505091929192905050506131e5565b6040518080602001828103825283818151815260200191508051906020019080838360005b83811015610ed1578082015181840152602081019050610eb6565b50505050905090810190601f168015610efe5780820380516001836020036101000a031916815260200191505b509250505060405180910390f35b348015610f1857600080fd5b50610f4560048036036020811015610f2f57600080fd5b81019080803590602001909291905050506132f5565b604051808273ffffffffffffffffffffffffffffffffffffffff1673ffffffffffffffffffffffffffffffffffffffff16815260200191505060405180910390f35b348015610f9357600080fd5b50610fd660048036036020811015610faa57600080fd5b81019080803573ffffffffffffffffffffffffffffffffffffffff169060200190929190505050613402565b6040518082815260200191505060405180910390f35b348015610ff857600080fd5b506110b26004803603602081101561100f57600080fd5b810190808035906020019064010000000081111561102c57600080fd5b82018360208201111561103e57600080fd5b8035906020019184600183028401116401000000008311171561106057600080fd5b91908080601f016020809104026020016040519081016040528093929190818152602001838380828437600081840152601f19601f82011690508083019250505050505050919291929050505061351c565b6040518080602001828103825283818151815260200191508051906020019080838360005b838110156110f25780820151818401526020810190506110d7565b50505050905090810190601f16801561111f5780820380516001836020036101000a031916815260200191505b509250505060405180910390f35b34801561113957600080fd5b5061114261362c565b6040518080602001828103825283818151815260200191508051906020019080838360005b83811015611182578082015181840152602081019050611167565b50505050905090810190601f1680156111af5780820380516001836020036101000a031916815260200191505b509250505060405180910390f35b3480156111c957600080fd5b5061128d600480360360408110156111e057600080fd5b81019080803590602001906401000000008111156111fd57600080fd5b82018360208201111561120f57600080fd5b8035906020019184600183028401116401000000008311171561123157600080fd5b91908080601f016020809104026020016040519081016040528093929190818152602001838380828437600081840152601f19601f820116905080830192505050505050509192919290803590602001909291905050506136ce565b005b34801561129b57600080fd5b50611355600480360360208110156112b257600080fd5b81019080803590602001906401000000008111156112cf57600080fd5b8201836020820111156112e157600080fd5b8035906020019184600183028401116401000000008311171561130357600080fd5b91908080601f016020809104026020016040519081016040528093929190818152602001838380828437600081840152601f19601f82011690508083019250505050505050919291929050505061381c565b6040518080602001828103825283818151815260200191508051906020019080838360005b8381101561139557808201518184015260208101905061137a565b50505050905090810190601f1680156113c25780820380516001836020036101000a031916815260200191505b509250505060405180910390f35b3480156113dc57600080fd5b5061142b600480360360408110156113f357600080fd5b81019080803573ffffffffffffffffffffffffffffffffffffffff16906020019092919080351515906020019092919050505061392c565b005b34801561143957600080fd5b506114f36004803603602081101561145057600080fd5b810190808035906020019064010000000081111561146d57600080fd5b82018360208201111561147f57600080fd5b803590602001918460018302840111640100000000831117156114a157600080fd5b91908080601f016020809104026020016040519081016040528093929190818152602001838380828437600081840152601f19601f820116905080830192505050505050509192919290505050613ad1565b6040518080602001828103825283818151815260200191508051906020019080838360005b83811015611533578082015181840152602081019050611518565b50505050905090810190601f1680156115605780820380516001836020036101000a031916815260200191505b509250505060405180910390f35b34801561157a57600080fd5b506116346004803603602081101561159157600080fd5b81019080803590602001906401000000008111156115ae57600080fd5b8201836020820111156115c057600080fd5b803590602001918460018302840111640100000000831117156115e257600080fd5b91908080601f016020809104026020016040519081016040528093929190818152602001838380828437600081840152601f19601f820116905080830192505050505050509192919290505050613be1565b6040518080602001828103825283818151815260200191508051906020019080838360005b83811015611674578082015181840152602081019050611659565b50505050905090810190601f1680156116a15780820380516001836020036101000a031916815260200191505b509250505060405180910390f35b3480156116bb57600080fd5b50611775600480360360208110156116d257600080fd5b81019080803590602001906401000000008111156116ef57600080fd5b82018360208201111561170157600080fd5b8035906020019184600183028401116401000000008311171561172357600080fd5b91908080601f016020809104026020016040519081016040528093929190818152602001838380828437600081840152601f19601f820116905080830192505050505050509192919290505050613cf1565b6040518080602001828103825283818151815260200191508051906020019080838360005b838110156117b557808201518184015260208101905061179a565b50505050905090810190601f1680156117e25780820380516001836020036101000a031916815260200191505b509250505060405180910390f35b3480156117fc57600080fd5b506118296004803603602081101561181357600080fd5b8101908080359060200190929190505050613e01565b6040518080602001828103825283818151815260200191508051906020019080838360005b8381101561186957808201518184015260208101905061184e565b50505050905090810190601f1680156118965780820380516001836020036101000a031916815260200191505b509250505060405180910390f35b3480156118b057600080fd5b506119b4600480360360808110156118c757600080fd5b81019080803573ffffffffffffffffffffffffffffffffffffffff169060200190929190803573ffffffffffffffffffffffffffffffffffffffff169060200190929190803590602001909291908035906020019064010000000081111561192e57600080fd5b82018360208201111561194057600080fd5b8035906020019184600183028401116401000000008311171561196257600080fd5b91908080601f016020809104026020016040519081016040528093929190818152602001838380828437600081840152601f19601f820116905080830192505050505050509192919290505050613ebc565b005b3480156119c257600080fd5b50611a7c600480360360208110156119d957600080fd5b81019080803590602001906401000000008111156119f657600080fd5b820183602082011115611a0857600080fd5b80359060200191846001830284011164010000000083111715611a2a57600080fd5b91908080601f016020809104026020016040519081016040528093929190818152602001838380828437600081840152601f19601f820116905080830192505050505050509192919290505050613f73565b6040518080602001828103825283818151815260200191508051906020019080838360005b83811015611abc578082015181840152602081019050611aa1565b50505050905090810190601f168015611ae95780820380516001836020036101000a031916815260200191505b509250505060405180910390f35b348015611b0357600080fd5b50611b3060048036036020811015611b1a57600080fd5b8101908080359060200190929190505050614083565b6040518080602001828103825283818151815260200191508051906020019080838360005b83811015611b70578082015181840152602081019050611b55565b50505050905090810190601f168015611b9d5780820380516001836020036101000a031916815260200191505b509250505060405180910390f35b348015611bb757600080fd5b50611c7160048036036020811015611bce57600080fd5b8101908080359060200190640100000000811115611beb57600080fd5b820183602082011115611bfd57600080fd5b80359060200191846001830284011164010000000083111715611c1f57600080fd5b91908080601f016020809104026020016040519081016040528093929190818152602001838380828437600081840152601f19601f8201169050808301925050505050505091929192905050506141db565b6040518080602001828103825283818151815260200191508051906020019080838360005b83811015611cb1578082015181840152602081019050611c96565b50505050905090810190601f168015611cde5780820380516001836020036101000a031916815260200191505b509250505060405180910390f35b348015611cf857600080fd5b50611db260048036036020811015611d0f57600080fd5b8101908080359060200190640100000000811115611d2c57600080fd5b820183602082011115611d3e57600080fd5b80359060200191846001830284011164010000000083111715611d6057600080fd5b91908080601f016020809104026020016040519081016040528093929190818152602001838380828437600081840152601f19601f8201169050808301925050505050505091929192905050506145d2565b6040518080602001828103825283818151815260200191508051906020019080838360005b83811015611df2578082015181840152602081019050611dd7565b50505050905090810190601f168015611e1f5780820380516001836020036101000a031916815260200191505b509250505060405180910390f35b348015611e3957600080fd5b50611ef360048036036020811015611e5057600080fd5b8101908080359060200190640100000000811115611e6d57600080fd5b820183602082011115611e7f57600080fd5b80359060200191846001830284011164010000000083111715611ea157600080fd5b91908080601f016020809104026020016040519081016040528093929190818152602001838380828437600081840152601f19601f8201169050808301925050505050505091929192905050506146e2565b005b348015611f0157600080fd5b50611fbb60048036036020811015611f1857600080fd5b8101908080359060200190640100000000811115611f3557600080fd5b820183602082011115611f4757600080fd5b80359060200191846001830284011164010000000083111715611f6957600080fd5b91908080601f016020809104026020016040519081016040528093929190818152602001838380828437600081840152601f19601f8201169050808301925050505050505091929192905050506146e5565b6040518080602001828103825283818151815260200191508051906020019080838360005b83811015611ffb578082015181840152602081019050611fe0565b50505050905090810190601f1680156120285780820380516001836020036101000a031916815260200191505b509250505060405180910390f35b34801561204257600080fd5b506120fc6004803603602081101561205957600080fd5b810190808035906020019064010000000081111561207657600080fd5b82018360208201111561208857600080fd5b803590602001918460018302840111640100000000831117156120aa57600080fd5b91908080601f016020809104026020016040519081016040528093929190818152602001838380828437600081840152601f19601f8201169050808301925050505050505091929192905050506147f5565b6040518080602001828103825283818151815260200191508051906020019080838360005b8381101561213c578082015181840152602081019050612121565b50505050905090810190601f1680156121695780820380516001836020036101000a031916815260200191505b509250505060405180910390f35b34801561218357600080fd5b506122576004803603606081101561219a57600080fd5b81019080803590602001906401000000008111156121b757600080fd5b8201836020820111156121c957600080fd5b803590602001918460018302840111640100000000831117156121eb57600080fd5b91908080601f016020809104026020016040519081016040528093929190818152602001838380828437600081840152601f19601f820116905080830192505050505050509192919290803560ff169060200190929190803560ff169060200190929190505050614905565b6040518080602001828103825283818151815260200191508051906020019080838360005b8381101561229757808201518184015260208101905061227c565b50505050905090810190601f1680156122c45780820380516001836020036101000a031916815260200191505b509250505060405180910390f35b3480156122de57600080fd5b50612341600480360360408110156122f557600080fd5b81019080803573ffffffffffffffffffffffffffffffffffffffff169060200190929190803573ffffffffffffffffffffffffffffffffffffffff169060200190929190505050614921565b604051808215151515815260200191505060405180910390f35b34801561236757600080fd5b506124216004803603602081101561237e57600080fd5b810190808035906020019064010000000081111561239b57600080fd5b8201836020820111156123ad57600080fd5b803590602001918460018302840111640100000000831117156123cf57600080fd5b91908080601f016020809104026020016040519081016040528093929190818152602001838380828437600081840152601f19601f8201169050808301925050505050505091929192905050506149b5565b005b34801561242f57600080fd5b506124e96004803603602081101561244657600080fd5b810190808035906020019064010000000081111561246357600080fd5b82018360208201111561247557600080fd5b8035906020019184600183028401116401000000008311171561249757600080fd5b91908080601f016020809104026020016040519081016040528093929190818152602001838380828437600081840152601f19601f8201169050808301925050505050505091929192905050506149c1565b6040518080602001828103825283818151815260200191508051906020019080838360005b8381101561252957808201518184015260208101905061250e565b50505050905090810190601f1680156125565780820380516001836020036101000a031916815260200191505b509250505060405180910390f35b6000806000837bffffffffffffffffffffffffffffffffffffffffffffffffffffffff19167bffffffffffffffffffffffffffffffffffffffffffffffffffffffff1916815260200190815260200160002060009054906101000a900460ff169050919050565b606060098054600181600116156101000203166002900480601f0160208091040260200160405190810160405280929190818152602001828054600181600116156101000203166002900480156126635780601f1061263857610100808354040283529160200191612663565b820191906000526020600020905b81548152906001019060200180831161264657829003601f168201915b5050505050905090565b600061267882614ad1565b1515612712576040517f08c379a000000000000000000000000000000000000000000000000000000000815260040180806020018281038252602c8152602001807f4552433732313a20617070726f76656420717565727920666f72206e6f6e657881526020017f697374656e7420746f6b656e000000000000000000000000000000000000000081525060400191505060405180910390fd5b6002600083815260200190815260200160002060009054906101000a900473ffffffffffffffffffffffffffffffffffffffff169050919050565b6000612758826132f5565b90508073ffffffffffffffffffffffffffffffffffffffff168373ffffffffffffffffffffffffffffffffffffffff1614151515612824576040517f08c379a00000000000000000000000000000000000000000000000000000000081526004018080602001828103825260218152602001807f4552433732313a20617070726f76616c20746f2063757272656e74206f776e6581526020017f720000000000000000000000000000000000000000000000000000000000000081525060400191505060405180910390fd5b8073ffffffffffffffffffffffffffffffffffffffff163373ffffffffffffffffffffffffffffffffffffffff16148061286457506128638133614921565b5b15156128fe576040517f08c379a00000000000000000000000000000000000000000000000000000000081526004018080602001828103825260388152602001807f4552433732313a20617070726f76652063616c6c6572206973206e6f74206f7781526020017f6e6572206e6f7220617070726f76656420666f7220616c6c000000000000000081525060400191505060405180910390fd5b826002600084815260200190815260200160002060006101000a81548173ffffffffffffffffffffffffffffffffffffffff021916908373ffffffffffffffffffffffffffffffffffffffff160217905550818373ffffffffffffffffffffffffffffffffffffffff168273ffffffffffffffffffffffffffffffffffffffff167f8c5be1e5ebec7d5bd14f71427d1e84f3dd0314c0f7b2291e5b200ac8c7c3b92560405160405180910390a4505050565b6000600780549050905090565b6060600c826040518082805190602001908083835b6020831015156129f757805182526020820191506020810190506020830392506129d2565b6001836020036101000a0380198251168184511680821785525050505050509050019150509081526020016040518091039020600a018054600181600116156101000203166002900480601f016020809104026020016040519081016040528092919081815260200182805460018160011615610100020316600290048015612ac15780601f10612a9657610100808354040283529160200191612ac1565b820191906000526020600020905b815481529060010190602001808311612aa457829003601f168201915b50505050509050919050565b612ad73382614b43565b1515612b71576040517f08c379a00000000000000000000000000000000000000000000000000000000081526004018080602001828103825260318152602001807f4552433732313a207472616e736665722063616c6c6572206973206e6f74206f81526020017f776e6572206e6f7220617070726f76656400000000000000000000000000000081525060400191505060405180910390fd5b612b7c838383614c7c565b505050565b6060600c826040518082805190602001908083835b602083101515612bbb5780518252602082019150602081019050602083039250612b96565b6001836020036101000a03801982511681845116808217855250505050505090500191505090815260200160405180910390206002018054600181600116156101000203166002900480601f016020809104026020016040519081016040528092919081815260200182805460018160011615610100020316600290048015612c855780601f10612c5a57610100808354040283529160200191612c85565b820191906000526020600020905b815481529060010190602001808311612c6857829003601f168201915b50505050509050919050565b6000612c9c83613402565b82101515612d38576040517f08c379a000000000000000000000000000000000000000000000000000000000815260040180806020018281038252602b8152602001807f455243373231456e756d657261626c653a206f776e657220696e646578206f7581526020017f74206f6620626f756e647300000000000000000000000000000000000000000081525060400191505060405180910390fd5b600560008473ffffffffffffffffffffffffffffffffffffffff1673ffffffffffffffffffffffffffffffffffffffff16815260200190815260200160002082815481101515612d8457fe5b9060005260206000200154905092915050565b6060600c826040518082805190602001908083835b602083101515612dd15780518252602082019150602081019050602083039250612dac565b6001836020036101000a03801982511681845116808217855250505050505090500191505090815260200160405180910390206009018054600181600116156101000203166002900480601f016020809104026020016040519081016040528092919081815260200182805460018160011615610100020316600290048015612e9b5780601f10612e7057610100808354040283529160200191612e9b565b820191906000526020600020905b815481529060010190602001808311612e7e57829003601f168201915b50505050509050919050565b600e5481565b60009f9e505050505050505050505050505050565b612ede8383836020604051908101604052806000815250613ebc565b505050565b60606000424433604051602001808481526020018381526020018273ffffffffffffffffffffffffffffffffffffffff1673ffffffffffffffffffffffffffffffffffffffff166c01000000000000000000000000028152601401935050505060405160208183030381529060405280519060200120600190049050612f70612f6b82614ca0565b6141db565b91505090565b6000600c826040518082805190602001908083835b602083101515612fb05780518252602082019150602081019050602083039250612f8b565b6001836020036101000a0380198251168184511680821785525050505050509050019150509081526020016040518091039020600f0160009054906101000a900473ffffffffffffffffffffffffffffffffffffffff169050919050565b60006130186129b0565b821015156130b4576040517f08c379a000000000000000000000000000000000000000000000000000000000815260040180806020018281038252602c8152602001807f455243373231456e756d657261626c653a20676c6f62616c20696e646578206f81526020017f7574206f6620626f756e6473000000000000000000000000000000000000000081525060400191505060405180910390fd5b6007828154811015156130c357fe5b90600052602060002001549050919050565b6060600c826040518082805190602001908083835b60208310151561310f57805182526020820191506020810190506020830392506130ea565b6001836020036101000a03801982511681845116808217855250505050505090500191505090815260200160405180910390206000018054600181600116156101000203166002900480601f0160208091040260200160405190810160405280929190818152602001828054600181600116156101000203166002900480156131d95780601f106131ae576101008083540402835291602001916131d9565b820191906000526020600020905b8154815290600101906020018083116131bc57829003601f168201915b50505050509050919050565b6060600c826040518082805190602001908083835b60208310151561321f57805182526020820191506020810190506020830392506131fa565b6001836020036101000a03801982511681845116808217855250505050505090500191505090815260200160405180910390206004018054600181600116156101000203166002900480601f0160208091040260200160405190810160405280929190818152602001828054600181600116156101000203166002900480156132e95780601f106132be576101008083540402835291602001916132e9565b820191906000526020600020905b8154815290600101906020018083116132cc57829003601f168201915b50505050509050919050565b6000806001600084815260200190815260200160002060009054906101000a900473ffffffffffffffffffffffffffffffffffffffff169050600073ffffffffffffffffffffffffffffffffffffffff168173ffffffffffffffffffffffffffffffffffffffff16141515156133f9576040517f08c379a00000000000000000000000000000000000000000000000000000000081526004018080602001828103825260298152602001807f4552433732313a206f776e657220717565727920666f72206e6f6e657869737481526020017f656e7420746f6b656e000000000000000000000000000000000000000000000081525060400191505060405180910390fd5b80915050919050565b60008073ffffffffffffffffffffffffffffffffffffffff168273ffffffffffffffffffffffffffffffffffffffff16141515156134ce576040517f08c379a000000000000000000000000000000000000000000000000000000000815260040180806020018281038252602a8152602001807f4552433732313a2062616c616e636520717565727920666f7220746865207a6581526020017f726f20616464726573730000000000000000000000000000000000000000000081525060400191505060405180910390fd5b613515600360008473ffffffffffffffffffffffffffffffffffffffff1673ffffffffffffffffffffffffffffffffffffffff168152602001908152602001600020614df9565b9050919050565b6060600c826040518082805190602001908083835b6020831015156135565780518252602082019150602081019050602083039250613531565b6001836020036101000a03801982511681845116808217855250505050505090500191505090815260200160405180910390206003018054600181600116156101000203166002900480601f0160208091040260200160405190810160405280929190818152602001828054600181600116156101000203166002900480156136205780601f106135f557610100808354040283529160200191613620565b820191906000526020600020905b81548152906001019060200180831161360357829003601f168201915b50505050509050919050565b6060600a8054600181600116156101000203166002900480601f0160208091040260200160405190810160405280929190818152602001828054600181600116156101000203166002900480156136c45780601f10613699576101008083540402835291602001916136c4565b820191906000526020600020905b8154815290600101906020018083116136a757829003601f168201915b5050505050905090565b80600c836040518082805190602001908083835b60208310151561370757805182526020820191506020810190506020830392506136e2565b6001836020036101000a0380198251168184511680821785525050505050509050019150509081526020016040518091039020601001819055506001600c836040518082805190602001908083835b60208310151561377b5780518252602082019150602081019050602083039250613756565b6001836020036101000a038019825116818451168082178552505050505050905001915050908152602001604051809103902060110160006101000a81548160ff0219169083151502179055506001600e60008282540192505081905550600d829080600181540180825580915050906001820390600052602060002001600090919290919091509080519060200190613816929190615b0c565b50505050565b6060600c826040518082805190602001908083835b6020831015156138565780518252602082019150602081019050602083039250613831565b6001836020036101000a0380198251168184511680821785525050505050509050019150509081526020016040518091039020600c018054600181600116156101000203166002900480601f0160208091040260200160405190810160405280929190818152602001828054600181600116156101000203166002900480156139205780601f106138f557610100808354040283529160200191613920565b820191906000526020600020905b81548152906001019060200180831161390357829003601f168201915b50505050509050919050565b3373ffffffffffffffffffffffffffffffffffffffff168273ffffffffffffffffffffffffffffffffffffffff16141515156139d0576040517f08c379a00000000000000000000000000000000000000000000000000000000081526004018080602001828103825260198152602001807f4552433732313a20617070726f766520746f2063616c6c65720000000000000081525060200191505060405180910390fd5b80600460003373ffffffffffffffffffffffffffffffffffffffff1673ffffffffffffffffffffffffffffffffffffffff16815260200190815260200160002060008473ffffffffffffffffffffffffffffffffffffffff1673ffffffffffffffffffffffffffffffffffffffff16815260200190815260200160002060006101000a81548160ff0219169083151502179055508173ffffffffffffffffffffffffffffffffffffffff163373ffffffffffffffffffffffffffffffffffffffff167f17307eab39ab6107e8899845ad3d59bd9653f200f220920489ca2b5937696c3183604051808215151515815260200191505060405180910390a35050565b6060600c826040518082805190602001908083835b602083101515613b0b5780518252602082019150602081019050602083039250613ae6565b6001836020036101000a03801982511681845116808217855250505050505090500191505090815260200160405180910390206008018054600181600116156101000203166002900480601f016020809104026020016040519081016040528092919081815260200182805460018160011615610100020316600290048015613bd55780601f10613baa57610100808354040283529160200191613bd5565b820191906000526020600020905b815481529060010190602001808311613bb857829003601f168201915b50505050509050919050565b6060600c826040518082805190602001908083835b602083101515613c1b5780518252602082019150602081019050602083039250613bf6565b6001836020036101000a03801982511681845116808217855250505050505090500191505090815260200160405180910390206001018054600181600116156101000203166002900480601f016020809104026020016040519081016040528092919081815260200182805460018160011615610100020316600290048015613ce55780601f10613cba57610100808354040283529160200191613ce5565b820191906000526020600020905b815481529060010190602001808311613cc857829003601f168201915b50505050509050919050565b6060600c826040518082805190602001908083835b602083101515613d2b5780518252602082019150602081019050602083039250613d06565b6001836020036101000a03801982511681845116808217855250505050505090500191505090815260200160405180910390206006018054600181600116156101000203166002900480601f016020809104026020016040519081016040528092919081815260200182805460018160011615610100020316600290048015613df55780601f10613dca57610100808354040283529160200191613df5565b820191906000526020600020905b815481529060010190602001808311613dd857829003601f168201915b50505050509050919050565b600d81815481101515613e1057fe5b906000526020600020016000915090508054600181600116156101000203166002900480601f016020809104026020016040519081016040528092919081815260200182805460018160011615610100020316600290048015613eb45780601f10613e8957610100808354040283529160200191613eb4565b820191906000526020600020905b815481529060010190602001808311613e9757829003601f168201915b505050505081565b613ec7848484612acd565b613ed384848484614e07565b1515613f6d576040517f08c379a00000000000000000000000000000000000000000000000000000000081526004018080602001828103825260328152602001807f4552433732313a207472616e7366657220746f206e6f6e20455243373231526581526020017f63656976657220696d706c656d656e746572000000000000000000000000000081525060400191505060405180910390fd5b50505050565b6060600c826040518082805190602001908083835b602083101515613fad5780518252602082019150602081019050602083039250613f88565b6001836020036101000a03801982511681845116808217855250505050505090500191505090815260200160405180910390206005018054600181600116156101000203166002900480601f0160208091040260200160405190810160405280929190818152602001828054600181600116156101000203166002900480156140775780601f1061404c57610100808354040283529160200191614077565b820191906000526020600020905b81548152906001019060200180831161405a57829003601f168201915b50505050509050919050565b606061408e82614ad1565b1515614128576040517f08c379a000000000000000000000000000000000000000000000000000000000815260040180806020018281038252602f8152602001807f4552433732314d657461646174613a2055524920717565727920666f72206e6f81526020017f6e6578697374656e7420746f6b656e000000000000000000000000000000000081525060400191505060405180910390fd5b600b60008381526020019081526020016000208054600181600116156101000203166002900480601f0160208091040260200160405190810160405280929190818152602001828054600181600116156101000203166002900480156141cf5780601f106141a4576101008083540402835291602001916141cf565b820191906000526020600020905b8154815290600101906020018083116141b257829003601f168201915b50505050509050919050565b60606141e5615b8c565b610240604051908101604052806141ff8560006006614905565b81526020016142118560066008614905565b8152602001614223856008600e614905565b815260200161423585600e6010614905565b81526020016142478560106012614905565b81526020016142598560126018614905565b815260200161426b856018601e614905565b815260200161427d85601e6020614905565b815260200161428f8560206026614905565b81526020016142a1856026602c614905565b81526020016142b385602c602e614905565b81526020016142c585602e6030614905565b81526020016142d78560306032614905565b81526020016142e98560326034614905565b81526020016142fb8560346036614905565b81526020013373ffffffffffffffffffffffffffffffffffffffff1681526020016000815260200160001515815250905080600c846040518082805190602001908083835b6020831015156143655780518252602082019150602081019050602083039250614340565b6001836020036101000a038019825116818451168082178552505050505050905001915050908152602001604051809103902060008201518160000190805190602001906143b4929190615c30565b5060208201518160010190805190602001906143d1929190615c30565b5060408201518160020190805190602001906143ee929190615c30565b50606082015181600301908051906020019061440b929190615c30565b506080820151816004019080519060200190614428929190615c30565b5060a0820151816005019080519060200190614445929190615c30565b5060c0820151816006019080519060200190614462929190615c30565b5060e082015181600701908051906020019061447f929190615c30565b5061010082015181600801908051906020019061449d929190615c30565b506101208201518160090190805190602001906144bb929190615c30565b5061014082015181600a0190805190602001906144d9929190615c30565b5061016082015181600b0190805190602001906144f7929190615c30565b5061018082015181600c019080519060200190614515929190615c30565b506101a082015181600d019080519060200190614533929190615c30565b506101c082015181600e019080519060200190614551929190615c30565b506101e082015181600f0160006101000a81548173ffffffffffffffffffffffffffffffffffffffff021916908373ffffffffffffffffffffffffffffffffffffffff16021790555061020082015181601001556102208201518160110160006101000a81548160ff02191690831515021790555090505082915050919050565b6060600c826040518082805190602001908083835b60208310151561460c57805182526020820191506020810190506020830392506145e7565b6001836020036101000a0380198251168184511680821785525050505050509050019150509081526020016040518091039020600b018054600181600116156101000203166002900480601f0160208091040260200160405190810160405280929190818152602001828054600181600116156101000203166002900480156146d65780601f106146ab576101008083540402835291602001916146d6565b820191906000526020600020905b8154815290600101906020018083116146b957829003601f168201915b50505050509050919050565b50565b6060600c826040518082805190602001908083835b60208310151561471f57805182526020820191506020810190506020830392506146fa565b6001836020036101000a0380198251168184511680821785525050505050509050019150509081526020016040518091039020600e018054600181600116156101000203166002900480601f0160208091040260200160405190810160405280929190818152602001828054600181600116156101000203166002900480156147e95780601f106147be576101008083540402835291602001916147e9565b820191906000526020600020905b8154815290600101906020018083116147cc57829003601f168201915b50505050509050919050565b6060600c826040518082805190602001908083835b60208310151561482f578051825260208201915060208101905060208303925061480a565b6001836020036101000a03801982511681845116808217855250505050505090500191505090815260200160405180910390206007018054600181600116156101000203166002900480601f0160208091040260200160405190810160405280929190818152602001828054600181600116156101000203166002900480156148f95780601f106148ce576101008083540402835291602001916148f9565b820191906000526020600020905b8154815290600101906020018083116148dc57829003601f168201915b50505050509050919050565b6060614918848460ff168460ff1661502a565b90509392505050565b6000600460008473ffffffffffffffffffffffffffffffffffffffff1673ffffffffffffffffffffffffffffffffffffffff16815260200190815260200160002060008373ffffffffffffffffffffffffffffffffffffffff1673ffffffffffffffffffffffffffffffffffffffff16815260200190815260200160002060009054906101000a900460ff16905092915050565b6149be8161512b565b50565b6060600c826040518082805190602001908083835b6020831015156149fb57805182526020820191506020810190506020830392506149d6565b6001836020036101000a0380198251168184511680821785525050505050509050019150509081526020016040518091039020600d018054600181600116156101000203166002900480601f016020809104026020016040519081016040528092919081815260200182805460018160011615610100020316600290048015614ac55780601f10614a9a57610100808354040283529160200191614ac5565b820191906000526020600020905b815481529060010190602001808311614aa857829003601f168201915b50505050509050919050565b6000806001600084815260200190815260200160002060009054906101000a900473ffffffffffffffffffffffffffffffffffffffff169050600073ffffffffffffffffffffffffffffffffffffffff168173ffffffffffffffffffffffffffffffffffffffff161415915050919050565b6000614b4e82614ad1565b1515614be8576040517f08c379a000000000000000000000000000000000000000000000000000000000815260040180806020018281038252602c8152602001807f4552433732313a206f70657261746f7220717565727920666f72206e6f6e657881526020017f697374656e7420746f6b656e000000000000000000000000000000000000000081525060400191505060405180910390fd5b6000614bf3836132f5565b90508073ffffffffffffffffffffffffffffffffffffffff168473ffffffffffffffffffffffffffffffffffffffff161480614c6257508373ffffffffffffffffffffffffffffffffffffffff16614c4a8461266d565b73ffffffffffffffffffffffffffffffffffffffff16145b80614c735750614c728185614921565b5b91505092915050565b614c87838383615425565b614c91838261570a565b614c9b82826158ae565b505050565b60606000821415614ce8576040805190810160405280600181526020017f30000000000000000000000000000000000000000000000000000000000000008152509050614df4565b600082905060005b600082141515614d16578080600101915050600a82811515614d0e57fe5b049150614cf0565b6060816040519080825280601f01601f191660200182016040528015614d4b5781602001600182028038833980820191505090505b50905060006001830390505b600086141515614dec57600a86811515614d6d57fe5b066030017f010000000000000000000000000000000000000000000000000000000000000002828280600190039350815181101515614da857fe5b9060200101907effffffffffffffffffffffffffffffffffffffffffffffffffffffffffffff1916908160001a905350600a86811515614de457fe5b049550614d57565b819450505050505b919050565b600081600001549050919050565b6000614e288473ffffffffffffffffffffffffffffffffffffffff16615975565b1515614e375760019050615022565b60008473ffffffffffffffffffffffffffffffffffffffff1663150b7a02338887876040518563ffffffff167c0100000000000000000000000000000000000000000000000000000000028152600401808573ffffffffffffffffffffffffffffffffffffffff1673ffffffffffffffffffffffffffffffffffffffff1681526020018473ffffffffffffffffffffffffffffffffffffffff1673ffffffffffffffffffffffffffffffffffffffff16815260200183815260200180602001828103825283818151815260200191508051906020019080838360005b83811015614f2e578082015181840152602081019050614f13565b50505050905090810190601f168015614f5b5780820380516001836020036101000a031916815260200191505b5095505050505050602060405180830381600087803b158015614f7d57600080fd5b505af1158015614f91573d6000803e3d6000fd5b505050506040513d6020811015614fa757600080fd5b8101908080519060200190929190505050905063150b7a027c0100000000000000000000000000000000000000000000000000000000027bffffffffffffffffffffffffffffffffffffffffffffffffffffffff1916817bffffffffffffffffffffffffffffffffffffffffffffffffffffffff1916149150505b949350505050565b60608084905060608484036040519080825280601f01601f1916602001820160405280156150675781602001600182028038833980820191505090505b50905060008590505b8481101561511e57828181518110151561508657fe5b9060200101517f010000000000000000000000000000000000000000000000000000000000000090047f010000000000000000000000000000000000000000000000000000000000000002828783038151811015156150e157fe5b9060200101907effffffffffffffffffffffffffffffffffffffffffffffffffffffffffffff1916908160001a9053508080600101915050615070565b5080925050509392505050565b600c816040518082805190602001908083835b602083101515615163578051825260208201915060208101905060208303925061513e565b6001836020036101000a038019825116818451168082178552505050505050905001915050908152602001604051809103902060110160009054906101000a900460ff1615156151b257600080fd5b6000600e541115156151c357600080fd5b60008090506000600c836040518082805190602001908083835b60208310151561520257805182526020820191506020810190506020830392506151dd565b6001836020036101000a0380198251168184511680821785525050505050509050019150509081526020016040518091039020601001819055506000600c836040518082805190602001908083835b6020831015156152765780518252602082019150602081019050602083039250615251565b6001836020036101000a038019825116818451168082178552505050505050905001915050908152602001604051809103902060110160006101000a81548160ff0219169083151502179055506001600e5414156152fe57600d80548015156152db57fe5b6001900381819060005260206000200160006152f79190615cb0565b9055615410565b60008090505b6001600e540381101561540e578280519060200120600d8281548110151561532857fe5b90600052602060002001604051808280546001816001161561010002031660029004801561538d5780601f1061536b57610100808354040283529182019161538d565b820191906000526020600020905b815481529060010190602001808311615379575b5050915050604051809103902014156153a557600191505b811561540157600d600182018154811015156153bd57fe5b90600052602060002001600d828154811015156153d657fe5b9060005260206000200190805460018160011615610100020316600290046153ff929190615cf8565b505b8080600101915050615304565b505b6001600e600082825403925050819055505050565b8273ffffffffffffffffffffffffffffffffffffffff16615445826132f5565b73ffffffffffffffffffffffffffffffffffffffff161415156154f6576040517f08c379a00000000000000000000000000000000000000000000000000000000081526004018080602001828103825260298152602001807f4552433732313a207472616e73666572206f6620746f6b656e2074686174206981526020017f73206e6f74206f776e000000000000000000000000000000000000000000000081525060400191505060405180910390fd5b600073ffffffffffffffffffffffffffffffffffffffff168273ffffffffffffffffffffffffffffffffffffffff16141515156155c1576040517f08c379a00000000000000000000000000000000000000000000000000000000081526004018080602001828103825260248152602001807f4552433732313a207472616e7366657220746f20746865207a65726f2061646481526020017f726573730000000000000000000000000000000000000000000000000000000081525060400191505060405180910390fd5b6155ca81615988565b615611600360008573ffffffffffffffffffffffffffffffffffffffff1673ffffffffffffffffffffffffffffffffffffffff168152602001908152602001600020615a48565b615658600360008473ffffffffffffffffffffffffffffffffffffffff1673ffffffffffffffffffffffffffffffffffffffff168152602001908152602001600020615a6b565b816001600083815260200190815260200160002060006101000a81548173ffffffffffffffffffffffffffffffffffffffff021916908373ffffffffffffffffffffffffffffffffffffffff160217905550808273ffffffffffffffffffffffffffffffffffffffff168473ffffffffffffffffffffffffffffffffffffffff167fddf252ad1be2c89b69c2b068fc378daa952ba7f163c4a11628f55a4df523b3ef60405160405180910390a4505050565b60006157626001600560008673ffffffffffffffffffffffffffffffffffffffff1673ffffffffffffffffffffffffffffffffffffffff16815260200190815260200160002080549050615a8190919063ffffffff16565b90506000600660008481526020019081526020016000205490508181141515615855576000600560008673ffffffffffffffffffffffffffffffffffffffff1673ffffffffffffffffffffffffffffffffffffffff168152602001908152602001600020838154811015156157d357fe5b9060005260206000200154905080600560008773ffffffffffffffffffffffffffffffffffffffff1673ffffffffffffffffffffffffffffffffffffffff1681526020019081526020016000208381548110151561582d57fe5b9060005260206000200181905550816006600083815260200190815260200160002081905550505b600560008573ffffffffffffffffffffffffffffffffffffffff1673ffffffffffffffffffffffffffffffffffffffff1681526020019081526020016000208054809190600190036158a79190615d7f565b5050505050565b600560008373ffffffffffffffffffffffffffffffffffffffff1673ffffffffffffffffffffffffffffffffffffffff168152602001908152602001600020805490506006600083815260200190815260200160002081905550600560008373ffffffffffffffffffffffffffffffffffffffff1673ffffffffffffffffffffffffffffffffffffffff1681526020019081526020016000208190806001815401808255809150509060018203906000526020600020016000909192909190915055505050565b600080823b905060008111915050919050565b600073ffffffffffffffffffffffffffffffffffffffff166002600083815260200190815260200160002060009054906101000a900473ffffffffffffffffffffffffffffffffffffffff1673ffffffffffffffffffffffffffffffffffffffff16141515615a455760006002600083815260200190815260200160002060006101000a81548173ffffffffffffffffffffffffffffffffffffffff021916908373ffffffffffffffffffffffffffffffffffffffff1602179055505b50565b615a6060018260000154615a8190919063ffffffff16565b816000018190555050565b6001816000016000828254019250508190555050565b6000828211151515615afb576040517f08c379a000000000000000000000000000000000000000000000000000000000815260040180806020018281038252601e8152602001807f536166654d6174683a207375627472616374696f6e206f766572666c6f77000081525060200191505060405180910390fd5b600082840390508091505092915050565b828054600181600116156101000203166002900490600052602060002090601f016020900481019282601f10615b4d57805160ff1916838001178555615b7b565b82800160010185558215615b7b579182015b82811115615b7a578251825591602001919060010190615b5f565b5b509050615b889190615dab565b5090565b61024060405190810160405280606081526020016060815260200160608152602001606081526020016060815260200160608152602001606081526020016060815260200160608152602001606081526020016060815260200160608152602001606081526020016060815260200160608152602001600073ffffffffffffffffffffffffffffffffffffffff168152602001600081526020016000151581525090565b828054600181600116156101000203166002900490600052602060002090601f016020900481019282601f10615c7157805160ff1916838001178555615c9f565b82800160010185558215615c9f579182015b82811115615c9e578251825591602001919060010190615c83565b5b509050615cac9190615dab565b5090565b50805460018160011615610100020316600290046000825580601f10615cd65750615cf5565b601f016020900490600052602060002090810190615cf49190615dab565b5b50565b828054600181600116156101000203166002900490600052602060002090601f016020900481019282601f10615d315780548555615d6e565b82800160010185558215615d6e57600052602060002091601f016020900482015b82811115615d6d578254825591600101919060010190615d52565b5b509050615d7b9190615dab565b5090565b815481835581811115615da657818360005260206000209182019101615da59190615dab565b5b505050565b615dcd91905b80821115615dc9576000816000905550600101615db1565b5090565b9056fea165627a7a72305820c87e9e17ae9d757232741c1eb4006da31f3a7f7462ad6adba7e61be4c40de7350029",
  "source": "pragma solidity ^0.5.0;\n\nimport \"./ERC721Full.sol\";\n\ncontract Pisi is ERC721Full {\n    // string[] public colors;\n    // mapping(string => bool) _colorExists;\n\n    struct PisiAttributes {\n        string eyeColor;\n        string eyeSize;\n        \n        string headColor;\n        string headSize;\n        \n        string beardSize;\n        \n        string tailColor;\n        string tailAccentColor;\n        string tailSize;\n        \n        string bodyColor;\n        string bodyAccentColor;\n\n        string stripeType;\n        \n        string hungerness;\n        string fragility;\n        string fertility;\n        string appeal;\n\n        address payable owner;\n        uint256 price;\n        bool onSale;\n    }\n    \n    mapping(string => PisiAttributes) _pisiCollection;\n\n    string[] public _pisiHashesToSell;\n    uint256 public onSaleCount;\n\n    constructor() ERC721Full(\"Pisi\", \"PISI\") public {\n\n    }\n\n    function mint(string memory _color) public {\n        // // Require unique color\n        // require(!_colorExists[_color]);\n        // // Color - add it\n        // uint _id = colors.push(_color);\n        // // Call the mint function\n        // _mint(msg.sender, _id);\n        // // Color - track it\n        // _colorExists[_color] = true;\n    }\n\n    function decodeAttributes(string memory hashedAttr) public returns (string memory){\n        PisiAttributes memory pa = PisiAttributes(\n            getNumberBetween(hashedAttr, 0, 6), // eyeColor, \n            getNumberBetween(hashedAttr, 6, 8), // eyeSize, \n            \n            getNumberBetween(hashedAttr, 8, 14), // headColor, \n            getNumberBetween(hashedAttr, 14, 16), // headSize, \n            \n            getNumberBetween(hashedAttr, 16, 18), // beardSize, *****\n            \n            getNumberBetween(hashedAttr, 18, 24), // tailColor, \n            getNumberBetween(hashedAttr, 24, 30), // tailAccentColor, *****\n            getNumberBetween(hashedAttr, 30, 32), // tailSize, \n            \n            getNumberBetween(hashedAttr, 32, 38), // bodyColor, \n            getNumberBetween(hashedAttr, 38, 44), // bodyAccentColor, \n    \n            getNumberBetween(hashedAttr, 44, 46), // stripeType, \n\n            getNumberBetween(hashedAttr, 46, 48), // hungerness, \n            getNumberBetween(hashedAttr, 48, 50), // fragility, \n            getNumberBetween(hashedAttr, 50, 52), // fertility, \n            getNumberBetween(hashedAttr, 52, 54), // appeal\n\n            msg.sender,\n            0,\n            false\n        );\n\n        _pisiCollection[hashedAttr] = pa;\n\n        return hashedAttr;\n    }\n\n    function encodeAttributes(\n        uint24 eyeColor,\n        uint8 eyeSize,\n        uint24 headColor,\n        uint8 headSize,\n        uint8 beardSize,\n        uint24 tailColor,\n        uint24 tailAccentColor,\n        uint8 tailSize,\n        uint24 bodyColor,\n        uint24 bodyAccentColor,\n        uint8 stripeType,\n        uint8 hungerness,\n        uint8 fragility,\n        uint8 fertility,\n        uint8 appeal\n        ) public returns (uint216){\n        \n    }\n\n    function randomAttributes() public returns (string memory) {\n        uint256 rand = uint256(keccak256(abi.encodePacked(block.timestamp, block.difficulty, msg.sender)));\n\n        return decodeAttributes(uint2str(rand));\n    }\n\n    function putToSale(string memory pisiHash, uint256 price) public {\n        // require(_pisiCollection[pisiHash].owner == msg.sender);\n\n        _pisiCollection[pisiHash].price = price;\n        _pisiCollection[pisiHash].onSale = true;\n        onSaleCount += 1;\n        \n        _pisiHashesToSell.push(pisiHash);\n    }\n\n    function putDownFromSale(string memory pisiHash) public {\n        // require(_pisiCollection[pisiHash].owner == msg.sender);\n\n        removeElement(pisiHash);\n    }\n\n    function transferPisi(string memory pisiHash) internal {\n        require(_pisiCollection[pisiHash].price <= msg.value);\n        require(_pisiCollection[pisiHash].onSale == true);\n\n        _pisiCollection[pisiHash].owner = msg.sender;\n\n        removeElement(pisiHash);\n    }\n\n    // HELPER FUNCTIONS\n\n    function removeElement(string memory pisiHashToRemove) internal {\n        // require(_pisiCollection[pisiHashToRemove].owner == msg.sender);\n        require(_pisiCollection[pisiHashToRemove].onSale);\n        require(onSaleCount > 0);\n\n        bool move = false;\n        \n        _pisiCollection[pisiHashToRemove].price = 0;\n        _pisiCollection[pisiHashToRemove].onSale = false;\n\n        if(onSaleCount == 1){\n            _pisiHashesToSell.pop();\n        } else{\n            for (uint i = 0; i < onSaleCount - 1; i++){\n                if(keccak256(bytes(_pisiHashesToSell[i])) == keccak256(bytes(pisiHashToRemove))){\n                    move = true;\n                }\n\n                if(move){\n                    _pisiHashesToSell[i] = _pisiHashesToSell[i + 1];\n                }\n            }\n        }\n\n        onSaleCount -= 1;\n    }\n    \n    function uint2str(uint _i) internal pure returns (string memory _uintAsString) {\n        if (_i == 0) {\n            return \"0\";\n        }\n        uint j = _i;\n        uint len;\n        while (j != 0) {\n            len++;\n            j /= 10;\n        }\n        bytes memory bstr = new bytes(len);\n        uint k = len - 1;\n        while (_i != 0) {\n            bstr[k--] = byte(uint8(48 + _i % 10));\n            _i /= 10;\n        }\n        return string(bstr);\n    }\n\n    function uint2hexstr(uint i) internal pure returns (string memory) {\n        if (i == 0) return \"0\";\n        uint j = i;\n        uint length;\n        while (j != 0) {\n            length++;\n            j = j >> 4;\n        }\n        uint mask = 15;\n        bytes memory bstr = new bytes(length);\n        uint k = length - 1;\n        uint numStart = 48;\n        uint letterStarn = 65;\n        while (i != 0){\n            uint curr = (i & mask);\n            bstr[k--] = curr > 9 ? byte(uint8(55 + curr)) : byte(uint8(48 + curr)); // 55 = 65 - 10\n            i = i >> 4;\n        }\n        return string(bstr);\n    }\n\n    function getNumberBetween(string memory fN, uint8 start, uint8 end) public pure returns(string memory) {\n        return substring(fN, start, end);\n    }\n\n    function getEyeColor(string memory pisiHash) public view returns(string memory) {\n        return _pisiCollection[pisiHash].eyeColor;\n    }\n\n    function getEyeSize(string memory pisiHash) public view returns(string memory) {\n        return _pisiCollection[pisiHash].eyeSize;\n    }\n\n    function getHeadColor(string memory pisiHash) public view returns(string memory) {\n        return _pisiCollection[pisiHash].headColor;\n    }\n\n    function getHeadSize(string memory pisiHash) public view returns(string memory) {\n        return _pisiCollection[pisiHash].headSize;\n    }\n\n    function getBeardSize(string memory pisiHash) public view returns(string memory) {\n        return _pisiCollection[pisiHash].beardSize;\n    }\n\n    function getTailColor(string memory pisiHash) public view returns(string memory) {\n        return _pisiCollection[pisiHash].tailColor;\n    }\n\n    function getTailAccentColor(string memory pisiHash) public view returns(string memory) {\n        return _pisiCollection[pisiHash].tailAccentColor;\n    }\n\n    function getTailSize(string memory pisiHash) public view returns(string memory) {\n        return _pisiCollection[pisiHash].tailSize;\n    }\n\n    function getBodyColor(string memory pisiHash) public view returns(string memory) {\n        return _pisiCollection[pisiHash].bodyColor;\n    }\n\n    function getBodyAccentColor(string memory pisiHash) public view returns(string memory) {\n        return _pisiCollection[pisiHash].bodyAccentColor;\n    }\n\n    function getStripeType(string memory pisiHash) public view returns(string memory) {\n        return _pisiCollection[pisiHash].stripeType;\n    }\n\n    function getHungerness(string memory pisiHash) public view returns(string memory) {\n        return _pisiCollection[pisiHash].hungerness;\n    }\n\n    function getFragility(string memory pisiHash) public view returns(string memory) {\n        return _pisiCollection[pisiHash].fragility;\n    }\n\n    function getFertility(string memory pisiHash) public view returns(string memory) {\n        return _pisiCollection[pisiHash].fertility;\n    }\n\n    function getAppeal(string memory pisiHash) public view returns(string memory) {\n        return _pisiCollection[pisiHash].appeal;\n    }\n\n    function getOwner(string memory pisiHash) public view returns(address) {\n        return _pisiCollection[pisiHash].owner;\n    }\n\n    function substring(string memory str, uint startIndex, uint endIndex) pure internal returns (string memory) {\n        bytes memory strBytes = bytes(str);\n        bytes memory result = new bytes(endIndex-startIndex);\n        for(uint i = startIndex; i < endIndex; i++) {\n            result[i-startIndex] = strBytes[i];\n        }\n        return string(result);\n    }\n}",
  "sourcePath": "D:/CryptoPissies/CryptoPissies/src/contracts/Pisi.sol",
  "compiler": {
    "name": "solc",
    "version": "0.5.0+commit.1d4f565a.Emscripten.clang"
  },
  "schemaVersion": "3.0.2",
  "updatedAt": "2021-05-16T11:44:09.383Z",
  "devdoc": {
    "methods": {
      "approve(address,uint256)": {
        "details": "Approves another address to transfer the given token ID The zero address indicates there is no approved address. There can only be one approved address per token at a given time. Can only be called by the token owner or an approved operator.",
        "params": {
          "to": "address to be approved for the given token ID",
          "tokenId": "uint256 ID of the token to be approved"
        }
      },
      "balanceOf(address)": {
        "details": "Gets the balance of the specified address.",
        "params": {
          "owner": "address to query the balance of"
        },
        "return": "uint256 representing the amount owned by the passed address"
      },
      "getApproved(uint256)": {
        "details": "Gets the approved address for a token ID, or zero if no address set Reverts if the token ID does not exist.",
        "params": {
          "tokenId": "uint256 ID of the token to query the approval of"
        },
        "return": "address currently approved for the given token ID"
      },
      "isApprovedForAll(address,address)": {
        "details": "Tells whether an operator is approved by a given owner.",
        "params": {
          "operator": "operator address which you want to query the approval of",
          "owner": "owner address which you want to query the approval of"
        },
        "return": "bool whether the given operator is approved by the given owner"
      },
      "name()": {
        "details": "Gets the token name.",
        "return": "string representing the token name"
      },
      "ownerOf(uint256)": {
        "details": "Gets the owner of the specified token ID.",
        "params": {
          "tokenId": "uint256 ID of the token to query the owner of"
        },
        "return": "address currently marked as the owner of the given token ID"
      },
      "safeTransferFrom(address,address,uint256)": {
        "details": "Safely transfers the ownership of a given token ID to another address If the target address is a contract, it must implement `onERC721Received`, which is called upon a safe transfer, and return the magic value `bytes4(keccak256(\"onERC721Received(address,address,uint256,bytes)\"))`; otherwise, the transfer is reverted. Requires the msg.sender to be the owner, approved, or operator",
        "params": {
          "from": "current owner of the token",
          "to": "address to receive the ownership of the given token ID",
          "tokenId": "uint256 ID of the token to be transferred"
        }
      },
      "safeTransferFrom(address,address,uint256,bytes)": {
        "details": "Safely transfers the ownership of a given token ID to another address If the target address is a contract, it must implement `onERC721Received`, which is called upon a safe transfer, and return the magic value `bytes4(keccak256(\"onERC721Received(address,address,uint256,bytes)\"))`; otherwise, the transfer is reverted. Requires the msg.sender to be the owner, approved, or operator",
        "params": {
          "_data": "bytes data to send along with a safe transfer check",
          "from": "current owner of the token",
          "to": "address to receive the ownership of the given token ID",
          "tokenId": "uint256 ID of the token to be transferred"
        }
      },
      "setApprovalForAll(address,bool)": {
        "details": "Sets or unsets the approval of a given operator An operator is allowed to transfer all tokens of the sender on their behalf.",
        "params": {
          "approved": "representing the status of the approval to be set",
          "to": "operator address to set the approval"
        }
      },
      "supportsInterface(bytes4)": {
        "details": "See `IERC165.supportsInterface`.     * Time complexity O(1), guaranteed to always use less than 30 000 gas."
      },
      "symbol()": {
        "details": "Gets the token symbol.",
        "return": "string representing the token symbol"
      },
      "tokenByIndex(uint256)": {
        "details": "Gets the token ID at a given index of all the tokens in this contract Reverts if the index is greater or equal to the total number of tokens.",
        "params": {
          "index": "uint256 representing the index to be accessed of the tokens list"
        },
        "return": "uint256 token ID at the given index of the tokens list"
      },
      "tokenOfOwnerByIndex(address,uint256)": {
        "details": "Gets the token ID at a given index of the tokens list of the requested owner.",
        "params": {
          "index": "uint256 representing the index to be accessed of the requested tokens list",
          "owner": "address owning the tokens list to be accessed"
        },
        "return": "uint256 token ID at the given index of the tokens list owned by the requested address"
      },
      "tokenURI(uint256)": {
        "details": "Returns an URI for a given token ID. Throws if the token ID does not exist. May return an empty string.",
        "params": {
          "tokenId": "uint256 ID of the token to query"
        }
      },
      "totalSupply()": {
        "details": "Gets the total amount of tokens stored by the contract.",
        "return": "uint256 representing the total amount of tokens"
      },
      "transferFrom(address,address,uint256)": {
        "details": "Transfers the ownership of a given token ID to another address. Usage of this method is discouraged, use `safeTransferFrom` whenever possible. Requires the msg.sender to be the owner, approved, or operator.",
        "params": {
          "from": "current owner of the token",
          "to": "address to receive the ownership of the given token ID",
          "tokenId": "uint256 ID of the token to be transferred"
        }
      }
    }
  },
  "userdoc": {
    "methods": {}
  }
}